:100000000C94BA050C94D7050C94D7050C94F32DD9
:100010000C94D7050C94D7050C94D7050C94D705F0
:100020000C94D7050C94D7050C9432160C94E81A4E
:100030000C94D9260C94D7050C94D7050C94D705AD
:100040000C94D7050C94D7050C94D7050C94D705C0
:100050000C94D7050C940B170C94D7050C94D7056A
:100060000C94D7050C94D7050C94D7050C94D705A0
:100070000C94D7050C94D7050C94D7050C94D70590
:100080000C94D7050C94D7050C94D7050C94D70580
:100090000C94D7050C94D7050C94D7050C94D70570
:1000A0000C94D7050C94D7050C94D7052B0014009D
:1000B0001A00080015001700E000040016000700F1
:1000C00009000A00E1001D001B00060019000500E0
:1000D000000000000000E30001512C002A00130082
:1000E00012000C0018001C00340033000F000E003A
:1000F0000D000B00290038003700360010001100F9
:10010000000000000000E600025128002B001E0045
:100110001F00200021002200E0000000000000007D
:1001200000000000E10000000000000000000000EE
:10013000000000000000E30001002C002A0027005E
:100140002600250024002300000000004F0052007C
:1001500051005000000000000000000000000000FE
:10016000000000000000E600035128002B001E02E2
:100170001F02200221022202E00000000000000015
:1001800000000000E100000000000000000000008E
:10019000000000000000E30003512C002A002702A9
:1001A00026022502240223023500310030002F00F0
:1001B0002E002D003502310230022F022E022D02B8
:1001C000000000000000E60001002800005C0000C4
:1001D0000000000000000000C35CC65CC85CCA5C94
:1001E00000000000C45CC75CC95CCB5C0000000080
:1001F000000000000000E30001002C0000000000EF
:1002000000000000000000000000000000000000EE
:1002100000000000000000000000000000000000DE
:10022000000000000000E6000100280000DA028162
:10023000FFD9F1DB20A4A62EAF00A0C000A1C8000A
:10024000AED580A81FD300408D1420001E0F0500DE
:10025000047F3F1F643214643214783C1E1E140A5B
:100260000541646A757374005261697365004C6F6F
:100270007765720044656661756C74004C617965E0
:10028000723A2000808182838485868788898A8B60
:100290008C8D8E8F9091929394A0A1A2A3A4A5A6D9
:1002A000A7A8A9AAABACADAEAFB0B1B2B3B4C0C150
:1002B000C2C3C4C5C6C7C8C9CACBCCCDCECFD0D1A6
:1002C000D2D3D400000101010101010101010202A8
:1002D00002020202020202030303030303030304F4
:1002E00004040404040405050505050606060606BF
:1002F000070707070708080808090909090A0A0A79
:100300000B0B0B0C0C0C0D0D0D0E0E0E0F0F0F101A
:1003100010111111121213131414151516161717A4
:10032000181819191A1A1B1B1C1D1D1E1E1F202010
:10033000212222232424252626272829292A2B2C5A
:100340002D2D2E2F30313232333435363738393A7D
:100350003B3C3D3E3F404142434445464748494A75
:100360004C4D4E4F50515354555658595A5B5D5E43
:100370005F616264656668696B6C6D6F70727375DE
:1003800077787A7B7D7E8082838587888A8C8E8F42
:1003900091939596989A9C9EA0A2A3A5A7A9ABAD70
:1003A000AFB1B3B5B7BABCBEC0C2C4C6C9CBCDCF5E
:1003B000D1D4D6D8DBDDDFE2E4E7E9EBEEF0F3F50C
:1003C000F8FAFDFFFFAA7F55402223252628292A77
:1003D0002C2D2F3032333536383A3B3D3E404243A8
:1003E0004547494A4C4E5051535557595A5C5E60E7
:1003F00062646668696B6D6F71737577797B7D7FF9
:1004000081838587898A8C8E90929496989A9C9EF7
:100410009FA1A3A5A7A8AAACAEAFB1B3B4B6B8B913
:10042000BBBCBEBFC1C2C3C5C6C7C9CACBCCCDCE7B
:10043000D0D1D2D2D3D4D5D6D7D7D8D9D9DADADB5E
:10044000DBDBDCDCDCDCDCDDDDDDDDDCDCDCDCDCEA
:10045000DBDBDBDADAD9D9D8D7D7D6D5D4D3D2D229
:10046000D1D0CECDCCCBCAC9C7C6C5C3C2C1BFBE11
:10047000BCBBB9B8B6B4B3B1AFAEACAAA8A7A5A37C
:10048000A19F9E9C9A98969492908E8C8A8987853B
:1004900083817F7D7B79777573716F6D6B6968661A
:1004A0006462605E5C5A5957555351504E4C4A49EC
:1004B00047454342403E3D3B3A3836353332302F94
:1004C0002D2C2A29282625232200AF00AE0501095C
:1004D00002A10185020901A10005091901290815D8
:1004E00000250195087501810205010930093115C2
:1004F00081257F95027508810609381581257F952C
:100500000175088106050C0A38021581257F9501C1
:1005100075088106C0C005010980A1018503190184
:100520002AB700150126B700950175108100C00596
:100530000C0901A101850419012AA002150126A0B8
:1005400002950175108100C005010906A10185060B
:10055000050719E029E715002501950875018102B5
:100560000507190029EF1500250195F07501810295
:100570000508190129059505750191029501750375
:100580009101C005010906A101050719E029E71538
:100590000025019508750181029501750881010505
:1005A00007190029FF150026FF0095067508810030
:1005B0000508190129059505750191029501750335
:1005C0009101C009023B00020100A0FA09040000E9
:1005D000010301010009211101000122400007056A
:1005E0008103080001090401000103000000092142
:1005F0001101000122B6000705820320000112014B
:100600000002000000085346010001000102000141
:100610000C0343006F0072006E00650000001003C1
:1006200066006F006F007300740061006E000000D0
:10063000040309040000000000003E5B4F5B3E0025
:100640003E6B4F6B3E001C3E7C3E1C00183C7E3CCB
:1006500018001C577D571C001C5E7F5E1C00001894
:100660003C180000FFE7C3E7FF0000182418000053
:10067000FFE7DBE7FF0030483A060E00262979291C
:100680002600407F05050700407F05253F005A3CB6
:10069000E73C5A007F3E1C1C0800081C1C3E7F00E3
:1006A00014227F2214005F5F005F5F0006097F0154
:1006B0007F00006689956A0060606060600094A2B7
:1006C000FFA2940008047E04080010207E20100081
:1006D00008082A1C0800081C2A0808001E10101010
:1006E00010000C1E0C1E0C0030383E383000060E78
:1006F0003E0E060000000000000000005F00000049
:10070000000700070000147F147F1400242A7F2AAA
:100710001200231308646200364956205000000876
:1007200007030000001C224100000041221C0000C1
:100730002A1C7F1C2A0008083E0808000080703030
:100740000000080808080800000060600000201091
:10075000080402003E5149453E0000427F4000002F
:100760007249494946002141494D33001814127F0E
:1007700010002745454539003C4A4949310041218F
:1007800011090700364949493600464949291E00E2
:100790000000140000000040340000000008142293
:1007A0004100141414141400004122140800020122
:1007B000590906003E415D594E007C1211127C0021
:1007C0007F49494936003E41414122007F41414134
:1007D0003E007F49494941007F09090901003E4126
:1007E000415173007F0808087F0000417F410000ED
:1007F0002040413F01007F08142241007F404040DB
:1008000040007F021C027F007F0408107F003E41F1
:1008100041413E007F09090906003E4151215E0029
:100820007F091929460026494949320003017F0101
:1008300003003F4040403F001F2040201F003F403A
:1008400038403F0063140814630003047804030075
:100850006159494D4300007F4141410002040810A5
:100860002000004141417F00040201020400404099
:100870004040400000030708000020545478400026
:100880007F284444380038444444280038444428ED
:100890007F0038545454180000087E0902001824C0
:1008A000241C78007F080404780000447D40000088
:1008B0002040403D00007F102844000000417F4060
:1008C00000007C04780478007C0804047800384434
:1008D000444438007C1824241800182424187C0070
:1008E0007C080404080048545454240004043F4481
:1008F00024003C4040207C001C2040201C003C4048
:1009000030403C004428102844004C9090907C00DB
:100910004464544C44000008364100000000770055
:1009200000000041360800000201020402003C26DB
:1009300023263C0000000000000000000000000032
:1009400000000000C0E0F0F8F81800C0F0FCFEFF66
:10095000FFFFFFFFFFFF7E0000000000000000001F
:1009600080C0E0E0E0E0E0E0E0E0C0800000000007
:1009700080C0E0E0E0E0E0E0E0E0C080000000E017
:10098000E0C0C0E0E0E0E00000E0E0C0C0E0E0E0A7
:10099000E0E0C0800000000080C0E0E0E0E0E0E0D7
:1009A000E0E0C08000000000000000000000000047
:1009B0000000E0F0F0F0E0ECEEF7F37020007C7C5B
:1009C0007C7E007E7E7E7F7F7F000080C0E07E5B3D
:1009D0004F5BFEC00000C000DCD7DEDEDED7DC00EF
:1009E000C000000000000000000000000000000047
:1009F00000000000000000000000000000F8FCFE05
:100A0000FFE000FFFFFFFFFFFF80FFFFFFFFFFFF93
:100A1000FFFFFF1F0701000000000000000000FFB3
:100A2000FFFF8100000000000081C3C3C30000FF7E
:100A3000FFFF8100000000000081FFFFFF0000FFBA
:100A4000FFFF01000000000000FFFFFF01000000A9
:100A50000001FFFFFF0000FFFFFF9D1C1C1C1C1C72
:100A60001C9DDFDFDF000000000000000000000030
:100A700000000F1F3F7F7F7F7F7F3F1E0C001F1FE7
:100A80001F3F003F3F3F7F7F7F00307B7F783020DC
:100A90002030787F3B0003000F7F0F0F0F7F0F0088
:100AA0000300000000000000000000000000000043
:100AB00000000000000000000000000000030F1F05
:100AC0003F3F3F3F1F1F3F3F7F7F7F3F3F1F3F7F96
:100AD0007F7F7F7C7878381C0F00000000000000CA
:100AE00001030707070707070707030100000000C6
:100AF00001030707070707070707030100000007AF
:100B000007070000000000000007070700000000C2
:100B10000000070707000000010307070707070792
:100B200007070301000000000000000000000000B3
:100B300000000000000000000000000000000000B5
:100B400000000000000000000000000000000000A5
:100B50000000000000000000000000000000000095
:100B60000000000000000000000000000000000085
:100B70000000000011241FBECFEFDAE0DEBFCDBFC2
:100B800027E0AAE0B2E001C01D92AD35B207E1F75F
:100B900012E0A0E0B1E0ECE2F7E602C005900D92B1
:100BA000AA30B107D9F70E9400270C946F330C9438
:100BB0000000FC01AC014C5F5F4F8FEF91E321918E
:100BC000822728E030E087FF09C0880F892721505D
:100BD0003109C9F7E417F50791F70895880FF7CFA2
:100BE000E8EDF0E080818E7F80831092E200109229
:100BF000DA001092E100A0EEB0E08C9181608C935D
:100C000080818F77808319BCA7EDB0E08C918E7FB7
:100C10008C9380818F7E808310922005089520918F
:100C2000E4003091E50095E6A9012091EC00822FC7
:100C3000817020FF06C08091E80080FF06C080E040
:100C400008952091E80022FD1AC08091450588236F
:100C500089F0853089F08091EB0085FD0FC02091EF
:100C6000E4003091E50042175307F9F29150E1F6A4
:100C700084E0089582E0089583E0089581E0089576
:100C8000EF92FF920F931F93CF937C018B010E94F1
:100C90000F06C82F811117C08091E80085FD0BC099
:100CA0008091E8008E778093E8000E940F068823E9
:100CB00099F3C82F08C0F70181917F018093F1005B
:100CC0000150110949F78C2FCF911F910F91FF907F
:100CD000EF9008958091470587FF13C08091E80049
:100CE00082FF06C08091E8008B778093E80004C003
:100CF000809145058111F2CF0895809145058823A3
:100D0000D9F38091E80080FFF8CF8091E8008E77DA
:100D1000ECCF982F9093E900242F762F50E089177D
:100D200031F07091EC002091ED005091F00021FD28
:100D300007C09F5F973071F78093E90081E00895C5
:100D40003091EB003E7F3093EB003091ED003D7F22
:100D50003093ED003091EB0031603093EB007093F5
:100D6000EC002093ED005093F0002091EE0027FD61
:100D7000E0CF80E00895B0E0A0E0E1ECF6E00C9474
:100D80002D2FC8EDD0E088818F7E8883E7EDF0E0DD
:100D900080818160808384E082BF81E08093200530
:100DA00088818E7F888302EE10E0F8011082109215
:100DB000DA0081EEC82ED12CF601108288818F775F
:100DC000888388818068888388818F7D888319BC27
:100DD0001092450510924605109244051092430565
:100DE00090EEE92EF12CF70180818B7F8083888142
:100DF0008160888342E060E080E00E948906F6011D
:100E000080818E7F8083F8018081816080838081F2
:100E100088608083F70180818E7F808388818061F4
:100E20008883CDB7DEB7E8E00C94492FFC018091B0
:100E30004D0590914E0586179707A0F06115710535
:100E400029F49091E8009E779093E80090E0611576
:100E5000710551F4911108C08091E80082FF34C0FF
:100E600080E00895BC01F2CF809145058823C1F14F
:100E70008530C1F18091E80083FD30C08091E800A9
:100E800082FDEACF8091E80080FFE1CF8091F300FE
:100E90002091F200382F6115710519F028303105C5
:100EA00058F091E02830310509F090E02091E800F9
:100EB0002E772093E800CBCF81918093F100615091
:100EC00071092F5F3F4FE7CF80914505882341F09F
:100ED000853041F08091E80083FFBECF81E0089526
:100EE00082E0089583E00895089580912205089591
:100EF00087E797E7909301088093000888E19AE0DC
:100F00000FB6F894A895809360000FBE9093600090
:100F1000FFCF2FB7F8946091170570911805809155
:100F2000190590911A052FBF089520914B01222396
:100F3000C9F020911B0527FF15C0E62FE695E69521
:100F4000E695EE31D8F4E80FF92FF11D677021E036
:100F500030E001C0220F6A95EAF7209582812823AC
:100F600022830895FC01329608962191621303C0F2
:100F7000DF0111971C92E817F907B9F7089520913E
:100F80004B012223C1F020911B0527FF14C0E62F3F
:100F9000E695E695E695EE31F8F4E80FF92FF11DA8
:100FA000677021E030E001C0220F6A95EAF7828184
:100FB000822B82830895FC0132962FEF30E041911D
:100FC000641751F02F3F19F4411101C0232F3F5FE7
:100FD0003630A9F72F3F09F40895820F911D27FDA0
:100FE0009A95FC01628308952091140530911505AE
:100FF0002817390771F09093150580931405E09137
:101000001205F0911305309721F00084F185E02D51
:101010000995089520911005309111052817390779
:1010200071F09093110580931005E0911205F091F5
:101030001305309721F00680F781E02D099508957A
:10104000FA01811101C0FB01099508950895EFE4AB
:10105000F3E0118282818460828308958091050586
:10106000982F9E7F61F48170826080930505809146
:101070000805893718F088E78093080508958635B4
:10108000B0F381708465F1CFAF92BF92DF92EF929F
:10109000FF920F931F93CF93DF93182F062FE90131
:1010A000493708F048E7E42FF0E0EC53FD4F011119
:1010B00010C0E4915E2F4E2F4983E8835A83DF915D
:1010C000CF911F910F91FF90EF90DF90BF90AF9065
:1010D0000895202F30E04491D42EE42EF12C56E0D8
:1010E000159FC0011124EFEFF0E0BF010E940F2F08
:1010F000812F90E0880F991F55E5569FD001579F8B
:10110000B00D11248A1B9B0B982F990F890F5F013B
:10111000A21AB30AAE9CD001AF9CB00DBE9CB00D1C
:1011200011245B2F089F80011124012F11275F01DB
:10113000A01AB10AAE9C8001AF9C100DBE9C100D90
:1011400011245F01A81AB108A29EC001A39E900DB0
:10115000B29E900D1124892F9927E81BF90BEE9D63
:10116000C001EF9D900DFE9D900D1124E92F62307E
:101170007105A1F050F46115710509F49DCF61303E
:10118000710581F0EB2F512F97CF6430710569F015
:1011900080F06630710509F48FCFF4CFE42F4B2F28
:1011A000592F8ACFE42F412F87CFEB2F542F492F70
:1011B00083CF4B2F5D2DE12F7FCF409145038D3E97
:1011C00059F48091460387FF0DC0109246034111E8
:1011D0000BC010923D0308C08E3E81F480914603FF
:1011E00018169CF3442381F08091470390914803A3
:1011F000892B09F05AC010923C0308958F3E49F4A0
:1012000047FFF0CF10924503809146038111ECCF48
:10121000E0CF803F19F41416ACF3E4CF909147036C
:10122000893F29F41916F4F610924703DBCF8A3F61
:1012300019F497FFD7CFF8CF909148038B3F29F44B
:1012400097FFD0CF10924803CDCF8C3F19F41916D9
:10125000CCF3C8CF9FE0980F983090F4815F990B42
:1012600021E030E0B90102C0660F771F8A95E2F7EE
:10127000CB01809590914403892380934403B2CF9E
:101280008D3F31F480913E038E7F80933E03AACF41
:101290008E3F21F480913E038D7FF7CF8F3F09F081
:1012A000A1CF80913E038B7FF0CF089580913E03C4
:1012B00080FD16C081FD16C082FD16C080913C03E2
:1012C0008823A1F0883280F428E0829FC001112495
:1012D00068E270E00E94742F862F672B39F0089522
:1012E00082E0089584E0089588E0089581E00895FB
:1012F00080913E0380FD14C081FD14C082FD16C0A4
:1013000080913D03882381F08E3180F420E5829F17
:10131000C00111246EE170E00E94742F862F0895A1
:1013200084E1089588E2089588E0089580E50895AD
:101330008D3E31F40E94780981958093460308958B
:101340008E3E19F40E947809F8CF8F3E31F40E9446
:1013500078098195809345030895803F19F40E9490
:101360007809F8CF893F29F40E94560980934703F2
:1013700008958A3F21F40E9456098195F7CF8B3F4B
:1013800031F40E94560981958093480308958C3F5B
:1013900019F40E945609F8CF9FE0980F983070F426
:1013A000815F990B21E030E001C0220F8A95EAF7B6
:1013B00080914403822B8093440308958D3F31F440
:1013C00080913E03816080933E0308958E3F21F417
:1013D00080913E038260F7CF8F3FB9F780913E0343
:1013E0008460F1CF80E00895F894E82FE295EF70E3
:1013F000F0E031A1282F2F7081E090E001C0880F2C
:101400002A95EAF7982F9095932391A392A1892B7F
:1014100082A37894089590911B0592FF06C0282F0F
:1014200028712830F9F4877F846093FF06C0282F45
:1014300028712831F1F4877E846120911C0520FFFA
:1014400006C0382F38713830D9F4877F816021FF8A
:1014500006C0282F28712831D1F4877E816194FD40
:10146000877E0895282F24712430F9F68B7F8860B9
:10147000DCCF282F2471243101F78B7E8861DDCFEA
:10148000382F3171313019F78E7F8860E0CF282FE7
:101490002171213121F78E7E8861E1CF972F78303D
:1014A000A8F4663098F470E026E0929F600D711DFC
:1014B0001124FB0190E3899FE00DF11D1124EE0F33
:1014C000FF1FE455FF4F85919491089580E090E0CF
:1014D0000895CF93DF93EC0182389105A9F1D8F5F7
:1014E0008133910509F496C048F58932910509F4D4
:1014F0008AC08A9709F495C0C11521E5D20708F082
:10150000BCC0C11530E5D30708F014C1C83ED105F1
:1015100008F09CC0C13ED10560F5C83AD10508F07D
:1015200087C0C53AD10508F0FDC0C130D10509F129
:101530002097F9F0C430D105E0F440C0853391051F
:1015400009F45AC0C997C1F680911B05837089F0D0
:10155000C0EED0E00EC0833E910599F170F4803E5C
:10156000910501F1823E910539F680911B0582FDBE
:1015700021C0CE01DF91CF910895863E910561F1A2
:10158000873E910571F1843E910509F0B5CF8091B8
:101590001C0581FFEECF80911B05C7EED0E084FDD6
:1015A0000DC0E7CF80911B0580FD12C190911C05F5
:1015B00090FFDFCFC3EED0E084FFDBCFD0E0C0E010
:1015C000D8CF80911B0582FD06C190911C0590FD2E
:1015D000BFCF84FFCECFF2CF80911B0583FDDDCF3F
:1015E000C8CF80911B0583FDF9C090911C0591FF28
:1015F000F0CFC4EED0E0BDCF80911B0585FFB9CF01
:10160000C9E2D0E0B6CF80911B0585FFB2CFC5E31C
:10161000D0E0AFCF80911B0586FFABCFCAE2D0E010
:10162000A8CF80911B0586FFA4CFC1E3D0E0A1CF56
:10163000CF3BD10518F6C85AD0E0CC0FDD1FC456F9
:10164000DE4F0990D881C02DD46493CFC11540E2FC
:10165000D40758F4C11581E0D80708F08ACFCD3EF1
:10166000D10508F4ABCFD06584CFC11590E4D9077C
:1016700008F4A4CFDF70D06A7CCFC11525E5D2076E
:1016800000F5C11534E5D30708F08AC0C11543E55C
:10169000D40708F071C0C11582E5D80708F467C007
:1016A000CE018370992721E030E002C0220F331F62
:1016B0008A95E2F7C695C69580E2C89FE00111249D
:1016C00052C0C11599E5D907A8F4C11528E5D2077C
:1016D00008F06BC0C11536E5D30708F06FCF8C2F2B
:1016E0000E940B0AC82FD0E0DC2FCC27CC27DF715B
:1016F000D0623FCFC1154AE5D40708F45BC0CE01E4
:1017000090568115904208F059CF8D2F8F710E940D
:101710000B0A90E0982F882788279F719C012C2B1B
:10172000E901E6CFC55AD0E0C756DE4FC881D0E008
:10173000D0641FCFCE01E4E096958795EA95E1F756
:1017400083702C2F26952695237040E2249F9001CC
:101750001124382B8C2F8370C1E0D0E002C0CC0F55
:10176000DD1F8A95E2F7C22BD32BDC6802CFDC2F7A
:10177000CC27C16FD06AFDCECE018370992721E0BE
:1017800030E002C0220F331F8A95E2F7C695C69556
:1017900090E2C99FE0011124C22BD32BDA68E9CE75
:1017A000DC2FCC27C46FD06AE4CEDC2FCC27C06FEF
:1017B000D06ADFCE8C2F8F700E940B0A34E0D69552
:1017C000C7953A95E1F7CF709C2FEC01D069D1CE47
:1017D000C9E3D0E0CECEC2EED0E0CBCEC6EED0E0B4
:1017E000C8CE8091A60281111092A602089580951C
:1017F0009091A50298239093A5020895809182026A
:1018000090915102981301C008958F5F8770FACFAD
:10181000B0E0A0E0EEE0FCE00C942C2F8C01C09036
:10182000FB02D090FC02E090FD02F090FE0280915D
:10183000A7029091A802A091A902B091AA02C82A79
:10184000D92AEA2AFB2ACFE1D0E0BC2ED701C60173
:101850000C2E04C0B695A795979587950A94D2F754
:1018600080FD09C0219788F7B12C8B2DCDB7DEB74D
:10187000E9E00C94482FB8018C2F0E944E0A0E9478
:10188000690A019779F3F1CFCF93DF93EC010E94BE
:10189000080CBE010E944E0A0E94690ADF91CF9196
:1018A0000895292F983080F5863070F590E036E065
:1018B000239F800D911D1124682F677023E096955A
:1018C00087952A95E1F725E0289FF001299FF00DE3
:1018D0001124E35DFD4F50E040E080E0219130E0D5
:1018E000062E02C0369527950A94E2F72170332719
:1018F000042E01C0220F0A94EAF7822B4F5F5F4F3C
:101900004530510559F7089580E00895292F983002
:10191000A0F5863090F590E036E0239F800D911D74
:101920001124282F277041E001C0440F2A95EAF7BF
:1019300023E0969587952A95E1F725E0289FF00109
:10194000299FF00D1124E35DFD4F30E020E070E0B1
:101950005191DF011197CB01022E02C09695879518
:101960000A94E2F7817081958527842385278C93DB
:101970002F5F3F4F2530310559F70895FC018081D5
:1019800091810E94440C92959F70963091F058F48A
:10199000925F9F70923058F4803F19F030F4883E87
:1019A00030F481E008959A5FF4CF843FD1F380E072
:1019B0000895883EB0F3813FD1F7F3CFCF93DF9303
:1019C000682F81E06A3019F06D3031F480E00E94B8
:1019D0006C0DDF91CF91089580915B0790915C072A
:1019E00026E0FC01A5E5B7E001900D922A95E1F70C
:1019F000603E08F458C026E0FC0111922A95E9F7F0
:101A0000C0915B07D0915C0746E050E0BE0185E5E0
:101A100097E00E940F309E0125553540892B41F1FA
:101A2000C90145E0969587954A95E1F741E050E078
:101A3000BA0102C0660F771F8A95E2F7CB01609169
:101A4000530570915405862B972BB9016B5F7F4F1F
:101A5000E5E076956795EA95E1F702C0440F551FDA
:101A60006A95E2F7842B952B909354058093530548
:101A70002A5F3F4F40915205642F70E0C9010E94D8
:101A80000F2F481B463010F4240F311D211572E032
:101A9000370710F030E020E02B5A3A4F30935C07C4
:101AA00020935B0796CFF6E06F9FB00111246C5C2A
:101AB000794F46E050E00E94F92FA2CFCF93DF93F9
:101AC000EC01FE018491811103C0DF91CF91089553
:101AD0000E94DE0C2196F5CFCF93382FE0915B0763
:101AE000F0915C07E555F54020915205622F70E0BA
:101AF000CF010E940F2F281B822F332361F066E055
:101B00000E945A2FC82FC15010F4CF91089580E23F
:101B10000E94DE0CF8CF9F01280F311D21153240A5
:101B200018F080E0F0E0E0E08E0F9F2F911D8B5ABF
:101B30009A4F90935C0780935B07E7CF8091A50253
:101B40009091A402892B80930C029091A602992374
:101B5000A1F0892B80930C0280914B018823E1F145
:101B600080911B0587FF38C08EE1EEE0F2E090E047
:101B70008150A0F591110E94F10B40E250E064E821
:101B800072E08CE092E00E940F30892B21F180E21C
:101B9000ECE0F2E0A4E8B2E001900D928A95E1F762
:101BA000E0911205F09113053097A9F080914B0157
:101BB000882359F080911B0587FF07C080910C0294
:101BC00080930D0286E080930C020280F381E02D69
:101BD0008CE092E00995089586E0C7CF21912223F9
:101BE00039F29F5FC5CF882321F00E94F70B0E9436
:101BF0009E0D0895882339F09091A502982B90931B
:101C0000A5020E949E0D089580931D0570931F05E7
:101C100060931E0580914505843001F582E0809334
:101C2000E9008FEF9091E800815095FD06C095ED99
:101C30009A95F1F700008111F5CF8091E80085FFBA
:101C40000DC050E040E063E070E08DE195E00E945F
:101C500040068091E8008E778093E8000895BC01EB
:101C600084E00E94040E0895BC0183E00E94040EEB
:101C700008959C0182E08093E9009FEF8091E80045
:101C8000915085FD06C085ED8A95F1F70000911110
:101C9000F5CF8091E80085FF0CC050E040E066E0A1
:101CA00070E0C9010E9440068091E8008E77809321
:101CB000E8000895CF93DF93EC0180914B018823D6
:101CC000B1F180911B0587FF32C060E282E0809312
:101CD000E9008FEF9091E800815095FD06C095EDE9
:101CE0009A95F1F700008111F5CF8091E80085FF0A
:101CF0001BC080914B0170E050E040E0811104C0B6
:101D000050E040E068E070E0CE010E944006809123
:101D1000E8008E778093E80080E2FE01A3E2B5E060
:101D200001900D928A95E1F7DF91CF91089568E0D7
:101D300081E0CDCF609147018091050580FF20C0F3
:101D40008091460143E0849FC00111248B5A9C4F2F
:101D5000539A2BB1277F3BB138605FB7F894FC01F1
:101D6000649FE00DF11D1124BF0168177907D1F4BC
:101D70005FBF8FE594E00197F1F700C00000089580
:101D8000809148019091490123E0829FF001112444
:101D9000EB5AFC4F8917A0F61182108212828F5FD6
:101DA0003396F8CFFC014191CF01E8E03BB9000048
:101DB00000C047FF2BB9440F000000C000C000C0A6
:101DC0002BB900C0EA9591F7D0CF0F931F93CF9313
:101DD000DF93EC0110E000E090914A0190171106AA
:101DE00009F06CF40E949A0E8C8190E0019681704B
:101DF00099278C83DF91CF911F910F9108952091A6
:101E00004801A801420F511D9A01220F331F240FD0
:101E1000351F2B5A3C4F4C81609107058091060578
:101E200096959017110651F04CF0442349F04091DB
:101E300008050E9444080F5F1F4FCECF4423B9F31B
:101E400040E0F7CFB0E0A0E0E8E2FFE00C94292FFB
:101E5000EC014C81042F10E09801D8010E946033FE
:101E60009B01AC010E942B334B015C01E0E2F0E0EE
:101E7000E01BF10BA5E5B0E0AC019B010E942B3308
:101E80006B017C019F01DF010E948E2F9B01AC0141
:101E90000E9436339B01AC01280D391D4A1D5B1D84
:101EA000C701B6010E943E33F22E822F90E039E244
:101EB0003F1520F143E0249F90011124359527958B
:101EC000122F109500E085E5E82EEF1880914A0169
:101ED000081718F10E949A0E9C8181E0992319F04D
:101EE000903219F48FEF8093450180914501890F5D
:101EF0008C83CDB7DEB7ECE00C94452F25E530E0C0
:101F0000B901681B790B9B01220F331F260F371F66
:101F100037FFD4CF2F5F3F4FD1CF8E2D01FD8F2DB7
:101F200020914801622F600F7727771F9B01220FB6
:101F3000331F260F371F2B5A3C4F412F6091070547
:101F40000E9444080F5FC2CFEF92FF920F931F933E
:101F5000CF93DF93EC018C81811109C081E08C83E8
:101F60001092530392E09093440180934301809137
:101F700048019091490123E0829FF0011124EB5A1E
:101F8000FC4F891758F110E003E060914A011617E1
:101F900058F10E949A0E8091430120915303280F1B
:101FA0002093530390914401980F90934401191684
:101FB00054F4022E000C330B40914A014150550B52
:101FC0002417350734F0819580934301813009F45B
:101FD0001C82CDB7DEB7E6E00C944B2F1182108245
:101FE00012828F5F3396CDCFE12EF12C70E0C701C6
:101FF0000E94742F20914801820F482F50E02091B9
:102000005303022E000C330BE216F306BCF02091B2
:102010004401022E000C330B2E153F057CF0809FEF
:10202000900111242B5A3C4F4091080560910705FF
:10203000809106050E9444081F5FA7CFFA01EE0FAA
:10204000FF1FE40FF51FEB5AFC4F11821082128222
:10205000F3CFB0E0A0E0EFE2F0E10C94292FEC0127
:102060008A81BB24BA9480FD02C0BB24B394A090A3
:102070004A018C81811109C081E0B81220C08FEF24
:102080008A0D8093520381E08C83F12CE12C46E38E
:10209000942EEA14B8F00E949A0E8091520391E0B7
:1020A000B91257C0811150C080914A01815080936C
:1020B00052031C82CDB7DEB7ECE00C94452F109292
:1020C0005203E1CF009148010E0D1F2D111DC801D3
:1020D000880F991F080F191F0B5A1C4FF801118206
:1020E0001082128234E0C32ED12C812C80915203B5
:1020F000880D87332CF1692D0E94662F892F082EB9
:10210000000C990B8E159F0591F4809108058C9D0C
:10211000A0018D9D500D11245595479555954795D6
:10212000980160910705809106050E9444088B0C78
:10213000F1E0CF1AD108D1F68FEFE81AF80AA9CF4B
:1021400087FFDDCF8A0DDBCF815080935203BC82A5
:10215000B1CF90E0019660914A0170E00E94742F27
:10216000809352038C83A6CFEF92FF921F93CF935D
:10217000DF93EC0110E0EE24EA94F12C60914A0127
:10218000161770F00E949A0E9A818C8190FF27C0DA
:102190008F5F8C83DF91CF911F91FF90EF90089517
:1021A00020914801422F410F5527551FCA019A011E
:1021B000220F331F280F391F2B5A3C4F70E0C701E5
:1021C0000E94742F962F8C8140910805609107051D
:1021D000199F800D11240E9444081F5FCFCF8150AA
:1021E000D8CF9091050590FF0EC0909148012091A5
:1021F000490133E0939FF0011124EB5AFC4F9217F1
:1022000018F00E949A0E08958183608342839F5F35
:102210003396F5CFA3E0B0E0E0E1F1E10C94312F8B
:102220008C018091540381110AC09E012F5F3F4FA2
:1022300048E76FEF0E9444088A8180935403F801B5
:102240006481613069F08091540340E0662361F05D
:1022500040E0623011F44091540380E060E004C03B
:102260006091540340E080E00E94F110F801848105
:1022700090E0019663E070E00E94742F84832396BF
:10228000E4E00C944D2FA3E0B0E0E9E4F1E10C941C
:10229000332F9091050590FF0AC09E012F5F3F4F9D
:1022A0000E9444084B8169818A810E94F110239623
:1022B000E2E00C944F2FCF93DF93EC01E5E0F5E0E3
:1022C000438162818C810E9443118C818F5F8C835A
:1022D000DF91CF910895CF93DF93EC01EC81F0E093
:1022E000E753FC4F4491E5E0F5E0628181810E9473
:1022F00043118C818F5F8C83DF91CF910895B0E083
:10230000A0E0E5E8F1E10C942B2F7C015B016A0170
:102310008091D70201E010E08A3010F40AE010E06A
:10232000C1E0D0E0B501C701F6010995811104C0F3
:1023300021960C171D072CF4CDB7DEB7EAE00C94FC
:10234000472FCC9F9001CD9F300D300D112490E090
:1023500080E045E34A95F1F7000001968217930764
:10236000C1F7E0CF8091B502811110C08091D800F3
:1023700080618093D8008AE18A95F1F700C080914E
:10238000D90080FF0AC081E08093B50281E090917E
:10239000B502913009F080E0089582E08093B502A3
:1023A0000E94F00510924505F1CF0E94B2118823DA
:1023B00059F0E0911205F0911305309729F0019042
:1023C000F081E02D0995089580E008950F931F9303
:1023D0000E94B211882329F00E9489071F910F9152
:1023E00008950E9489070091D8021091D902209186
:1023F000DA023091DB02600F711F821F931FEECF54
:10240000B0E0A0E0E6E0F2E10C942D2F6C017B013E
:1024100064E670E088E70E946A2CEC0197FD12C028
:1024200010E000E0F601E00FF11F849164E670E037
:102430000E94D82CEC01892B29F40F5F1F4F0E1539
:102440001F0581F70E944F2DCE01CDB7DEB7E8E022
:102450000C94492F80910E0590910F05911103C0A6
:1024600091E089270895882369F062E070E08BECA1
:1024700094E00E940012892B19F080910E050895B6
:1024800010920E0580910E05EBCFCF93C0910E05F3
:1024900080910F058823D1F00E948907605A754109
:1024A0008F4F9F4F60930A0570930B0580930C0527
:1024B00090930D05C11108C062E070E089EC94E0D2
:1024C0000E940012892B29F0C0910E058C2FCF910C
:1024D000089581E080930E05F7CFB0E0A0E0E3E738
:1024E000F2E10C94252FFC016280448081E084831A
:1024F000E9ECF3E07490E8E4F4E0E491812C75E019
:10250000972EF2E0CF2EDD24D394AA24AA94B12CE6
:1025100055245A94E7190E2F10E080914A0188162D
:1025200038F00E949A0ECDB7DEB7E0E10C94412F4F
:10253000E82CF12C82E0861568F09E9CF0019F9CAF
:10254000F00D1124E950FC4F8091060580838091A5
:1025500007058183411023C09E9CF0019F9CF00DD4
:102560001124E950FC4F1382128220914801C701C7
:10257000820F911D9C01220F331F280F391F2B5AE8
:102580003C4F9E9CF0019F9CF00D1124E950FC4FA4
:102590004281618180810E9444088394BECF9E9CC9
:1025A000E0019F9CD00D1124C950DC4F8B81882302
:1025B000E9F081508B83859DC00111246C8170E00E
:1025C0000E940F2FFB01FF27E753FC4F8491E82F58
:1025D000E719E59DC0011124B8010E940F2F8091D9
:1025E0000805689FB00111247A83BFCF0E94E92FAC
:1025F00020910805269521582C9DA0012D9D500D58
:102600001124452F5527841795070CF0AECF82E093
:10261000861588F40E94E92FB5010E94742F8883E3
:102620000E94E92F209107052695622F70E00E94F5
:10263000742F280F29839E9CF0019F9CF00D11247C
:10264000E950FC4F128280910805893C58F088ECD3
:102650009E9CF0019F9CF00D1124E950FC4F848357
:10266000838383CF8431A0F784E1F2CFCF92DF92CE
:10267000EF92FF926B017C010E942E08B701A60128
:1026800088E090E00E94EA32FF90EF90DF90CF90D8
:102690000895A3E0B0E0EFE4F3E10C942C2F082FB1
:1026A000D62EF42EC22E9091050590FF3AC0E92F48
:1026B000E695AE2FB0E0A252BE4F8C9180934F03AF
:1026C0009E7F923091F59E012F5F3F4F802F0E9499
:1026D00044084B8169818A810E94F110809106052E
:1026E000801308C0809107058D1104C080910805F2
:1026F0008F1529F0809151038260809351030093DC
:102700000605D0920705F0920805CC2051F06091A3
:1027100005057091060580910705909108050E94B6
:1027200036132396E9E00C94482F823019F4F09088
:102730000805D4CF863019F400910605CFCF893033
:10274000D9F3893159F6E9516E2F6170B62EE695AD
:10275000F0E0EC53FC4F1491E12C60914A01E61635
:1027600018F00E949A0EBACFE19EC001112470E0C9
:102770000E940F2F802FB11014C0860F20914801A6
:10278000622F6E0D7727771F9B01220F331F260FB5
:10279000371F2B5A3C4F4F2D6D2D0E944408E39458
:1027A000DCCF861BEBCFE5E0F5E0438121E1421B66
:1027B00008F440E021E0628181810E94491308957C
:1027C000E5E0F5E0438121E1420F08F44FEF21E01D
:1027D000628181810E9449130895E5E0F5E06281FC
:1027E00021E1621B08F460E021E0438181810E94C5
:1027F00049130895E5E0F5E0628121E1620F08F4F4
:102800006FEF21E0438181810E9449130895E5E043
:10281000F5E0818121E0438162818A500E94491361
:102820000895E5E0F5E0818121E043816281865FE2
:102830000E944913089580910905882319F0815059
:102840008093090560910505709106058091070543
:10285000909108050E9436130895809109058330F0
:1028600018F48F5F80930905609105057091060546
:1028700080910705909108050E9436130895E5E0C0
:10288000F5E083E0808311828FEF828388E7838382
:102890001482AFE4B3E012968C9112978360129683
:1028A0008C9360817181828193810E943613089597
:1028B000CF9384E090E00E94C432C82F82E290E07F
:1028C0000E94C432982F8C2FCF910895A4E0B0E0DD
:1028D000ECE6F4E10C94322F4091BE025091BF021D
:1028E0006091C0027091C1022FB7F89480911705D2
:1028F00090911805A0911905B0911A052FBF841B5E
:10290000950BA60BB70B11E084369105A105B10517
:1029100070F10E94E6116E5F7F4F8F4F9F4F69836A
:102920007A838B839C8380911501909116018E533D
:102930009D4F4091140150E04530510510F044E0A6
:1029400050E0BE016F5F7F4F0E941C3082E090E03C
:102950000E94992E182F882351F00E9489076093B6
:10296000BE027093BF028093C0029093C102812F78
:102970002496E3E00C944E2FA8E0B0E0E2ECF4E102
:102980000C94332F85E0E5E0F5E0DE01119601902F
:102990000D928A95E1F780914F0390915003A09199
:1029A00051038E839F83A88728854091D30250913D
:1029B000D4026091D5027091D6023FB7F89480910D
:1029C000170590911805A0911905B0911A053FBF00
:1029D000841B950BA60BB70B84369105A105B10599
:1029E00010F4222319F180911D0190911E018E5344
:1029F0009D4F40911C0150E04930510510F048E0D6
:102A000050E0BE016F5F7F4F0E941C3083E090E07A
:102A10000E94992E882369F00E9489076093D3024F
:102A20007093D4028093D5029093D60210925103F2
:102A300081E02896E2E00C944F2FEF92FF921F93D3
:102A4000CF93DF9300D000D00F92CDB7DEB77B01DC
:102A500090E080E00E94992E182F882309F487C007
:102A60004091070150E04115510511F041E050E05F
:102A700060910801709109016E537D4FCE0105965A
:102A80000E941C304091BA025091BB026091BC027E
:102A90007091BD022FB7F894809117059091180599
:102AA000A0911905B0911A052FBF841B950BA60B99
:102AB000B70B84369105A105B10540F483EC92E093
:102AC0000E94D9059D81891709F451C081E090E0E9
:102AD0000E94992E81111AC010E08091B602909147
:102AE000B702A091B802B091B902F7018083918337
:102AF000A283B383812F0F900F900F900F900F90B0
:102B0000DF91CF911F91FF90EF90089540910F01B9
:102B100050E04530510510F044E050E06091100164
:102B2000709111016E537D4FCE0101960E941C30B1
:102B300083EC92E00E94D9059D818913CDCF0E943C
:102B400089076093BA027093BB028093BC02909392
:102B5000BD0289819A81AB81BC818093B60290933A
:102B6000B702A093B802B093B90211E0B6CF80913A
:102B7000C3029091C402A091C502B091C60289839C
:102B80009A83AB83BC831111E4CFA7CF68EE7EEFAD
:102B900090E080E00E94F63260E082E090E00E94E7
:102BA000D83260E083E090E00E94D8321092A70211
:102BB0001092A8021092A9021092AA0260E084E08A
:102BC00090E00E94D83264E082E290E00E94D83225
:102BD00060E085E090E00E94D83260E086E090E01E
:102BE0000E94D8326FEF87E090E00E94D83240E038
:102BF00050E0BA0188E090E00E94EA3260E08DE0A7
:102C000090E00E94D83240E050E0BA0188E190E0C4
:102C10000E94EA3260E087E190E00E94D83240E012
:102C200050E0BA018CE190E00E94EA3270E060E08E
:102C300080E290E00E94F63240E050E0BA0188E184
:102C400090E00E94EA3240E050E0BA018FE090E06C
:102C50000E94EA3240E050E0BA0183E190E00E9435
:102C6000EA3208951F920F920FB60F9211242F93FC
:102C70003F934F935F936F937F938F939F93AF9304
:102C8000BF93EF93FF938091E10082FF09C0809191
:102C9000E20082FF05C08091E1008B7F8093E1001C
:102CA0008091DA0080FF24C08091D80080FF20C08E
:102CB0008091DA008E7F8093DA008091D90080FFC6
:102CC0009DC080E189BD82E189BD09B400FEFDCFD0
:102CD00081E08093450580912005811109C00E9403
:102CE000F0050E94BB068091E20084608093E200C0
:102CF0008091E10080FF17C08091E20080FF13C047
:102D00008091E2008E7F8093E2008091E2008061FA
:102D10008093E2008091D80080628093D80019BC33
:102D200085E0809345058091E10084FF2BC0809170
:102D3000E20084FF27C080E189BD82E189BD89B5B9
:102D4000982F917080FFFBCF8091D8008F7D80936A
:102D5000D8008091E1008F7E8093E1008091E200B5
:102D60008F7E8093E2008091E20081608093E20098
:102D700080914605882309F447C084E08093450587
:102D8000809145058091E10083FF27C08091E2009A
:102D900083FF23C08091E100877F8093E10082E080
:102DA00080934505109246058091E1008E7F8093C7
:102DB000E1008091E2008E7F8093E2008091E2004A
:102DC00080618093E20042E060E080E00E9489063A
:102DD0008091F00088608093F000FF91EF91BF91A7
:102DE000AF919F918F917F916F915F914F913F91A3
:102DF0002F910F900FBE0F901F90189519BC109235
:102E000045051092200574CF8091E30087FD93E083
:102E100090934505B5CF78941F921FB61F92112449
:102E20008F939F93AF93BF9380911705909118054F
:102E3000A0911905B0911A050196A11DB11D8093AD
:102E4000170590931805A0931905B0931A05BF9123
:102E5000AF919F918F911F901FBE1F9018959C015D
:102E60004FB7F8948091170590911805A091190516
:102E7000B0911A054FBF821B930B08952FB7F8949A
:102E80008091170590911805A0911905B0911A0528
:102E90002FBF08950E943E179C0190914503809199
:102EA0004603982B21F030934203209341039091E5
:102EB000470380914803982B21F0309340032093DF
:102EC0003F03E0911205F0911305309749F082E03D
:102ED000809343030480F581E02D83E493E009951A
:102EE000089590E080E00E940A0890E080E00E944F
:102EF000F4071092A4020E949E0D86E0E3E4F3E042
:102F0000DF011D928A95E9F710923D0310923C0370
:102F100010923E030E944A1708956093FB0270933B
:102F2000FC028093FD029093FE020E9471170895A7
:102F30000F931F9341E050E060E070E004C0440F45
:102F4000551F661F771F8A95D2F7CB01BA0160958E
:102F50007095809590950091FB021091FC02209154
:102F6000FD023091FE0260237123822393230E948D
:102F70008D171F910F910895909183028095892359
:102F800080938302282F277091F4282F082E000C9D
:102F9000330B9217130659F090911C0592FF07C04E
:102FA0008595859585950E949817109283020895BE
:102FB000CF93C0911C05C2FB992790F9981791F007
:102FC00080FBC2F9C0931C0560911B0584E090E072
:102FD0000E94D8326C2F82E290E00E94D83282E0C8
:102FE0000E94BC17CF9108950F931F9341E050E0CA
:102FF00060E070E004C0440F551F661F771F8A957C
:10300000D2F78091FB029091FC02A091FD02B09159
:10301000FE028A019B01082B192B2A2B3B2BC9018D
:10302000B8010E948D171F910F9108956093A70218
:103030007093A8028093A9029093AA020E9471172C
:1030400008951092A50280914B01EEE0F2E08823F2
:1030500061F080911B0587FF08C08EE1DF011D92A2
:103060008A95E9F70E947117089586E0F7CFAAE2E2
:10307000B0E0EDE3F8E10C94322F87E495E0209185
:10308000F100FC012193CF01F5E08F349F07B9F7E0
:1030900080914805833009F470C0B8F4813009F498
:1030A00047C0823009F4B1C08091E80083FF7EC23E
:1030B00080914705909148059A3008F077C2E92F32
:1030C000F0E0EF58FC4C0C94882F8A3009F48CC047
:1030D0008B3009F46FC0893039F780914705813210
:1030E00019F780914B0590914C050297E8F6809175
:1030F000E800877F8093E8008091E80082FF38C075
:103100009091F3008091F200029731F48091F100E8
:10311000813011F0863021F48091F10080932205F6
:103120008091E8008B778093E8000E946A06BCCF0C
:1031300080914705813A09F0B7CF8091E800877FF9
:103140008093E80080914B0590914C05892B61F4A8
:1031500060E283E295E070E00E9416078091E8004B
:103160008B778093E800A0CF60E090E080E0F3CF21
:10317000809145058111C0CF97CF80914705813A55
:1031800009F092CF80914B0590914C05892B09F065
:103190008BCF8091E800877F8093E8008091E800E2
:1031A00080FFFCCF80914B018093F1008091E8007B
:1031B0008E77B9CF80914705813209F075CF809124
:1031C0004B0590914C05892B09F06ECF8091E8005A
:1031D000877F8093E8000E946A068091490580936A
:1031E0004B010E94211860CF80914705813209F080
:1031F0005BCF8091E800877F8093E8000E946A0699
:1032000080914A05809321054FCF80914705813AEF
:1032100009F04ACF8091E800877F8093E800809191
:10322000E80080FFFCCF80912105BECF803899F067
:10323000823809F0BBC180914B058F70873008F050
:10324000B5C18093E9008091EB0085FB882780F968
:103250001092E90006C080914305909144059111B8
:1032600082609091E800977F9093E8008093F1004E
:103270001092F1008091E8008E7794C1882309F4C0
:1032800082C1823009F092C180914905811185C1C6
:1032900080914B058F702FEF280F263008F086C1E4
:1032A0008093E9002091EB0020FF77C1933031F447
:1032B0008091EB0080628093EB006FC19091EB00F6
:1032C00090619093EB0021E030E001C0220F8A95DD
:1032D000EAF72093EA001092EA008091EB00886000
:1032E000EACF811163C1109149051F778091E300F6
:1032F0008078812B8093E3008091E800877F809322
:10330000E8000E946A068091E80080FFFCCF80916F
:10331000E30080688093E30082E0111183E08093F2
:10332000450544C18058823008F040C1809149056C
:1033300090914A058C3D23E09207A1F583E08A83B2
:103340008AE289834FB7F894DE01139620E03EE0CD
:1033500051E2E32FF0E050935700E49120FF03C0C7
:10336000E295EF703F5FEF708E2F90E0EA30C0F093
:10337000C7968D939D932F5F243159F74FBF80914E
:10338000E800877F8093E8006AE270E0CE01019652
:103390000E9416078091E8008B778093E80006C1B1
:1033A000C096E7CF40914B0550914C05292F33270C
:1033B0002330310509F444C078F52130310509F492
:1033C0006FC08BE390E0E3ECF5E02230310509F0CB
:1033D000EDC02091E800277F2093E80020914D0563
:1033E00030914E058217930708F49C0140E02115A7
:1033F000310509F064C0411162C08091E80082FD8E
:10340000C9CF80914505882329F2853019F2809132
:10341000E80083FFF2CFBECF21323105A9F122327D
:10342000310509F0C3C04115510509F443C04130CD
:10343000510509F0BBC086EB90E0EDECF4E0C9CF9C
:10344000992781309105C1F0009759F0029709F052
:10345000ADC0E0E1F6E0E4918E2F90E0E0E1F6E02F
:1034600007C0E0E3F6E0E4918E2F90E0E0E3F6E0C1
:10347000009709F49BC0ADCFEEE1F6E0E4918E2F0A
:1034800090E0EEE1F6E0F4CF4115510571F04130E6
:10349000510509F08BC089E090E0EEEEF5E099CFA0
:1034A00082E190E0EEEFF5E094CF89E090E0E5ED89
:1034B000F5E08FCF80E490E0E3E8F5E08ACF8091FB
:1034C0004505882309F466CF853009F463CF8091E0
:1034D000E80083FD5FCF8091E80082FD8ECF809170
:1034E000E80080FF84CF9091F3008091F2002115D5
:1034F000310519F08830910550F041E0089709F046
:1035000040E08091E8008E778093E80070CF44918E
:103510004093F1003196215031090196E8CF80386F
:1035200009F044C08091E800877F8093E800809193
:1035300046058093F1009ECE811138C01091490557
:103540001230A0F58091E800877F8093E800109307
:1035500046050E946A06112311F084E005C080919F
:10356000E30087FDFACF81E08093450542E061ECFE
:1035700081E00E94890642E261EC82E00E948906B5
:103580008091450513C080914905813079F481E02F
:10359000933009F080E0809344051092E900809117
:1035A000E800877F8093E8000E946A068091E80027
:1035B00083FF0AC08091E800877F8093E8008091B4
:1035C000EB0080628093EB00AA96E3E00C944E2F10
:1035D0001F920F920FB60F9211242F933F934F9388
:1035E0005F936F937F938F939F93AF93BF93CF938B
:1035F000DF93EF93FF93D091E900DF708091EC00AF
:10360000C82FC17080FDC0E81092E9008091F000E1
:10361000877F8093F00078940E9437181092E90019
:103620008091F00088608093F000CD2BCF70C09324
:10363000E900FF91EF91DF91CF91BF91AF919F9101
:103640008F917F916F915F914F913F912F910F904B
:103650000FBE0F901F9018950E9421182FEF84E342
:103660009CE0215080409040E1F700C0000088E1DC
:103670009AE00FB6F894A895809360000FBE9093DF
:103680006000FFCF882391F19CEF980F913A40F4AE
:10369000682F8CE092E00E9495070E949E0D08958D
:1036A00090E2980F983050F4877091E001C0990F24
:1036B0008A95EAF7892F0E94F70BEFCF9BE5980FC9
:1036C000933028F490E080E00E940A08089598E57D
:1036D000980F973128F490E080E00E94F407089555
:1036E0008D3E20F00E94DD080E944A170895CF9376
:1036F000C82F8823D9F18CEF8C0F813AC8F58091BF
:103700004B01882311F180911B0587FF1EC0EC2F10
:10371000E695E695E695F0E0E45FFD4F828190E066
:103720004C2F477021E030E002C0220F331F4A9532
:10373000E2F782239323892B91F06C2F8CE092E0A7
:103740000E9495070E949E0D0AC0EEE0F2E084E11F
:1037500092E02191C21789F38E179F07D1F76C2F42
:103760008CE092E00E94BF070E949E0DCF910895C9
:1037700080E28C0F883068F4C77021E030E001C02F
:10378000220FCA95EAF78091A502822B8093A502A9
:10379000EBCFEBE5EC0FE33040F4F0E0E756FE4F03
:1037A000808190E00E940A08E1CFE8E5EC0FE73164
:1037B00050F4F0E0EE0FFF1FE456FE4F8081918140
:1037C0000E94F407D3CFCD3E88F28C2F0E94980937
:1037D0000E944A17CBCF0F931F93CF93DF93C62F2F
:1037E000D42F022FFC0182818823A9F06093510518
:1037F0000E943E179093500580934F05C77081E05B
:1038000001C0880FCA95EAF70E94FA0DDF91CF91A7
:103810001F910F91089580915105681335C08091D3
:103820004F05909150050E942F17883C910560F537
:1038300010E21D0FCD17B9F080E28C0F883040F4F4
:10384000C77081E001C0880FCA95EAF70E94F30DA6
:10385000183048F481E09D2F977001C0880F9A9529
:10386000EAF70E94FA0D802F0E94771B802F0E949A
:10387000421B183058F6D77081E001C0880FDA95E6
:10388000EAF70E94F30DC2CFC77081E001C0880F34
:10389000CA95EAF7F6CF0E94B211882319F00E9468
:1038A0003E1708950E94E611CB0108956091050529
:1038B000669570E04BE050E088E391E00E940230B2
:1038C000892B19F481E0809350030E944B1C909344
:1038D0004A0380934903809151038460809351038C
:1038E00008959091050590FF31C0917081112FC00E
:1038F00092609093050580915103816080935103FC
:10390000662351F0609105057091060580910705C9
:10391000909108050E94361360910505669570E048
:103920004BE050E088E391E00E940230892BB1F037
:103930000E94270881E080934C0320E04091080515
:1039400060910705809106050E94491308958B3206
:1039500010F09465CECF880F982BCBCF0E94561CC9
:10396000E9CF809105058695815009F48AE261E0EE
:103970000E94711C08958091050586958F5F8B329A
:1039800008F081E061E00E94711C089590910505A6
:1039900090FF08C09695981728F0961718F40E9483
:1039A000BB1C089561E00E94711C0895A5E0B0E081
:1039B000ECEDFCE10C94252F7C01FC0183819481CA
:1039C000892B31F08081918189238F3F09F00EC5C9
:1039D0002596E0E10C94412F0E94080C182F682FC7
:1039E00089819A810E94860C69817A81812F0E9447
:1039F0004E0A8C01F7018281882391F1C80190560B
:103A00008115F0E29F0728F0905E8115904108F043
:103A100053C0C801992720E28C33910520F4FC01A2
:103A2000E35AFE4F20811F922F939F938F93F701AC
:103A300080811F928F9381811F928F938CE491E0FC
:103A40009F938F931F9288E18F938FEF92E09F93C4
:103A50008F930E9425300FB6F894DEBF0FBECDBF06
:103A6000043F3CE5130709F48BC040F5093D9CE594
:103A7000190709F481C00A3DECE51E0709F48CC062
:103A8000083DFCE51F0741F526E241EE61EEC70166
:103A90000E94EB1B80918302877009F499CFF70194
:103AA0008281882309F494CF80911C0582FF90CFF6
:103AB00082E00E94BC178CCFC801ADCF063F2CE539
:103AC000120709F465C008F45FC027E245EE66EE10
:103AD000073F8CE51807D9F2F7018281882309F4A2
:103AE00096C4109251050430FDE51F0708F057C039
:103AF0000B3F2CE5120730F4C80182509C454497D7
:103B000008F057C00E94581490931C0580931B0521
:103B100001319CE5190709F427C108F0A3C0093059
:103B2000FCE51F0709F40AC108F06EC005303CE54A
:103B3000130709F4FBC008F053C003309CE51907D4
:103B400009F4EAC008F0EEC080911B0581600230E4
:103B5000FCE51F0709F4E3C060911B0510911C05EB
:103B600084E090E00E94D832612F82E290E00E94CF
:103B7000D8320E9421188ECF27E245EE65EE87CF1E
:103B800026E241EE60EE83CF27E245EE64EE7FCF82
:103B900026E241EE62EE7BCF28E241E0EFCF023633
:103BA0003DE5130709F4AECF063A8DE5180709F491
:103BB000A9CF06312CE5120709F037C48091A50280
:103BC0008A7A91E009F490E090932C0269E28111E5
:103BD00065E38CE092E00E94BF070E949E0D5ACFE1
:103BE00080911B05806207302CE5120709F497C00D
:103BF00080911B05806108303CE5130708F48FC0F5
:103C000080911B0580648BC00D308CE5180709F48A
:103C10009FC0A0F480911B058E7F0B30ECE51E0742
:103C200009F47DC080911B058C600C30FCE51F07FA
:103C300008F475C080911B058D7F71C080911B05B4
:103C40008F7E0F302CE5120709F469C080911B05A7
:103C5000877F00313CE5130708F461C080911B05A4
:103C60008F7D5DC00E3F8CE5180709F479C058F5CB
:103C70000531ECE51E0709F481C098F480911B051D
:103C8000837F03312CE5120709F449C008F470C0A2
:103C90000E94211890911B05892F97FB87F9805866
:103CA0003EC00C3F8CE5180709F444C008F054C02E
:103CB00080911C0581600B3FECE51E0709F04CCF9D
:103CC00080931C0549CF0230FDE51F0709F462C04F
:103CD00090F480911C058C7F01153DE5130781F35D
:103CE00098F180911C05982F909591708E7F892B6B
:103CF00090FB81F9E5CF02369DE5190709F450C024
:103D0000063AEDE51E0709F452C00330FDE51F0732
:103D100009F022CF60E03FC080911B058260809354
:103D20001B051ACF80911B058460F9CF80911B057C
:103D30008860F5CF80911C058260C2CF0E94211857
:103D400080911B058068EBCF80911C058360B8CF04
:103D500080911B058B7FE3CF80911C058E7FB0CFB8
:103D600080911C058D7FACCF80911B058F7BD7CFB9
:103D70000E94211880911B058F77D1CF80911B0560
:103D800082FB992790F921E0922790FB82F990FB22
:103D900083F9C5CF61E08EE090E00E94D832DCCE9E
:103DA00090911B05892F8F7E94FF8061B8CF9091F1
:103DB0001B05892F8E7F90FF8160B1CF816080933A
:103DC000050561E086950E94711C64CE41EB5CE1C3
:103DD0006BEB7CE10E9420085DCE4BEB5CE161EB7C
:103DE0007CE1F8CF41E154E167E074E1F3CF4DEEBF
:103DF00053E16AEF73E1EECF43ED53E160EE73E11F
:103E0000E9CF40EE53E163ED73E1E4CF4DE254E1DD
:103E10006BE174E1DFCF61E081E0D5CF65E082E066
:103E20000E94C61C37CE68E086E0FACF64E18FE0DE
:103E3000F7CF67E185E1F4CF62E289E1F1CF61E09C
:103E400083E2C1CF0E942118EFEFF4E32CE0E150B0
:103E5000F0402040E1F700C000000E947807809108
:103E60001C0582FB882780F991E089270E94D817DA
:103E7000F701828100811181882309F445C0C801BE
:103E80000E94080CD82E682FC8010E94860CB80129
:103E90008D2D0E944E0A0E94690A8C01882EF7011E
:103EA000D280958092943FE0932280918302877024
:103EB000C1F0BD2CDD20B1F0812F807F803421F056
:103EC00080E2800F883068F080911C0582FF09C075
:103ED00082E00E94BC17809183028770BB24B39458
:103EE0008111B12CA12EA2942FE0A222FBE0FA15A1
:103EF00008F476C0EA2DF0E0E558FC4C0C94882FCD
:103F000081E0B4CF80E0B2CFC8010E94510CD82E1E
:103F1000BECF212F2F70C22E107F19F0C29490EFC8
:103F2000C922DD20B9F0CC2069F080E2800F883012
:103F300010F0811009C08091A502C82AC092A50284
:103F40000E949E0D802F4AC08091A402C82AC09270
:103F5000A402F6CF802F0E94421BCC2009F440C05F
:103F6000005E083010F0811004C08C2D0E94F70B09
:103F700006C0C0948091A402C822C092A4020E94EC
:103F80009E0D2EC0312F3F70C32E107F103219F0BE
:103F9000C29480EFC822882089F081E0881609F455
:103FA00077C0DD2009F481C0992009F477C0F701BA
:103FB000858180FFC7CF8F70858370C020911C05DD
:103FC00022FD43C0DD20D9F1CC2039F08091A5023B
:103FD000C82AC092A5020E949E0D80E00E94771B15
:103FE000EA2DE850FF0B349710F40E94D511BB2046
:103FF000A9F08091830280FD11C0F701128285959E
:10400000859585950E94F417C7010E94D61C809162
:1040100083028595859585950E94981785E0F7011F
:10402000DE01119601900D928A95E1F709811A81BE
:10403000C8010E94510CB8010E944E0AC9CC80E010
:104040000E94421BCC2061F290CFDD20A1F0909124
:10405000A6028C2D892B911003C00E94FA0DC0CFAF
:10406000E1E09E12FACF22FFBBCF981709F4B8CF38
:104070008093A602B5CF911006C00E94F10B8C2D43
:104080000E94F30DADCFF1E09F1609F4A9CFF5CF53
:10409000DD2031F025E0291508F4A2CF8C2DDDCFED
:1040A00034E0391508F49CCFEACF992041F3F9E3C5
:1040B0008F1295C12FEF37EE83E0215030408040C2
:1040C000E1F700C000008BC1812F86958695837033
:1040D00061F0813009F084CFC8019370D11002C023
:1040E00090E080E00E94F4077BCFC8019370D1106C
:1040F00002C090E080E00E940A0872CF802FDD208D
:1041000029F00E9498090E944A176ACF0E94DD0890
:10411000FACF812F837009F066C0D11061CF802F54
:10412000829586958770880F880F602F6F70462E56
:10413000512C712C612C082E04C0440C551C661C9B
:10414000771C0A94D2F740E050E0BA0104FF0FC098
:104150004FE050E060E070E004C0440F551F661F60
:10416000771F8A95D2F74095509560957095812F6D
:10417000869586958370823019F1D8F40091A70254
:104180001091A8022091A9023091AA02813069F011
:104190004429552966297729CB01BA016023712367
:1041A000822393230E9416181BCF402A512A622A89
:1041B000732ACB01BA016429752986299729F2CF80
:1041C00044295529662977290091A7021091A80250
:1041D0002091A9023091AA02CB01BA016027712770
:1041E00082279327DFCF8695DD2011F0812F817004
:1041F000882309F4F5CE802F829586958770880FE5
:10420000880F602F6F70462E512C712C612C082E58
:1042100004C0440C551C661C771C0A94D2F740E07D
:1042200050E0BA0104FF0FC04FE050E060E070E0E2
:1042300004C0440F551F661F771F8A95D2F740951B
:10424000509560957095812F869586958370823004
:1042500019F1D8F40091FB021091FC022091FD02AB
:104260003091FE02813069F0442955296629772969
:10427000CB01BA0160237123822393230E948D17FF
:10428000AFCE402A512A622A732ACB01BA0164298F
:10429000752986299729F2CF442955296629772936
:1042A0000091FB021091FC022091FD023091FE0270
:1042B000CB01BA016027712782279327DFCF1F70B8
:1042C000DD2029F0812F0E94F417802FC6CE802F89
:1042D0000E94F30D812F0E94981782CE802F92EFBB
:1042E000891609F43FC0981570F0E0EF8E16D1F0F2
:1042F000F1EF8F1691F0DD2009F46CC0911022CE01
:10430000812F8F7133C023EF821699F134EF83121E
:10431000F2CF80911C0582FD3FC0812F8F71DD207F
:10432000D1F224C0DD20C9F084E0891508F458CE0C
:104330001F7161E070E080E090E004C0660F771FBD
:10434000881F991F1A95D2F70091FB021091FC0269
:104350002091FD023091FE02ADCF95E0991508F451
:104360003FCEE6CF812F8F71D110B5CF0E94F417C9
:1043700037CE60E070E0CB01DD2009F47FCF1F7104
:1043800061E070E080E090E004C0660F771F881F56
:10439000991F1A95D2F772CFDD2089F01F71812FF6
:1043A0000E94F41780911C0582FF07C0E8E01E9F61
:1043B000C0011124836080938302812FD7CF81E0D5
:1043C0000E94BC17F1E0F91508F00ACE82E00E94C5
:1043D000BC1706CE992039F0893309F46BCE802FB3
:1043E0000E94421BFDCD812F8F7175CF85E0DE01CC
:1043F000119601900D928A95E1F7F701228189814A
:104400009A812111E9CA0E94510C182FEDCA063178
:10441000FCE51F0741F580912C0269E2811165E3FB
:104420008CE092E00E949507D8CB0B352DE5120762
:1044300009F466CD68F401158CE5180709F402CD7E
:104440000F3D1C4509F014CD0E94C6150E942C1B7F
:104450000D35EDE51E0709F402CD08F453CD083AF9
:104460001D45A1F305CD8091A50282720D3C3CE56E
:10447000130709F4CBCC08F068C0073CECE51E0735
:1044800009F4B0CCF0F5043C2CE5120709F49ECCFD
:1044900048F5033C8CE5180709F0EACC8091050546
:1044A00080FF8CCC8E7F809305056091050570910F
:1044B000060580910705909108050E9436130E9419
:1044C0002708809151038160809351033FEF80E77B
:1044D00092E0315080409040E1F700C000000E941F
:1044E0009A0ED8CA053C9CE5190709F476CC47E03A
:1044F00054E161E174E1063CECE51E0709F46ACC85
:10450000B7CC0A3CFCE51F0709F476CC78F4083CEC
:104510003CE5130709F46BCC4AEF53E16DEE73E110
:10452000093C9CE5190709F455CCA2CC0B3CECE501
:104530001E0709F466CC4BE154E16DE274E10C3CDA
:10454000FCE51F0709F446CC93CC023D2CE512078D
:1045500009F46CCCA0F40F3C8CE5180709F45ECC90
:1045600008F459CC003DECE51E0709F45CCC6EE084
:1045700089E0013DFCE51F0709F452CC79CC053DEB
:104580002CE5120709F458CC68F4033D8CE51807B4
:1045900009F44FCC61E088E1043D9CE5190709F47A
:1045A00012CC66CC063DECE51E0709F448CC6AE265
:1045B00085E20E35FDE51F0709F432CC59CC1F9377
:1045C000CF93DF9380915002807F09F049C08091A2
:1045D0004D02882309F444C080918202D091510297
:1045E00060914B0270914C02A0914E02B0914F022B
:1045F000C62FC72316E0D81799F190E0109711F055
:10460000CF3F19F401968770F6CF189F9001199F3C
:10461000300D1124F901EE5AFD4F41814713F2CFBD
:1046200040814613EFCF42814111ECCF4381548149
:104630004A1B5B0B483C510528F7809150028F7054
:10464000806180935002F901E95AFD4F80818F709B
:10465000806180838BE492E00E94D61C0E94FE0B56
:10466000DF91CF911F910895A1E1B0E0EAE3F3E279
:104670000C942B2F8C0185E0F801DE011D96019032
:104680000D928A95E1F7F801E2808BE4A82E82E092
:10469000B82E60914E0270914F026115710509F4B8
:1046A00026C190914B0240914C02892F84238F3F69
:1046B00009F41DC120813181C380D480F0904D0266
:1046C000F601E61BF70BFF2009F4DCC080915002D5
:1046D000582F507FE83CF10508F09FC051116BC086
:1046E000FE2C431314C0921312C0E11010C08F703F
:1046F000806180935002C5010E94D61C80915002B7
:10470000F80185838F2D6196EAE00C94472FC11440
:10471000D10429F0822F83238F3F09F003C180E069
:10472000F82FF170DF2E80FF3CC080918202409113
:10473000510256E0841315C02D873E878D859E85D6
:104740000E94440C292F22952F702230F0F0243043
:1047500018F59F70F1F0F8019581907FD1F4D12C7C
:104760001EC090E0589FF001599FF00D1124EE5AA1
:10477000FD4F6181361306C06081261303C062813C
:10478000E6120FC001968770D5CF9F7011F0882375
:1047900031F3805E883018F3C8010E94D61CFD2CCE
:1047A000B1CFEE2009F4AECF8091500281608093AA
:1047B0005002F12CA7CF431306C0921304C0F80196
:1047C000EE2009F479C0C8010E94BE0C882309F1CB
:1047D000EE20F9F080915002803270F020914B026F
:1047E00030914C0238872F831986DB86CA868C87E6
:1047F000CE0107960E94D61C86E0F801ABE4B2E039
:1048000001900D928A95E1F70E94DF22FF24F39434
:1048100079CFC8010E94D61CF9CF51110AC08BE490
:1048200092E00E94D61C86E0F50111928A95E9F784
:10483000C0CF43130FC092130DC0E1100BC0F8019D
:104840008583C8010E94D61C86E0F50111928A95E5
:10485000E9F758CFC8010E94BE0C8823D1F2EE20A0
:10486000C1F280915002803238F220914B02309197
:104870004C023A8329831B82DD82CC828E83CE0157
:104880000196B8CFE83CF105F8F6FE2CEE2009F2CF
:1048900043131FC092131DC08091500280FD10C0B1
:1048A000982F907F69F0F8018583903F31F0982F21
:1048B000907F905F8F70892B8583C8010E94D61CE2
:1048C00086E0F801ABE4B2E001900D928A95E1F741
:1048D00019CFC8010E94BE0C81118ECF8091500269
:1048E000816080935002C8010E94D61C0BCFEE203D
:1048F00009F48FCFC8010E94BE0CF82E882309F45A
:1049000088CF86E0F801ABE4B2E001900D928A9581
:10491000E1F780914B0290914C020E94440C0E945E
:10492000DF22F0CE81E08E25FBCEA7E1B0E0EBE9FF
:10493000F4E20C94322F4B8B5C8B6D8B7E8B8F8BC8
:1049400061111092A4021A8A198A85E0FE017396F9
:10495000DE011D9601900D928A95E1F786E0FE0139
:104960003D96DE01179601900D928A95E1F7CE01F2
:1049700007960E943423882359F016E08091820222
:1049800090915102891343C06796E3E00C944E2F37
:1049900086E0FE013796DE01119601900D928A9510
:1049A000E1F78A859B85892B41F38F81988589233F
:1049B0008F3F19F32091510230E0C90101968770B1
:1049C0009927409182024817190671F40E94211814
:1049D000109251021092820286E0EBE4F2E0DF01D5
:1049E0001D928A95E9F7C9CF96E0929FD001939FD7
:1049F000B00D1124AE5ABD4FFE01319601900D92BB
:104A00009A95E1F7809351020E94FE0BB6CF819FE9
:104A1000C00111248E5A9D4F0E943423882309F42B
:104A2000B3CF8091820290E001968770992780939E
:104A30008202A4CFACE0B0E0E0E2F5E20C94282FD3
:104A40008E010F5F1F4F88E0D8011D928A95E9F70C
:104A50008CECC82E81E0D82EF12CE12CAA24A39452
:104A6000B12C26ED822E21E0922EF60181916F016C
:104A70008F3F09F442C0F894E82FE295EF70F0E020
:104A800021A18F70A50102C0440F551F8A95E2F73E
:104A9000CA01922F982B91A392A18095892382A37A
:104AA000789400C0E0EDF1E0712C31E021912F3FCE
:104AB00009F46EC0A22FA295AF70B0E090968C91D1
:104AC00090E02F7002C0959587952A95E2F780FDBA
:104AD0005FC0832F782A330F8E169F0639F7F601B1
:104AE000319780818F3F11F00E94F40950EA5A9566
:104AF000F1F7F801EE0DFF1D70828FEFE81AF80A4A
:104B000094E0E916F10409F0B0CF48E050E0B801B4
:104B10008CED92E00E940F307C01892B41F088E0FF
:104B2000F801ACEDB2E001900D928A95E1F7109199
:104B3000E502E114F10471F181E08093AD020E947D
:104B40003E179093AC028093AB028091AB029091A0
:104B5000AC020E942F17059790F0E12FF0E0E95189
:104B6000FD4F8091DC0280838091DD028183809102
:104B7000DE0282838091DF0283831092AD0281E0A6
:104B800090E0E114F10451F02C96EDE00C94442FE8
:104B900080E0A0CF8091AD028111D7CF0E94B211E9
:104BA000F82EE091E502882309F476C019861A866A
:104BB0001B861C860E2F10E009511D4F8091D702D5
:104BC0008A30A0F54DE155E1BE01675F7F4FC80116
:104BD0000E947F118823C9F146E654E1BE01675F58
:104BE0007F4FC8010E947F11882379F14CEB54E17B
:104BF000BE01675F7F4FC8010E947F11882329F1A2
:104C00001092D7028091E40290E044E050E0BE01AF
:104C1000675F7F4F89519D4F0E940F3021E02093A5
:104C2000B402892B59F5F12C8F2DAECF8091AE02B5
:104C30009091AF020E942F17843F914018F6809107
:104C4000B402811112C080E09FCF8091D7028F3FC4
:104C500029F08F5F8093D7028A30A0F20E943E171E
:104C60009093AF028093AE02EACFFE01399684E0C2
:104C7000DF011D928A95E9F71092B402E091E402F7
:104C8000F0E0E951FD4F89859A85AB85BC8580832D
:104C90009183A283B383C8CFF0E0E951FD4F84E054
:104CA000A3ECB2E001900D928A95E1F783EC92E0DB
:104CB0000E94D9058093C202C090C702D090C8025A
:104CC000E090C902F090CA028091B0029091B102C6
:104CD000A091B202B091B302C816D906EA06FB064B
:104CE000D1F0C092B002D092B102E092B202F09242
:104CF000B3020E94B21181110EC00E948907C61A28
:104D0000D70AE80AF90AC092D802D092D902E092F2
:104D1000DA02F092DB028091D202882309F493CF69
:104D200080FF0DC08091CB029091050580FF28C0C7
:104D300091609093050560E086950E94711C8091BA
:104D4000D20281FF09C020E04091CE026091CD02E5
:104D50008091CC020E9449138091D20282FF06C04A
:104D60008091D102882311F10E94561C8091D202B9
:104D700083FF03C081E080934C031092D20263CF83
:104D80009E7F909305050E942708809151038160C2
:104D900080935103BFEFE0E7F2E0B150E040F04014
:104DA000E1F700C000000E949A0EC9CF0E942708B8
:104DB000DDCF1F921FB61F9211248F939F93AF9345
:104DC000BF9380911605811113C0809117059091B2
:104DD0001805A0911905B0911A054196A11DB11DA4
:104DE0008093170590931805A0931905B0931A05A1
:104DF000BF91AF919F918F911F901FBE1F901895EB
:104E0000CDB7DEB762970FB6F894DEBF0FBECDBF49
:104E100085B7806885BF85B7806885BF84B7877F81
:104E200084BF0FB6F894A895809160008861809344
:104E30006000109260000FBE80E890E00FB6F8941A
:104E400080936100909361000FBE82EF99E0909390
:104E50000B0280930A020E94F0050E94BB0680911B
:104E6000E20084608093E200789480914505882375
:104E7000A1F01091E9001F709091EC00892F8170D2
:104E800090FD80E8182B1092E9008091E80083FDE6
:104E90000E9437181F701093E90082E084BD93E0F0
:104EA00095BD9AEF97BD80936E001092D802109234
:104EB000D9021092DA021092DB020E94B2118093A2
:104EC000240180912401882309F473C010924601C3
:104ED0008BE1809347010E94B21181110E94AD2D98
:104EE000809124018091240194E0811190E09093BD
:104EF000E50284E0891B8093E40284E90E94F409BE
:104F000086E60E94F40987E90E94F40986EC0E9473
:104F1000F40900ED11E056EDE52E51E0F52ED80133
:104F20008D918D018F3F11F00E94F409E016F1067A
:104F3000B1F788E0E7EEF2E0DF01282F1D922A9515
:104F4000E9F7ECEDF2E0DF011D928A95E9F790E0D8
:104F500080E00E94D232883E9E4F11F00E94C6151A
:104F600082E090E00E94C4328093EF020E945814C5
:104F700090931C0580931B050E941A25EFE3FCE922
:104F80003197F1F700C000000E941A250E94B2116B
:104F9000E4E08111E0E0F0E0E951FD4F808181FF24
:104FA0000CC06FEF7FEF90E080E00E94F6320E942D
:104FB00078078BE1809346018CCF83E090E00E94DC
:104FC000C432682F70E090E080E00E9416180E94C2
:104FD000B211811150C282E08093370380E8809340
:104FE00052050E94642C6DE070E08FE392E00E9415
:104FF0000012892BE9F58091370363E070E081FDB1
:105000003CC28CE392E00E940012892B89F56DE08E
:1050100070E08CE292E00E940012892B49F50E9418
:105020008907605A75418F4F9F4F60930A057093AF
:105030000B0580930C0590930D05E5E5F5E080E008
:1050400092E0DF019C011D9221503040E1F7F09386
:105050005C07E0935B078FEF9FEF9093540580937D
:10506000530581E080930F0580930E05109238035D
:105070008091E60281113BC090E080E00E94D23234
:10508000883E9E4F21F00E94C6150E943F1488E082
:1050900090E00E94CC3260930505709306058093E2
:1050A0000705909308058091510383608093510315
:1050B0006E7F71F40E943F1488E090E00E94CC3231
:1050C0006093050570930605809307059093080586
:1050D0000E942E080E9427088091050580FF04C0C9
:1050E00060E086950E94711C81E08093E6020E9438
:1050F000B211811102C00E94B02D85E291E090931F
:1051000013058093120548E1842E912C809145056A
:1051100000E112E1853009F4EBC10E941A25D82E76
:1051200081110E948907A7EEB2E0E0EFF2E010E003
:1051300000E0B02EED9081918E1509F4E8C18E2526
:10514000C12CFF24F394982F9F2109F4DBC10E9406
:10515000B211882399F0CF82B886EF2081E009F45C
:1051600080E089870E943E178160782F9B878A871D
:105170004F81588569858B850E949524F801E051FF
:10518000FD4F8081F826F0820E94B2118091500379
:10519000882309F464C080914F03E0910505E695EA
:1051A000E81BE0934B03823009F0C8C1F0E0E35AFA
:1051B000FD4FE4910E2F10E03BE6E32E31E1F32E9C
:1051C00080914C03882361F010924C030E944B1C89
:1051D00090934A038093490310924E0310924D031B
:1051E0000E944B1CE0914903F0914A039C012E1B45
:1051F0003F0B2F3F3F4798F52091FA022223B1F051
:105200001092FA022091F8023091F902821B930B5E
:105210008F3F9F4758F4205D3A483093F90220931E
:10522000F80280915103886080935103A0904D0350
:10523000B0904E03E00FF11FF0934A03E09349034F
:1052400089E493E0F701099580914D0390914E0315
:10525000892B29F4AB2819F081E08093FA02809120
:105260000F05882351F18091390390913A030E94F0
:105270002F17C29708F0CEC12091530530915405E5
:105280002115310509F01EC280910E058823A9F071
:105290000E94890700910A0510910B0520910C05C9
:1052A00030910D05601B710B820B930B6F3F7F4F8D
:1052B0008F4F9F4710F40E942A12D1100E9445126E
:1052C00086E0E3E4F3E0DE01119601900D928A9509
:1052D000E1F7109245031092460310924703109293
:1052E00048038B819C81892B09F44AC0809141033A
:1052F000909142030E942F179C0190913D039923A6
:1053000009F4DDC225313105D8F19F3F19F09F5FC7
:1053100090933D031B81112359F00E9478099FEF60
:1053200011160CF491E0899F802D11248093450380
:105330001C81112359F00E9478099FEF11160CF47B
:1053400091E0899F802D112480934603309145037D
:105350003323B1F020914603222391F045EB34032F
:10536000C0011124992309F47FC29093450345EBB2
:10537000240390011124332309F47AC230934603A5
:105380008D819E81892B09F44AC080913F039091C1
:1053900040030E942F179C0190913C03992309F42C
:1053A00089C221353105D8F19F3F19F09F5F909355
:1053B0003C031D81112359F00E9456099FEF1116DD
:1053C0000CF491E0899F802D1124809347031E8166
:1053D000112359F00E9456099FEF11160CF491E029
:1053E000899F802D112480934803309147033323F4
:1053F000B1F020914803222391F045EB3403C00122
:105400001124992309F438C29093470345EB2403F0
:1054100090011124332309F433C23093480346E04A
:1054200050E0BE016F5F7F4F83E493E00E940F3036
:10543000892B61F48091450390914603892B9091CB
:105440004703892B90914803892B11F00E944A173A
:1054500086E0FE013196A3E4B3E001900D928A95B7
:10546000E1F70E94D51190913B03891709F44ECEC4
:1054700080933B034BCE80E0AFCD89E392E0C3CD78
:1054800080914505843021F10E942A121092160560
:1054900040E40FB6F894A895809260000FBE409348
:1054A000600083B7817F846083BF83B7816083BFDF
:1054B0007894889583B78E7F83BF0FB6F894A895AC
:1054C00080916000886180936000109260000FBE40
:1054D00080914405882361F00E941A25E7EEF2E0EE
:1054E00081918111D1C18FEE92E08E179F07C1F794
:1054F00080914505853009F4C3CF0E9421180E9490
:10550000D5110BCEC394FF0C96E0C9121CCE0F5FD1
:105510001F4F0830110509F00CCE8FEF8C878D8757
:105520001E860E943E178160782F988B8F874C854E
:105530005D856E8588890E94952426CE863059F433
:10554000F0E0E65AFD4FE4910E2F10E02BE5E22E3D
:1055500021E1F22E35CE893061F4E695F0E0E95A8A
:10556000FD4FE4910E2F10E094EBE92E90E1F92E1F
:1055700027CE8F3061F4E695F0E0EC5AFD4FE491D0
:105580000E2F10E089E2E82E80E1F82E19CE853149
:1055900059F4F0E0EF5AFD4FE4910E2F10E0B4EA19
:1055A000EB2EBFE0FB2E0CCE883169F1833249F43B
:1055B000EFE4F2E005911491AAE0EA2EA1E1FA2EBF
:1055C000FFCD04EF11E075EEE72E7EE0F72E84327A
:1055D00009F4F6CD00ED17E066E2E62E68E0F62E5F
:1055E000853209F0EDCD8E2F63E00E945A2FE92F0E
:1055F000F0E0E45BFD4FE4910E2F10E0FDE6EF2EAE
:10560000F2E1FF2EDDCD08E210E0E2E2EE2EEFE067
:10561000FE2ED6CD0E943E1790933A038093390315
:1056200085E595E090935C0780935B070E94B2113B
:10563000882309F442C08CE792E00E945E0D8091BD
:10564000FB029091FC02A091FD02B091FE028F300E
:105650009105A105B10560F4FC01E957FC4C0C94DF
:10566000882F84E792E00E945E0D81E00E946C0D1D
:105670000FEF12E0D8010D900020E9F78D010150E5
:1056800011095FEFE52E52E0F52EE016F10678F0F5
:1056900080910F05882309F4F7CDEECD8EE692E0D8
:1056A000E2CF88E692E0DFCF81E692E0DCCFF7013F
:1056B00081917F010E94DE0CE8CF84E892E00E9495
:1056C0005E0DE6CF8091380361E070E08111DCCDA2
:1056D000082F10E07B01082E02C0EE0CFF1C0A947C
:1056E000E2F7A9014E215F21452B09F447C09091B3
:1056F000370390FD45C08295880F807680933301F3
:105700009801369527953695279520933601815E29
:10571000809334011092370124E630E047E050E0F6
:1057200061E371E088E70E94072D892B09F0ACCD79
:10573000A80125E0440F551F2A95E1F78091370312
:1057400080FD2CC04B5A5A4F04E610E020E230E0B6
:1057500060E488E70E94282D892B09F095CD0E94EE
:105760004512E094F0948091530590915405E822FD
:10577000F922F0925405E092530586CD8F5FA8CFB1
:10578000880F880F880F8093330110923601895F4C
:105790008093340183E080933701BECFE7E1F3E0EB
:1057A00080E2DF011D928A95E9F7EAEDF1E0FA8BDC
:1057B000E98B06ED11E09EED292E91E0392EA989A5
:1057C000BA892D91BA8BA98BF80141908F01440EB3
:1057D000552E511CC2018B5A9A4F2C01E22FF0E03A
:1057E000E95EFC4F30E020E087E0682E621ACC24AE
:1057F000C394022E01C0CC0C0A94EAF7520190E047
:10580000D5018D915D018C21662D691B6770762E07
:10581000062E000C770BB82F01C0BB0F7A94EAF765
:105820007B2E7195619571096770772701C0869508
:105830006A95EAF7782A8081782A70829F5F98308B
:10584000F9F62F5F3F4F31962830310569F6E98927
:10585000FA892E163F0609F0B2CF04E610E020E2E6
:1058600030E047E153E074CF81E0809345037FCD82
:1058700081E08093460384CD81E080934703C6CDC9
:1058800081E080934803CBCD09BD19BD09B400FE6A
:10589000FDCF8091D8008F7D8093D8008091E0006B
:1058A00082608093E0008091E00081FDFCCF0E9447
:1058B00021181ECE2B30310508F078CDB0CD2B301D
:1058C000310508F024CD5CCD1092B9008CE08093B6
:1058D000B8000895B0E0A0E0E0E7FCE20C942A2FC5
:1058E000B82EEB010E943E176C01EE24E394F12CDC
:1058F000C431D10560F025E0E22EF12CCF3FDC076A
:1059000031F0CE0164E170E00E940F2F7B0184EA48
:10591000A82E94E8992E1092BC00A092BC000E9480
:105920003E178C018091BC0087FF0DC08091B900AB
:10593000887F883001F18091B900887F8031D9F06B
:105940000FEF1FEF09C00E943E17801B910B8E15B1
:105950009F0540F30EEF1FEFCF3FDC07E1F2C601DA
:105960000E942F178C179D07B0F2C801CDB7DEB784
:10597000EBE00C94462FB092BB009092BC000E94CA
:105980003E178C018091BC0087FF0AC08091B9004E
:10599000887F883111F0803499F610E000E0E5CF7F
:1059A0000E943E17801B910B8E159F0558F3D2CF96
:1059B0000F931F93CF93DF93EB018093BB0084E899
:1059C0008093BC000E943E178C018091BC0087FF31
:1059D00011C02091B900287F81E090E0283211F4B5
:1059E00090E080E0919581959109DF91CF911F9191
:1059F0000F910895CF3FDC0741F30E943E17801BB3
:105A0000910B8C179D0708F38EEF9FEFEECFB0E060
:105A1000A0E0EDE0FDE20C942D2F6B018A017901ED
:105A2000B9010E946A2CE6010C0D1D1DC017D1079B
:105A300011F097FF08C024E92093BC00CDB7DEB772
:105A4000E8E00C94492FB70189910E94D82CEECF41
:105A5000B0E0A0E0EEE2FDE20C942D2FC62F6A012B
:105A60007901B8010E946A2C97FD0CC0B8018C2FF7
:105A70000E94D82CE601EC0CFD1CCE15DF0511F0C0
:105A800097FF08C024E92093BC00CDB7DEB7E8E05B
:105A90000C94492FB80189910E94D82CEECF84E94B
:105AA0008093BC0008958EE14A9B02C08150E1F7CB
:105AB0004A9BFECF08955A9880E28A95F1F75A9A48
:105AC0000895FC013BE03A95F1F798E020E080E092
:105AD00031E040E14A95F1F7880F4A9B02C08160AE
