:100000000C9409040C9426040C9426040C947D2270
:100010000C9426040C9426040C9426040C942604B8
:100020000C9426040C9426040C94520C0C941E136D
:100030000C94661C0C9426040C9426040C94260440
:100040000C9426040C9426040C9426040C94260488
:100050000C9426040C942B0D0C9426040C9426046A
:100060000C9426040C9426040C9426040C94260468
:100070000C9426040C9426040C9426040C94260458
:100080000C9426040C9426040C9426040C94260448
:100090000C9426040C9426040C9426040C94260438
:1000A0000C9426040C9426040C9426040101E3010C
:1000B0000432307C66696C010432307C0101280016
:1000C0000101E3010432307C77686174730104320A
:1000D000307C010128000101E3010432307C6D69AC
:1000E000726F010432307C010128000101E3010438
:1000F00032307C73706F74010432307C010128004F
:100100000101E3010432307C6F75746C6F6F6B0119
:100110000432307C010128000101E3010432307C0B
:100120006974756E6573010432307C010128000129
:1001300001E3010432307C666967010432307C01DE
:100140000128000101E3010432307C706F77657291
:100150007368656C010432307C010128000101E301
:10016000010432307C6E6F74657061010432307C42
:10017000010128000101E3010432307C74656C65E3
:10018000010432307C010128000101E30104323016
:100190007C6E6F74010432307C010128000101E3A0
:1001A000010432307C636872010432307C01012822
:1001B000000102E3200103E3010432307C66696E32
:1001C0006465010432307C010128000102E3200152
:1001D00003E3010432307C776861747301043230C8
:1001E0007C010128000102E3200103E30104323015
:1001F0007C6D69726F010432307C010128000102BC
:10020000E3200103E3010432307C73706F01043298
:10021000307C010128000102E3200103E3010432E4
:10022000307C6D6169010432307C010128000102DB
:10023000E3200103E3010432307C6D757301043265
:10024000307C010128000102E3200103E3010432B4
:10025000307C666967010432307C010128000102AC
:10026000E3200103E3010432307C7465720104323F
:10027000307C010128000102E3200103E301043284
:10028000307C74657874010432307C0101280001EF
:1002900002E3200103E3010432307C74656C010445
:1002A00032307C010128000102E3200103E3010454
:1002B00032307C6E6F74010432307C010128000101
:1002C00002E3200103E3010432307C736166010420
:1002D00032307C0101280035451B000F001C001343
:1002E000000E002B2406001500160017000A003926
:1002F0002114000D00190007001A00000000000082
:1003000000A2522A4229434C453400180012000929
:10031000001D002B0804000C000800110010004113
:10032000523800370036000B0005000000000000C6
:100330000028502C442847354514001A00080015A1
:100340000017002B2404001600070009000A0039DA
:10035000211D001B00060019000500000000000020
:1003600000A2522A4229434C45130012000C0018E7
:10037000001C00340033000F000E000D000B004085
:100380005238003700360010001100000000000055
:1003900000E7002C44284700000000000000000097
:1003A0000000000000E000E200E300E100000000C7
:1003B000001D081B080608190800000000000000C6
:1003C0000000000000000000003800260025002486
:1003D0000021022C002E002300220021002E02000A
:1003E00000220220001F001E002502000000000065
:1003F00000370027002D0000000000000000000072
:100400000000000000E000E200E300E10000000066
:10041000001D081B08060819080000000000000065
:10042000000000000000000000370230002F0036FE
:10043000020000000033002702260233022E0200D1
:1004400000310031022402340200000000000000EC
:100450000035002C002D02000035082B0850084FF5
:100460000800002F085000510052004F00300800D3
:10047000001D081B08060819080000000000000005
:10048000002B002A00290000002A082E082D0866EB
:100490005200002808E400E600E700E50000000044
:1004A0000030082F08D900DA00000000000000002A
:1004B000000000000000000000E000E200E300E1B6
:1004C0000000001B70AC00AA00A900AB0000001CDB
:1004D000700378BE00BD000478000000000000003A
:1004E00000A800AE00AD000000130512050C0518B1
:1004F0000500003A0033050F050E050D050B053EFE
:100500000038053705360510053D000000000000E5
:10051000003B002805280D290014001A00080015CA
:10052000001700E20004001600070009001E00E1A9
:10053000001D001B00060019001F00000000000045
:1005400000E0002C00E30023002200D900CD00DAF7
:1005500000665225002400D000CE00CF00200027E6
:10056000002600DC00D300DB0021000000000000BA
:1005700000D200D100280000000000157E117E147A
:100580007EE10837080F7E0D7E0E7E0C7E177E0002
:1005900000137E167E127E107E2C080000000000E4
:1005A00000000000000000210A200A097E057E08E4
:1005B0007E33032C09037E017E027E007E0B7E00CB
:1005C00000077E0A7E067E047E2C080000000000E4
:1005D0000000000000000000DA0281FFD9F1DB20FA
:1005E000A4A62EAF00A0C000A1C800AED580A81F51
:1005F000D300408D14200000AF00AE05010902A118
:100600000185020901A10005091901290815002524
:10061000019508750181020501093009311581250F
:100620007F95027508810609381581257F9501752A
:10063000088106050C0A38021581257F9501750889
:100640008106C0C005010980A101850319012AB7EF
:1006500000150126B700950175108100C0050C0931
:1006600001A101850419012AA002150126A0029505
:100670000175108100C005010906A1018506050765
:1006800019E029E715002501950875018102050784
:10069000190029EF1500250195F075018102050863
:1006A00019012905950575019102950175039101BF
:1006B000C005010906A101050719E029E715002574
:1006C00001950875018102950175088101050719D9
:1006D0000029FF150026FF00950675088100050812
:1006E000190129059505750191029501750391017F
:1006F000C009023B00020100A0FA09040000010346
:1007000001010009211101000122400007058103B8
:100710000800010904010001030000000921110182
:10072000000122B600070582032000011201000229
:1007300000000008534601000100010200010C0303
:1007400043006F0072006E00650000001003660039
:100750006F006F007300740061006E0000000403FE
:10076000090400000000000000000000000000007C
:100770000000000000000000000000000000000079
:100780000000000000007E0F00D4FFFFFFC7000044
:10079000007800000000000000002A2B2800000064
:1007A0000000000000000000000000000029000020
:1007B00000002C1E3420212224342627252E362DFD
:1007C0003738271E1F202122232425263333362E97
:1007D00037381F0405060708090A0B0C0D0E0F1009
:1007E0001112131415161718191A1B1C1D2F31304E
:1007F000232D350405060708090A0B0C0D0E0F10F2
:100800001112131415161718191A1B1C1D2F31302D
:10081000354C11241FBECFEFDAE0DEBFCDBF11E0B3
:10082000A0E0B1E0EEE5F9E402C005900D92A23738
:10083000B107D9F724E0A2E7B1E001C01D92AD3CB9
:10084000B207E1F70E948D1C0C9456240C94000012
:10085000FC01AC014C5F5F4F8FEF91E32191822748
:1008600028E030E087FF09C0880F8927215031092F
:10087000C9F7E417F50791F70895880FF7CFE8ED6A
:10088000F0E080818E7F80831092E2001092DA0087
:100890001092E100A0EEB0E08C9181608C93808199
:1008A0008F77808319BCA7EDB0E08C918E7F8C93FD
:1008B00080818F7E808310929B0408952091E400B4
:1008C0003091E50095E6A9012091EC00822F81701E
:1008D00020FF06C08091E80080FF06C080E00895F8
:1008E0002091E80022FD1AC08091C004882389F07D
:1008F000853089F08091EB0085FD0FC02091E400E8
:100900003091E50042175307F9F29150E1F684E087
:10091000089582E0089583E0089581E0089580912C
:10092000C20487FF13C08091E80082FF06C0809157
:10093000E8008B778093E80004C08091C0048111A7
:10094000F2CF08958091C0048823D9F38091E80004
:1009500080FFF8CF8091E8008E77ECCF982F9093AE
:10096000E900242F762F50E0891731F07091EC00C8
:100970002091ED005091F00021FD07C09F5F97305E
:1009800071F78093E90081E008953091EB003E7F9C
:100990003093EB003091ED003D7F3093ED003091CE
:1009A000EB0031603093EB007093EC002093ED008E
:1009B0005093F0002091EE0027FDE0CF80E00895F5
:1009C000B0E0A0E0E6EEF4E00C94B723C8EDD0E090
:1009D00088818F7E8883E7EDF0E08081816080836D
:1009E00084E082BF81E080939B0488818E7F88832E
:1009F00002EE10E0F80110821092DA0081EEC82EAB
:100A0000D12CF601108288818F7788838881806855
:100A1000888388818F7D888319BC1092C0041092CE
:100A2000C1041092BF041092BE0490EEE92EF12C86
:100A3000F70180818B7F808388818160888342E099
:100A400060E080E00E94AE04F60180818E7F8083AA
:100A5000F801808181608083808188608083F701D4
:100A600080818E7F8083888180618883CDB7DEB767
:100A7000E8E00C94D323FC018091C8049091C90450
:100A800086179707A0F06115710529F49091E80089
:100A90009E779093E80090E06115710551F49111F3
:100AA00008C08091E80082FF34C080E00895BC0156
:100AB000F2CF8091C0048823C1F18530C1F18091CB
:100AC000E80083FD30C08091E80082FDEACF80918C
:100AD000E80080FFE1CF8091F3002091F200382FF1
:100AE0006115710519F02830310558F091E0283072
:100AF000310509F090E02091E8002E772093E8007E
:100B0000CBCF81918093F100615071092F5F3F4FEE
:100B1000E7CF8091C004882341F0853041F0809177
:100B2000E80083FFBECF81E0089582E0089583E06E
:100B3000089580919D04089587E797E790930108B1
:100B40008093000888E19AE00FB6F894A895809306
:100B500060000FBE90936000FFCF2FB7F8946091B4
:100B600095047091960480919704909198042FBFFA
:100B70000895209128012223C9F02091990427FF8C
:100B800015C0E62FE695E695E695EE31D8F4E80F28
:100B9000F92FF11D677021E030E001C0220F6A9546
:100BA000EAF720958281282322830895FC0132965A
:100BB00008962191621303C0DF0111971C92E81778
:100BC000F907B9F70895209128012223C1F0209157
:100BD000990427FF14C0E62FE695E695E695EE31D9
:100BE000F8F4E80FF92FF11D677021E030E001C043
:100BF000220F6A95EAF78281822B82830895FC0195
:100C000032962FEF30E04191641751F02F3F19F4E5
:100C1000411101C0232F3F5F3630A9F72F3F09F460
:100C20000895820F911D27FD9A95FC016283089516
:100C3000A3E0B0E0EEE1F6E00C94BD232091920435
:100C40003091930428173907A1F09093930480936F
:100C50009204E0919004F0919104309751F024E0D7
:100C600029839B838A830680F781E02DCE0101963C
:100C700009952396E2E00C94D923A3E0B0E0E3E4E5
:100C8000F6E00C94BD2320918E0430918F04281738
:100C90003907A1F090938F0480938E04E091900423
:100CA000F0919104309751F023E029839B838A834C
:100CB0000680F781E02DCE01019609952396E2E0AA
:100CC0000C94D92380917D0480FD16C081FD16C04F
:100CD00082FD16C080917C048823A1F0883280F4C4
:100CE00028E0829FC001112468E270E00E94E423A2
:100CF000862F672B39F0089582E0089584E00895E7
:100D000088E0089581E0089580917D0480FD14C0FD
:100D100081FD14C082FD16C080917B04882381F080
:100D20008E3180F420E3829FC00111246EE170E0D7
:100D30000E94E423862F08958CE0089588E10895A9
:100D400088E0089580E3089580E00895F894E82FFE
:100D5000E295EF70F0E031A1282F2F7081E090E054
:100D600001C0880F2A95EAF7982F9095932391A3B5
:100D700092A1892B82A3789408959091990492FF6F
:100D800006C0282F28712830F9F4877F846093FFEC
:100D900006C0282F28712831F1F4877E84612091C4
:100DA0009A0420FF06C0382F38713830D9F4877F75
:100DB000816021FF06C0282F28712831D1F4877E59
:100DC000816194FD877E0895282F24712430F9F6DF
:100DD0008B7F8860DCCF282F2471243101F78B7E34
:100DE0008861DDCF382F3171313019F78E7F8860FF
:100DF000E0CF282F2171213121F78E7E8861E1CF4C
:100E0000972F7830B8F46630A8F4883098F470E002
:100E100026E0929F600D711D1124FB0190E3899FD4
:100E2000E00DF11D1124EE0FFF1FE952FD4F8591DA
:100E30009491089580E090E00895CF93DF93EC01C2
:100E400082389105B9F108F041C08133910509F468
:100E50009FC050F58932910509F48FC08A9709F433
:100E60009EC0C11520E5D20708F0BDC0C11530E411
:100E7000D30708F00AC1C03ED10508F0A5C0CD3C9B
:100E8000D10508F000C1C83AD10508F08FC0C53AB5
:100E9000D10508F0F0C0C130D10539F1209729F112
:100EA000C430D10510F546C08533910509F460C002
:100EB000C997B9F680919904837009F044C1809173
:100EC0009A0483FF12C0C9E2D0E00FC0833E9105AF
:100ED000A1F178F4803E910509F1823E910509F077
:100EE000C0CF8091990482FD21C0CE01DF91CF91C6
:100EF0000895863E910561F1873E910571F1843E2A
:100F0000910509F0AECF80919A0481FFEECF8091D8
:100F10009904C7EED0E084FD0DC0E7CF809199041D
:100F200080FD33C090919A0490FFDFCFC3EED0E0F4
:100F300084FFDBCFD0E0C0E0D8CF8091990482FD60
:100F4000FFC090919A0490FDFEC084FFCECFF2CFF7
:100F50008091990483FDDDCFC8CF8091990483FDF2
:100F6000F5C090919A0491FFF0CFC4EED0E0BDCFD0
:100F70008091990485FFB9CFA6CF8091990485FD12
:100F8000E8C080919A0483FFB0CFC9E3D0E0ADCF31
:100F90008091990486FFA9CFCAE2D0E0A6CF8091C4
:100FA000990486FFA2CFC1E3D0E09FCFC13CD10519
:100FB00008F6C85AD0E0CC0FDD1FC45DDE4F0990A3
:100FC000D881C02DD46491CFC11540E2D40708F078
:100FD000AAC0C11581E0D80708F087CFC83ED10567
:100FE00008F483CFA7CFC03622E5D20718F5C03466
:100FF00032E5D30708F053C0C03242E5D40708F009
:1010000047C0C11582E5D80708F47FC02C2F26956C
:10101000269540E2249F900111248C2F8370C1E01B
:10102000D0E002C0CC0FDD1F8A95E2F7C22BD32B94
:10103000DD685BCFC03A22E5D20760F4C03832E504
:10104000D30708F441C0CF71D0E0DC2FCC27C46FA8
:10105000D06A4BCFC03C42E5D40708F44AC0C03E3A
:1010600082E5D80708F066CFDC2FCC27CC27DF71CC
:10107000C06FD06A3ACFC55AD0E0C75DDE4FC88195
:10108000D0E0D06432CFD06530CFDF70D06A2DCFC2
:10109000CF71D0E0DC2FCC27C16FD06A26CF2C2FA8
:1010A00026952695277080E2289F900111248C2F89
:1010B0008370C1E0D0E002C0CC0FDD1F8A95E2F75B
:1010C000C22BD32BDC6811CF2C2F269526952770A9
:1010D00040E2249F900111248C2F8370C1E0D0E066
:1010E00002C0CC0FDD1F8A95E2F7C22BD32BDA6842
:1010F000FCCE8C2F8F710E94BD06C82FD0E0DC2F54
:10110000CC27CC27DF71D062F0CE8C2F8F710E945C
:10111000BD0635E0D695C7953A95E1F7CF709C2F7F
:10112000EC01D069E2CE8D2F8F710E94BD0690E058
:10113000982F882788279F719C012C2BE901E3CFEA
:10114000C2EED0E0D2CEC0EED0E0CFCEC6EED0E040
:10115000CCCEC5E3D0E0C9CE80910C02882331F01B
:1011600010920C0210920B0210920A0208958095C0
:101170009091090298239093090208958091E401C7
:101180009091B301981301C008958F5F8770FACFD3
:10119000B0E0A0E0EEECF8E00C94B6237C01009106
:1011A0003E0210913F0280913C0290913D02082B3B
:1011B000192BCFE0D0E0CC24C394D12CBC2EC60197
:1011C0000C2E02C0880F991F0A94E2F78023912306
:1011D000892B49F4219790F7B12C8B2DCDB7DEB731
:1011E000E9E00C94D223B7018C2F0E9400070E94E3
:1011F0001D07019779F3F1CFCF93DF93EC010E94A4
:10120000C808BE010E9400070E941D07DF91CF9110
:101210000895983078F5863068F5E82FF0E086E09C
:10122000989FE00DF11D11249E2F977083E0F69595
:10123000E7958A95E1F7EE0FFF1FEE0FFF1FEB56C4
:10124000FE4F50E040E080E0219130E0092E02C0E6
:10125000369527950A94E2F721703327042E01C0B2
:10126000220F0A94EAF7822B4F5F5F4F44305105FB
:1012700059F7089580E00895983098F5863088F5FC
:10128000E82FF0E086E0989FE00DF11D11248E2FED
:10129000877041E001C0440F8A95EAF783E0F69534
:1012A000E7958A95E1F7EE0FFF1FEE0FFF1FEB5654
:1012B000FE4F30E020E070E05191DF011197CB014B
:1012C000022E02C0969587950A94E2F78170819567
:1012D0008527842385278C932F5F3F4F243031054A
:1012E00059F7089590933F0280933E02089521E0BC
:1012F00030E002C0220F331F8A95E2F72095309527
:1013000080913E0290913F02822393230E947209B2
:1013100008959091E701809589238093E701282F14
:101320002770B1F4282F082E000C330B92171306E8
:1013300079F090919A0492FF0BC0859585958595DB
:101340000E9477091092E7011092E6011092E501E0
:10135000089521E030E002C0220F331F8A95E2F7A2
:1013600080913E0290913F02822B932B0E94720942
:10137000089590933D0280933C020895FC0183817F
:101380009481892B29F08081918189238F3F51F4A9
:1013900080E00895843FE1F717C0883EA8F0813FC0
:1013A000B9F712C0808191810E94FC0892959F70CC
:1013B000963099F358F4925F9F70923048F7803FCF
:1013C00019F040F7883E20F781E008959A5FF4CF46
:1013D0000F931F93CF93DF938B01EA019091C00489
:1013E000943061F58093E9008FEF9091E80081508F
:1013F00095FD06C095ED9A95F1F700008111F5CFA6
:101400008091E80085FF1AC00E945E04811111C01E
:101410008091E80085FD06C08091E8008E7780937A
:10142000E800F2CFF80181918F018093F1002197BC
:1014300079F78091E8008E778093E800DF91CF9173
:101440001F910F91089543E050E0BC0182E00E949B
:10145000E809089546E050E0BC0182E00E94E809F6
:101460000895CF93DF93EC0180912801811111C081
:1014700048E050E0BE0181E00E94E80980E2FE0100
:10148000AEE9B4E001900D928A95E1F7DF91CF913A
:1014900008958091990487FF05C040E282E050E002
:1014A000BE01EACF48E081E0FACFB0E0A0E0EBE592
:1014B000FAE00C94B5237C015B016A0180912D0256
:1014C00001E010E08A3010F40AE010E0C1E0D0E062
:1014D000B501C701F6010995811104C021960C17C9
:1014E0001D072CF4CDB7DEB7EAE00C94D123CC9FD6
:1014F0009001CD9F300D300D112490E080E045E348
:101500004A95F1F70000019682179307C1F7E0CFE3
:1015100080911702811110C08091D8008061809362
:10152000D8008AE18A95F1F700C08091D90080FF48
:101530000AC081E08093170281E0909117029130F8
:1015400009F080E0089582E0809317020E943F0432
:101550001092C004F1CF0E94880A882359F0E091CC
:101560009004F0919104309729F00190F081E02DE2
:101570000995089580E00895B0E0A0E0E2ECFAE07B
:101580000C94B7236C017B0164E670E088E70E944D
:10159000F720EC0197FD12C010E000E0F601E00F2B
:1015A000F11F849164E670E00E946321EC01892BB5
:1015B00029F40F5F1F4F0E151F0581F70E94D921D7
:1015C000CE01CDB7DEB7E8E00C94D32380918C0434
:1015D00090918D04911103C091E08927089588238B
:1015E00069F062E070E089EF95E00E94BC0A892B07
:1015F00019F080918C04089510928C0480918C04D1
:10160000EBCFCF93C0918C0480918D048823D1F0CF
:101610000E94AD05605A75418F4F9F4F60938804BB
:101620007093890480938A0490938B04C11108C03D
:1016300062E070E087EF95E00E94BC0A892B29F0F8
:10164000C0918C048C2FCF91089581E080938C04FD
:10165000F7CF90919A0492FB222720F9281779F06E
:1016600080FB92F990939A046091990470919A0486
:1016700084E090E00E94402482E00E94890908955D
:10168000A4E0B0E0E6E4FBE00C94BB234091290227
:1016900050912A0260912B0270912C022FB7F8947E
:1016A0008091950490919604A0919704B09198042C
:1016B0002FBF841B950BA60BB70B11E08436910549
:1016C000A105B10590F10E94880A882399F10E9432
:1016D000AD056E5F7F4F8F4F9F4F69837A838B83FA
:1016E0009C838091110190911201805E9D4F4091E9
:1016F000100150E04530510510F044E050E0BE01CB
:101700006F5F7F4F0E940B2482E090E00E942323B2
:10171000182F882351F00E94AD0560932902709321
:101720002A0280932B0290932C02812F2496E4E0CE
:101730000C94D7230E94AD0500912E0210912F0228
:101740002091300230913102600F711F821F931F70
:10175000C0CFEF92FF921F93CF93DF9300D000D0C2
:101760000F92CDB7DEB77B0190E080E00E9423238B
:10177000182F882309F487C04091030150E04115D8
:10178000510511F041E050E06091040170910501B4
:10179000605E7D4FCE0105960E940B2440911C0295
:1017A00050911D0260911E0270911F022FB7F89494
:1017B0008091950490919604A0919704B09198041B
:1017C0002FBF841B950BA60BB70B84369105A10583
:1017D000B10540F481E292E00E9428049D818917BE
:1017E00009F451C081E090E00E94232381111AC0C6
:1017F00010E08091180290911902A0911A02B09104
:101800001B02F70180839183A283B383812F0F9002
:101810000F900F900F900F90DF91CF911F91FF903D
:10182000EF90089540910B0150E04530510510F0C4
:1018300044E050E060910C0170910D01605E7D4FBD
:10184000CE0101960E940B2481E292E00E942804BE
:101850009D818913CDCF0E94AD0560931C027093CA
:101860001D0280931E0290931F0289819A81AB8191
:10187000BC818093180290931902A0931A02B0932E
:101880001B0211E0B6CF8091210290912202A0911B
:101890002302B091240289839A83AB83BC83111104
:1018A000E4CFA7CF1F920F920FB60F9211242F9360
:1018B0003F934F935F936F937F938F939F93AF93D8
:1018C000BF93EF93FF938091E10082FF09C0809165
:1018D000E20082FF05C08091E1008B7F8093E100F0
:1018E0008091DA0080FF24C08091D80080FF20C062
:1018F0008091DA008E7F8093DA008091D90080FF9A
:101900009DC080E189BD82E189BD09B400FEFDCFA3
:1019100081E08093C00480919B04811109C00E94E2
:101920003F040E94E0048091E20084608093E20022
:101930008091E10080FF17C08091E20080FF13C01A
:101940008091E2008E7F8093E2008091E2008061CE
:101950008093E2008091D80080628093D80019BC07
:1019600085E08093C0048091E10084FF2BC08091CA
:10197000E20084FF27C080E189BD82E189BD89B58D
:10198000982F917080FFFBCF8091D8008F7D80933E
:10199000D8008091E1008F7E8093E1008091E20089
:1019A0008F7E8093E2008091E20081608093E2006C
:1019B0008091C104882309F447C084E08093C00467
:1019C0008091C0048091E10083FF27C08091E200F4
:1019D00083FF23C08091E100877F8093E10082E054
:1019E0008093C0041092C1048091E1008E7F8093A7
:1019F000E1008091E2008E7F8093E2008091E2001E
:101A000080618093E20042E060E080E00E94AE04EA
:101A10008091F00088608093F000FF91EF91BF917A
:101A2000AF919F918F917F916F915F914F913F9176
:101A30002F910F900FBE0F901F90189519BC109208
:101A4000C00410929B0474CF8091E30087FD93E063
:101A50009093C004B5CF78941F921FB61F921124A3
:101A60008F939F93AF93BF93809195049091960429
:101A7000A0919704B09198040196A11DB11D809387
:101A8000950490939604A0939704B0939804BF9103
:101A9000AF919F918F911F901FBE1F9018959C0131
:101AA0004FB7F8948091950490919604A091970473
:101AB000B09198044FBF821B930B08952FB7F894F1
:101AC0008091950490919604A0919704B091980408
:101AD0002FBF08950E945E0D9C0190918404809117
:101AE0008504982B21F030938104209380049091F9
:101AF000860480918704982B21F030937F042093F3
:101B00007E04E0919004F0919104309749F082E0D6
:101B1000809382040480F581E02D82E894E00995A9
:101B20000895662309F45DC08D3C41F40E9484064B
:101B30008195809385040E946A0D08958E3C19F466
:101B40000E948406F6CF8F3C31F40E948406819572
:101B500080938404F0CF803D19F40E948406F8CF6E
:101B6000893D29F40E94620680938604E4CF8A3D71
:101B700021F40E9462068195F7CF8B3D31F40E94DB
:101B80006206819580938704D6CF8C3D19F40E941C
:101B90006206F8CF9FE2980F983070F4815D990B40
:101BA00021E030E001C0220F8A95EAF7809183049A
:101BB000822B80938304BFCF8D3D31F480917D04CF
:101BC000816080937D04B7CF8E3D21F480917D04A8
:101BD0008260F7CF8F3D09F0AECF80917D048460A5
:101BE000F0CF409184048D3C59F48091850487FFA7
:101BF0000DC01092850441110BC010927B0408C0E7
:101C00008E3C81F48091850418169CF3442381F066
:101C10008091860490918704892B09F08CCF1092D3
:101C20007C0489CF8F3C49F447FFF0CF10928404A5
:101C3000809185048111ECCFE0CF803D19F414161A
:101C4000ACF3E4CF90918604893D29F41916F4F69B
:101C500010928604DBCF8A3D19F497FFD7CFF8CFD7
:101C6000909187048B3D29F497FFD0CF1092870481
:101C7000CDCF8C3D19F41916CCF3C8CF9FE2980F45
:101C8000983090F4815D990B21E030E0B90102C0F9
:101C9000660F771F8A95E2F7CB01809590918304B8
:101CA000892380938304B2CF8D3D31F480917D04EC
:101CB0008E7F80937D04AACF8E3D21F480917D0498
:101CC0008D7FF7CF8F3D09F0A1CF80917D048B7F71
:101CD000F0CFACE0B0E0EFE6FEE00C94B2238E0172
:101CE0000F5F1F4F88E0D8011D928A95E9F780E6C3
:101CF000C82E81E0D82EF12CE12CAA24A394B12C7B
:101D00002AE6822E21E0922EF60181916F018F3F0B
:101D100009F442C0F894E82FE295EF70F0E021A1B9
:101D20008F70A50102C0440F551F8A95E2F7CA01C2
:101D3000922F982B91A392A18095892382A37894C6
:101D400000C0E4E6F1E0712C31E021912F3F09F46D
:101D50006BC0A22FA295AF70B0E090968C9190E0EE
:101D60002F7002C0959587952A95E2F780FD5CC09B
:101D7000832F782A330F8E169F0639F7F601319795
:101D800080818F3F11F00E94A60650EA5A95F1F724
:101D9000F801EE0DFF1D70828FEFE81AF80AA4E03B
:101DA000EA16F10409F0B0CF48E050E0B80182E350
:101DB00092E00E94FE23009741F028E0F801A2E3A0
:101DC000B2E001900D922A95E1F700913B02892B38
:101DD00069F181E080930F020E945E0D90930E02E4
:101DE00080930D0280910D0290910E020E944F0D82
:101DF000059700F110E00E5B1D4F44E050E062E3F8
:101E000072E0C8010E94FE23B12C892B51F084E0BE
:101E1000E2E3F2E0D80101900D928A95E1F7BB244C
:101E2000B39410920F0207C080E0A3CF80910F02FD
:101E30008111D8CFB12C0E94880AF82EE0913B0284
:101E4000882309F472C019861A861B861C860E2FF9
:101E500010E00E5B1D4F80912D028A3088F549EA13
:101E60005BE0BE01675F7F4FC8010E94550A88236F
:101E700009F44AC040E45BE0BE01675F7F4FC801E0
:101E80000E94550A882309F43FC010922D028091C8
:101E90003A0290E044E050E0BE01675F7F4F8E5B06
:101EA0009D4F0E94FE2321E020931602892BF1F41E
:101EB000F12C1F2D812F8B292C96EDE00C94CE2335
:101EC00080911002909111020E944F0D843F914029
:101ED00030F680911602882359F3FE01399684E08A
:101EE000DF011D928A95E9F710921602E0913A02FD
:101EF000F0E0EE5BFD4F89859A85AB85BC858083DC
:101F00009183A283B383D5CF80912D028F3F31F08F
:101F10008F5F80932D028A3008F4B9CF0E945E0D46
:101F20009093110280931002D4CFF0E0EE5BFD4F4E
:101F300084E0A1E2B2E001900D928A95E1F781E29E
:101F400092E00E94280480932002C0902502D09045
:101F50002602E0902702F0902802809112029091D0
:101F60001302A0911402B0911502C816D906EA0610
:101F7000FB0611F410E09ECFC0921202D092130221
:101F8000E0921402F09215020E94880A182F811123
:101F9000F1CF0E94AD05C61AD70AE80AF90AC09225
:101FA0002E02D0922F02E0923002F092310282CFC4
:101FB0008091090290910802892B8093740180918D
:101FC0000C02882329F10E945E0D20910A023091B3
:101FD0000B02821B930B8C3D954010F00E94AC08C5
:101FE0008091740190910C02892B809374018091EF
:101FF00028018823E1F18091990487FF38C08EE1A0
:10200000E6E7F1E090E08150A0F591110E94AC0864
:1020100040E250E068EE71E084E791E00E94FE2328
:10202000892B21F180E2E4E7F1E0A8EEB1E0019034
:102030000D928A95E1F7E0919004F0919104309728
:10204000A9F080912801882359F08091990487FF95
:1020500007C0809174018093750186E080937401BC
:102060000280F381E02D84E791E00995089586E0F0
:10207000C7CF2191222339F29F5FC5CF1092090269
:1020800080912801E6E7F1E0882329F18091990405
:1020900087FF21C08EE1DF011D928A95E9F790E06C
:1020A00080E00E943D0690E080E00E9418061092B9
:1020B00008020E94D80F86E0E2E8F4E0DF011D92FA
:1020C0008A95E9F710927B0410927C0410927D04AB
:1020D0000E946A0D089586E0DECFAAE2B0E0E3E751
:1020E000F0E10C94BC2382EC94E02091F100FC011F
:1020F0002193CF01F4E08A3C9F07B9F78091C30494
:10210000833009F470C0B8F4813009F447C08230DC
:1021100009F4B1C08091E80083FF7EC28091C204BF
:102120009091C3049A3008F077C2E92FF0E0E85AA2
:10213000FB4D0C94F8238A3009F48CC08B3009F4E1
:102140006FC0893039F78091C204813219F78091CC
:10215000C6049091C7040297E8F68091E800877F53
:102160008093E8008091E80082FF38C09091F300EE
:102170008091F200029731F48091F100813011F0EA
:10218000863021F48091F10080939D048091E800D5
:102190008B778093E8000E948F04BCCF8091C204AB
:1021A000813A09F0B7CF8091E800877F8093E800FB
:1021B0008091C6049091C704892B61F460E28EE996
:1021C00094E070E00E943B058091E8008B7780935B
:1021D000E800A0CF60E090E080E0F3CF8091C00401
:1021E0008111C0CF97CF8091C204813A09F092CF7C
:1021F0008091C6049091C704892B09F08BCF809100
:10220000E800877F8093E8008091E80080FFFCCFA2
:10221000809128018093F1008091E8008E77B9CFFA
:102220008091C204813209F075CF8091C6049091EB
:10223000C704892B09F06ECF8091E800877F8093D7
:10224000E8000E948F048091C404809328010E94BA
:102250003E1060CF8091C204813209F05BCF809143
:10226000E800877F8093E8000E948F048091C50476
:1022700080939C044FCF8091C204813A09F04ACFE9
:102280008091E800877F8093E8008091E80080FFDC
:10229000FCCF80919C04BECF803899F0823809F041
:1022A000BBC18091C6048F70873008F0B5C18093A0
:1022B000E9008091EB0085FB882780F91092E90006
:1022C00006C08091BE049091BF04911182609091EC
:1022D000E800977F9093E8008093F1001092F1005E
:1022E0008091E8008E7794C1882309F482C18230FE
:1022F00009F092C18091C404811185C18091C60406
:102300008F702FEF280F263008F086C18093E900E8
:102310002091EB0020FF77C1933031F48091EB00E6
:1023200080628093EB006FC19091EB00906190937D
:10233000EB0021E030E001C0220F8A95EAF72093FC
:10234000EA001092EA008091EB008860EACF8111E8
:1023500063C11091C4041F778091E3008078812BC2
:102360008093E3008091E800877F8093E8000E94DB
:102370008F048091E80080FFFCCF8091E3008068AB
:102380008093E30082E0111183E08093C00444C194
:102390008058823008F040C18091C4049091C504F7
:1023A0008C3D23E09207A1F583E08A838AE289834A
:1023B0004FB7F894DE01139620E03EE051E2E32FA0
:1023C000F0E050935700E49120FF03C0E295EF70D6
:1023D0003F5FEF708E2F90E0EA30C0F0C7968D938C
:1023E0009D932F5F243159F74FBF8091E800877F7D
:1023F0008093E8006AE270E0CE0101960E943B05FE
:102400008091E8008B778093E80006C1C096E7CF03
:102410004091C6045091C704292F3327233031053A
:1024200009F444C078F52130310509F46FC08BE31D
:1024300090E0E1EFF6E02230310509F0EDC02091A7
:10244000E800277F2093E8002091C8043091C90458
:102450008217930708F49C0140E02115310509F02B
:1024600064C0411162C08091E80082FDC9CF8091B3
:10247000C004882329F2853019F28091E80083FF97
:10248000F2CFBECF21323105A9F12232310509F058
:10249000C3C04115510509F443C04130510509F04D
:1024A000BBC086EB90E0EBEFF5E0C9CF9927813018
:1024B0009105C1F0009759F0029709F0ADC0EEE325
:1024C000F7E0E4918E2F90E0EEE3F7E007C0EEE551
:1024D000F7E0E4918E2F90E0EEE5F7E0009709F445
:1024E0009BC0ADCFECE4F7E0E4918E2F90E0ECE4FC
:1024F000F7E0F4CF4115510571F04130510509F075
:102500008BC089E090E0ECE1F7E099CF82E190E0C8
:10251000ECE2F7E094CF89E090E0E3E0F7E08FCFE2
:1025200080E490E0E1EBF6E08ACF8091C00488235C
:1025300009F466CF853009F463CF8091E80083FD0C
:102540005FCF8091E80082FD8ECF8091E80080FF10
:1025500084CF9091F3008091F2002115310519F09C
:102560008830910550F041E0089709F040E08091F3
:10257000E8008E778093E80070CF44914093F1009B
:102580003196215031090196E8CF803809F044C0D6
:102590008091E800877F8093E8008091C104809358
:1025A000F1009ECE811138C01091C4041230A0F504
:1025B0008091E800877F8093E8001093C1040E9417
:1025C0008F04112311F084E005C08091E30087FDA2
:1025D000FACF81E08093C00442E061EC81E00E9488
:1025E000AE0442E261EC82E00E94AE048091C0043D
:1025F00013C08091C404813079F481E0933009F0F4
:1026000080E08093BF041092E9008091E800877F0A
:102610008093E8000E948F048091E80083FF0AC045
:102620008091E800877F8093E8008091EB008062D2
:102630008093EB00AA96E3E00C94D8231F920F92AC
:102640000FB60F9211242F933F934F935F936F9385
:102650007F938F939F93AF93BF93CF93DF93EF932A
:10266000FF93D091E900DF708091EC00C82FC1701A
:1026700080FDC0E81092E9008091F000877F809390
:10268000F00078940E946D101092E9008091F000A3
:1026900088608093F000CD2BCF70C093E900FF914C
:1026A000EF91DF91CF91BF91AF919F918F917F91EA
:1026B0006F915F914F913F912F910F900FBE0F90AF
:1026C0001F9018950E943E102FEF84E39CE021504C
:1026D00080409040E1F700C0000088E19AE00FB62A
:1026E000F894A895809360000FBE90936000FFCF90
:1026F000882321F00E94B7080E94D80F08958823EC
:1027000039F090910902982B909309020E94D80FFA
:102710000895882399F19CEF980F913A40F4682F1F
:1027200084E791E00E94B9050E94D80F089590E2D5
:10273000980F983050F4877091E001C0990F8A95F6
:10274000EAF7892F0E94B708EFCF9BE5980F9330E7
:1027500028F490E080E00E943D06089598E5980FE7
:10276000993128F490E080E00E941806089593E3E0
:10277000980F933118F460E00E94910D0895CF9363
:10278000C82F8823D9F18CEF8C0F813AC8F580913E
:102790002801882311F18091990487FF1EC0EC2F36
:1027A000E695E695E695F0E0EC58FE4F828190E0E4
:1027B0004C2F477021E030E002C0220F331F4A95B2
:1027C000E2F782239323892B91F06C2F84E791E029
:1027D0000E94B9050E94D80F0AC0E6E7F1E08CE735
:1027E00091E02191C21789F38E179F07D1F76C2FC3
:1027F00084E791E00E94E3050E94D80FCF910895ED
:1028000080E28C0F883068F4C77021E030E001C0AE
:10281000220FCA95EAF780910902822B8093090260
:10282000EBCFEBE5EC0FE33040F4F0E0E75DFE4F7B
:10283000808190E00E943D06E1CFE8E5EC0FE931B0
:1028400050F4F0E0EE0FFF1FE45DFE4F80819181B8
:102850000E941806D3CF83E38C0F833178F661E0B2
:102860008C2F0E94910DCACF1F93CF93DF93182F07
:10287000D0E0C0E0893311F4C0E5D0E0812F0E94A0
:10288000BF13209739F4812F0E948913DF91CF91D4
:102890001F9108958FE99FE00197F1F700C00000B4
:1028A0002197EFCFB0E0A0E0E8E5F4E10C94B52388
:1028B000EC018AE0A82EFE012491222309F497C09E
:1028C000213009F03EC031968491813031F4229656
:1028D000FE0184910E94341407C0823039F422969C
:1028E000FE0184910E94BF132196E5CF833031F41D
:1028F0002296FE0184910E948913F6CF843009F05C
:1029000074C02296FE01249190E080E0FE01319691
:102910002053330B2A30310548F0019728F3EFE9B3
:10292000FFE03197F1F700C00000F7CFA89EA001AB
:10293000A99E500D1124C901840F951F2491EF0108
:10294000E5CFE22FF0E0EE56F84FB490822F869557
:102950008695869590E0FC01EE57F84FE49027703D
:10296000F12C022E02C0F594E7940A94E2F731E0CC
:10297000E322FF24FC01EE58F84FC490D12C022E24
:1029800002C0D594C7940A94E2F7E1E0CE22DD2498
:10299000FC01EE59F84F049110E002C0159507951F
:1029A0002A95E2F701701127E114F10419F081EE84
:1029B0000E94BF13C114D10419F086EE0E94BF1308
:1029C0008B2D0E943414C114D10419F086EE0E949C
:1029D0008913E114F10419F081EE0E9489130115A5
:1029E000110509F481CF8CE275CFEF017DCFCDB712
:1029F000DEB7EAE00C94D1230F931F93CF93DF93BC
:102A0000C62FD42F022FFC0182818823A9F0609366
:102A1000CC040E945E0D9093CB048093CA04C770CF
:102A200081E001C0880FCA95EAF70E947F13DF9109
:102A3000CF911F910F9108958091CC04681332C0FB
:102A40008091CA049091CB040E944F0D883C91055F
:102A500048F510E21D0FCD17B9F080E28C0F8830D9
:102A600040F4C77081E001C0880FCA95EAF70E9460
:102A70007813183048F481E09D2F977001C0880FBB
:102A80009A95EAF70E947F13802F0E943414183021
:102A900070F6D77081E001C0880FDA95EAF70E94DE
:102AA0007813C5CFC77081E001C0880FCA95EAF7D7
:102AB000F6CFA5E0B0E0EFE5F5E10C94B3237C019F
:102AC000DC0113968D919C911497892B39F08C9190
:102AD00011969C9189238F3F09F051C42596ECE013
:102AE0000C94CF230E94C808182F682F89819A81DF
:102AF0000E943C0969817A81812F0E9400078C0124
:102B0000FC01FE57E831F10508F0AFC0EE59FB4D6E
:102B1000D70112968C910C94F823882321F08FEB27
:102B200092E00E945214F7018281882309F450C474
:102B30001092CC04C8019057839708F033C484E006
:102B400090E00E941C2490939A0480939904F801C9
:102B5000E150F047E232F10508F0C2C0E658FB4D03
:102B60000C94F8238823F9F287EA92E0DACF8823DD
:102B7000D1F28FE892E0D5CF8823A9F286E792E0E0
:102B8000D0CF882381F28EE592E0CBCF882359F213
:102B900086E492E0C6CF882331F28EE292E0C1CF84
:102BA000882309F286E192E0BCCF882309F4BBCFE9
:102BB0008EEF91E0B6CF882309F4B5CF85EE91E092
:102BC000B0CF882309F4AFCF8BEC91E0AACF882354
:102BD00009F4A9CF81EB91E0A4CF882309F4A3CF16
:102BE0008DE991E09ECF882309F49DCF89E891E09B
:102BF00098CF882309F497CF84E791E092CF882378
:102C000009F491CF8DE591E08CCF882309F48BCF27
:102C100083E491E086CF882309F485CF8FE291E0A9
:102C200080CF882309F47FCF88E191E07ACF882391
:102C300009F479CF80E091E074CF882309F473CF51
:102C40008BEE90E06ECF882309F46DCF86ED90E097
:102C500068CF882309F467CF80EC90E062CF8823A7
:102C600009F461CF8CEA90E05CCFFC01E851FC47AD
:102C7000E730F10508F057CFE456FB4D0C94F823EC
:102C800026E241EE61EEC7010E94FC148091E7014B
:102C9000877009F423CFD70112968C91882309F409
:102CA0001DCF80919A0482FF19CF82E00E9489098A
:102CB00015CF27E245EE65EEE6CF26E241EE60EE67
:102CC000E2CF27E245EE64EEDECF26E241EE62EE91
:102CD000DACF27E245EE66EED6CF28E241E0EBCF31
:102CE0008091990481608093990495C080919A04A1
:102CF000886080939A048FC0809199048260F3CF9A
:102D0000809199048460EFCF809199048860EBCF23
:102D100080919A048160EDCF80919A048260E9CF1E
:102D2000809199048061DFCF809199048062DBCF2C
:102D3000809199048064D7CF0E943E1080919904BD
:102D40008068D1CF809199048C60CDCF80919A0416
:102D50008360CFCF809199048E7FC5CF80919A04F4
:102D6000877FC7CF809199048D7FBDCF80919904D3
:102D70008B7FB9CF80919904877FB5CF80919A04DA
:102D80008E7FB7CF80919A048D7FB3CF80919904C5
:102D90008F7EA9CF809199048F7DA5CF80919904D2
:102DA0008F7BA1CF0E943E10809199048F779BCF9B
:102DB00080919904837F97CF80919A048C7F99CFDB
:102DC0008091990482FB992790F921E0922790FB4A
:102DD00082F990FB83F987CF80919A04982F909580
:102DE00091708E7F892B90FB81F983CF909199040C
:102DF000892F8F7B96FF806476CF0E943E10909142
:102E00009904892F97FB87F980586DCF61E08EE098
:102E100090E00E9422246091990470919A0484E0C9
:102E200090E00E9440240E943E1030CF60E0EFCF3F
:102E300090919904892F8F7E94FF806154CF909157
:102E40009904892F8E7F90FF81604DCF90919A04D5
:102E5000892F877F93FF88604CCF0E943E10FFEF41
:102E600024E33CE0F15020403040E1F700C0000096
:102E70000E949C056FEF7FEF90E080E00E9440246D
:102E80000E94621380919A0482FB882780F991E066
:102E900089270E94290BF7018281008111818823F3
:102EA00009F446C0C8010E94C808D82E682FC8017E
:102EB0000E943C09B8018D2D0E9400070E941D0749
:102EC0008C01882ED7011296DC9012971596BC9033
:102ED000B2943FE0B3228091E7018770C1F0AD2C3E
:102EE000DD20B1F0812F807F803421F080E2800FDF
:102EF000883068F080919A0482FF09C082E00E94C5
:102F000089098091E7018770AA24A3948111A12CDB
:102F1000912E92942FE09222BBE0B91508F474C070
:102F2000E92DF0E0ED55FB4D0C94F82380E0B1CF96
:102F3000C8010E940909D82EBDCFE12FEF70CE2E17
:102F4000107F19F0C29490EFC922DD20B9F0CC2097
:102F500069F080E2800F883010F0811009C0809104
:102F60000902C82AC09209020E94D80F802F4AC0C5
:102F700080910802C82AC0920802F6CF802F0E94D2
:102F80008913CC2009F440C0005E083010F0811095
:102F900004C08C2D0E94B70806C0C094809108021E
:102FA000C822C09208020E94D80F2EC0F12FFF70D5
:102FB000CF2E107F103219F0C29480EFC8228820E3
:102FC00089F021E0821609F482C0DD2009F48BC06B
:102FD000BB2009F455C0F701858180FFC7CF8F70F2
:102FE00085834EC090919A0492FD43C0DD20D9F1B3
:102FF000CC2039F080910902C82AC09209020E94AF
:10300000D80F80E00E94BF13A92DA850BB0B1497C6
:1030100010F40E94AB0AAA20A9F08091E70180FD7C
:1030200011C0F70112828595859585950E94A909A1
:10303000C7010E9459158091E70185958595859571
:103040000E94770985E0F701DE01119601900D924B
:103050008A95E1F709811A81C8010E940909B8011E
:103060000E9400073BCD80E00E948913CC2061F2D2
:1030700090CFDD20D1F080910C02C82AB11004C09D
:103080008C2D0E947F13C0CF31E0B312F9CF92FF95
:10309000BBCF8C1509F4B8CF0E945E0D90930B0244
:1030A00080930A02C0920C02AFCFB11006C00E94FA
:1030B000AC088C2D0E947813A7CF81E0B81609F4D4
:1030C000A3CF8C2D0E9478130E94AC089DCFDD20E9
:1030D00029F095E09B1508F497CFD2CFA4E0AB156B
:1030E00008F492CFE6CFBB2021F3F9E38F1209C099
:1030F0002FEF37EE83E0215030408040E1F700C0F1
:103100000000802F0E9489137FCF812F869586959E
:10311000837061F0813009F077CFC8019370D110CE
:1031200002C080E090E00E9418066ECFC801937044
:10313000D11002C080E090E00E943D0665CF6D2D69
:10314000802F0E94910D60CF812F837009F03FC0C6
:10315000D1105ACF402F429546954770440F440FE7
:10316000802F8F7090E0042E02C0880F991F0A9460
:10317000E2F730E020E004FF09C02FE030E002C0B9
:10318000220F331F4A95E2F7209530951695169534
:103190001370123099F078F440913C0250913D0246
:1031A000113039F0822B932B842395230E94B90987
:1031B0002BCF842B952B822B932BF8CF822B932B09
:1031C00020913C0230913D0282279327EFCF8695D4
:1031D000DD2011F0812F8170882309F415CF402F55
:1031E000429546954770440F440F802F8F7090E0B2
:1031F000042E02C0880F991F0A94E2F730E020E005
:1032000004FF09C02FE030E002C0220F331F4A95AF
:10321000E2F720953095169516951370123099F0B7
:1032200078F440913E0250913F02113039F0822BE8
:10323000932B842395230E947209E6CE842B952B31
:10324000822B932BF8CF822B932B20913E0230912F
:103250003F0282279327EFCF1F70DD2029F0812FB7
:103260000E94A909802F0DCF802F0E947813812FF3
:103270000E947709C9CE802F92EF891699F198158F
:1032800070F0A0EF8A16D1F0B1EF8B1691F0DD202F
:1032900009F465C0B1106ACE812F8F7127C0E3EFAA
:1032A0008E1639F1F4EF8F12F2CF80919A0482FDDD
:1032B0002EC0812F8F71DD20D9F218C0DD2069F07A
:1032C00024E02B1508F4A0CE1F7181E090E002C02D
:1032D000880F991F1A95E2F7B8CF35E03B1508F42F
:1032E00093CEF2CF812F8F71D110C2CF0E94A90946
:1032F0008BCE90E080E0DD2009F49DCF1F7181E04E
:1033000090E002C0880F991F1A95E2F794CFDD2054
:10331000D9F01F71812F0E94A90980919A0482FF20
:1033200011C0A8E01A9FC001112483608093E701B7
:10333000812F0E94A9090E945E0D9093E60180935F
:10334000E50162CE812FD2CF81E00E948909B1E0F0
:10335000BB1508F059CE82E00E94890955CEBB20EA
:1033600059F0893309F0CDCEEFEFF7EE23E0E150CD
:10337000F0402040E1F7C3CE812F8F7179CF85E0F7
:10338000F701DE01119601900D928A95E1F7D701C0
:1033900012962C9189819A812111A4CB0E9409094E
:1033A000182FA8CB0631BCE71B0709F5809109024D
:1033B0008A7A91E009F490E09093940169E2811196
:1033C00065E384E791E00E94E3050E94D80F5ECC9C
:1033D0000631ECE71E0709F05ECD8091940169E2A9
:1033E000811165E384E791E00E94B905EECF0330D7
:1033F000FCE71F0709F43ECD50F401153CE7130725
:1034000009F42BCD01301C4709F43ACD44CD0B35DE
:103410009CE7190709F48ACD0C35ACE71A0709F4C3
:1034200031CD0A351C4709F036CD81E032CD1F93EE
:10343000CF93DF938091B201807F09F049C08091E2
:10344000AF01882309F444C08091E401D091B30115
:103450006091AD017091AE01A091B001B091B10148
:10346000C62FC72316E0D81799F190E0109711F0F6
:10347000CF3F19F401968770F6CF189F9001199FDE
:10348000300D1124F901EC54FE4F41814713F2CF66
:1034900040814613EFCF42814111ECCF43815481EB
:1034A0004A1B5B0B483C510528F78091B2018F7095
:1034B00080618093B201F901E754FE4F80818F70E3
:1034C000806180838DEA91E00E9459150E94BE08B8
:1034D000DF91CF911F910895A1E1B0E0E2E7FAE119
:1034E0000C94B5238C0185E0F801DE011D96019056
:1034F0000D928A95E1F7F801E2808DEAA82E81E02D
:10350000B82E6091B0017091B1016115710509F497
:1035100016C19091AD014091AE01892F84238F3F58
:1035200009F40DC120813181C380D480F090AF01B6
:10353000F601E61BF70BFF2009F4E8C08091B20109
:10354000582F507FE83CF10508F0ABC051116BC01B
:10355000FE2C431314C0921312C0E11010C08F70E0
:1035600080618093B201C5010E9459158091B2011A
:10357000F80185838F2D6196EAE00C94D123C11464
:10358000D10429F0822F83238F3F09F0F3C080E01C
:10359000F82FF170DF2E80FF3CC08091E401409154
:1035A000B30156E0841315C02D873E878D859E8517
:1035B0000E94FC08292F22952F702230F0F0243031
:1035C00018F59F70F1F0F8019581907FD1F4D12C1E
:1035D0001EC090E0589FF001599FF00D1124EC544B
:1035E000FE4F6181361306C06081261303C06281DD
:1035F000E6120FC001968770D5CF9F7011F0882317
:1036000031F3805E883018F3C8010E945915FD2CF3
:10361000B1CFEE2009F4AECF8091B20181608093EA
:10362000B201F12CA7CF431312C0921310C0E110C6
:103630000EC0F8018583C8010E94591586E0F80183
:10364000ADEAB1E001900D928A95E1F793CFC80100
:103650000E94BE09882309F1EE20F9F08091B201A1
:10366000803270F02091AD013091AE0138872F8308
:103670001986DB86CA868C87CE0107960E9459156B
:1036800086E0F801ADEAB1E001900D928A95E1F78C
:103690000E94171AFF24F3946DCFC8010E94591598
:1036A000F9CF51110AC08DEA91E00E94591586E0C8
:1036B000F50111928A95E9F7B4CF43130FC0921325
:1036C0000DC0E1100BC0F8018583C8010E94591597
:1036D00086E0F50111928A95E9F74CCFC8010E9466
:1036E000BE098823D1F2EE20C1F28091B20180326E
:1036F00038F22091AD013091AE013A8329831B82CB
:10370000DD82CC828E83CE010196B8CFE83CF105F4
:10371000F8F6FE2CEE2009F2431303C0921709F4C9
:103720008DCFC8010E94BE098111AACF8091B2013C
:1037300081608093B201C8010E9459151BCFEE2011
:1037400009F4ABCFC8010E94BE09F82E882309F402
:10375000A4CF86E0F801ADEAB1E001900D928A9520
:10376000E1F78091AD019091AE010E94FC080E94AA
:10377000171A00CF81E08E250BCFA7E1B0E0E3EC74
:10378000FBE10C94BC234B8B5C8B6D8B7E8B8F8B06
:103790006111109208021A8A198A85E0FE01739657
:1037A000DE011D9601900D928A95E1F780919A04B1
:1037B00082FF1CC00E945E0D2091E5013091E60160
:1037C000821B930B8C3D954020F08091E70182FF96
:1037D00079C00E945E0D20910A0230910B02821B7B
:1037E000930B8C3D954010F00E94AC0886E0FE01E2
:1037F0003D96DE01179601900D928A95E1F7CE0174
:1038000007960E946C1A882359F016E08091E40113
:103810009091B301891343C06796E3E00C94D823D9
:1038200086E0FE013796DE01119601900D928A9591
:10383000E1F78A859B85892B41F38F8198858923C0
:103840008F3F19F32091B30130E0C90101968770D1
:1038500099274091E4014817190671F40E943E101F
:103860001092B3011092E40186E0EDEAF1E0DF018D
:103870001D928A95E9F7C9CF96E0929FD001939F58
:10388000B00D1124AC54BE4FFE01319601900D9243
:103890009A95E1F78093B3010E94BE08B6CF819F4D
:1038A000C00111248C549E4F0E946C1A882309F485
:1038B000B3CF8091E40190E00196877099278093BF
:1038C000E401A4CF82E00E94890983CF1F921FB632
:1038D0001F9211248F939F93AF93BF938091940471
:1038E000811113C08091950490919604A091970442
:1038F000B09198044196A11DB11D809395049093B9
:103900009604A0939704B0939804BF91AF919F91B0
:103910008F911F901FBE1F901895CDB7DEB762978D
:103920000FB6F894DEBF0FBECDBF85B7806885BFE8
:1039300085B7806885BF84B7877F84BF0FB6F8944A
:10394000A89580916000886180936000109260006B
:103950000FBE80E890E00FB6F894809361009093DA
:1039600061000FBE84EA96E0909373018093720128
:103970000E943F040E94E0048091E20084608093F2
:10398000E20078948091C0048823A1F01091E900AE
:103990001F709091EC00892F817090FD80E8182BAA
:1039A0001092E9008091E80083FD0E946D101F7065
:1039B0001093E90082E084BD93E095BD9AEF97BD36
:1039C00080936E0010922E0210922F0210923002FD
:1039D000109231020E94880A809318010E94880A7E
:1039E00081110E943722809118018091180194E082
:1039F000811190E090933B0284E0891B80933A020E
:103A000084E90E94A60686E60E94A60687E90E942F
:103A1000A60686EC0E94A60604E611E0EAE6EE2E73
:103A2000E1E0FE2ED8018D918D018F3F11F00E94B3
:103A3000A606E016F106B1F788E0E2E4F2E0DF0165
:103A4000282F1D922A95E9F7E2E3F2E0DF011D92AB
:103A50008A95E9F790E080E00E941C24873E9E4F03
:103A600009F45EC067EE7EEF90E080E00E944024A3
:103A700060E082E090E00E94222460E083E090E039
:103A80000E94222410923D0210923C0260E074E1F8
:103A900084E090E00E94402460E086E090E00E9494
:103AA00022246FEF87E090E00E94222440E050E063
:103AB000BA0188E090E00E94342460E08DE090E05C
:103AC0000E94222440E050E0BA0188E190E00E9488
:103AD000342460E087E190E00E94222440E050E03E
:103AE000BA018CE190E00E94342470E060E080E252
:103AF00090E00E94402440E050E0BA0188E190E06C
:103B00000E94342440E050E0BA018FE090E00E942F
:103B1000342440E050E0BA0183E190E00E94342474
:103B200082E090E00E94142480934A0284E090E0B6
:103B30000E941C2490939A04809399040E94690E19
:103B4000EFE3FCE93197F1F700C000000E94690E35
:103B50000E94880AE4E08111E0E0F0E0EE5BFD4FB6
:103B6000808181FF08C06FEF7FEF90E080E00E94CE
:103B700040240E949C0583E090E00E94142490E081
:103B80000E94B9091092740480E8809353020E9445
:103B9000F1206DE070E08AEE95E00E94BC0A892B6E
:103BA000C9F58091740463E070E081FD98C087EEF0
:103BB00095E00E94BC0A892B69F56DE070E087ED05
:103BC00095E00E94BC0A892B29F50E94AD05605A38
:103BD00075418F4F9F4F6093880470938904809341
:103BE0008A0490938B04E4E7F2E080E092E0DF0146
:103BF0009C011D9221503040E1F78FEF9FEF909391
:103C000077048093760481E080938D0480938C0404
:103C1000109275040E94880A811102C00E943A2203
:103C200089E191E0909391048093900478E1272EAC
:103C3000312C8091C00400E112E1853009F48AC082
:103C40000E94690E5BE4E52E52E0F52E62E4C62E7A
:103C500062E0D62ED601F70191918D9123E532E0F5
:103C60002E173F0709F480C09817B1F30E94880A05
:103C7000882E10E0D6010D916D01F70191907F0122
:103C8000901629F19026B12CAA24A394892D8A217B
:103C9000B1F08820A1F0BC861D8791E0802F8A2199
:103CA00009F490E09E870E945E0D8160782F988BCA
:103CB0008F874C855D856E8588890E94BD1BB39476
:103CC000AA0CF6E0BF12E2CFF701319700831F5F25
:103CD000183081F60E94AD05DD24D39466C084EED1
:103CE00095E067CF8091C004843021F10E94E60AFC
:103CF0001092940430E40FB6F894A89520926000D6
:103D00000FBE3093600083B7817F846083BF83B729
:103D1000816083BF7894889583B78E7F83BF0FB609
:103D2000F894A8958091600088618093600010925B
:103D300060000FBE8091BF04882361F00E94690E6D
:103D4000E2E4F2E0819181112CC28AE492E08E17C4
:103D50009F07C1F78091C004853009F4C3CF0E944A
:103D60003E100E94AB0A6CCF981380CF0E945E0D6C
:103D70008C01809140029091410208171907A1F02F
:103D80008FEF8F83888719860E945E0D8160782F60
:103D90009B878A874F81588569858B850E94BD1BCB
:103DA0001093410200934002D12C0E94880A809116
:103DB0008D04882371F180917804909179040E9498
:103DC0004F0DC29730F00E945E0D9093790480935E
:103DD00078048091760490917704892B09F0F9C0DA
:103DE00080918C048823A9F00E94AD05009188047D
:103DF0001091890420918A0430918B04601B710B0F
:103E0000820B930B6F3F7F4F8F4F9F4710F40E94A1
:103E1000E60AD1100E94010B86E0E2E8F4E0DE0140
:103E2000119601900D928A95E1F7109284041092F8
:103E3000850410928604109287048B819C81892BC3
:103E400009F44AC080918004909181040E944F0D32
:103E50009C0190917B04992309F4BEC12531310561
:103E6000D8F19F3F19F09F5F90937B041B81112332
:103E700059F00E9484069FEF11160CF491E0899F7F
:103E8000802D1124809384041C81112359F00E94F9
:103E900084069FEF11160CF491E0899F802D112468
:103EA00080938504309184043323B1F020918504FC
:103EB000222391F045EB3403C0011124992309F426
:103EC00060C19093840445EB2403900111243323B3
:103ED00009F45BC1309385048D819E81892B09F49F
:103EE0004AC080917E0490917F040E944F0D9C01F6
:103EF00090917C04992309F46AC121353105D8F1E8
:103F00009F3F19F09F5F90937C041D81112359F00E
:103F10000E9462069FEF11160CF491E0899F802D9C
:103F20001124809386041E81112359F00E94620699
:103F30009FEF11160CF491E0899F802D112480933E
:103F40008704309186043323B1F020918704222323
:103F500091F045EB3403C0011124992309F419C1F0
:103F60009093860445EB240390011124332309F434
:103F700014C13093870446E050E0BE016F5F7F4F6D
:103F800082E894E00E94FE23892B61F480918404EE
:103F900090918504892B90918604892B90918704B8
:103FA000892B11F00E946A0D86E0FE013196A2E88D
:103FB000B4E001900D928A95E1F70E94AB0A9091CE
:103FC0007A04891709F435CE80937A040E94AD05EE
:103FD00030CE80917504811103CF0E94010B209196
:103FE0007604309177042115310509F4F9CE80E08B
:103FF00041E050E0082F10E07A01082E02C0EE0CDC
:10400000FF1C0A94E2F7B70162237323672B11F4B4
:104010008F5FF0CF9091740490FF9AC0880F880F43
:10402000880F8093230110922601895F80932401D9
:1040300083E08093270124E630E047E050E061E22E
:1040400071E088E70E949121892B09F0C9CEA8016F
:1040500095E0440F551F9A95E1F78091740480FF15
:1040600089C0E4E5F2E080E2DF011D928A95E9F77C
:10407000EEE6F1E0FA8BE98B0AE611E087E0982E94
:1040800088248394A989BA892D91BA8BA98BF801C8
:1040900041908F01440E552E511CC2018C589D4FEA
:1040A0002C01E22FF0E0EC5AFD4F30E020E0692CCB
:1040B000621AC82C022E01C0CC0C0A94EAF75201F5
:1040C00090E0D5018D915D018C21662D691B677093
:1040D000762E062E000C770BB82F01C0BB0F7A94FA
:1040E000EAF77B2E7195619571096770772701C09A
:1040F00086956A95EAF7782A8081782A70829F5F90
:104100009830F9F62F5F3F4F31962830310579F618
:10411000E989FA89E257F14009F0B4CF04E610E0EA
:1041200020E230E044E552E060E488E70E94B221FA
:10413000892B09F055CEE094F0948091760490910B
:104140007704E822F922F0927704E092760448CED0
:104150008295880F80768093230198013695279564
:104160003695279520932601815E80932401109235
:10417000270161CF4C585D4F04E610E020E230E0AB
:10418000D3CF81E0809384049ECE81E08093850428
:10419000A3CE81E080938604E5CE81E080938704FE
:1041A000EACE09BD19BD09B400FEFDCF8091D8004B
:1041B0008F7D8093D8008091E00082608093E00042
:1041C0008091E00081FDFCCF0E943E10C3CD2B30DA
:1041D000310508F097CECFCE2B30310508F043CE15
:1041E0007BCE1092B9008CE08093B8000895B0E0C7
:1041F000A0E0EDEFF0E20C94B423B82EEB010E94A6
:104200005E0D6C01EE24E394F12CC431D10560F015
:1042100025E0E22EF12CCF3FDC0731F0CE0164E146
:1042200070E00E9499237B0184EAA82E94E8992EDD
:104230001092BC00A092BC000E945E0D8C01809187
:10424000BC0087FF0DC08091B900887F8830F9F0ED
:104250008091B900887F8031D1F00FEF1FEF08C047
:10426000C8010E944F0DE816F90648F70EEF1FEF40
:10427000CF3FDC07E9F2C6010E944F0DC817D907EE
:10428000B8F6C801CDB7DEB7EBE00C94D023B092FE
:10429000BB009092BC000E945E0D8C018091BC001E
:1042A00087FF0AC08091B900887F883111F080347F
:1042B000A1F610E000E0E5CFC8010E944F0DE8161E
:1042C000F90660F7D3CF0F931F93CF93DF93EB01E2
:1042D0008093BB0084E88093BC000E945E0D8C013B
:1042E0008091BC0087FF11C02091B900287F81E038
:1042F00090E0283211F490E080E091958195910949
:10430000DF91CF911F910F910895CF3FDC0741F3CB
:10431000C8010E944F0DC817D90710F78EEF9FEF05
:10432000EFCFB0E0A0E0E7E9F1E20C94B7236B0136
:104330008A017901B9010E94F720E6010C0D1D1DCB
:10434000C017D10711F097FF08C024E92093BC00E3
:10435000CDB7DEB7E8E00C94D323B70189910E9472
:104360006321EECFB0E0A0E0E8EBF1E20C94B723DC
:10437000C62F6A017901B8010E94F72097FD0CC091
:10438000B8018C2F0E946321E601EC0CFD1CCE15B8
:10439000DF0511F097FF08C024E92093BC00CDB7DA
:1043A000DEB7E8E00C94D323B80189910E94632121
:1043B000EECF84E98093BC0008958EE14A9B02C051
:1043C0008150E1F74A9BFECF08955A9880E28A9582
:1043D000F1F75A9A0895FC013BE03A95F1F798E01D
:1043E00020E080E031E040E14A95F1F7880F4A9BF8
:1043F00002C08160232742E04A95F1F7000040E1C6
:104400004A95F1F7915079F790E19A95F1F799B1C2
:1044100032E03A95F1F7000040E14A95F1F792FB5E
:10442000992790F992272081920F90830895A1E017
:10443000B0E0EDE1F2E20C94B92319828C017C0129
:10444000E60EF11C0E151F0541F481E099819111D2
:1044500080E02196E6E00C94D5230E94DD21CE0178
:1044600001960E94EB21F80181938F01EBCF529AC4
:104470005A9A089552985A9AEA9AE9E6F0E08081A9
:104480008F7C808308956150770B91E001C0990F74
:104490006A95EAF720E031E0911108C0222391F0FB
:1044A0005A9A80E28A95F1F75A980895492F48233D
:1044B00039F05A9A232740E24A95F1F79695ECCFC6
:1044C0005A98F9CF5A98EDCFFF920F931F93CF933D
:1044D000DF93EC018C01060F111DC017D10729F4E1
:1044E000CDB7DEB7E5E00C94D623F9900E94E52124
:1044F00068E08F2D0E944322F0CF1F920F920FB6DB
:104500000F9211240F931F932F933F934F935F9319
:104510006F937F938F939F93AF93BF93EF93FF938B
:10452000CF93DF930F92CDB7DEB719820E94DD21C2
:10453000CE0101960E94EB21082F0695069506955F
:10454000282F22952570902F9570290F922F937008
:1045500026952695920F982797708981982B09F0B8
:104560005CC0043008F059C080E18A95F1F75A9A8E
:10457000529A82E08A95F1F700C05A9888E0089F25
:1045800080011124D801A050BF4F1696ED91FC91E7
:1045900017973097A9F060915E0170915F011496B2
:1045A0002D913C911597260F371F11968D919C9157
:1045B0001297680F791F13964C9113978C91099558
:1045C000F801E050FF4F6381662351F020915E01B6
:1045D00030915F0184819581820F931F0E94642234
:1045E0000E94E52180E18A95F1F75A9852985A9AEB
:1045F00080E18A95F1F7F801E050FF4F6081662372
:1046000051F020915E0130915F0181819281820F92
:10461000931F0E9417220E94DD210F90DF91CF91FE
:10462000FF91EF91BF91AF919F918F917F916F918A
:104630005F914F913F912F911F910F910F900FBE5E
:104640000F901F9018950F931F93CF93DF93EC015A
:1046500004970CF04CC0F894529A5A9885E08A95C9
:10466000F1F700009C2F969595708C2F8570980F10
:10467000892F83709695969523E0CC0FDD1F2A95A0
:10468000E1F7980F8E01092B0E94E52100C068E038
:10469000802F0E94432280E18A95F1F752985A9A1E
:1046A0004A9B1EC087E090E04A991CC0FE01E05082
:1046B000FF4F63816623F9F020915E0130915F0125
:1046C00084819581820F931F0E941722811113C04C
:1046D000529A5A9A7894DF91CF911F910F91089531
:1046E00000C0DECF019729F4529A5A9A789480E05C
:1046F000F2CF00C0D9CF0E94DD2180E28A95F1F788
:104700005A98529A80E18A95F1F7C050DF4F68813C
:10471000662351F020915E0130915F0189819A8179
:10472000820F931F0E9464220E94E521789481E009
:10473000D2CFAA1BBB1B51E107C0AA1FBB1FA617E4
:10474000B70710F0A61BB70B881F991F5A95A9F73A
:1047500080959095BC01CD0108952F923F924F9284
:104760005F926F927F928F929F92AF92BF92CF9201
:10477000DF92EF92FF920F931F93CF93DF93CDB70A
:10478000DEB7CA1BDB0B0FB6F894DEBF0FBECDBF82
:1047900009942A88398848885F846E847D848C8453
:1047A0009B84AA84B984C884DF80EE80FD800C815C
:1047B0001B81AA81B981CE0FD11D0FB6F894DEBF3F
:1047C0000FBECDBFED01089597FB072E16F40094A0
:1047D00007D077FD09D00E94992307FC05D03EF44D
:1047E000909581959F4F0895709561957F4F08959D
:1047F000EE0FFF1F0590F491E02D0994FB01DC0101
:1048000004C08D910190801921F441505040C8F7A7
:10481000881B990B0895FB01DC0102C001900D92E9
:1048200041505040D8F70895F999FECF92BD81BD0F
:10483000F89A992780B50895A8E1B0E042E050E0E9
:104840000C944824262FF999FECF92BD81BDF89A89
:10485000019700B4021639F01FBA20BD0FB6F894C4
:10486000FA9AF99A0FBE08950396272F0E942324DF
:104870000E942224252F0E942324242F0C942324D9
:104880000196272F0E9423240C942224DC01CB01C3
:10489000FC01F999FECF06C0F2BDE1BDF89A319650
:1048A00000B40D9241505040B8F70895F894FFCFEE
:1048B0004C1174110C1374110C13A711C8110C13A3
:1048C000C512D2128D15B215B715BC15C115C61576
:1048D000CB15D015D515DB15E115E715ED15F3153D
:1048E000F915FF1505160B16111617161D162316AA
:1048F00029162F16AA161F17B2167C168016B61682
:104900008416BA16C616901618179416CA16981654
:10491000CE16F6169C16D216FD16A216D816E0165E
:104920008816BE168C16C216A616DC16EC160617CE
:1049300016177616AE1626175D166116401659160E
:10494000651669166D169D179D17D617D61785180B
:0E4950009F1804180418A4182C193B193B19C1
:10495E000000000100000000000000040100000043
:10496E000405000000000000019905310A2A0A23FF
:10497E000A0021007F22000301818283E200E90008
:10498E00EA00B500B600B700CD008301CC008A0165
:10499E0092019401210223022402250226022702FB
:1049AE002A02B300B4006F0070009F01CB012002F9
:1049BE00946697C6F4F5F6F7313300081018181000
:0249CE000800DF
:00000001FF
