:100000000C94A9020C94E1020C94E1020C94E1021C
:100010000C94E1020C94E1020C94E1020C94E102D4
:100020000C94E1020C94E1020C94162E0C94EA2E2E
:100030000C940C290C94E1020C94E1020C94E10262
:100040000C94E1020C94E1020C94E1020C94E102A4
:100050000C94E1020C94AF290C94E1020C94E1029F
:100060000C94E1020C94E1020C94E1020C94E10284
:100070000C94E1020C94E1020C94E1020C94E10274
:100080000C94E1020C94E1020C94E1020C94E10264
:100090000C94E1020C94E1020C94E1020C94E10254
:1000A0000C94E1020C94E1020C94E102009B8B7B26
:1000B00000AB8A7A00AA9A7900A9998900A8988841
:1000C00000A7978700A6968600A5958500A494842E
:1000D000003C4C5C002C4D5D002D3D5E002E3E4EE4
:1000E0000030405000314151002A3A4A0029394934
:1000F0000028384800273747002636460025355661
:10010000002445550034445400AC9C8C00AD9D8DBA
:1001100000AE9E8E00AF9F8F00B0A09000B1A19165
:1001200000324252002B3B4B01A9998901A89888C3
:1001300001A7978701A6968601A5958501A49484B9
:10014000013C4C5C012C4D5D012D3D5E012E3E4E6F
:10015000012F3F4F013040500033435301AB8A7AA7
:1001600001283848012737470126364601253556EC
:100170000124455501AC9C8C01AD9D8D01AE9E8E38
:1001800001AF9F8F0131415101324252013343533C
:1001900000B2A281019B8B7B012B3B4B012A3A4A87
:1001A0000134445401B1A19101B2A28101B3928200
:1001B00001A3938300A3938300B39282167C1E0055
:1001C0001F0020002100220023002400250026001B
:1001D00027002D002E002A004A002B0014001A00D0
:1001E0000800150017001C0018000C001200130076
:1001F0002F00300031004B003921040016000700A9
:1002000009000A000B000D000E000F00330034003F
:10021000000028004E00E1001D001B000600190030
:10022000050011001000360037003800E50000001E
:1002300052004D00E000E300E200000000002C004E
:1002400000000000E6002152E400500000005100D0
:100250004F00167C3A003B003C003D003E003F0052
:100260004000410042004300440045004C004A0069
:10027000010020782178237824782578267827783B
:1002800028780100460047004800007C4B003921D7
:1002900029782A7801000100010001000100010015
:1002A0000100010001000000037C4E00E10001009C
:1002B00001000100010001001370010001000100B4
:1002C000010001000000A900A800010001000100D8
:1002D000000000000100000000000100010001001A
:1002E000AC000000AA00AB00000101010101010106
:1002F00001010202020202020202020303030303DB
:1003000003030304040404040404050505050506A9
:100310000606060607070707070808080809090967
:10032000090A0A0A0B0B0B0C0C0C0D0D0D0E0E0E10
:100330000F0F0F10101111111212131314141515A1
:1003400016161717181819191A1A1B1B1C1D1D1E13
:100350001E1F202021222223242425262627282967
:10036000292A2B2C2D2D2E2F303132323334353695
:100370003738393A3B3C3D3E3F4041424344454695
:100380004748494A4C4D4E4F505153545556585971
:100390005A5B5D5E5F616264656668696B6C6D6F18
:1003A0007072737577787A7B7D7E8082838587888B
:1003B0008A8C8E8F91939596989A9C9EA0A2A3A5C5
:1003C000A7A9ABADAFB1B3B5B7BABCBEC0C2C4C6C6
:1003D000C9CBCDCFD1D4D6D8DBDDDFE2E4E7E9EB82
:1003E000EEF0F3F5F8FAFDFF100344005A00360072
:1003F000350052004700420000000E0344005A003E
:1004000054004500430048000000040309040902A9
:100410003B00020100A0FA090400000103010100F1
:100420000921110100012240000705810308000194
:10043000090401000103000000092111010001224B
:10044000B60007058203200001120100020000002F
:10045000085A44211400020102000105010902A109
:100460000185020901A100050919012908150025C6
:1004700001950875018102050109300931158125B1
:100480007F95027508810609381581257F950175CC
:10049000088106050C0A38021581257F950175082B
:1004A0008106C0C005010980A101850319012AB791
:1004B00000150126B700950175108100C0050C09D3
:1004C00001A101850419012AA002150126A00295A7
:1004D0000175108100C005010906A1018506050707
:1004E00019E029E715002501950875018102050726
:1004F000190029EF1500250195F075018102050805
:100500001901290595057501910295017503910160
:10051000C005010906A101050719E029E715002515
:10052000019508750181029501750881010507197A
:100530000029FF150026FF009506750881000508B3
:100540001901290595057501910295017503910120
:10055000C00011241FBECFEFDAE0DEBFCDBF04B66E
:1005600003FE18C08091AB069091AC06A091AD0639
:10057000B091AE068730904BA740B04B59F4109223
:10058000AB061092AC061092AD061092AE06E0E0FB
:10059000F8E3099512E0A0E0B1E0ECE4F5E602C072
:1005A00005900D92A83CB107D9F726E0A8ECB2E07F
:1005B00001C01D92AB3AB207E1F70E94C4110C943E
:1005C00032320C940000CF930E947120C82F8823F0
:1005D00059F00E94852781FF07C02FEF4FEF6FEF83
:1005E0008EE190E00E94C5178C2FCF910895823044
:1005F000B8F46530A8F44F3098F450E09FE0699F5C
:10060000400D511D1124FA019BE4899FE00DF11D5D
:100610001124EE0FFF1FE454FE4F8591949108952D
:1006200080E090E008950E94F702089581E0089527
:1006300081E008950E941803089508950E941D0303
:100640000895A5E0B0E0E7E2F3E00C941B314983A4
:100650005A833091CF0289819A81311119C0662362
:1006600099F0222389F00E94CC08182F682F8981E5
:100670009A810E94A80869817A81812F0E94380F8F
:100680002596E3E00C9437310E94BA08182FF3CF77
:100690000E94CC0869817A81F1CFFC01262F40812C
:1006A00051816281738184810E942103089581E0D8
:1006B0000895CF93DF93EC0160E00E944D03BE01EB
:1006C0000E941E03DF91CF9108950E946910089542
:1006D0000E946D10089508950E9477070E946B0391
:1006E0002FEF84E39CE0215080409040E1F700C070
:1006F000000008950E946C030E94D32908950E946F
:100700006C030E94F72908950F931F93CF93DF93F3
:100710008C0161E00E944D03EC01B8010E941A03B4
:10072000811106C080E0DF91CF911F910F91089554
:10073000B801CE010E9469268823A1F3B801CE0139
:100740000E94FF24882371F3B801CE010E94DB25AB
:10075000882341F3B801CE010E94A224882311F31B
:10076000F8018281882361F0C330FCE7DF07E9F0FC
:1007700058F4C115ECE7DE07A9F0C130DC47B9F049
:10078000C8010E941603CFCFCB358CE7D807A9F05C
:10079000CC35ECE7DE0771F0CA35DC4789F70E94FB
:1007A000CE0CEECF0E947A03BDCF0E94D60C0E94E1
:1007B0007F03B8CF0E94C40CE3CF0E94D20CE0CFDD
:1007C0000E94E8280E9485200E94120481E00E9475
:1007D000A42108950E94160480E00E94A4210E9492
:1007E000ED28089508950E94F203089581E0089588
:1007F0000895CF93DF93D82F0E94F603C82F882344
:1008000019F08D2F0E94F8038C2FDF91CF9108955E
:100810000895CF93C82F0E94F3038C2F0E94F903F1
:10082000CF91089580E00E94090408950E947827DE
:100830000E9409040895CF930E947827C82F8091C1
:10084000CA028C1779F0C093CA020E94782960937B
:10085000CB027093CC028093CD029093CE028C2F6A
:100860000E940904CF910895ABE0B0E0EAE3F4E020
:100870000C941C314F83588769877A878B87611165
:100880000E940F0C1E821D8285E0FE013796DE015C
:10089000119601900D928A95E1F78C819D81892BAB
:1008A00061F449815A816B817C818D819E810E9496
:1008B000380B2B96E2E00C94383189819A81892398
:1008C0008F3F79F3CE0101960E9457038111E9CF42
:1008D000F0CFFC01808191810E94FE08089566237B
:1008E00029F00E9448120E941B1308950E94A21230
:1008F000FACFCF93C82F8823B9F08CEF8C0F813AB1
:10090000A8F46C2F80911B0290911C020E940E286B
:10091000882329F08C2F0E94CF0B0E94300C8C2F43
:100920000E94C70B0E94300CCF91089580E28C0F7B
:10093000883048F4C77081E001C0880FCA95EAF793
:100940000E94F20BEFCFEBE5EC0FE33040F4F0E068
:10095000E559FD4F808190E00E94B027E5CFE8E5A2
:10096000EC0FE93150F4F0E0EE0FFF1FE75CFD4FB4
:10097000808191810E94D527D7CF83E38C0F83316B
:1009800098F661E08C2F0E946F04CECF882381F10E
:100990009CEF980F913A28F40E94CF0B0E94300CE4
:1009A000089590E2980F983050F4877091E001C05C
:1009B000990F8A95EAF7892F0E94F80BEFCF9BE5F4
:1009C000980F933028F490E080E00E94B0270895BB
:1009D00098E5980F993128F490E080E00E94D5279F
:1009E000089593E3980F933118F460E00E946F0428
:1009F00008951F93CF93DF93182FEB010E94790482
:100A0000209739F4812F0E94C604DF91CF911F9166
:100A100008958FE99FE00197F1F700C0000021974A
:100A2000EFCF70E060E0893311F460E570E00E9480
:100A3000F9040895882321F00E94F20B0E94300CE3
:100A40000895882321F00E94F80B0E94300C08952D
:100A5000B0E0A0E0EEE2F5E00C9415316C01D62F89
:100A6000C72FFC011281F580F2949FE0F9220E94C9
:100A7000E80BE82E8823B9F0E12E1123A1F08C2F8A
:100A8000807F803421F080E28D0F8830D0F080911B
:100A90001E0582FF16C082E00E94930C0E94E80BA4
:100AA00091E0E82EE926BC2EB2948FE0B822FBE05C
:100AB000FB1508F468C0EB2DF0E0EC5CFD4C0C94E9
:100AC0000631E12CF0CF0C2F0F70C07F11F0029592
:100AD000007F112399F0002359F080E28D0F8830B8
:100AE00010F0D11107C0802F0E94F20B0E94300C31
:100AF0008D2F41C0802F0E94020CF8CF8D2F0E94B5
:100B0000C604002309F43FC080E28D0F883010F046
:100B1000D11104C0802F0E94F80B03C0802F0E94C7
:100B2000080C0E94300C2FC00C2F0F70C07FC032F9
:100B300011F00295007FDD2381F0D13009F468C007
:100B4000112309F472C0FF2009F468C0F601858101
:100B500080FFCECF8F70858361C080911E0582FD9E
:100B600033C0112359F0002329F0802F0E94F20B8B
:100B70000E94300C80E00E94790405C080E00E9451
:100B8000C6040111C7CFEB2DE850FF0B349720F4BA
:100B90000E9478270E940904EE2089F00E94E40B4D
:100BA00080FD0DC0F60112820E94DE0B0E94060835
:100BB000C6010E9437070E94DE0B0E941608CDB7BF
:100BC000DEB7E9E00C943131112389F0F11006C051
:100BD0000E94120C802B0E941A05D5CF21E0F21240
:100BE000F7CF0E94120C802B0E94190CCCCFF11071
:100BF00006C00E94260C802F0E942105C4CF31E040
:100C0000F31609F2802F0E9421050E94260CBBCF0B
:100C1000112331F085E08F1508F4B5CF802FDBCF9D
:100C200094E09F1508F4AFCFE6CFFF2021F3D9332E
:100C300049F4FFEF27EE33E0F15020403040E1F778
:100C400000C000008D2F0E94C6049DCF8C2F86957A
:100C50008695837069F0813009F095CF8D2F9C2F98
:100C60009370111102C080E090E00E94D5278BCFD5
:100C70008D2F9C2F9370111102C080E090E00E9494
:100C8000B02781CF612F8D2F0E946F047CCF8C2FD6
:100C90008370A1F5111177CF4D2F4295469547707E
:100CA000440F440F2D2F2F7030E0042E02C0220F6E
:100CB000331F0A94E2F790E080E0D4FF09C08FE090
:100CC00090E002C0880F991F4A95E2F780959095B1
:100CD000C695C695C370822B932BC23049F058F449
:100CE000C13019F00E94D6074ECF0E94CD074BCFDE
:100CF0000E94DF0748CF0E94CA0745CF869511237F
:100D000011F08C2F8170882309F43DCF4D2F42952F
:100D100046954770440F440F2D2F2F7030E0042E5E
:100D200002C0220F331F0A94E2F790E080E0D4FF64
:100D300009C08FE090E002C0880F991F4A95E2F742
:100D400080959095C695C695C370822B932BC23023
:100D500049F058F4C13019F00E94410814CF0E94A4
:100D6000380811CF0E944A080ECF0E94EE070BCF21
:100D7000CF70112329F08C2F0E9406088D2F2BCFC6
:100D80008D2F0E9421058C2F0E941608FCCED23F89
:100D900051F160F4D03FB9F0D13F81F0112309F453
:100DA00049C0F110A5CE8C2F8F7121C0D33F11F116
:100DB000D43FA1F780911E0582FD26C08C2F8F7134
:100DC000112311F314C0112349F084E08F1508F4A6
:100DD000DACE8C2F8F710E942808D5CE95E09F1512
:100DE00008F4D1CEF6CF8C2F8F711111CDCF0E9488
:100DF0000608C9CE112329F08C2F8F710E94FA07A3
:100E0000C2CE0E94F507BFCE112349F0CF718C2FBF
:100E10000E94060863E08C2F0E94750CB4CE81E01E
:100E20000E94930CE1E0EF1508F0ADCE82E00E9445
:100E3000930CA9CEF110FBCE8C2F8F71A5CF0F9301
:100E40001F93CF93DF93EC01688179818A810E949F
:100E500009098C010E9453080E94C907B801CE01FC
:100E60000E942805DF91CF911F910F910895CF9394
:100E7000DF93EC018B819C81892B29F088819981FA
:100E800089238F3F51F4DF91CF910895CE010E94C5
:100E90001F07CE010E945903F6CFCE010E948403A2
:100EA0008111F4CF0E94E80B882369F38A8188239B
:100EB00051F380911E0582FFE6CF82E00E94930CE1
:100EC000E2CF90E080E00E94B02790E080E00E94B6
:100ED000D5270E940F0C0E94300C0E9437130E94ED
:100EE0001B1308950E94D70B0E94610708950E946A
:100EF000FF0B0E947207089592959F70963091F0B3
:100F000058F4925F9F70923058F4803F19F030F49B
:100F1000883E30F481E008959A5FF4CF843FD1F3A6
:100F200080E00895883EB0F3813FD1F7F3CFFC0114
:100F300083819481892B29F08081918189238F3F3E
:100F400011F480E00895808191810E94FE080E9442
:100F50007C070895A5E0B0E0E0EBF7E00C941C31CD
:100F60002596E2E00C943831A6E0B0E0EAEBF7E039
:100F70000C941C312696E2E00C94383108950E94BE
:100F8000BE0708950E94BF079093FB028093FA0268
:100F9000089508950E94C20708952091FA023091A1
:100FA000FB02822B932B0E94C20708952091FA0224
:100FB0003091FB02822393230E94C207089520915F
:100FC000FA023091FB02822793270E94C2070895FC
:100FD0000E94BE0708950E94E80708950E94EB074B
:100FE0009093F9028093F802089590E080E00E94C7
:100FF000EE07089521E030E0A90102C0440F551F1B
:101000008A95E2F7CA010E94EE07089521E030E0D8
:1010100002C0220F331F8A95E2F78091F802909167
:10102000F902822B932B0E94EE07089521E030E015
:1010300002C0220F331F8A95E2F7209530958091E8
:10104000F8029091F902822393230E94EE070895FB
:1010500021E030E002C0220F331F8A95E2F7809131
:10106000F8029091F902822793270E94EE070895D3
:101070002091F8023091F902822B932B0E94EE0707
:1010800008952091F8023091F902822393230E945F
:10109000EE0708952091F8023091F90282279327F4
:1010A0000E94EE0708950895262F277091E001C051
:1010B000990F2A95EAF723E0769567952A95E1F747
:1010C000660F771F660F771FFA01E60FF71F50E0D4
:1010D00040E0682F70E08191DF0111979B01042EA1
:1010E00002C0369527950A94E2F7217021952827AA
:1010F000292328272C934F5F5F4F4430510559F720
:101100000895A82FA77023E0969587952A95E1F773
:10111000880F991F880F991FFB01E80FF91F50E0F6
:1011200040E080E0219130E00A2E02C036952795FC
:101130000A94E2F721703327042E01C0220F0A948B
:10114000EAF7822B4F5F5F4F4430510559F70895FE
:10115000262F953070F48F3060F4682F70E08FE0A8
:10116000989F600D711D112440ED52E0822F0E9466
:1011700054080895292F953068F48F3058F490E082
:1011800060ED72E03FE0239F800D911D11240E94CD
:101190008108089580E00895B0E0A0E0E2EDF8E075
:1011A0000C9415317C010091F8021091F9028091A4
:1011B000FA029091FB02082B192BCFE0D0E0CC244F
:1011C000C394D12CBC2EC6010C2E02C0880F991FCF
:1011D0000A94E2F780239123892B49F4219790F711
:1011E000B12C8B2DCDB7DEB7E9E00C943131B701CE
:1011F0008C2F0E94440F019789F3F3CFCF93DF9395
:10120000EC010E94CC08BE010E94440FDF91CF91F7
:1012100008951F93CF93DF93EB019091CF02992311
:1012200039F0CB010E94FE08DF91CF911F91089504
:10123000882369F0CB010E94CC08182F682FCE01BB
:101240000E94A808BE01812F0E94440FEDCFCB0160
:101250000E94BA08182FF6CF1F93CF93DF93C09147
:10126000FC0216E08091FD028C1304C0DF91CF9147
:101270001F910895D0E01C9FF0011D9FF00D1124D7
:10128000E250FD4F4081518162817381848195815B
:101290000E94B4072196C770E5CF40912E0350916C
:1012A0002F0360913003709131038091320390914C
:1012B00033030E94B40708951F93CF93DF93809167
:1012C0003303807F09F049C080913003882309F4FB
:1012D00044C08091FC02C091FD0260912E03709188
:1012E0002F03A0913103B0913203D62FD72316E0FC
:1012F000C81799F190E0109711F0DF3F19F40196AB
:101300008770F6CF189F9001199F300D1124F901B5
:10131000E250FD4F41814713F2CF40814613EFCF9A
:1013200042814111ECCF438154814A1B5B0B483C05
:10133000510528F7809133038F70806180933303C8
:10134000F901ED5FFC4F80818F70806180838EE2B8
:1013500093E00E9437070E942C09DF91CF911F91E3
:101360000895A1E1B0E0E7EBF9E00C9414318C01B1
:1013700085E0F801DE011D9601900D928A95E1F756
:10138000F801E2808EE2C82E83E0D82E609131030E
:10139000709132036115710509F44EC190912E03CD
:1013A00020912F03892F82238F3F09F445C140816B
:1013B0005181A380B480F0903003F501E61BF70B58
:1013C000FF2009F4EAC080913303382F307FE83CD6
:1013D000F10508F0A3C031116DC0FE2C251316C015
:1013E000941314C0E11012C08F7080618093330396
:1013F0000E944D09C6010E94370780913303F8010E
:1014000085838F2D6196EAE00C943031A114B104EC
:1014100029F0842F85238F3F09F027C180E0F82F22
:10142000F170DF2E80FF3CC08091FC022091FD0214
:1014300036E0821315C04D875E878D859E850E949C
:10144000FE08292F22952F702230F0F0243018F555
:101450009F70F1F0F8019581907FD1F4D12C1EC0DE
:1014600090E0389FF001399FF00D1124E250FD4FBC
:101470006181651306C06081641303C06281E61256
:101480000FC001968770D5CF9F7011F0882331F37C
:10149000805E883018F3C8010E943707FD2CB1CF59
:1014A000EE2009F4AECF8091330381608093330343
:1014B000F12CA7CF251306C0941304C0F801EE2029
:1014C00009F487C0C8010E949707882319F1EE200C
:1014D00009F180913303803270F020912E03309116
:1014E0002F0338872F831986BB86AA868C87CE0167
:1014F00007960E94370786E0F801AEE2B3E001905C
:101500000D928A95E1F70E945C090E944D09FF2423
:10151000F39477CFC8010E943707F9CF311113C078
:101520007A2DB98AA88A6E2D89890E94AA078EE22F
:1015300093E00E94370786E0F60111928A95E9F759
:101540000E944D09B5CF25130FC094130DC0E110B3
:101550000BC0F8018583C8010E94370786E0F601B9
:1015600011928A95E9F74DCFC8010E949707882309
:1015700089F2EE2079F280913303803208F4BBCFF8
:1015800020912E0330912F033A8329831B82BD8241
:10159000AC828E83CE010196ACCFE83CF10508F019
:1015A0003EC0FE2CEE2009F4B5CF25132AC09413BB
:1015B00028C08091330380FD1BC0982F907FC1F01D
:1015C000F8018583903F31F0982F907F905F8F7066
:1015D000892B8583C8010E94370786E0F801AEE2B7
:1015E000B3E001900D928A95E1F70E944D0909CF71
:1015F00086E0F801AEE2B3E001900D928A95E1F742
:1016000000CFC8010E949707811175CF80913303E5
:10161000816080933303C8010E943707F2CE7A2D90
:10162000B98AA88A6E2D89890E94AA0786E0F601E8
:1016300011928A95E9F7D9CFEE2009F46BCFC80152
:101640000E949707F82E882309F464CF86E0F801FA
:10165000AEE2B3E001900D928A95E1F78EE293E05D
:101660000E9469040E945C09C0CF81E08E25D7CE1C
:10167000ACE0B0E0EEE3FBE00C941B314F83588705
:1016800069877A878B879C87CE0107960E94B1096C
:10169000882369F08A859B85892B39F04F8158858D
:1016A000842F85238F3F09F06BC016E05FC086E072
:1016B000FE013796DE01119601900D928A95E1F7B1
:1016C0008A859B85892B89F38F81988589238F3F14
:1016D00061F32091FD0230E0C901019687709927DE
:1016E0004091FC024817190671F40E947707109286
:1016F000FD021092FC0286E0EEE2F3E0DF011D92B3
:101700008A95E9F7D2CF96E0929FD001939FB00DD2
:101710001124A250BD4FFE01319601900D929A9571
:10172000E1F78093FD020E942C09BFCF819FC00189
:10173000112482509D4F0E94B1098823E9F0E09165
:10174000FC021E9FF0011124E250FD4F40815181A7
:1017500062817381848195810E94B4078091FC022B
:1017600090E00196877099278093FC028091FC029B
:101770009091FD028913DACF2C96E3E00C94373177
:1017800069857A858B859C850E94B4078ECF682FEA
:1017900080911B0290911C020E948E280895682F50
:1017A00080911B0290911C020E949C2808958091B8
:1017B0001B0290911C020E94AA2808958091540354
:1017C0008595859585950895809154038770089532
:1017D00090915403977081E009F480E0089580911E
:1017E0007703089590917703892B80937703089569
:1017F00080959091770398239093770308951092A2
:101800007703089590917603892B8093760308954A
:101810008095909176039823909376030895109283
:101820007603089580915503089508950E94150C3C
:10183000089590911E0592FF08C090915503981746
:1018400021F0809355030E94160C08958091550352
:10185000882329F01092550380E00E94160C089509
:10186000CF93DF93E0911B02F0911C0280917703EC
:101870008083E0911B02F0911C028081909176039D
:10188000892B808390915503992381F0E0911B026D
:10189000F0911C028081892B808380911B029091A2
:1018A0001C020E94FA2781110E94260CC0911B0283
:1018B000D0911C0240E250E064E373E0CE010E944C
:1018C000A831892B59F080E2FE01A4E3B3E0019036
:1018D0000D928A95E1F7CE010E948827DF91CF9182
:1018E000089508950E94710C089590911E0592FF2D
:1018F00011C098E0899F90011124622B60935403DA
:101900000E940608809154038595859585950E94CF
:10191000720C08950E94060808951092540380E006
:101920000E94720C089590915403809589238093AE
:101930005403282F277091F4282F082E000C330B06
:101940009217130659F090911E0592FF07C08595D6
:10195000859585950E9416080E948D0C089590919A
:101960001E0592FB222720F9281769F080FB92F9C7
:1019700090931E0580911D0590911E050E94F70C05
:1019800082E00E94930C089580911E0582FB8827B7
:1019900080F991E089270E94AF0C089581E00E94B0
:1019A000AF0C089580E00E94AF0C08956FEF7FEFB9
:1019B00090E080E00E940A32089590E080E00E946A
:1019C000D63121E0873E9E4F09F020E0822F089516
:1019D00082E090E00E94CE31089583E090E00E9482
:1019E000CE31089584E090E00E94D6310895BC0184
:1019F00084E090E00E940A320895AB01BC018FE0C0
:101A000090E00E94FE310895AB01BC0183E190E0BB
:101A10000E94FE31089560E070E0CB010E94040D49
:101A2000089560E070E0CB010E94FD0C0E940B0D58
:101A3000089567EE7EEF90E080E00E940A3260E059
:101A400082E090E00E94EC3160E083E090E00E9450
:101A5000EC311092FB021092FA0260E074E184E033
:101A600090E00E940A3260E086E090E00E94EC3153
:101A70006FEF87E090E00E94EC3140E050E0BA0167
:101A800088E090E00E94FE3160E08DE090E00E94EE
:101A9000EC3140E050E0BA0188E190E00E94FE3174
:101AA00060E087E190E00E94EC3140E050E0BA0154
:101AB0008CE190E00E94FE3170E060E080E290E016
:101AC0000E940A3240E050E0BA0188E190E00E94B2
:101AD000FE310E94110D08950E94190D0895682F7E
:101AE0008EE090E00E94EC3108950E947829609386
:101AF00088037093890380938A0390938B03609388
:101B000084037093850380938603909387030895DD
:101B1000089508950E94890D089508950E948D0DDD
:101B200008958EE290E10E946E270E94880D0E9427
:101B30008A0D089581E008950E949A0D08950895F0
:101B400008950E949F0D0E94A00D08950E944A10C2
:101B50000E9408040E943D2108950E9463290E946A
:101B600025110E94A60D0E948E0D0895AAE0B0E0F6
:101B7000ECEBFDE00C9410310E943B112AE7822E21
:101B800023E0922E640110E0F601E190F1906F01E4
:101B9000812F0E9470101F5F153009F450C0E816A5
:101BA000F90691F380918C0381FD0E9479100E94C7
:101BB0009C0D682E10E0812F0E9470107C01F401B2
:101BC000A190B1904F018A159B0591F1A826BF24E1
:101BD00000E0CC24C394D12CC5018C219D21892BFC
:101BE000F1F077247394C7018C219D21892B09F48E
:101BF000712C662079F00E831F8378860E946C29F1
:101C00008160782F9A8789874E815F8168858A8570
:101C10000E943404472D602F812F0E94201D0F5FEA
:101C2000CC0CDD1C0F30C1F6F4013297F182E0825A
:101C30001F5F153009F0BFCF0E94750D22C0E81656
:101C4000F90609F0AFCF0E946C298C0180917803CE
:101C50009091790308171907A1F08FEF89838A8380
:101C60001B820E946C298160782F9D838C8349811F
:101C70005A816B818D810E94340410937903009303
:101C800078030E9485200E9459130E941B042A9603
:101C9000EEE00C942C31CF93DF930E94490FEC01BE
:101CA000811520E59207D0F5811530E4930708F0FF
:101CB00086C0803E910518F58D3C910508F07DC0E9
:101CC000883A910570F4853A910508F06EC081302C
:101CD000910501F10097F1F00497E0F4D0E0C0E045
:101CE00019C0813C9105D0F7C85AD0E0CC0FDD1F58
:101CF000C259DD4F0990D881C02DD4640BC0811525
:101D0000904208F0A8C0C11581E0D80718F4C83E79
:101D1000D10520F7CE01DF91CF910895803622E5DD
:101D2000920710F5803432E5930708F052C08032F4
:101D3000924508F047C0C11582E5D80708F47DC078
:101D40002C2F2695269540E2249F900111248C2F5C
:101D50008370C1E0D0E002C0CC0FDD1F8A95E2F7AE
:101D6000C22BD32BDD68D6CF803A22E5920760F4F0
:101D7000803832E5930708F441C0CF71D0E0DC2F02
:101D8000CC27C46FD06AC6CF803C42E5940708F4E4
:101D900049C0C03E82E5D80708F0A0CFDC2FCC2791
:101DA000CC27DF71C06FD06AB5CFC55AD0E0C0561E
:101DB000DD4FC881D0E0D064ADCFD065ABCFDF7050
:101DC000D06AA8CFCF71D0E0DC2FCC27C16FD06A0A
:101DD000A1CF282F26952695277080E2289F900175
:101DE00011248C2F8370C1E0D0E002C0CC0FDD1F26
:101DF0008A95E2F7C22BD32BDC688CCF282F26954F
:101E00002695277040E2249F900111248370C1E041
:101E1000D0E002C0CC0FDD1F8A95E2F7C22BD32B96
:101E2000DA6878CF8F710E94EB0FC82FD0E0DC2FDB
:101E3000CC27CC27DF71D0626DCF8C2F8F710E94A1
:101E4000EB0F35E0D695C7953A95E1F7CF709C2F0B
:101E5000EC01D0695FCF8D2F8F710E94EB0F90E066
:101E6000982F882788279F719C012C2BE901E3CFAD
:101E7000462F753030F46F3020F4672F0E94130323
:101E8000089590E080E008950E94380F0E944B0E64
:101E9000089582389105B9F1B0F48133910509F4C0
:101EA0007DC048F48932910509F46DC08A329105EC
:101EB00009F47BC008958533910509F45FC0893327
:101EC000910509F10895833E9105D9F138F4803EDA
:101ED000910529F1823E910579F10895863E91059B
:101EE000D9F1873E910509F43EC0843E910541F544
:101EF00020911E0521FF24C080911D0584FD19C07D
:101F000087EE90E0089520911D05237009F05AC0D6
:101F100020911E0523FF14C089E290E008952091CE
:101F20001D0520FD38C030911E0530FF09C024FF7B
:101F300043C090E080E0089520911D0522FDF7CF79
:101F4000089520911D0522FD3AC030911E0530FDF7
:101F500039C024FFF5CFEDCF20911D0523FFF0CF31
:101F600024FDE7CFCDCF20911D0523FD2EC030915C
:101F70001E0531FFEECF84EE90E0089520911D05FF
:101F800025FFDECFC9CF20911D0525FD21C0209161
:101F90001E0523FFD5CF89E390E0D2CF20911D0508
:101FA00026FFCECF8AE290E0089520911D0526FFFE
:101FB000C7CF81E390E0089583EE90E0089582EE2C
:101FC00090E0089580EE90E0089586EE90E0089508
:101FD00085E390E0089590911D0592FF06C0282F9B
:101FE00028712830F9F4877F846093FF06C0282F7A
:101FF00028712831F1F4877E846120911E0520FF2D
:1020000006C0382F38713830D9F4877F816021FFBE
:1020100006C0282F28712831D1F4877E816194FD74
:10202000877E0895282F24712430F9F68B7F8860ED
:10203000DCCF282F2471243101F78B7E8861DDCF1E
:10204000382F3171313019F78E7F8860E0CF282F1B
:102050002171213121F78E7E8861E1CF80E00895E2
:102060000E94D60C08950E943B118FEB9DE50197CD
:10207000F1F700C000000E943B1180E00E94701048
:1020800080FF04C00E9430100E94D32908950E944E
:10209000331008950E94DD0C811102C00E946C0D66
:1020A0000E94E80C80938C030E94F20C90931E0512
:1020B00080931D050E9447100E94ED0C90E00E9445
:1020C000CA078091F8029091F9020E94EB070895E7
:1020D00008950E946810089508950E946C10089554
:1020E000E82FF0E0EE0FFF1FE75DFA4F808191814E
:1020F0000895089580EA8A95F1F7089500C008953B
:102100000E947A100895F894E82FE295EF70F0E0BD
:1021100031A1282F2F7081E090E001C0880F2A950F
:10212000EAF7982F9095932391A392A1892B82A3EC
:1021300078940895CF93DF93C2EBD2E089918F3FDB
:1021400011F00E94831082E0C73BD807B9F7C3EAB9
:10215000D2E089918F3F11F00E94831082E0C23B50
:10216000D807B9F7DF91CF910895AF92BF92DF9270
:10217000EF92FF920F931F93CF93DF938C01D62E94
:10218000C62FD0E0CE018E549D4F7C01FC012081F2
:102190002F3F09F44DC0F894E22FE295EF70F0E084
:1021A00031A12F7081E090E001C0880F2A95EAF7F5
:1021B000932F982B91A392A18095892382A3789441
:1021C0000E947E10E3EAF2E042EB52E021E030E0D0
:1021D000B12CA12C61916F3FA9F1A62FA295AF70F0
:1021E000B0E090968C9190E06F7002C095958795C5
:1021F0006A95E2F780FD26C0C901A82AB92A220FF4
:10220000331F4E175F0731F7F70180818F3F11F0C1
:102210000E94831061E0A114B10409F460E08D2DE7
:102220000E948010CC0FDD1FC00FD11FB982A88281
:10223000DF91CF911F910F91FF90EF90DF90BF90B2
:10224000AF90089590E080E0D8CF0E949A108AE085
:10225000E9E2F5E0DF01982F1D929A95E9F7EFE1A9
:10226000F5E0DF011D928A95E9F785E00E9476117D
:102270000E9465030895AAE0B0E0E1E4F1E10C9466
:1022800019318E010F5F1F4F8AE0F80111928A9574
:10229000E9F7F12C6F2DC8010E94B510F394F5E019
:1022A000FF12F8CF4AE050E0B8018FE195E00E94BC
:1022B000A83121E0009709F420E0892B41F08AE061
:1022C000F801AFE1B5E001900D928A95E1F745E0A4
:1022D00069E275E08FE195E00E947711182F0E9466
:1022E0006803812F2A96E5E00C9435310895CF924A
:1022F000DF92EF92FF921F93CF93DF936C017B01EC
:10230000C42F222349F081E080938F030E946C291F
:1023100090938E0380938D0310918F0311110AC047
:1023200010E0812FDF91CF911F91FF90EF90DF9010
:10233000CF90089580918D0390918E030E948429FF
:10234000039770F3D0E0CC0FDD1FAE01B601C701DB
:102350000E94A831892B41F0AE01B601C7010E944D
:10236000B53110928F03DDCF10E0FBCF0E946C2BB4
:102370000E94AD0D0E94792B08950E947E2B0E9431
:10238000B60D0E94982B08950E9405290E94522B99
:102390000E94910D0E94B6110E94BD110E94A10DD4
:1023A000FBCF8091960380FF0DC06091220270E008
:1023B000660F771F6038710570F56115710569F159
:1023C000862F089581FF07C06091220284E0689FF4
:1023D000B0011124EFCF6091220282FD0AC08091EA
:1023E00095038823A9F0209121026091220282178F
:1023F00010F088E0ECCF869FC001112433E0880FF5
:10240000991F3A95E1F7622F70E00E94B130D2CF68
:1024100068E070E0D5CF8FE7089581E0089580915E
:10242000960380FF0CC060911E0270E07595679561
:10243000759567956115710549F1862F089581FF9E
:1024400006C060911E0270E075956795F3CF6091AC
:102450001E0282FD0BC0909194039923A1F060911C
:102460001D0280911E02961738F0682F70E06038C8
:10247000710500F38FE70895899FC001112470E072
:102480000E94B130F4CF61E070E0D7CF81E00895D1
:102490008D3C31F40E94D111819580939A03089567
:1024A0008E3C19F40E94D111F8CF8F3C31F40E9478
:1024B000D1118195809399030895803D19F40E946C
:1024C000D111F8CF893D29F40E940F1280939B030C
:1024D00008958A3D21F40E940F128195F7CF8B3D1C
:1024E00031F40E940F12819580939C0308958C3DD6
:1024F00019F40E940F12F8CF9FE2980F983070F4F1
:10250000815D990B21E030E001C0220F8A95EAF746
:1025100080919803822B8093980308958D3D31F428
:102520008091960381608093960308958E3D21F4F7
:10253000809196038260F7CF8F3DB9F78091960323
:102540008460F1CF409199038D3C59F480919A03B6
:1025500087FF0DC010929A0341110BC01092950392
:1025600008C08E3C81F480919A0318169CF3442392
:1025700081F080919B0390919C03892B09F05AC0B4
:102580001092940308958F3C49F447FFF0CF1092C6
:10259000990380919A038111ECCFE0CF803D19F42B
:1025A0001416ACF3E4CF90919B03893D29F41916DE
:1025B000F4F610929B03DBCF8A3D19F497FFD7CF37
:1025C000F8CF90919C038B3D29F497FFD0CF1092C8
:1025D0009C03CDCF8C3D19F41916CCF3C8CF9FE2E4
:1025E000980F983090F4815D990B21E030E0B901AB
:1025F00002C0660F771F8A95E2F7CB018095909114
:102600009803892380939803B2CF8D3D31F4809154
:1026100096038E7F80939603AACF8E3D21F48091FE
:1026200096038D7FF7CF8F3D09F0A1CF8091960360
:102630008B7FF0CF08950E946C299C0190919903A3
:1026400080919A03982B21F0309393032093920367
:1026500090919B0380919C03982B21F030939103E0
:102660002093900387E993E00E94A227089586E0D3
:10267000E7E9F3E0DF011D928A95E9F710929503EF
:1026800010929403109296030895FC0182818111A7
:102690000EC0838181110BC08481811108C091E03B
:1026A0008581811101C090E0892F8170089581E0BA
:1026B000FCCFA6E0B0E0EFE5F3E10C941B3186E03F
:1026C000E7E9F3E0DE01119601900D928A95E1F7BA
:1026D0001092990310929A0310929B0310929C03FC
:1026E0008B819C81892B89F0809192039091930337
:1026F0000E948429AC01909195039923C9F180919E
:1027000023028417150608F440C08D819E81892B11
:1027100091F080919003909191030E948429AC01E3
:1027200090919403992309F471C080911F0284173A
:10273000150608F479C0BE016F5F7F4F87E993E00B
:102740000E94BC28811105C087E993E00E944513CF
:1027500081110E941B1386E0FE013196A7E9B3E0C8
:1027600001900D928A95E1F72696E3E00C943731BB
:10277000209124028AE0289F900111242417350714
:1027800020F69F5F9093950302C09F3FD1F71B8176
:10279000112359F00E94D1119FEF11160CF491E012
:1027A000899F802D1124809399031C81112359F056
:1027B0000E94D1119FEF11160CF491E0899F802D9A
:1027C000112480939A0330919903332309F49DCF08
:1027D00020919A03222309F498CF45EB3403C001DA
:1027E0001124992359F09093990345EB2403900108
:1027F0001124332339F030939A0387CF81E08093FB
:102800009903F3CF81E080939A037FCF2091200238
:102810008AE0289F900111242417350708F08BCFF8
:102820009F5F9093940302C09F3FD1F71D811123B6
:1028300059F00E940F129FEF11160CF491E0899F3E
:10284000802D112480939B031E81112359F00E9437
:102850000F129FEF11160CF491E0899F802D112427
:1028600080939C0330919B03332309F464CF209120
:102870009C03222309F45FCF45EB3403C0011124EC
:10288000992359F090939B0345EB24039001112465
:10289000332339F030939C034ECF81E080939B0328
:1028A000F3CF81E080939C0346CFEF92FF920F938A
:1028B0001F93CF93DF93EB01E82FD1110EC0442378
:1028C00021F0F0E0E851FD4FE4916E2F7E2F8E2F26
:1028D000CDB7DEB7E6E00C9434310D2F10E0282F91
:1028E00030E0442329F028513D4FF901249130E094
:1028F000F6E0CF9FC0011124EFEFF0E0BF010E948E
:102900009D30AB018C2F90E0880F991FA5E5A49F07
:10291000B001A59F700D1124861B970B982F990F5E
:10292000980FBF01601B710B629FD001639FB00DB8
:10293000729FB00D11248B2F9D9FB0011124672F22
:102940007727EF01C61BD70BBE01629FE001639F93
:10295000D00D729FD00D11247F01E91AF108E09E7D
:10296000B001E19E700DF09E700D1124672F772746
:10297000E61BF70BE29F8001E39F100DF29F100D05
:102980001124E12F722F4230510599F048F441157E
:10299000510569F04130510581F0EB2F8D2F07C0B3
:1029A0004430510569F080F046305105B1F76E2F83
:1029B0008FCFE22F7B2F812FFACFE22F7D2FF7CF02
:1029C000EB2F822F712FF3CF7B2F822FED2FEFCFA5
:1029D00041E00E945514089530E020E0869F212DAB
:1029E000969F200D311D1124C9010895AC0182303C
:1029F000910508F408959FEF413E8EE1580740F499
:102A00009A0195E0369527959A95E1F798E0920F0F
:102A100061E0E62FE90FFF27FF1F9F0135952795FE
:102A2000822F229FF001239FF00DF00D11244E17ED
:102A30005F0738F49FEF920F961758F78FEF860FC6
:102A400008952F3FE9F361E0620FF6CF40912B022A
:102A500050912C0225E038E0429FC001439F900D29
:102A6000529F900D1124875E994C90932C02809375
:102A70002B02890F0895E82F86FDE0952E2F2F70E9
:102A800086FD2F5FE695E695E695E670F0E0E95461
:102A9000FD4F9181929F902D212D112492959F7031
:102AA0002295207F922B2081920F87FD919580E8BF
:102AB000890F0895E42FF0E0EE0FFF1FE15BFE4F5A
:102AC000408134EE439F412D1124E82FF0E050E087
:102AD000445E5F4FDA01A21BB1099D01B7FF03C03D
:102AE00031952195310993E0220F331F9A95E1F733
:102AF000AF01421B530B9A0157FD20E0582F259F31
:102B0000212D1124822F0895622F0895E42FF0E0E3
:102B1000EE0FFF1FE15BFE4F6081621B0895E42F03
:102B2000F0E0EE0FFF1FE05BFE4F6081621B089537
:102B3000322F50E0FA01EE0FFF1FE05BFE4F908155
:102B4000905297FD9195440F551FFA01E15BFE4F9E
:102B50002081231B330B290F311D97FD3A95620FFE
:102B60000895EF920F93972F23E0029FB001112455
:102B7000759567956E0D792F0F91EF9008950F93CE
:102B8000CF93DF93D72FC82F47FD419588E390E07F
:102B9000841B910947FD9395889FB001899F700D13
:102BA000700D1124229FC001239F900D900D1124C0
:102BB000860F971F0E94F614982F990F890F682F80
:102BC000600F7D2F8C2FDF91CF910F9108950F9380
:102BD0001F93522F10E0F801EE0FFF1FE05BFE4F36
:102BE000A081A052BB0B9D015203F001539FF00D39
:102BF0001124000F111FD801A15BBE4F0C9100578B
:102C0000110B40039001419F300D11242E0F3F1FE7
:102C100037FF02C021583F4F220F232F221F330BB3
:102C2000620F1F910F9108950F931F93522F10E081
:102C3000F801EE0FFF1FE05BFE4FA081A052BB0B1F
:102C40009D015203F001539FF00D1124000F111F3D
:102C5000D801A15BBE4F0C910057110B40039001AE
:102C6000419F300D11242E0F3F1F37FF02C0215C02
:102C70003F4F96E0359527959A95E1F7620F1F91A2
:102C80000F9108950F931F9310E0F801EE0FFF1FAF
:102C9000E15BFE4F9081905797FD9195000F111FBA
:102CA000F801E05BFE4F00810052110B2003F001A0
:102CB000219FF00D112408E310E0091B110997FD75
:102CC000139540039001419F300D1124E20FF31F33
:102CD0009F01220F331F2E0F3F1F37FF02C02158C5
:102CE0003F4F220F232F221F330B620F1F910F9193
:102CF00008950F931F93CF93DF938B01D82FC42F89
:102D0000822F0E943B15EC2FF0E0EE0FFF1FE15BDE
:102D1000FE4F90819058890F87FD8195880F682F0D
:102D20002CE0629F612D1124600F712F8D2FDF9198
:102D3000CF911F910F910895E42FF0E0EE0FFF1F48
:102D4000E15BFE4F9081921B97FD9195292F38E111
:102D5000239F212D1124620F08952091370530E122
:102D6000230F08F42FEF60E1822F90E00E94EC1413
:102D7000BC0188EB9BE00E949D3090E080E00895CC
:102D80004095282F429F412D1124842F089522E839
:102D9000241B08F420E0620F0895EF92FF920F9336
:102DA0009701201B31092F3F310519F010F02FEF4B
:102DB00030E02095382F320F08F43FEF832F0F912A
:102DC000FF90EF90089590919804892B8093980438
:102DD0000895FC019B01009729F480E077FF2BC048
:102DE00080E80895AC0197FF04C044275527481B8D
:102DF000590BB901640F751F37FD10C0241B350B2B
:102E0000C901A5E0880F991FAA95E1F70E94B1308A
:102E100080E2861BF7FF0FC081950895CB0165E026
:102E2000880F991F6A95E1F7BA01621B730B0E9424
:102E3000B13080E6EECF08950F931F93CF93DF93C9
:102E4000D62FC72F182FC901212F201B022FBA01FF
:102E50000E94E916982F990F990F891B800F282F30
:102E6000219F212D1124822F6D2F7C2FDF91CF9157
:102E70001F910F910895EF920F931F93CF93DF93BC
:102E8000D62FC72F182FC9010E19010FBA010E94A2
:102E9000E916081B202F219F212D1124822F6D2F31
:102EA0007C2FDF91CF911F910F91EF9008950F9399
:102EB000CF93DF93D72FC82FC901BA010E94E9161B
:102EC000682F600F7D2F8C2FDF91CF910F91089588
:102ED000EF920F93CF93DF93D72FC82FC9010E190D
:102EE000BA010E94E916602F681B7D2F8C2FDF919D
:102EF000CF910F91EF90089546E050E06CE170E0C3
:102F000083E395E00E94DC311092980408950E94BA
:102F1000E8140895E3E3F5E081E2808380913602CE
:102F200090913702A091380281839283A3838FE727
:102F300084838FEF85830E947C17089580E0089535
:102F40000F931F93CF93DF93C82FD62F8A010E9430
:102F50009E179FE0C99FB00111246C5F7E4F6D0FDB
:102F6000711DFB0190819F3F29F0F801E80FF11DD1
:102F700090838F5FDF91CF911F910F910895E09122
:102F8000C502F091C60209950895E091C102F09141
:102F9000C20209950895B0E0A0E0E1EDF7E10C94DC
:102FA0000F315C014B01FC01C081CC0FCC0F14E050
:102FB0001C0FF12E153410F034E4F32E6091370518
:102FC00066958091390590913A050E94EC14582E2F
:102FD000D0E0CF1548F081E0143408F080E0CDB7A0
:102FE000DEB7EFE00C942B31FE01E952FE4F8081F9
:102FF000F50191818923C9F1CE01880F991F8C5F5A
:103000009E4FFC01E55BFF4F2081422F4057550B3F
:103010006A01845B9F4FFC018081282F2052330B73
:103020003901449F9001459F300D300D1124669C5D
:10303000C001679C900D900D1124820F931F0E9478
:10304000F614082F6091340570913505809136058E
:10305000E52C9301A601F40109950E948717462FDC
:10306000282F672FCE010E94C5172196B2CF6BE3A0
:1030700077E10E94CB17089561EB75E10E94CB17B1
:10308000089568E677E10E94CB170895B0E0A0E0CC
:10309000ECE4F8E10C9414316C017B01FC01C0817B
:1030A000CC0FCC0F14E01C0FB12E153410F034E40B
:1030B000B32E6091370566958091390590913A0558
:1030C0000E94EC14A82ED0E0CB1548F081E0143417
:1030D00008F080E0CDB7DEB7EAE00C943031FE01B5
:1030E000E952FE4F8081F6019181892311F1CE01D1
:1030F000880F991F8C5F9E4FFC01E45BFF4F20817E
:103100002052330B855B9F4FFC0140814057550B8C
:103110006091340570913505809136050A2DF701CF
:1031200009950E948717462F282F672FCE010E94EE
:10313000C5172196C9CF6CE177E10E944618089522
:103140006FEB75E10E944618089567E577E10E94EC
:1031500046180895B0E0A0E0E0EBF8E10C941531DA
:103160007C018B01FC01C081CC0FCC0F94E0D92EE7
:10317000DC0ECD2CF4E4FD1510F484E4C82E60912F
:1031800037056695669521E0620F08F46FEF809130
:10319000390590913A050E94EC14B82ED0E0CC1578
:1031A00050F081E093E49D1508F480E0CDB7DEB7E0
:1031B000E9E00C943131FE01E952FE4F8081F701C4
:1031C0009181892391F0609134057091350580914A
:1031D00036052B2D4C2FF80109950E948717462F95
:1031E000282F672FCE010E94C5172196D8CF6AE5F8
:1031F00075E10E94AA18089564E875E10E94AA1872
:10320000089566E875E10E94AA1808956FE875E1CF
:103210000E94AA18089568E975E10E94AA18089505
:1032200069E776E10E94AA1808956CE976E10E94A8
:10323000AA180895B0E0A0E0E0E2F9E10C941131A1
:103240005C016B01FC01C081CC0FCC0F14E01C0FA2
:10325000912E153410F034E4932E60913705669565
:1032600066958091390590913A050E94EC14F82EEC
:1032700080E48F0D0E943B1590E8892E880E8F2DDB
:103280000E943B1520E8722E780ED0E0C91548F058
:1032900081E0143408F080E0CDB7DEB7EDE00C94A7
:1032A0002D31FE01E952FE4F8081F5019181892384
:1032B000A1F0609134057091350580913605EF2CB1
:1032C0000C2F272D482DF60109950E948717462FB0
:1032D000282F672FCE010E94C5172196D7CF67EE02
:1032E00075E10E941A19089564E176E10E941A19A5
:1032F000089562E476E10E941A190895B0E0A0E012
:10330000E4E8F9E10C9414318C017B01FC01C081EB
:10331000CC0FCC0F24E0B22EBC0EAB2CF4E4FB158A
:1033200010F494E4A92E2091370531E0230F08F41E
:103330002FEF30E050E040E06FEF7FEF80E090E073
:103340000E94E7306901D0E02C2FCA1550F081E0CF
:10335000F3E4FB1508F480E0CDB7DEB7EAE00C94A7
:103360003031FE01E952FE4F8081F80191818923BD
:1033700011F140913D054150042E000C550B47FFC3
:103380001CC0C6016091370521E0620F08F46FEFA1
:103390000E94EC14AC016091340570913505809168
:1033A0003605F70109950E948717462F282F672FAA
:1033B000CE010E94C5172196C7CFFA01E35CFA4FF0
:1033C000818982130AC0FA01EE0FFF1FE35CFA4FF6
:1033D000818D928D8C159D05A8F241505109CFCF5A
:1033E00060EC76E10E947E19089567EC76E10E9418
:1033F0007E190895ABE0B0E0E0E0FAE10C940C3106
:103400008C832B015F834E83FB01F081FF0FFF0F45
:10341000F983FC5FFA83FB83F53410F024E42B83FB
:1034200030913D053D839981892F90E09B878A8764
:10343000880F991FFC01E15BFE4F6F01FC818F2F0C
:1034400090E09C012F5F3F4F39872887EB81FA85F9
:10345000FE1748F081E02A81243408F080E02B96A2
:10346000E2E10C942831EA85FB85E952FE4F808128
:10347000F2019181892301F12090340530903505C6
:1034800028853985235C3A4F39013C81398310E026
:1034900029813D812317C8F020913605129F112DF7
:1034A0001124B101812F0E948717462F282F672FE3
:1034B0008A859B850E94C5178A859B8501969B8777
:1034C0008A8792E0C90ED11CC1CFF30181913F01DF
:1034D000F601A080A81ABB088180F3018781881AB1
:1034E0009908AA9C9001AB9C300D300D1124889C4A
:1034F000C001899C900D900D1124820F931F0E9492
:10350000F614082F6091370521E0620F08F46FEF81
:10351000F301EE0FFF1FED53F540858996890E9458
:10352000EC147C019401A501B101812FEE81FF8192
:1035300009951B01F981FF5FF983182FA9CF20910D
:103540003D0531E0231B08F420E04DEC56E1BC01C1
:10355000822F0E94FA190895B0E0A0E0E2EBFAE1B0
:103560000C9415317C01FC01C081CC0FCC0F14E010
:103570001C0F012F153408F004E46091340570919C
:103580003505809136050E948717D62EC72EB82E96
:10359000D0E0C01748F081E0143408F080E0CDB7E7
:1035A000DEB7E9E00C943131FE01E952FE4F808133
:1035B000F7019181892331F02B2D4D2D6C2DCE01FA
:1035C0000E94C5172196E5CFB0E0A0E0EAEEFAE14F
:1035D0000C9412317C01FC01C081CC0FCC0F14E0A3
:1035E0001C0F012F153408F004E4C0903505D0906D
:1035F0003605D09134056D2F7C2D8D2D0E948717B7
:10360000B62EA72E982E609137056D0F7C2D8D2D2F
:103610000E948717D62EC72E882ED0E0C01748F0FC
:1036200081E0143408F080E0CDB7DEB7ECE00C9414
:103630002E31FE01E952FE4F9081F70181818923ED
:1036400059F0282D4D2D6C2D90FD03C0292D4B2DAB
:103650006A2DCE010E94C5172196E0CFB0E0A0E010
:10366000E4E3FBE10C9415318C01FC01C081CC0F2B
:10367000CC0F54E0F52EFC0EDF2CF4E4FF1510F413
:1036800044E4D42EC0903505B0903605209137051E
:1036900030E4E32E3E2D329F312D1124E32ED0E075
:1036A000CD1550F081E033E43F1508F480E0CDB74C
:1036B000DEB7E9E00C943131FE01E952FE4F808122
:1036C000F80191818923D9F0FE01EE0FFF1FE15B24
:1036D000FE4F6081E69EB001112495E075956795D7
:1036E0009A95E1F780913405680F7C2D8B2D0E940F
:1036F0008717462F282F672FCE010E94C5172196C6
:10370000CFCFB0E0A0E0E7E8FBE10C9415318C01ED
:10371000FC01C081CC0FCC0F94E0F92EFC0EEF2CF5
:10372000F4E4FF1510F484E4E82ED0903405D09131
:103730003505C090360560913705669566956695A6
:103740008091390590913A050E94EC140E943B1536
:10375000805887FD8195880F282F3C2D239F212D90
:103760001124822F6D2D7D2F0E948717D62EC72EF4
:10377000B82ED0E0CE1550F081E023E42F1508F4E8
:1037800080E0CDB7DEB7E9E00C943131FE01E952BB
:10379000FE4F8081F8019181892331F02B2D4D2D31
:1037A0006C2DCE010E94C5172196E4CFB0E0A0E0B9
:1037B000ECEDFBE10C9417318C01FC01E952FE4F5A
:1037C0008081682349F1D0903505D0913605C091AC
:1037D0003405EC2EF12C0E942615282FC7018C549D
:1037E0009F4F68E671E00E94B1308E199F0997FDE6
:1037F0000396959587959595879523706C2F289FAF
:10380000600D11247D2D8D2F0E948717462F282FA4
:10381000672FC8010E94C517CDB7DEB7E7E00C944B
:103820003331B0E0A0E0E7E1FCE10C9417317C011A
:10383000FC01C081CC0FCC0F84E0D82EDC0E82813D
:10384000811127C06091370520E1620F08F46FEF06
:103850008091390590913A050E94EC146AE070E07D
:103860000E949D30892B59F40E94261564E40E9421
:103870009130F7016181892F90E00E94D61B81E091
:10388000F3E4FD1508F480E0CDB7DEB7E7E00C9473
:1038900033310D2DF4E4FD1508F404E4D0E010E01C
:1038A000C017D10764F7F7016181CE010E94D61BD2
:1038B0002196F6CF1F93CF93DF93EC01FC01E952E1
:1038C000FE4F80816823B1F00E948F31182F0E9433
:1038D0008F318F77782F20E8720F08F47FEF612FF8
:1038E000809136050E948717462F282F672FCE011B
:1038F0000E94C517DF91CF911F910895B0E0A0E01D
:10390000E4E8FCE10C9417318C01FC01C281C11187
:1039100022C06091370520E1620F08F46FEF8091BB
:10392000390590913A050E94EC1465E070E00E9420
:103930009D30892B51F40E948F3164E470E00E9425
:10394000B130F80161810E945A1C8C2FCDB7DEB7CF
:10395000E7E00C943331C081CC0FCC0F84E0D82E3B
:10396000DC0E8D2DF4E4FD1508F484E4D0E0E82E9F
:10397000F12CCE15DF0534F0C1E0F3E4FD1528F796
:10398000C0E0E3CFF8016181CE010E945A1C21966C
:10399000F0CFB0E0A0E0EFECFCE10C9415317C013D
:1039A000FC01C081CC0FCC0F14E01C0F012F15348B
:1039B00008F004E4C0903505D0903605D091340568
:1039C0006091370566956695669580913905909169
:1039D0003A050E94EC140E943B15805887FD8195A2
:1039E000880F682F2CE0629F612D11246D0F7C2DB4
:1039F0008D2D0E94E814D62EC72EB82ED0E0C01709
:103A000048F081E0143408F080E0CDB7DEB7E9E09B
:103A10000C943131FE01E952FE4F8081F701918112
:103A2000892331F02B2D4D2D6C2DCE010E94C51711
:103A30002196E5CFE091C302F091C4020995089563
:103A4000CF92DF92FF920F931F93CF93DF93CDB767
:103A5000DEB728970FB6F894DEBF0FBECDBF182F84
:103A6000062FF42E0E949A0D882309F44CC0FF20E3
:103A700009F457C0AE014F5F5F4F602F812F0E9446
:103A8000A017F82E0F2D10E080919904800F912F30
:103A9000911D09976CF188E090E06C01C01AD10A81
:103AA000B80166567B4FA6018AE994E00E94B531C1
:103AB000B8016E557B4FA60182EA94E00E94B531B1
:103AC000A601440F551FB801660F771F6E547B4F38
:103AD00082EB94E00E94B531B80166557B4FA60198
:103AE0008AEA94E00E94B53188E08F1980939904A6
:103AF00010919904DE01119640E0842F810FF41299
:103B000012C08093990428960FB6F894DEBF0FBEBA
:103B1000CDBFDF91CF911F910F91FF90DF90CF909C
:103B20000895F12CAFCF5D91252F30E090E0BC01DE
:103B300067567B4FF901EE0FFF1FE15BFE4F0081DF
:103B4000FB010183220F331FF901E05BFE4F20814F
:103B5000FB012187518B880F991FFC01E756FB4F12
:103B6000128E118E4F5FC9CFB0E0A0E0EAEBFDE10D
:103B70000C940E31F82E809129028F1124C090915F
:103B80003305937020912A0230E081E092171306EA
:103B900009F480E08170809328028091380590912B
:103BA0002702981739F08093270240E060E080E018
:103BB0000E941A1D2DE12F1588F0EF2DF0E0E05C3A
:103BC000FD4C0C94063181E0E5CF809128028823DA
:103BD00059F040E060E080E00E941A1D80E004C0DF
:103BE00086E292E00E94AC1A909126029F5F909329
:103BF000260281110CC082E0809325028091280268
:103C0000811105C0F11003C083E080932502CDB778
:103C1000DEB7E0E10C942A3186E292E00E94E41AD9
:103C2000E3CF86E292E00E942E1BDECF86E292E096
:103C30000E94811BD9CF86E292E00E94F718D4CF70
:103C400086E292E00E949B18CFCF86E292E00E942B
:103C50003718CACF86E292E00E94FC18C5CF86E2F0
:103C600092E00E940119C0CF86E292E00E940619FC
:103C7000BBCF86E292E00E940B19B6CF86E292E0BB
:103C80000E943C18B1CF86E292E00E94A018ACCF0F
:103C900086E292E00E94A518A7CF86E292E00E94F9
:103CA0004118A2CF86E292E00E946F199DCF86E272
:103CB00092E00E94741998CF86E292E00E947919EE
:103CC00093CF86E292E00E94111C8ECF86E292E0B2
:103CD0000E947E1C89CF86E292E00E94C91C84CF9C
:103CE00086E292E00E9410197FCF86E292E00E9465
:103CF00015197ACF109126021F5F110F110F4091F5
:103D0000390550913A0560913B0570913C058091D1
:103D1000940490919504A0919604B091970484170F
:103D20009507A607B70708F053C00E942615082F6D
:103D30000E94261594E4891BF0F7890FC82FD0E064
:103D4000FE01E952FE4F809127029081892309F4F8
:103D50003FC020E040E060E001FD13C00E94261556
:103D6000082F0E9426158695782F2FE7720F08F4EA
:103D70007FEF602F809136050E948717462F282FEE
:103D8000672FCE010E94C5172091370530E1230F20
:103D900008F42FEF60E1822F90E00E94EC14BC0148
:103DA00084EF91E00E949D308091390590913A0511
:103DB000A0913B05B0913C05860F971FA11DB11D39
:103DC0008093940490939504A0939604B0939704E1
:103DD00081E0143408F408CF01CF40919004509151
:103DE00091046091920470919304809139059091AF
:103DF0003A05A0913B05B0913C0584179507A607AD
:103E0000B70708F4EBCE8091280281111EC0C09143
:103E10002602CC0FCC0F14E01C0F012F153408F034
:103E200004E4CC2ED12C33E0C39FE0011124CC5309
:103E3000DC4FC01608F441C0E4ECF3E08DE894E0F8
:103E4000143408F053C081E0CFCE40E060E080E061
:103E50000E941A1D04EC13E0D0E0C0E03FE7E32E1F
:103E60000E94261581FF0BC0F80110821182128278
:103E700021960D5F1F4FC434D10591F7C8CF0E9422
:103E80002615B82E0E9426158695782F2E2D720F96
:103E900008F47FEFCE01880F991F8C0F9D1FFC0146
:103EA000EC53FC4F6F016B2D809136050E94E81496
:103EB000F601608371838283DBCFF601E952FE4F06
:103EC000808190912702892331F02A81488169817C
:103ED000C6010E94C5172396FFEFCF1ADF0AA9CFAC
:103EE0002381348145812193319341938E179F071C
:103EF000B9F70E94261581FF1FC010928D04109201
:103F00008E0410928F040E94AD1600913905109115
:103F10003A0520913B0530913C05DC01CB01800F37
:103F2000911FA21FB31F8093900490939104A093BC
:103F30009204B093930452CE0E942615C82F0E947B
:103F400026158695782F2FE7720F08F47FEF6C2FD8
:103F5000809136050E94E81460938D0470938E045E
:103F600080938F04D0CF80912802882329F040E0ED
:103F700060E080E00E941A1DE0902602E394EE0CBF
:103F8000EE0C4091390550913A0560913B057091D6
:103F90003C058091C0039091C103A091C203B091F0
:103FA000C30384179507A607B70708F070C0609190
:103FB000340570913505809136050E948717762E5D
:103FC000672E582E0DE913E0C4E0D1E05E014E01EA
:103FD000680186E0482EF60121916F01F40181917C
:103FE0004F0190E0222309F458C0252D472D662D5E
:103FF0000E94C517F5018685252D472D662D90E079
:104000000E94C517F6018081319780834A94F1E0C0
:10401000AF1AB1084110DFCF8E8190E0F801268100
:10402000222309F445C0252D472D662D0E94C51772
:104030008885252D472D662D90E00E94C5170E948A
:104040002615837091E009F090E0F8019683095FEE
:104050001F4F2F96F1E0CF34DF0709F0B7CF0E9452
:10406000AD160091390510913A0520913B0530912C
:104070003C05DC01CB01800F911FA21FB31F809371
:10408000C0039093C103A093C203B093C30381E024
:1040900023E42E1508F0A8CDA1CD20E040E060E09B
:1040A0000E94C517F501868520E040E060E0A7CFBB
:1040B00020E040E060E00E94C517888520E040E0F5
:1040C00060E0BACF86E292E00E94F0198DCD86E2E0
:1040D00092E00E94F51988CD86E292E00E949F1A34
:1040E00083CD81E0089581E008950E9473200895B2
:1040F000FC018081815C880F880F64E0680F653463
:1041000008F064E40E94752008954F925F926F92C8
:104110007F928F929F92AF92BF92CF92DF92EF9257
:10412000FF92CF936091C2047091C3048091C40444
:104130009091C5040E9493296B017C010E9478290B
:104140004B015C018092C2049092C304A092C4040B
:10415000B092C504A0919904E9E9F4E08A2F90E0B7
:104160004FEF5FEF60E070E04C195D096E097F0969
:10417000A9132AC0809399048091C604C0E08111DC
:1041800008C080913305C82FC37019F0C82FC69599
:10419000C69580912502813009F440C0882339F109
:1041A000823009F447C0833009F44FC0CF91FF90AB
:1041B000EF90DF90CF90BF90AF909F908F907F90C7
:1041C0006F905F904F900895218D328D2901712C51
:1041D000612C441555056605770520F481509F5FD5
:1041E0003296C6CF2C0D3D1D328F218FF8CF109205
:1041F00026028092390590923A05A0923B05B09232
:104200003C0589E2E9E9F4E0ADE3B5E001900D9207
:104210008A95E1F781E080932502C8CF8C2F0E9418
:10422000B41DCC2319F20E94E30286E292E00E94C0
:104230007820BCCFC093290280913305837080938E
:104240002A020E94BF1783E0E6CF80919804811173
:104250000E947C176091390570913A0580913B0569
:1042600090913C050E9493296A3171058105910561
:1042700008F49CCF1092250299CFE091BF02F091F3
:10428000C002099510923D058FEF9FEF909357055F
:1042900080935605909359058093580590935B053C
:1042A00080935A0590935D0580935C0590935F051C
:1042B00080935E05909361058093600590936305FC
:1042C000809362059093650580936405109299042C
:1042D0009093B3048093B2049093B5048093B40494
:1042E0009093B7048093B6049093B9048093B80474
:1042F0009093BB048093BA049093BD048093BC0454
:104300009093BF048093BE049093C1048093C00433
:104310000E94DD0C811104C00E946C0D0E948A175E
:1043200081E08093980446E050E06CE170E083E324
:1043300095E00E94BE3110929804809133058C7FE5
:1043400011F40E948A170895CF93C82F882391F003
:104350008091C60481110EC00E94B41D10922902E2
:1043600080913305837080932A020E94BF1783E0F7
:1043700080932502C093C604CF910895E3E3F5E04E
:10438000908121E092279083109225020E94E316EB
:10439000089581E00E94BE210895909133059370A5
:1043A00051F0811109C09460909333051092250259
:1043B000862F0E94E31608958E3110F09467F4CF93
:1043C000282F220F220F922BEFCF61E00E94CD21E8
:1043D0000895682F909133059695969581E0890F01
:1043E0008E3108F081E00E94CD21089581E00E9485
:1043F000E9210895682F90913305969596958FEF52
:10440000890F09F48DE10E94CD21089581E00E9479
:10441000FA21089590913305937061F080933405EB
:1044200060933505493C08F048EC40933605822FEF
:104430000E94E3160895A3E3B5E01196EC9111975D
:10444000F0E0282F13964C91139712966C91CF01A0
:1044500008960E940A22089581E00E941B22089576
:10446000E3E3F5E09181282F43816281E92FE85051
:10447000FF0BCF010E940A22089581E00E943022A2
:104480000895E3E3F5E0628120E1620F08F46FEF45
:104490009181282F4381892F90E00E940A2208955C
:1044A00081E00E9441220895E3E3F5E0628120E18A
:1044B000621B08F460E09181282F4381892F90E0EE
:1044C0000E940A22089581E00E9454220895E3E3A5
:1044D000F5E0438120E1420F08F44FEF9181282F4E
:1044E0006281892F90E00E940A22089581E00E9453
:1044F00067220895E3E3F5E0438120E1421B08F4DD
:1045000040E09181282F6281892F90E00E940A2249
:10451000089581E00E947A220895E3E3F5E0248182
:1045200030E1230F08F42FEF24830E94E31608954F
:1045300081E00E948D220895E3E3F5E0248130E1DB
:10454000231B08F420E024830E94E316089581E0F1
:104550000E949C22089560E084E70E94612461E04B
:1045600087E70E9461240895CF930E94AD2684E7D7
:104570000E94032387E70E940323C0E021E041E07B
:1045800061E08C2F0E94AB23CF5FC434B9F760E0A9
:1045900084E70E94762461E087E70E947624CF9129
:1045A0000895E6E8F6E06083418324E630E042E0E7
:1045B00050E0BF01880F0E944D2708950F931F936D
:1045C000CF93DF93082F000FEB0114E210938606C0
:1045D000E7E8F6E0DE018D91819386E0E739F807A0
:1045E000D1F724E630E041E150E066E876E0802F44
:1045F0000E944D27105F6096143B41F7DF91CF91E9
:104600001F910F910895CF93DF93C82F4BE06DEF6B
:104610000E94D12240E06AE08C2F0E94D1228FE3D9
:104620009CE90197F1F700C0000040E060E08C2FAA
:104630000E94D12240E061E08C2F0E94D12240E014
:1046400066E08C2F0E94D12240E06DEF8C2F0E94FB
:10465000D122D0E040E06D2F8C2F0E94D122DF5F6D
:10466000D231C1F740E06D2F8C2F0E94D122DF5F45
:10467000D432C1F740E06D2F8C2F0E94D122DF5F32
:10468000D43BC1F74BE06DEF8C2F0E94D12241E06B
:104690006AE08C2F0E94D12240E06DEF8C2F0E94A7
:1046A000D122DF91CF910895A4E0B0E0EAE5F3E2F2
:1046B0000C941931F62E042F122F8434910570F5C5
:1046C000880F991F880F991FBC0164557F4F44E0E4
:1046D00050E0CE0101960E949F3189818370EA816A
:1046E000282F30E040E9849FC00111248A599A4F55
:1046F000E80FF92FF11DB497F082EB81E80FF92F45
:10470000F11DB4970083EC81E80FF92FF11DB497E8
:10471000108323513B4F81E0F90180832496E5E02B
:104720000C943531FF920F931F93CF93DF93182F83
:10473000062FF42ED0E0C0E02F2D402F612FCE01A8
:104740000E9454232196C434D105B1F7CDB7DEB70A
:10475000E5E00C943531A4E0B0E0E1EBF3E20C9439
:104760001131762EA42EB22E24E0829FB0011124A6
:1047700064557F4F44E050E0CE0101960E949F3186
:104780008A8190E06C0154E2C51AD1089601D7FEE7
:1047900002C0295F3F4F63E0359527956A95E1F7A1
:1047A0004B8150E0CA0184977C0197FF04C07A01D5
:1047B0006DE1E61AF10853E0F594E7945A95E1F7B4
:1047C0004C8150E04A01E4E28E1A9108840197FE80
:1047D00002C0095F1F4F43E0159507954A95E1F721
:1047E000E8E0F0E0BF010E94B130482FC401BF01F2
:1047F0000E94B130982EC601BF010E94B13061E025
:1048000070E0FB0102C0EE0FFF1F8A95E2F7CF01B7
:10481000E98133279E2F9370772009F440C0F2E19D
:104820009F9F200D311D1124D901A753BB4F9C918F
:10483000892B8C93E3708E2F90E062E1E69FF0016C
:104840001124E753FB4FEE0DF11D508121E030E0C4
:1048500001C0220F4A95EAF7AA2069F1252B20838F
:1048600022E1289FF001299FF00D1124E753FB4F0F
:10487000E00FF11D408121E030E0092C01C0220F42
:104880000A94EAF7BB20D1F0242B208389539B4F55
:1048900021E0FC0120832496EDE00C942D3152E1BF
:1048A000959F200D311D1124D901A753BB4F809531
:1048B0009C918923BECF20952523D1CF20952423F9
:1048C000E4CFCF93DF93C62FD0E0C351DB4F988165
:1048D000992341F090E9699FB00111246A597A4FF8
:1048E0000E94DE221882DF91CF910895EF92FF920D
:1048F0000F931F93CF93DF93E82E062F10E00953F9
:104900001B4FF8018081882381F0F2E16F9FE00165
:104910001124C753DB4FF12C49916F2D8E2D0E942E
:10492000D122F39482E1F812F7CFF8011082CDB7CB
:10493000DEB7E6E00C943431FA01811101C0FB01CD
:10494000099508951F93CF93DF93EC01FB0112812A
:10495000111110C00E94EF0B8272FE01E052F84765
:10496000E531F10508F049C0E25AFD4C0C940631DE
:104970000E94C921812FDF91CF911F91089546E0B8
:1049800052E266EF71E20E949C24F4CF46EF51E2BE
:1049900066E072E2F8CF4DE352E26CE272E2F3CFEE
:1049A0004CE252E26DE372E2EECF43E652E260E5A2
:1049B00072E2E9CF40E552E263E672E2E4CF49E811
:1049C00052E266E772E2DFCF46E752E269E872E25E
:1049D000DACF47EA52E268E972E2D5CF48E952E21B
:1049E00067EA72E2D0CF81E00E94E521C3CF84E084
:1049F000FBCF89E0F9CF8EE0F7CF11E0BBCFCF93AB
:104A0000DF93EC01FB018281882309F4D2C09E016F
:104A100030572332310508F0B2C00E94F20C909357
:104A20001E0580931D05FE01E150F047E232F105BD
:104A300020F4ED58FD4C0C94063180911D058160E9
:104A400080931D0593C080911E05886080931E058C
:104A50008DC080911D058260F3CF80911D0584601B
:104A6000EFCF80911D058860EBCF80911E0581609E
:104A7000EDCF80911E058260E9CF80911D05806198
:104A8000DFCF80911D058062DBCF80911D058064A2
:104A9000D7CF0E94770780911D058068D1CF809184
:104AA0001D058C60CDCF80911E058360CFCF809196
:104AB0001D058E7FC5CF80911E05877FC7CF809152
:104AC0001D058D7FBDCF80911D058B7FB9CF809156
:104AD0001D05877FB5CF80911E058E7FB7CF809152
:104AE0001E058D7FB3CF80911D058F7EA9CF80914C
:104AF0001D058F7DA5CF80911D058F7BA1CF0E94C5
:104B0000770780911D058F779BCF80911D05837F4F
:104B100097CF80911E058C7F99CF80911D0582FBD8
:104B2000992790F921E0922790FB82F990FB83F975
:104B300087CF80911E05982F909591708E7F892B3D
:104B400090FB81F983CF90911D05892F8F7B96FF74
:104B5000806476CF0E94770790911D05892F97FB7F
:104B600087F980586DCF81E00E946F0D80911D05FF
:104B700090911E050E94F70C0E94770780E0DF915C
:104B8000CF91089580E0F0CF90911D05892F8F7E01
:104B900094FF806155CF90911D05892F8E7F90FFE6
:104BA00081604ECF90911E05892F877F93FF88608B
:104BB0004DCF81E0E4CFCF93DF93EB0186319C476B
:104BC00011F50E94EF0B9A81992399F08A7A91E06E
:104BD00009F490E09093EF04811109C089E20E94EA
:104BE000C70B0E94300C80E0DF91CF91089585E3E0
:104BF000F6CF8091EF04811104C089E20E94CF0BAF
:104C0000F0CF85E3FBCF81E0EFCF0F931F93CF93DE
:104C1000DF93C42FD22FFC0182818823C9F04093F7
:104C2000F2040E946C299093F1048093F00480E2D6
:104C30008C0F883040F4C77081E001C0880FCA959E
:104C4000EAF70E941A05DF91CF911F910F91089505
:104C50001091F204141332C08091F0049091F10489
:104C60000E948429883C910548F5C0E2CD0F1D17AC
:104C7000B9F080E2810F883040F4177081E001C004
:104C8000880F1A95EAF70E942105C83048F481E0A0
:104C90009D2F977001C0880F9A95EAF70E941A0518
:104CA000802F0E941105C83070F6D77081E001C0D6
:104CB000880FDA95EAF70E942105C5CF80E28C0FB4
:104CC000883008F6C77081E001C0880FCA95EAF7FE
:104CD000F2CF0F93DB0188519C4787309105A0F5F7
:104CE000FC01EB56FD4C0C94063106E221EE41EE40
:104CF0006AE17CE7CD010E94052680E00F910895CE
:104D000007E225EE45EE6BE17CE7F4CF06E221EE0B
:104D100040EE68E17CE7EECF07E225EE44EE69E184
:104D20007CE7E8CF06E221EE42EE6CE17CE7E2CFE1
:104D300007E225EE46EE6DE17CE7DCCF08E221E0FC
:104D400045EE6EE17CE7D6CF12968C91882319F060
:104D50001092F204D3CF81E0D1CF1092B9008CE051
:104D60008093B8000895B0E0A0E0E9EBF6E20C947F
:104D70001331B82EEB010E946C296C01EE24E394F0
:104D8000F12CC431D10560F025E0E22EF12CCF3FAB
:104D9000DC0731F0CE0164E170E00E949D307B01C0
:104DA00084EAA82E94E8992E1092BC00A092BC0030
:104DB0000E946C298C018091BC0087FF0DC08091FE
:104DC000B900887F8830F9F08091B900887F803100
:104DD000D1F00FEF1FEF08C0C8010E948429E81628
:104DE000F90648F70EEF1FEFCF3FDC07E9F2C601E7
:104DF0000E948429C817D907B8F6C801CDB7DEB715
:104E0000EBE00C942F31B092BB009092BC000E945A
:104E10006C298C018091BC0087FF0AC08091B90089
:104E2000887F883111F08034A1F610E000E0E5CFF2
:104E3000C8010E948429E816F90660F7D3CF0F93C2
:104E40001F93CF93DF93EB018093BB0084E88093A3
:104E5000BC000E946C298C018091BC0087FF11C0AE
:104E60002091B900287F81E090E0283211F490E091
:104E700080E0919581959109DF91CF911F910F91DC
:104E80000895CF3FDC0741F3C8010E948429C81769
:104E9000D90710F78EEF9FEFEFCFB0E0A0E0E3E58A
:104EA000F7E20C9416316B018A017901B9010E9475
:104EB000B326E6010C0D1D1DC017D10711F097FF99
:104EC00008C024E92093BC00CDB7DEB7E8E00C941D
:104ED0003231B70189910E941F27EECF9093C9020A
:104EE0008093C80208959093F8048093F70408957E
:104EF000E091F704F091F804309729F00190F081E7
:104F0000E02D0995089580E008950E94782708957E
:104F1000E091F704F091F804309799F02091350270
:104F2000222359F020911D0527FF07C0DC012C9199
:104F300011962C93119726E02C930280F381E02D9B
:104F400009950895E091F704F091F804309739F04D
:104F500022E0DC012C930480F581E02D0995089571
:104F6000A3E0B0E0E6EBF7E20C941C312091F504ED
:104F70003091F60428173907A1F09093F604809336
:104F8000F504E091F704F091F804309751F023E034
:104F900029839B838A830680F781E02DCE010196C9
:104FA00009952396E2E00C943831A3E0B0E0EBEDF4
:104FB000F7E20C941C312091F3043091F40428178B
:104FC0003907A1F09093F4048093F304E091F7047F
:104FD000F091F804309751F024E029839B838A8371
:104FE0000680F781E02DCE01019609952396E2E037
:104FF0000C943831FC01329680913502882321F0DF
:1050000080911D059EE187FF96E080E0915008F4B5
:10501000089521912223D1F38F5FF8CF662301F108
:10502000209135022223F1F020911D0527FF1AC09F
:10503000462F4695469546954E3190F4677021E08F
:1050400030E002C0220F331F6A95E2F7840F911DF2
:10505000FC01828190E02823392381E0232B69F42D
:1050600080E00895FC01329608962191261721F0E0
:10507000E817F907D1F7F4CF81E008959C01FC010E
:1050800032969FEF80E04191461751F09F3F19F40F
:10509000411101C0982F8F5F8630A9F79F3F09F417
:1050A0000895290F311D97FD3A95F90162830895FE
:1050B000FC01329608962191261303C0DF01119757
:1050C0001C92E817F907B9F70895E62FE695E695DB
:1050D000E695EE3168F4E80FF92FF11D677021E0D5
:1050E00030E001C0220F6A95EAF78281822B828329
:1050F0000895E62FE695E695E695EE3170F4E80F13
:10510000F92FF11D677021E030E001C0220F6A9590
:10511000EAF7209582812823228308952091350281
:10512000222339F020911D0527FF03C00E94652826
:1051300008950E943E28089520913502222339F0D7
:1051400020911D0527FF03C00E94792808950E9421
:1051500058280895FC01329680913502882351F039
:1051600080911D0587FF06C08EE1DF011D928A95A3
:10517000E9F7089586E0F9CF46E050E00E94A831B3
:1051800021E0892B09F420E0822F089508950E94E0
:10519000C6280895811106C081E08093F9040E9419
:1051A000C728089582E0F9CF83E08093F9040E9434
:1051B000C72808950E94CA28089581E08093F904C1
:1051C0000E94C72808950E94DD2808950895089533
:1051D0000E94E7280895089508950E94E6280895FA
:1051E000CF930E94EB280E943B110E94EC28C0E064
:1051F0008C2F0E947010892B31F4CF5FC530C1F71E
:1052000080E0CF91089581E0FCCF85B7806885BFAD
:1052100085B7806885BF08951F921FB61F9211241D
:105220008F939F93AF93BF938091FA04811113C022
:1052300080919A0690919B06A0919C06B0919D0644
:105240004196A11DB11D80939A0690939B06A09351
:105250009C06B0939D06BF91AF919F918F911F9037
:105260001FBE1F9018958091A206843031F10E94D4
:10527000E0031092FA0488E190E020E40FB6F8947D
:10528000A895809360000FBE2093600083B7817F54
:10529000846083BF83B7816083BF7894889583B728
:1052A0008E7F83BF0FB6F894A895809160008861C7
:1052B00080936000109260000FBE08950E947707EF
:1052C0000E94EA03089582E084BD93E095BD9AEFC1
:1052D00097BD80936E0008952FB7F89480919A0639
:1052E00090919B06A0919C06B0919D062FBF0895BA
:1052F0002FB7F89460919A0670919B0680919C0656
:1053000090919D062FBF08959C014FB7F89480910E
:105310009A0690919B06A0919C06B0919D064FBF66
:10532000821B930B0895CF92DF92EF92FF922FB7DB
:10533000F894C0909A06D0909B06E0909C06F0905E
:105340009D062FBFA7019601261B370B480B590B53
:10535000CA01B901FF90EF90DF90CF900895789443
:105360001F921FB61F9211248F939F93AF93BF93E9
:1053700080919A0690919B06A0919C06B0919D0603
:105380000196A11DB11D80939A0690939B06A09350
:105390009C06B0939D06BF91AF919F918F911F90F6
:1053A0001FBE1F90189581E08093E00080E28093FB
:1053B000D8001092C9008FE19EE40197F1F700C078
:1053C000000087E090EBDC018093AB069093AC0685
:1053D000A093AD06B093AE0688E19CE00FB6F894BA
:1053E000A895809360000FBE90936000FFCF88E186
:1053F0009CE00FB6F894A895809360000FBE909340
:105400006000FFCF80911B0508959B01BA01909128
:10541000A2069430E9F48F708093E9009FEF8091A9
:10542000E800915085FD06C085ED8A95F1F70000F2
:105430009111F5CF8091E80085FF0AC050E040E06F
:10544000C9010E940A2C8091E8008E778093E800C1
:10545000089543E050E0BC0182E00E94052A0895CF
:1054600046E050E0BC0182E00E94052A0895CF93F7
:10547000DF93EC0180913502811111C048E050E0CA
:10548000BE0181E00E94052A80E2FE01ABEFB4E09C
:1054900001900D928A95E1F7DF91CF910895809167
:1054A0001D0587FF05C040E282E050E0BE01EACF63
:1054B00048E081E0FACF8091A106811109C00E94E5
:1054C0009A2D0E94F72D8091E20084608093E20083
:1054D00008951092A10608950E94DD280895609114
:1054E0009E0681E0611101C080E00E94D4280895E9
:1054F0009091A20681E0943009F080E060919E06D0
:105500000E94DA28089542E061EC81E00E94162DA5
:1055100042E261EC82E00E94162D9091A20681E0A9
:10552000943009F080E060919E060E94CA28089598
:105530008091A406833009F461C030F48130D1F148
:10554000823009F49EC008958A3009F48AC08B30F5
:1055500009F46FC0893009F050C08091A3068132F0
:1055600009F04BC08091A7069091A806029708F019
:1055700044C08091E800877F8093E8008091E80034
:1055800082FF37C09091F3008091F200029731F4CE
:105590008091F100813011F0863021F48091F1008A
:1055A00080931B058091E8008B778093E8000E9430
:1055B0004A2D23C08091A306813AF9F48091E80036
:1055C000877F8093E8008091A7069091A806892B99
:1055D00061F460E28BEF94E070E00E94592C8091BE
:1055E000E8008B778093E800089560E090E080E029
:1055F000F3CF8091A2068111C1CF08958091A306B7
:10560000813AD9F78091A7069091A806892BA9F72E
:105610008091E800877F8093E8008091E80080FF18
:10562000FCCF809135028093F1008091E8008E7765
:10563000BCCF8091A306813201F78091A70690919B
:10564000A806892BD1F68091E800877F8093E80037
:105650000E944A2D8091A506809335020E9477070B
:1056600008958091A306813241F68091E800877FFA
:105670008093E8000E944A2D8091A60680931C0525
:1056800008958091A306813A09F0B7CF8091E80090
:10569000877F8093E8008091E80080FFFCCF8091B5
:1056A0001C05C1CF84B7877F84BF0FB6F894A89537
:1056B00080916000886180936000109260000FBE4E
:1056C00080E890E00FB6F8948093610090936100B9
:1056D0000FBE0E94E32808950E949A2D0E94F72D84
:1056E000E2EEF0E080818460808378940E947630DE
:1056F00008958DE292E00E94732708958091A2069A
:10570000853031F48091A206853019F00E945E291F
:1057100008950E9433298091A006882399F30E945E
:10572000F028882379F30E94F42B0E947707EACFB0
:1057300008950E949C2B0895292F3327233031058B
:1057400019F168F42130310509F444C022303105E3
:1057500009F445C090E080E030E020E025C021322F
:10576000310549F122323105A9F780E490E021E1C9
:1057700035E061157105C1F086EB90E02BE534E072
:105780006130710589F0E6CF99278130910581F06C
:10579000009729F00297F1F6E8EEF3E002C0EAE0A4
:1057A000F4E0849190E09F01FA0131832083089511
:1057B000EAEFF3E0F6CF89E090E020E234E0611513
:1057C000710591F389E090E029E334E061307105DF
:1057D00059F3C0CF82E190E029E434E0E5CF8BE3D8
:1057E00090E02EE034E0E0CF80E189BD82E189BD28
:1057F00009B400FEFDCF8091D8008F7D8093D80042
:105800008091E00082608093E0008091E00081FD63
:10581000FCCF0895AF92BF92CF92DF92FF920F9389
:105820001F93CF93DF936C01EB018A010E94692DD6
:10583000F82E811123C00115110539F0F80180817E
:105840009181C81BD90BC80ED91EB12CA12C209751
:10585000A9F08091E80085FD22C08091E8008E7754
:105860008093E80001151105A1F0F8018081918174
:10587000A80EB91EB182A08285E0F82E8F2DDF918F
:10588000CF911F910F91FF90DF90CF90BF90AF907D
:1058900008950E94692D8823D1F2F82EEFCFF601EA
:1058A00081916F018093F1002197FFEFAF1ABF0A3A
:1058B000CECFFC018091A9069091AA068617970782
:1058C000A0F06115710529F49091E8009E779093FE
:1058D000E80090E06115710551F4911108C08091C4
:1058E000E80082FF34C080E00895BC01F2CF8091CF
:1058F000A2068823C1F18530C1F18091E80083FDC3
:1059000030C08091E80082FDEACF8091E80080FFFE
:10591000E1CF8091F3002091F200382F61157105DD
:1059200019F02830310558F091E02830310509F0A0
:1059300090E02091E8002E772093E800CBCF819172
:105940008093F100615071092F5F3F4FE7CF809145
:10595000A206882341F0853041F08091E80083FF62
:10596000BECF81E0089582E0089583E00895FC01B0
:105970008091A9069091AA0686179707A0F0611555
:10598000710529F48091E8008E778093E80090E01B
:105990006115710551F4911108C08091E80082FFF2
:1059A00035C080E00895BC01F2CF8091A206882323
:1059B000C9F18530C9F18091E80083FD31C0809143
:1059C000E80082FDEACF8091E80080FFE1CF80917E
:1059D000F3002091F200382F6115710519F028307D
:1059E000310558F091E02830310509F090E08091C0
:1059F000E8008E778093E800CBCF84918093F1000C
:105A00003196615071092F5F3F4FE6CF8091A2061A
:105A1000882341F0853041F08091E80083FFBDCFBD
:105A200081E0089582E0089583E00895982F9730EB
:105A300028F08F708093E90081E008959093E90049
:105A4000242F762F50E0981731F07091EC002091C0
:105A5000ED005091F00021FD02C09F5FE8CF309132
:105A6000EB003E7F3093EB003091ED003D7F3093B3
:105A7000ED003091EB0031603093EB007093EC005F
:105A80002093ED005093F0002091EE0027FDE5CF2C
:105A900080E008958091A30687FF13C08091E800FD
:105AA00082FF06C08091E8008B778093E80004C0F5
:105AB0008091A2068111F2CF08958091A2068823D9
:105AC000D9F38091E80080FFF8CF8091E8008E77CD
:105AD000ECCF2091E4003091E50095E6A9012091FA
