:100000000C94D7050C940F060C940F060C940F0655
:100010000C940F060C940F060C940F060C940F060C
:100020000C940F060C940F060C94061C0C941522CD
:100030000C94C62B0C940F060C940F060C940F0610
:100040000C940F060C940F060C940F060C940F06DC
:100050000C940F060C94DF1C0C940F060C940F06E6
:100060000C940F060C940F060C940F060C940F06BC
:100070000C940F060C940F060C940F060C940F06AC
:100080000C940F060C940F060C940F060C940F069C
:100090000C940F060C940F060C940F060C940F068C
:1000A0000C940F060C940F060C940F060101E3014B
:1000B0000432307C66696C010432307C0101280016
:1000C0000101E3010432307C77686174010432304D
:1000D0007C010128000101E3010432307C6D69726A
:1000E0006F010432307C010128000101E301043278
:1000F000307C6F75746C6F6F6B010432307C010162
:1001000028000101E3010432307C73706F01043276
:10011000307C010128000101E3010432307C697464
:10012000756E6573010432307C010128000101E322
:10013000010432307C666967010432307C01012899
:10014000000101E3010432307C706F7765727368DF
:10015000656C010432307C010128000101E30104D7
:1001600032307C6E6F74657061010432307C010145
:1001700028000101E3010432307C74656C650104E0
:1001800032307C010128000101E3010432307C6E31
:100190006F74010432307C010128000101E3010485
:1001A00032307C636872010432307C010128000126
:1001B00002E3200103E3010432307C66696E64656A
:1001C000010432307C010128000102E3200103E335
:1001D000010432307C77686174010432307C0101A3
:1001E00028000102E3200103E3010432307C6D6941
:1001F000726F010432307C010128000102E320010A
:1002000003E3010432307C6D6169010432307C010A
:100210000128000102E3200103E3010432307C7372
:10022000706F010432307C010128000102E32001DB
:1002300003E3010432307C6D7573010432307C01BC
:100240000128000102E3200103E3010432307C664F
:100250006967010432307C010128000102E32001BA
:1002600003E3010432307C746572010432307C0196
:100270000128000102E3200103E3010432307C7411
:10028000657874010432307C010128000102E3200A
:100290000103E3010432307C74656C010432307C6C
:1002A000010128000102E3200103E3010432307C54
:1002B0006E6F74010432307C010128000102E320DA
:1002C0000103E3010432307C736166010432307C47
:1002D00001012800167C1E001F00200021002200C2
:1002E000230024002500260027002D002E002A00D0
:1002F00041522B421B000F001C0013000E001D007A
:1003000009001200180034002F0030002A044C00AD
:10031000394306001500160017000A0010001100EE
:1003200008000C0004003300000028002B08A25233
:100330000D00190007001A00140005000B0036001C
:1003400037003800B25200005200350821502450C6
:100350002850000000002C440000000031473545C3
:1003600066525000000051004F00167C1E001F0016
:100370002000210022002300240025002600270061
:100380002D002E002A0040522B0014001A000800F5
:10039000150017001C0018000C00120013002F009D
:1003A000300031004C00390004001600070009003D
:1003B0000A000B000D000E000F0033003400000097
:1003C00028002B08E1001D001B0006001900050095
:1003D00011001000360037003800E5000000520020
:1003E0003508E000E200E300000000002C000000FF
:1003F0000000E7003545E6005000000051004F00C6
:1004000001000100010001000100010001000100E4
:1004100001000100010001000100010001000100D4
:10042000010001000100010001002102240025005B
:100430002600380001000100010001000100E00079
:10044000E200E300E10001002E022100220023006F
:100450002E00010000000100010001000100010068
:100460000100010001002D001E001F0020003700C8
:100470000100000001000100010001000100000076
:100480000000010000000000270001000100010041
:100490000000010001000100010001000100010055
:1004A0000100010001000100010001000100010044
:1004B0000100010001000100010001000100010034
:1004C000350036022F003000370201000100010024
:1004D00001000100E000E200E300E10001002E0263
:1004E0003302260227023300010000000100010050
:1004F0000100010001000100010001002D02340291
:10050000240231023100010000000100010001005D
:1005100001000100000000000100000000000100D7
:1005200001000100010000000100010001000100C4
:1005300001000100010001000100010001000100B3
:100540000100010001000100010001004A004D000E
:1005500050084F08010001006652010001002A0006
:100560000100010001000100010050005100520093
:100570004F0001000100E500E700E600E400010093
:1005800000000100010001001D081B0806081908F1
:1005900001000100DA00D9000100010001000000A3
:1005A0000100010001000100010000000000000046
:1005B0000000000001000100010001000000010036
:1005C0000100007C3A003B003C003D003E003F0043
:1005D0004000410042004300440045004C00000040
:1005E000037C2878BE00BD002778000000000000D2
:1005F0000000000000000000000000002078A800BB
:10060000AC00AA00A900AB00000000000000000040
:10061000000000000000000000002178330300000B
:1006200000002A7829780000000000000000000087
:10063000000000000000257822781C701B7000006C
:1006400000000000AE0000000000000000000000FC
:1006500024780000267823780100010001000100C1
:100660000100010001000100010001000100010082
:10067000010001000100010014001A00080015002B
:1006800017006652DA00CD00D90001000100010018
:100690000100DF00010004001600070009000A0045
:1006A000DB00CF00CE00D000DC0001000000010024
:1006B000DE0001001D001B00060019000100D10032
:1006C000D200010001000100010000000100DD0076
:1006D0000100010001000000000001000000000016
:1006E0000100010001000100000001000100000004
:1006F00000000000000000000000000000000000FA
:10070000000000002D082E082A0800000000160333
:10071000157E117E137E00003303077E057E097E61
:1007200000002F0830080000000037080F7E0D7E03
:100730000E7E0C7E177E0B7E007E027E017E037E87
:100740002C090000000000000000147E167E127EBE
:10075000107E2C080000047E067E0A7E087E0000C3
:100760000000000000000000000000000000000089
:100770002C08000000000000000000000000000045
:10078000000000000001010101010101010102025C
:10079000020202020202020303030303030303042F
:1007A00004040404040405050505050606060606FA
:1007B000070707070708080808090909090A0A0AB4
:1007C0000B0B0B0C0C0C0D0D0D0E0E0E0F0F0F1056
:1007D00010111111121213131414151516161717E0
:1007E000181819191A1A1B1B1C1D1D1E1E1F20204C
:1007F000212222232424252626272829292A2B2C96
:100800002D2D2E2F30313232333435363738393AB8
:100810003B3C3D3E3F404142434445464748494AB0
:100820004C4D4E4F50515354555658595A5B5D5E7E
:100830005F616264656668696B6C6D6F7072737519
:1008400077787A7B7D7E8082838587888A8C8E8F7D
:1008500091939596989A9C9EA0A2A3A5A7A9ABADAB
:10086000AFB1B3B5B7BABCBEC0C2C4C6C9CBCDCF99
:10087000D1D4D6D8DBDDDFE2E4E7E9EBEEF0F3F547
:10088000F8FAFDFF009B8B7B00AB8A7A00AA9A796D
:1008900000A9998900A8988800A7978700A696863E
:1008A00000A5958500A49484003C4C5C002C4D5D13
:1008B000002D3D5E002E3E4E003040500031415133
:1008C000002A3A4A00293949002838480027374782
:1008D000002636460025355600244555003444543C
:1008E00000AC9C8C00AD9D8D00AE9E8E00AF9F8FA6
:1008F00000B0A09000B1A19100324252002B3B4BBE
:1009000001A9998901A8988801A7978701A69686C9
:1009100001A5958501A49484013C4C5C012C4D5D9E
:10092000012D3D5E012E3E4E012F3F4F01304050C4
:100930000033435301AB8A7A0128384801273747EF
:1009400001263646012535560124455501AC9C8CBF
:1009500001AD9D8D01AE9E8E01AF9F8F0131415142
:10096000013242520133435300B2A281019B8B7B7F
:10097000012B3B4B012A3A4A0134445401B1A19165
:1009800001B2A28101B3928201A3938300A3938356
:1009900000B3928205010902A10185020901A100AB
:1009A000050919012908150025019508750181021D
:1009B0000501093009311581257F950275088106E9
:1009C00009381581257F950175088106050C0A38BF
:1009D000021581257F950175088106C0C0050109B2
:1009E00080A101850319012AB700150126B70095DA
:1009F0000175108100C0050C0901A10185041901D0
:100A00002AA002150126A002950175108100C005DB
:100A1000010906A1018506050719E029E71500254A
:100A2000019508750181020507190029EF150025B8
:100A30000195F075018102050819012905950575D3
:100A4000019102950175039101C005010906A101FB
:100A5000050719E029E715002501950875018102B0
:100A60009501750881010507190029FF150026FF6A
:100A70000095067508810005081901290595057579
:100A8000019102950175039101C009023B00020129
:100A900000A0FA090400000103010100092111016D
:100AA000000122400007058103080001090401003C
:100AB000010300000009211101000122B600070511
:100AC000820320000112010002000000085A4421A4
:100AD00014000201020001100344005A00360035E0
:100AE0000052004700420000000E0344005A005428
:100AF0000045004300480000000403090400000012
:100B000000000000000000000000000000000000E5
:100B100000000000000000000000000000000000D5
:100B2000007E0F00D4FFFFFFC70000007800000028
:100B300000000000002A2B28000000000000000038
:100B4000000000000000000029000000002C1E34FE
:100B500020212224342627252E362D3738271E1F04
:100B6000202122232425263333362E37381F04052F
:100B7000060708090A0B0C0D0E0F1011121314159D
:100B8000161718191A1B1C1D2F3130232D3504057B
:100B9000060708090A0B0C0D0E0F1011121314157D
:100BA000161718191A1B1C1D2F3130354C00112433
:100BB0001FBECFEFDAE0DEBFCDBF04B603FE18C024
:100BC00080910D0790910E07A0910F07B09110072B
:100BD0008730904BA740B04B59F410920D071092FC
:100BE0000E0710920F0710921007E0E0F8E3099546
:100BF00027E0A4E3B3E001C01D92AD30B207E1F7F6
:100C000013E0A0E0B1E0E8E0F5E602C005900D9247
:100C1000A433B107D9F70E94ED2B0C94F1310C9459
:100C2000000090910707937061F081110BC09460F0
:100C300090930707109214018091060781608093BA
:100C4000060708958E3110F09467F2CF880F880F51
:100C5000982BEECF90910707937071F0809308075F
:100C600060930907493C08F048EC40930A078091DB
:100C700006078160809306070895E8EDF0E0808123
:100C80008E7F80831092E2001092DA001092E100D1
:100C9000A0EEB0E08C9181608C9380818F7780830F
:100CA00019BCA7EDB0E08C918E7F8C9380818F7EF4
:100CB00080831092A70608952091E4003091E5000A
:100CC00095E6A9012091EC00822F817020FF06C0DB
:100CD0008091E80080FF06C080E008952091E80040
:100CE00022FD1AC08091CC06882389F0853089F0D6
:100CF0008091EB0085FD0FC02091E4003091E5006C
:100D000042175307F9F29150E1F684E0089582E02A
:100D1000089583E0089581E008958091CE0687FFCD
:100D200013C08091E80082FF06C08091E8008B77B5
:100D30008093E80004C08091CC068111F2CF089521
:100D40008091CC068823D9F38091E80080FFF8CF0A
:100D50008091E8008E77ECCF982F9093E900242FB4
:100D6000762F50E0891731F07091EC002091ED0062
:100D70005091F00021FD07C09F5F973071F780937D
:100D8000E90081E008953091EB003E7F3093EB0065
:100D90003091ED003D7F3093ED003091EB003160FC
:100DA0003093EB007093EC002093ED005093F00033
:100DB0002091EE0027FDE0CF80E00895B0E0A0E0B4
:100DC000E4EEF6E00C946E30C8EDD0E088818F7EC2
:100DD0008883E7EDF0E080818160808384E082BFDA
:100DE00081E08093A70688818E7F888302EE10E0E1
:100DF000F80110821092DA0081EEC82ED12CF60193
:100E0000108288818F778883888180688883888131
:100E10008F7D888319BC1092CC061092CD0610925B
:100E2000CB061092CA0690EEE92EF12CF7018081D4
:100E30008B7F808388818160888342E060E080E0EE
:100E40000E94AC06F60180818E7F8083F80180814C
:100E500081608083808188608083F70180818E7FBC
:100E60008083888180618883CDB7DEB7E8E00C9409
:100E70008A30FC018091D4069091D5068617970799
:100E8000A0F06115710529F49091E8009E77909388
:100E9000E80090E06115710551F4911108C080914E
:100EA000E80082FF34C080E00895BC01F2CF809159
:100EB000CC068823C1F18530C1F18091E80083FD23
:100EC00030C08091E80082FDEACF8091E80080FF89
:100ED000E1CF8091F3002091F200382F6115710568
:100EE00019F02830310558F091E02830310509F02B
:100EF00090E02091E8002E772093E800CBCF8191FD
:100F00008093F100615071092F5F3F4FE7CF8091CF
:100F1000CC06882341F0853041F08091E80083FFC2
:100F2000BECF81E0089582E0089583E00895809126
:100F3000A9060895209110012223C9F02091A50649
:100F400027FF15C0E62FE695E695E695EE31D8F435
:100F5000E80FF92FF11D677021E030E001C0220F8A
:100F60006A95EAF720958281282322830895FC015F
:100F7000329608962191621303C0DF0111971C92EB
:100F8000E817F907B9F70895209110012223C1F05D
:100F90002091A50627FF14C0E62FE695E695E69575
:100FA000EE31F8F4E80FF92FF11D677021E030E021
:100FB00001C0220F6A95EAF78281822B828308950D
:100FC000FC0132962FEF30E04191641751F02F3F32
:100FD00019F4411101C0232F3F5F3630A9F72F3F8D
:100FE00009F40895820F911D27FD9A95FC016283F3
:100FF0000895A3E0B0E0EFEFF7E00C947430209197
:101000009E0630919F0628173907A1F090939F06FE
:1010100080939E06E0919C06F0919D06309751F0DA
:1010200024E029839B838A830680F781E02DCE010B
:10103000019609952396E2E00C949030A3E0B0E08D
:10104000E4E2F8E00C94743020919A0630919B060B
:1010500028173907A1F090939B0680939A06E09198
:101060009C06F0919D06309751F023E029839B83E5
:101070008A830680F781E02DCE010196099523969B
:10108000E2E00C949030E0919C06F0919D06309740
:1010900029F00190F081E02D0995089580E00895F0
:1010A000FA01811101C0FB0109950895E7E0F7E01D
:1010B000248130E1231B08F420E02483809106077B
:1010C0008160809306070895E7E0F7E0248130E12E
:1010D000230F08F42FEF248380910607816080930B
:1010E00006070895E7E0F7E0438120E1421B08F49A
:1010F00040E08181628190E00E942A060895E7E045
:10110000F7E0438120E1420F08F44FEF81816281D3
:1011100090E00E942A060895E7E0F7E0628120E16E
:10112000621B08F460E08181438190E00E942A06FE
:101130000895E7E0F7E0628120E1620F08F46FEFC5
:101140008181438190E00E942A060895E7E0F7E05C
:101150008181438162818850990B0E942A060895FB
:10116000E7E0F7E0818190E04381628108960E9488
:101170002A0608958091070786958695815009F47F
:101180008DE10E9411060895809107078695869546
:101190008F5F8E3108F081E00E941106089522E8E9
:1011A000241B08F420E0620F08954095282F429FE9
:1011B000412D1124842F0895E42FF0E0EE0FFF1F3E
:1011C000E859FD4F9081921B97FD9195292F38E1A9
:1011D000239F212D1124620F08950F931F9310E078
:1011E000F801EE0FFF1FE859FD4F9081905797FDD2
:1011F0009195000F111FF801E759FD4F0081005232
:10120000110B2003F001219FF00D112408E310E0E1
:10121000091B110997FD139540039001419F300D63
:101220001124E20FF31F9F01220F331F2E0F3F1FC8
:1012300037FF02C021583F4F220F232F221F330BAD
:10124000620F1F910F9108950F931F93522F10E07B
:10125000F801EE0FFF1FE759FD4FA081A052BB0B15
:101260009D015203F001539FF00D1124000F111F37
:10127000D801A859BD4F0C910057110B40039001A4
:10128000419F300D11242E0F3F1F37FF02C0215CFC
:101290003F4F96E0359527959A95E1F7620F1F919C
:1012A0000F9108950F931F93522F10E0F801EE0F46
:1012B000FF1FE759FD4FA081A052BB0B9D015203B8
:1012C000F001539FF00D1124000F111FD801A859F0
:1012D000BD4F0C910057110B40039001419F300D01
:1012E00011242E0F3F1F37FF02C021583F4F220FFE
:1012F000232F221F330B620F1F910F910895EF923E
:101300000F93972F23E0029FB001112475956795E5
:101310006E0D792F0F91EF900895322F50E0FA0162
:10132000EE0FFF1FE759FD4F9081905297FD919569
:10133000440F551FFA01E859FD4F2081231B330B41
:10134000290F311D97FD3A95620F0895E42FF0E0C3
:10135000EE0FFF1FE759FD4F6081621B0895E42FD8
:10136000F0E0EE0FFF1FE859FD4F6081621B08950A
:10137000622F0895E42FF0E0EE0FFF1FE859FD4FB4
:10138000408134EE439F412D1124E82FF0E050E0DE
:10139000445E5F4FDA01A21BB1099D01B7FF03C094
:1013A00031952195310993E0220F331F9A95E1F78A
:1013B000AF01421B530B9A0157FD20E0582F259F88
:1013C000212D1124822F08950E944F1208950E940A
:1013D00011120895EF92FF920F939701201B31098C
:1013E0002F3F310519F010F02FEF30E02095382F06
:1013F000320F08F43FEF832F0F91FF90EF90089585
:10140000FC019B01009729F480E077FF2BC080E866
:101410000895AC0197FF04C044275527481B590B7A
:10142000B901640F751F37FD10C0241B350BC901AE
:10143000A5E0880F991FAA95E1F70E94A73080E2E6
:10144000861BF7FF0FC081950895CB0165E0880FDB
:10145000991F6A95E1F7BA01621B730B0E94A730CE
:1014600080E6EECF0895EF920F93CF93DF93D72FBF
:10147000C82FC9010E19BA010E94000A602F681B0B
:101480007D2F8C2FDF91CF910F91EF9008950F93C7
:10149000CF93DF93D72FC82FC901BA010E94000A4A
:1014A000682F600F7D2F8C2FDF91CF910F910895C2
:1014B000EF920F931F93CF93DF93D62FC72F182F41
:1014C000C9010E19010FBA010E94000A081B202F42
:1014D000219F212D1124822F6D2F7C2FDF91CF9101
:1014E0001F910F91EF9008950F931F93CF93DF9368
:1014F000D62FC72F182FC901212F201B022FBA0169
:101500000E94000A982F990F990F891B800F282F8E
:10151000219F212D1124822F6D2F7C2FDF91CF91C0
:101520001F910F910895E82F86FDE0952E2F2F70C3
:1015300086FD2F5FE695E695E695E670F0E0EB5EBA
:10154000FD4F9181929F902D212D112492959F7096
:101550002295207F922B2081920F87FD919580E824
:10156000890F08950F931F93CF93DF938B01D82F8B
:10157000C42F822F0E94930AEC2FF0E0EE0FFF1F82
:10158000E859FD4F90819058890F87FD8195880F0C
:10159000682F2CE0629F612D1124600F712F8D2F19
:1015A000DF91CF911F910F91089540910C015091BF
:1015B0000D0125E038E0429FC001439F900D529FEE
:1015C000900D1124875E994C90930D0180930C012E
:1015D000890F0895AC018230910508F408959FEFBA
:1015E000413E8EE1580740F49A0195E036952795E3
:1015F0009A95E1F798E0920F61E0E62FE90FFF2757
:10160000FF1F9F0135952795822F229FF001239F71
:10161000F00DF00D11244E175F0738F49FEF920F75
:10162000961758F78FEF860F08952F3FE9F361E083
:10163000620FF6CF0F93CF93DF93D72FC82F47FDBD
:10164000419588E390E0841B910947FD9395889F1D
:10165000B001899F700D700D1124229FC001239F3E
:10166000900D900D1124860F971F0E94EA0A982F63
:10167000990F890F682F600F7D2F8C2FDF91CF91ED
:101680000F91089530E020E0869F212D969F200D38
:10169000311D1124C901089520910B0730E1230F5A
:1016A00008F42FEF60E1822F90E00E94420BBC0112
:1016B00088EB9BE00E94503090E080E00895AF926C
:1016C000BF92CF92DF92FF920F931F93CF93DF933E
:1016D000362F472FE82FF0E0EC57F84F71110FC06D
:1016E000E4918E2F2E2F6E2F722FDF91CF911F91AD
:1016F0000F91FF90DF90CF90BF90AF900895C72FCC
:10170000D0E02491F22E022F10E056E0659FC00138
:101710001124EFEFF0E0BF010E945030832F90E0E2
:10172000880F991F35E5369FD001379FB00D1124E2
:101730008A1B9B0B982F990F980F6F01CC1ADD0A0B
:10174000C09ED001C19EB00DD09EB00D11248B2F34
:10175000499FA0011124452F55276F01C41AD50AAE
:10176000C09EA001C19E500DD09E500D11245F015E
:10177000A91AB108AC9E6001AD9ED00CBC9ED00CE5
:101780001124CD2CDD24EC19FD09E09FE001E19F3F
:10179000D00DF09FD00D1124ED2F62307105A1F016
:1017A00050F46115710509F49ECF6130710581F027
:1017B000EB2F852F98CF6430710569F080F066308B
:1017C000710509F490CFF4CFE22F2B2F8D2F8BCF03
:1017D000E22F252F88CFEB2F822F2D2F84CF2B2F79
:1017E0008F2DE52F80CFB0E0A0E0E9EFFBE00C9477
:1017F0006F308C01FC01E051FD4F8081682349F17D
:10180000D0900907D0910A07C0910807EC2EF12C5F
:101810000E94D50A282FC7018C549F4F68E671E0BB
:101820000E94A7308E199F0997FD0396959587957D
:101830009595879523706C2F289F600D11247D2D21
:101840008D2F0E945F0B462F282F672FC8010E9403
:10185000E709CDB7DEB7E7E00C948B30B0E0A0E04D
:10186000E4E3FCE00C946E308C01C0911101CC0FCC
:10187000CC0F24E0D22EDC0ECD2C24E42D1510F458
:1018800094E4C92E20910B0731E0230F08F42FEFC9
:1018900030E050E040E06FEF7FEF80E090E00E94AA
:1018A0008E317901D0E02C2FCC1550F081E0F3E49B
:1018B000FD1508F480E0CDB7DEB7E8E00C948A307F
:1018C000FE01E051FD4F808190911201892311F1B9
:1018D0004091DA064150042E000C550B47FF1CC006
:1018E000C70160910B0721E0620F08F46FEF0E94BF
:1018F000420BAC01609108077091090780910A07BB
:10190000F80109950E945F0B462F282F672FCE0103
:101910000E94E7092196C7CFFA01E652F94F818963
:1019200082130AC0FA01EE0FFF1FE652F94F818DB4
:10193000928D8E159F05A8F241505109CFCFB0E08E
:10194000A0E0E5EAFCE00C946F307C01C09111014D
:10195000CC0FCC0F14E01C0F012F153408F004E459
:1019600060910B076695669521E0620F08F46FEFB2
:101970008091D6069091D7060E94420BD82ED0E0D7
:10198000C01748F081E0143408F080E0CDB7DEB72E
:10199000E7E00C948B30FE01E051FD4F8081909187
:1019A0001201892391F060910807709109078091D5
:1019B0000A072D2D4C2FF70109950E945F0B462F2A
:1019C000282F672FCE010E94E7092196D9CFB0E0DA
:1019D000A0E0EDEEFCE00C946B306C01C0911101C5
:1019E000CC0FCC0F14E01C0FB12E153410F034E4E2
:1019F000B32E60910B07669566958091D6069091FF
:101A0000D7060E94420BF82E80E48F0D0E94930AA5
:101A100090E8A92EA80E8F2D0E94930A20E8922EFE
:101A2000980ED0E0CB1548F081E0143408F080E047
:101A3000CDB7DEB7EBE00C948730FE01E051FD4FEF
:101A40008081909112018923A1F060910807709123
:101A5000090780910A07EF2C0C2F292D4A2DF6013A
:101A600009950E945F0B462F282F672FCE010E94F9
:101A7000E7092196D7CFB0E0A0E0E1E4FDE00C94C7
:101A800069305C01C0911101CC0FCC0F14E01C0F28
:101A9000F12E153410F034E4F32E60910B076695A7
:101AA0008091D6069091D7060E94420B782ED0E006
:101AB000CF1548F081E0143408F080E0CDB7DEB7F0
:101AC000EDE00C948530FE01E051FD4F8081909156
:101AD00012018923C9F1CE01880F991F835E9D4FA2
:101AE000FC01E55BFF4F2081422F4057550B6A01F7
:101AF000845B9F4FFC018081282F2052330B4901CA
:101B0000449F9001459F300D300D1124889CC001E9
:101B1000899C900D900D1124820F931F0E94EA0A58
:101B2000082F609108077091090780910A07E72C38
:101B30009401A601F50109950E945F0B462F282FFD
:101B4000672FCE010E94E7092196B2CFB0E0A0E056
:101B5000ECEAFDE00C946E307C01C0911101CC0FD9
:101B6000CC0F14E01C0FD12E153410F034E4D32E1A
:101B700060910B0766958091D6069091D7060E94DA
:101B8000420BC82ED0E0CD1548F081E0143408F0A7
:101B900080E0CDB7DEB7E8E00C948A30FE01E0517A
:101BA000FD4F808190911201892311F1CE01880FA0
:101BB000991F835E9D4FFC01E45BFF4F2081205203
:101BC000330B855B9F4FFC0140814057550B609163
:101BD00008077091090780910A070C2DF7010995F4
:101BE0000E945F0B462F282F672FCE010E94E70926
:101BF0002196C9CF8091060480FD16C081FD16C0D4
:101C000082FD16C0809105048823A1F0883280F4FB
:101C100028E0829FC001112468E270E00E94A73092
:101C2000862F672B39F0089582E0089584E00895A7
:101C300088E0089581E008958091060480FD14C035
:101C400081FD14C082FD16C080910404882381F0B8
:101C50008E3180F420E3829FC00111246EE170E098
:101C60000E94A730862F08958CE0089588E108959A
:101C700088E0089580E3089580E00895F894E82FBF
:101C8000E295EF70F0E031A1282F2F7081E090E015
:101C900001C0880F2A95EAF7982F9095932391A376
:101CA00092A1892B82A3789408959091A50692FF22
:101CB00006C0282F28712830F9F4877F846093FFAD
:101CC00006C0282F28712831F1F4877E8461209185
:101CD000A60620FF06C0382F38713830D9F4877F28
:101CE000816021FF06C0282F28712831D1F4877E1A
:101CF000816194FD877E0895282F24712430F9F6A0
:101D00008B7F8860DCCF282F2471243101F78B7EF4
:101D10008861DDCF382F3171313019F78E7F8860BF
:101D2000E0CF282F2171213121F78E7E8861E1CF0C
:101D3000972F7530B8F46F30A8F4883098F470E0BD
:101D40002FE0929F600D711D1124FB019BE4899F80
:101D5000E00DF11D1124EE0FFF1FEC52FD4F859198
:101D60009491089580E090E00895CF93DF93EC0183
:101D700082389105B9F108F041C08133910509F429
:101D80009FC050F58932910509F48FC08A9709F4F4
:101D90009EC0C11520E5D20708F0BDC0C11530E4D2
:101DA000D30708F00AC1C03ED10508F0A5C0CD3C5C
:101DB000D10508F000C1C83AD10508F08FC0C53A76
:101DC000D10508F0F0C0C130D10539F1209729F1D3
:101DD000C430D10510F546C08533910509F460C0C3
:101DE000C997B9F68091A506837009F044C1809126
:101DF000A60683FF12C0C9E2D0E00FC0833E910562
:101E0000A1F178F4803E910509F1823E910509F037
:101E1000C0CF8091A50682FD21C0CE01DF91CF9178
:101E20000895863E910561F1873E910571F1843EEA
:101E3000910509F0AECF8091A60681FFEECF80918B
:101E4000A506C7EED0E084FD0DC0E7CF8091A506C2
:101E500080FD33C09091A60690FFDFCFC3EED0E0A7
:101E600084FFDBCFD0E0C0E0D8CF8091A50682FD13
:101E7000FFC09091A60690FDFEC084FFCECFF2CFAA
:101E80008091A50683FDDDCFC8CF8091A50683FD97
:101E9000F5C09091A60691FFF0CFC4EED0E0BDCF83
:101EA0008091A50685FFB9CFA6CF8091A50685FDB7
:101EB000E8C08091A60683FFB0CFC9E3D0E0ADCFE4
:101EC0008091A50686FFA9CFCAE2D0E0A6CF809177
:101ED000A50686FFA2CFC1E3D0E09FCFC13CD105CC
:101EE00008F6C85AD0E0CC0FDD1FC153DE4F099071
:101EF000D881C02DD46491CFC11540E2D40708F039
:101F0000AAC0C11581E0D80708F087CFC83ED10527
:101F100008F483CFA7CFC03622E5D20718F5C03426
:101F200032E5D30708F053C0C03242E5D40708F0C9
:101F300047C0C11582E5D80708F47FC02C2F26952D
:101F4000269540E2249F900111248C2F8370C1E0DC
:101F5000D0E002C0CC0FDD1F8A95E2F7C22BD32B55
:101F6000DD685BCFC03A22E5D20760F4C03832E5C5
:101F7000D30708F441C0CF71D0E0DC2FCC27C46F69
:101F8000D06A4BCFC03C42E5D40708F44AC0C03EFB
:101F900082E5D80708F066CFDC2FCC27CC27DF718D
:101FA000C06FD06A3ACFC55AD0E0C453DE4FC88163
:101FB000D0E0D06432CFD06530CFDF70D06A2DCF83
:101FC000CF71D0E0DC2FCC27C16FD06A26CF2C2F69
:101FD00026952695277080E2289F900111248C2F4A
:101FE0008370C1E0D0E002C0CC0FDD1F8A95E2F71C
:101FF000C22BD32BDC6811CF2C2F2695269527706A
:1020000040E2249F900111248C2F8370C1E0D0E026
:1020100002C0CC0FDD1F8A95E2F7C22BD32BDA6802
:10202000FCCE8C2F8F710E94550EC82FD0E0DC2F74
:10203000CC27CC27DF71D062F0CE8C2F8F710E941D
:10204000550E35E0D695C7953A95E1F7CF709C2FA0
:10205000EC01D069E2CE8D2F8F710E94550E90E079
:10206000982F882788279F719C012C2BE901E3CFAB
:10207000C2EED0E0D2CEC0EED0E0CFCEC6EED0E001
:10208000CCCEC5E3D0E0C9CE8091DE03882331F009
:102090001092DE031092DD031092DC030895809508
:1020A0009091DB0398239093DB0308958091B6030E
:1020B00090918503981301C008958F5F8770FACFC0
:1020C000B0E0A0E0E6E6F0E10C946D307C01009118
:1020D0003B0510913C058091390590913A05082BFC
:1020E000192BCFE0D0E0CC24C394D12CBC2EC60158
:1020F0000C2E02C0880F991F0A94E2F780239123C7
:10210000892B49F4219790F7B12C8B2DCDB7DEB7F1
:10211000E9E00C948930B7018C2F0E94980E0E9440
:10212000B50E019779F3F1CFCF93DF93EC010E94C5
:102130006010BE010E94980E0E94B50EDF91CF91F3
:102140000895953078F58F3068F5E82FF0E08FE04E
:10215000989FE00DF11D11249E2F977083E0F69556
:10216000E7958A95E1F7EE0FFF1FEE0FFF1FE95A83
:10217000FC4F50E040E080E0219130E0092E02C0A9
:10218000369527950A94E2F721703327042E01C073
:10219000220F0A94EAF7822B4F5F5F4F44305105BC
:1021A00059F7089580E00895953098F58F3088F5B7
:1021B000E82FF0E08FE0989FE00DF11D11248E2FA5
:1021C000877041E001C0440F8A95EAF783E0F695F5
:1021D000E7958A95E1F7EE0FFF1FEE0FFF1FE95A13
:1021E000FC4F30E020E070E05191DF011197CB010E
:1021F000022E02C0969587950A94E2F78170819528
:102200008527842385278C932F5F3F4F243031050A
:1022100059F7089590933C0580933B05089521E07C
:1022200030E002C0220F331F8A95E2F720953095E7
:1022300080913B0590913C05822393230E940A11D3
:1022400008959091B903809589238093B903282F2D
:102250002770B1F4282F082E000C330B92171306A9
:1022600079F09091A60692FF0BC08595859585958E
:102270000E940F111092B9031092B8031092B70385
:10228000089521E030E002C0220F331F8A95E2F763
:1022900080913B0590913C05822B932B0E940A1163
:1022A000089590933A05809339050895FC01838140
:1022B0009481892B29F08081918189238F3F51F46A
:1022C00080E00895843FE1F717C0883EA8F0813F81
:1022D000B9F712C0808191810E94941092959F70ED
:1022E000963099F358F4925F9F70923048F7803F90
:1022F00019F040F7883E20F781E008959A5FF4CF07
:102300000F931F93CF93DF938B01EA019091CC063B
:10231000943061F58093E9008FEF9091E80081504F
:1023200095FD06C095ED9A95F1F700008111F5CF66
:102330008091E80085FF1AC00E945C06811111C0DF
:102340008091E80085FD06C08091E8008E7780933B
:10235000E800F2CFF80181918F018093F10021977D
:1023600079F78091E8008E778093E800DF91CF9134
:102370001F910F91089543E050E0BC0182E00E945C
:102380008011089546E050E0BC0182E00E94801177
:102390000895CF93DF93EC0180911001811111C05A
:1023A00048E050E0BE0181E00E94801180E2FE0121
:1023B000AAEAB6E001900D928A95E1F7DF91CF91FC
:1023C00008958091A50687FF05C040E282E050E0B5
:1023D000BE01EACF48E081E0FACF81E08093E000DF
:1023E00080E28093D8001092C9008FE19EE40197AB
:1023F000F1F700C0000087E090EBDC0180930D074F
:1024000090930E07A0930F07B093100788E19CE00C
:102410000FB6F894A895809360000FBE909360006B
:10242000FFCFA4E0B0E0E7E1F2E10C947130F62ECA
:10243000042F122F8434910570F5880F991F880F8F
:10244000991FBC016C57774F44E050E0CE010196D4
:102450000E941D3189818370EA81282F30E040E994
:10246000849FC00111248C5A9A4FE80FF92FF11D57
:10247000B497F082EB81E80FF92FF11DB497008338
:10248000EC81E80FF92FF11DB49710832E5A3A4FC3
:1024900081E0F90180832496E5E00C948D30FF9271
:1024A0000F931F93CF93DF93182F062FF42ED0E0B6
:1024B000C0E02F2D402F612FCE010E9411122196D6
:1024C000C434D105B1F7CDB7DEB7E5E00C948D305B
:1024D0000F931F93CF93DF93082F000FEB0114E2AC
:1024E00010933E05EFE3F5E0DE018D91819385E0E9
:1024F000EF34F807D1F724E630E041E150E06EE335
:1025000075E0802F0E942F30105F6096143B41F7DA
:10251000DF91CF911F910F910895809152058823EB
:1025200029F064E575E084E70E9468121092520574
:1025300080915305882329F064EE75E087E70E94B7
:102540006812109253050895EEE3F5E0608341832D
:1025500024E630E042E050E0BF01880F0E942F30B7
:102560000895EF92FF920F931F93CF93DF93E82E7E
:10257000062F10E00856194FF8018081882381F05A
:10258000F2E16F9FE0011124CC58D94FF12C499111
:102590006F2D8E2D0E94A412F39482E1F812F7CFD2
:1025A000F8011082CDB7DEB7E6E00C948C30CF9303
:1025B000DF93C82F4BE06DEF0E94A41240E06AE069
:1025C0008C2F0E94A4128FE39CE90197F1F700C0C1
:1025D000000040E060E08C2F0E94A41240E061E027
:1025E0008C2F0E94A41240E066E08C2F0E94A4125F
:1025F00040E06DEF8C2F0E94A412D0E040E06D2FE0
:102600008C2F0E94A412DF5FD231C1F740E06D2F02
:102610008C2F0E94A412DF5FD432C1F740E06D2FEF
:102620008C2F0E94A412DF5FD43BC1F74BE06DEF0B
:102630008C2F0E94A41241E06AE08C2F0E94A41209
:1026400040E06DEF8C2F0E94A412DF91CF9108958E
:10265000A4E0B0E0EEE2F3E10C9468300E948F2F2A
:1026600084E70E94D71287E70E94D71204E818E097
:1026700052E1752E68E0C62ED12CEE24E394F12CA5
:102680006624639444E050E0B801CE0101960E94B4
:102690001D314A8150E0CA0184972B81622F645218
:1026A000770B4B012C81E22FE452FF0B5F01298154
:1026B000237030E0FC0197FD379643E0F595E795F0
:1026C0004A95E1F7729EA001739E500D11244C585B
:1026D000594FE40FF52FF11DB6010E94A730A70155
:1026E00001C0440F8A95EAF78081842B8083F4012E
:1026F00097FC379693E0F595E7959A95E1F7729EEA
:10270000C001739E900D11248C58994FE80FF92F3A
:10271000F11DC401B6010E94A730A70101C0440FFA
:102720008A95EAF78081842B8083F501B7FC379680
:1027300083E0F595E7958A95E1F7729EC001739E57
:10274000900D11248C58994FE80FF92FF11DC501F8
:10275000B6010E94A730A70101C0440F8A95EAF78D
:102760008081842B80832856394FF90160820C5F69
:102770001F4FF9E004391F0709F084CF60E084E7B8
:102780000E94B11261E087E70E94B1122496EEE048
:102790000C9484301F93CF93DF93EC01FC01E05144
:1027A000FD4F80816823B1F00E940D31182F0E94E7
:1027B0000D318F77782F20E8720F08F47FEF612FAB
:1027C00080910A070E945F0B462F282F672FCE01AA
:1027D0000E94E709DF91CF911F910895A8E0B0E032
:1027E000E4EFF3E10C946430582E80910F018511D1
:1027F00024C090910707937020910E0130E081E092
:102800009217130609F480E0817080931301809180
:102810000C0790911201981739F08093120140E053
:1028200060E080E00E94E4092DE1251560F0E52DCF
:10283000F0E0ED50FE4C0C94BB3081E0E5CF809190
:102840001301811102C019826FC040E060E080E096
:102850000E94E409F8CF30911101330F330F39830F
:10286000132F1C5F012F153408F004E46091080752
:102870007091090780910A070E945F0BF62EE72EE0
:10288000D82E9981892F90E09E838D83FD81F0174A
:1028900018F021E0298345C0ED81FE81E051FD4F14
:1028A000808190911201892339F02D2D4F2D6E2DAD
:1028B0008D819E810E94E709ED81FE813196FE8324
:1028C000ED83E4CF30911101330F330F3983132F90
:1028D0001C5F012F153408F004E4E0900907F09024
:1028E0000A07809108078A83682F7E2D8F2D0E940A
:1028F0005F0BD62EC72EB82E60910B079A81690FF9
:102900007E2D8F2D0E945F0BF62EE72EA82EF981CB
:10291000EF2FF0E0FE83ED833D813017E8F081E09A
:102920008983143408F08FCF809111018F5F8093D9
:102930001101998191110CC082E080931401809162
:102940001301811105C0511003C083E0809314016D
:102950002896E2E10C948030ED81FE81E051FD4F3C
:10296000908180911201892361F02A2D4F2D6E2DC7
:1029700090FD03C02B2D4D2D6C2D8D819E810E94CD
:10298000E7092D813E812F5F3F4F3E832D83C4CFCA
:1029900090911101990F990F9983192F1C5FF12EB6
:1029A000153410F004E4F02EE0900907D0900A07E7
:1029B00020910B0700E4029F012D1124F981EF2FD4
:1029C000F0E0FE83ED833D813F1508F0A8CFED8157
:1029D000FE81E051FD4F8081909112018923E9F041
:1029E000ED81FE81EE0FFF1FE859FD4F6081069FCC
:1029F000B0011124B5E075956795BA95E1F780911E
:102A00000807680F7E2D8D2D0E945F0B462F282F03
:102A1000672F8D819E810E94E7092D813E812F5F66
:102A20003F4F3E832D83CFCF90911101990F990F86
:102A30009983192F1C5F012F153408F004E4F090DE
:102A40000807E0910907EA83E0900A0760910B0705
:102A50006695669566958091D6069091D7060E94F8
:102A6000420B0E94930A805887FD8195880F282F7A
:102A70003E2D239F212D1124822F6F2D7A810E94BC
:102A80005F0BF62EE72ED82E9981892F90E09E833A
:102A90008D83FD81F01708F0FCCEED81FE81E051C1
:102AA000FD4F808190911201892339F02D2D4F2DFA
:102AB0006E2D8D819E810E94E709ED81FE81319608
:102AC000FE83ED83E6CF8AEB99E00E949F0C04C061
:102AD00084E79AE00E94A60D898326CF88E59AE0D4
:102AE0000E943B0DF9CF88EB99E0EFCF8FEA99E098
:102AF000ECCF86EA99E0E9CF8DE899E0E6CF8FE761
:102B000099E0EECF8AE19BE0E5CF87E49AE0E2CF5F
:102B100083E39AE0E5CF82E599E00E94E70CDCCF01
:102B200084E299E0FACF8DEE98E0F7CF3091110171
:102B3000330F330F3983E4E0FE2EF30E809113013F
:102B4000811124C060910B0720E1620F08F46FEF40
:102B50008091D6069091D7060E94420B6AE070E001
:102B60000E945030892B59F40E94D50A64E40E94D7
:102B70009B3060911201892F90E00E94F30B91E04D
:102B80009983E3E4EF1508F0CFCE5DCE0F2D84E4FA
:102B90008F1508F404E4F981EF2FF0E0FE83ED8354
:102BA00010E08D819E81801791074CF76091120192
:102BB0008D819E810E94F30B2D813E812F5F3F4FBF
:102BC0003E832D83EECFF0911301F983F1111EC0E6
:102BD00060910B0720E1620F08F46FEF8091D60639
:102BE0009091D7060E94420B65E070E00E94503041
:102BF000892B09F028CE0E940D3164E470E00E9418
:102C0000A730609112010E94CA138ECE209111014B
:102C1000220F220F298374E0F72EF20E0F2D34E4D9
:102C20003F1508F404E49981892F90E09E838D83F9
:102C300010E02D813E81201731073CF031E03983CF
:102C400083E48F1508F070CEFECD609112018D8166
:102C50009E810E94CA13ED81FE813196FE83ED8331
:102C6000E8CF90911101990F990F9983192F1C5F4B
:102C7000012F153408F004E4E0900907F0900A07EA
:102C8000E0910807EA8360910B0766956695669563
:102C90008091D6069091D7060E94420B0E94930A1B
:102CA000805887FD8195880F682F2CE0629F612DE9
:102CB0001124FA816F0F7E2D8F2D0E945F0BF62E4F
:102CC000E72ED82E3981232F30E03E832D839D813E
:102CD000901718F0E1E0E98324CEED81FE81E05108
:102CE000FD4F808190911201892339F02D2D4F2DB8
:102CF0006E2D8D819E810E94E7098D819E810196B6
:102D00009E838D83E4CF82EB9AE0DFCE8CED98E05A
:102D1000DCCE109111011F5F110F110F4091D606EB
:102D20005091D7066091D8067091D9068091110410
:102D300090911204A0911304B09114048417950784
:102D4000A607B70708F056C00E94D50A082F0E94B0
:102D5000D50A94E4891BF0F7890F282F30E03E83D1
:102D60002D83F901E051FD4F80911201908189235B
:102D700009F440C020E040E060E001FD13C00E9483
:102D8000D50A082F0E94D50A782F76952FE7720F63
:102D900008F47FEF602F80910A070E945F0B462F97
:102DA000282F672F8D819E810E94E70920910B07B4
:102DB00030E1230F08F42FEF60E1822F90E00E94B2
:102DC000420BBC0184EF91E00E9450308091D60606
:102DD0009091D706A091D806B091D906860F971F7B
:102DE000A11DB11D8093110490931204A0931304AC
:102DF000B093140431E0398394CD4091E1045091B3
:102E0000E2046091E3047091E4048091D60690910D
:102E1000D706A091D806B091D90684179507A607C2
:102E2000B70708F410CD80911301811122C0809161
:102E30001101880F880F8983182F1C5F012F15340B
:102E400008F004E49981E92EF12C23E0929FF0012F
:102E50001124EB5EFB4FFE83ED83E01608F449C0BE
:102E6000E5E1F4E08EED94E0143408F062C081E016
:102E700033CE40E060E080E00E94E40905E114E028
:102E80001E821D826FE7D62E0E94D50A81FF10C0D8
:102E9000F8011082118212822D813E812F5F3F4FF7
:102EA0003E832D830D5F1F4F2434310569F7BFCF5B
:102EB0000E94D50AC82E0E94D50A8695782F2D2DFE
:102EC000720F08F47FEF8D819E81880F991FED812D
:102ED000FE818E0F9F1F9C012B5E3B4F79016C2D55
:102EE00080910A070E945F0BF701608371838283E0
:102EF000D3CFF701E051FD4F8081909112018923DA
:102F000041F0ED81FE81228140816181C7010E94F3
:102F1000E7092D813E812D5F3F4F3E832D833FEF9B
:102F2000E31AF30A9ACF23813481458121933193A7
:102F300041938E179F07B9F70E94D50A81FF1FC0E2
:102F40001092DE041092DF041092E0040E944C0BF9
:102F50000091D6061091D7062091D8063091D90657
:102F6000DC01CB01800F911FA21FB31F8093E104EE
:102F70009093E204A093E304B093E40464CC0E9431
:102F8000D50A89830E94D50A8695782F2FE7720F7C
:102F900008F47FEF698180910A070E945F0B6093BC
:102FA000DE047093DF048093E004D0CF809113019E
:102FB000882329F040E060E080E00E94E40940902E
:102FC00011014394440C440C4091D6065091D7060D
:102FD0006091D8067091D9068091080590910905F5
:102FE000A0910A05B0910B0584179507A607B707AE
:102FF00008F07FC0609108077091090780910A0767
:103000000E945F0B362E272EF82E05EE14E08DE180
:1030100092E09E838D8348E6642E42E0742EAD805C
:10302000BE804501680136E0E32EF60121916F0173
:10303000F40181914F0190E0222309F461C02F2D0A
:10304000432D622D0E94E709F50186852F2D432D22
:10305000622D90E00E94E709F6018081319780831C
:10306000EA94F1E0AF1AB108E110DFCFED81FE8103
:10307000868190E0F8012681222309F44CC02F2D8F
:10308000432D622D0E94E709ED81FE8180852F2D61
:10309000432D622D90E00E94E7090E94D50A8370BB
:1030A00091E009F090E0F8019683095F1F4F2D81B0
:1030B0003E81215F3F4F3E832D836216730609F0E8
:1030C000AECF0E944C0B0091D6061091D7062091EE
:1030D000D8063091D906DC01CB01800F911FA21FC9
:1030E000B31F8093080590930905A0930A05B09338
:1030F0000B0531E0398383E4841508F015CCA3CBAC
:1031000020E040E060E00E94E709F501868520E0CC
:1031100040E060E09ECF20E040E060E00E94E709F0
:10312000ED81FE81808520E040E060E0B3CF85ED59
:1031300098E00E942E0CD0CC8FEC98E0FACF9091C2
:10314000DA069B8321E0392F321B08F430E0398303
:1031500080911101880F880F8D838C5F8A838C8307
:10316000853410F094E49C83FD81EF2FF0E0F88724
:10317000EF83CF01880F991F9C0128593D4F6901AA
:103180003981832F90E0FC013196FE83ED83EC8141
:10319000FF81FE1738F021E029833A81343408F4A6
:1031A000C3CB51CBEF81F885E051FD4F80819091E9
:1031B00012018923F1F020900807309009072D8132
:1031C0003E812652394F3901498010E03B81431638
:1031D000C8F020910A07129F112D1124B101812FEF
:1031E0000E945F0B462F282F672F8F8198850E94A2
:1031F000E7098F819885019698878F8392E0C90EA1
:10320000D11CC5CFF30181913F01F601A080A81A1E
:10321000BB088180F3018781881A9908AA9C9001D4
:10322000AB9C300D300D1124889CC001899C900D01
:10323000900D1124820F931F0E94EA0A082F6091BB
:103240000B0721E0620F08F46FEFF301EE0FFF1F91
:10325000EA5DF640858996890E94420B7C019401C3
:10326000A501B101812F0E94EA091B014394182F87
:10327000ADCFAEE2B0E0EFE3F9E10C9466308091BF
:10328000350590913605A0913705B09138052FB7D7
:10329000F894C090A106D090A206E090A306F0900A
:1032A000A4062FBF46015701881A990AAA0ABB0A29
:1032B0002FB7F8944091A1065091A2066091A30601
:1032C0007091A4062FBF4093350550933605609347
:1032D00037057093380510910C05ECE0F5E0212FCF
:1032E00030E00197AF4FBF4F8C199D09AE09BF0960
:1032F00013131FC020930C0580913D0510E0811130
:1033000008C080910707182F137019F0182F169511
:103310001695809114018130B1F18823E9F0823053
:1033200009F4ABC1833009F4B3C1AE96E0E10C946B
:103330008230E18CF28C2701712C612C841595056B
:10334000A605B70520F421503F5F3296D1CFE80C97
:10335000F91CF28EE18EF8CF109211014093D6063F
:103360005093D7066093D8067093D90689E2ECE0B3
:10337000F5E0AAEDB6E001900D928A95E1F781E0C3
:1033800080931401D2CF812F0E94EE13112369F292
:1033900080913B0590913C052091390530913A058B
:1033A000822B932B292F3327E0E02115310511F0D3
:1033B000C901E8E09C0154E0369527955A95E1F75C
:1033C0002115310511F0EC5FC9019C013695279557
:1033D000369527952115310511F0EE5FC9019695B7
:1033E0008795892B09F0EF5FE150E73050F4F0E06A
:1033F000EF5EFD4C0C94BB3040E460E480E40E943E
:10340000E4090E94430881FF0EC02FEF4FEF6FEFDA
:103410008EE190E00E94E7092FEF4FEF6FEF8EE013
:1034200090E00E94E7090E94430881FF7ECF2FEFC2
:103430004FEF6FEF8EE190E00E94E70976CF40E01A
:1034400060E080E00E94E40982E2E5E1F1E0DE0173
:10345000119601900D928A95E1F786E0E7E3F1E09D
:10346000DE01999601900D928A95E1F78E010F5F2A
:103470001F4F7E0183E2E80EF11C20EE40E260E780
:10348000F801819191918F010E94E7090E151F05A6
:10349000A1F78E01075D1F4F7E01FFE2EF0EF11CC9
:1034A0002FEF4FEF6FEFF801819191918F010E9403
:1034B000E709E016F106A1F7A4CF40E060E080E064
:1034C0000E94E40980E2EDE3F1E0DE011196019053
:1034D0000D928A95E1F78E010F5F1F4F7E01F1E299
:1034E000EF0EF11C20E840E160EDF801819191912F
:1034F0008F010E94E709E016F106A1F72FEF4FEFC9
:103500006FEF80E290E00E94E7092FEF4FEF6FEF3F
:1035100081E290E00E94E7092FEF4FEF6FEF82E228
:1035200090E00E94E7096DCF40E060E080E00E94FB
:10353000E4098EE1EDE5F1E0DE01119601900D92D6
:103540008A95E1F78E010F5F1F4F7E01FFE1EF0EBD
:10355000F11C20E040E56FEDF801819191918F0120
:103560000E94E709E016F106A1F72FEF4FEF6FEF8A
:1035700085E290E00E94E7092FEF4FEF6FEF86E2C0
:1035800090E00E94E7092FEF4FEF6FEF87E290E0A6
:103590000E94E7092FEF4FEF6FEF88E290E0C1CF75
:1035A00088E2EBE7F1E0DE01119601900D928A9539
:1035B000E1F78E010F5F1F4F7E01F9E2EF0EF11C64
:1035C00025E04FEF60E9F801819191918F010E9410
:1035D000E709E016F106A1F714CF40E060E080E0D3
:1035E0000E94E4098AE0E3EAF1E0DE01119601902D
:1035F0000D928A95E1F78E010F5F1F4F7E01FBE070
:10360000EF0EF11C2FEF40EB60E2F80181919191F8
:103610008F010E94E7090E151F05A1F720E040E584
:103620006FED82E390E00E94E70920E040E56FED56
:1036300083E390E076CF40E060E080E00E94E40920
:103640008CE1EDEAF1E0DE01119601900D928A9590
:10365000E1F78E010F5F1F4F7E01FDE1EF0EF11CC0
:1036600020E040E860E0F801819191918F010E9493
:10367000E709E016F106A1F7C4CE10930F0180917F
:103680000707837080930E010E948D1283E078CE2D
:1036900080910607882351F046E050E06CE170E02D
:1036A00087E097E00E945A31109206074091D606B3
:1036B0005091D7066091D8067091D9062FB7F8942B
:1036C0008091A1069091A206A091A306B091A406B4
:1036D0002FBF841B950BA60BB70B4A97A105B1050D
:1036E00008F423CE1092140120CEE7E0F7E081E247
:1036F00080838091C9019091CA01A091CB018183FF
:103700009283A3838FE784838FEF858346E050E025
:103710006CE170E0CF010E945A31109206070895C3
:103720009091A60692FB222720F9281779F080FBBA
:1037300092F99093A6066091A5067091A60684E082
:1037400090E00E94883182E00E942111089567EE86
:103750007EEF90E080E00E94883160E082E090E0BF
:103760000E946A3160E083E090E00E946A3110922A
:103770003A051092390560E074E184E090E00E941F
:10378000883160E086E090E00E946A316FEF87E068
:1037900090E00E946A3140E050E0BA0188E090E099
:1037A0000E947C3160E08DE090E00E946A3140E050
:1037B00050E0BA0188E190E00E947C3160E087E14E
:1037C00090E00E946A3140E050E0BA018CE190E064
:1037D0000E947C3170E060E080E290E00E948831DD
:1037E00040E050E0BA0188E190E00E947C3140E086
:1037F00050E0BA018FE090E00E947C3140E050E060
:10380000BA0183E190E00E947C3108951F920F92EB
:103810000FB60F9211242F933F934F935F936F93A3
:103820007F938F939F93AF93BF93EF93FF93809179
:10383000E10082FF09C08091E20082FF05C0809113
:10384000E1008B7F8093E1008091DA0080FF24C04B
:103850008091D80080FF20C08091DA008E7F809315
:10386000DA008091D90080FF9DC080E189BD82E1AE
:1038700089BD09B400FEFDCF81E08093CC06809124
:10388000A706811109C00E943D060E94DE068091B4
:10389000E20084608093E2008091E10080FF17C025
:1038A0008091E20080FF13C08091E2008E7F8093C0
:1038B000E2008091E20080618093E2008091D80074
:1038C00080628093D80019BC85E08093CC068091FB
:1038D000E10084FF2BC08091E20084FF27C080E1DB
:1038E00089BD82E189BD89B5982F917080FFFBCF9A
:1038F0008091D8008F7D8093D8008091E1008F7EE9
:103900008093E1008091E2008F7E8093E2008091BD
:10391000E20081608093E2008091CD06882309F463
:1039200047C084E08093CC068091CC068091E10072
:1039300083FF27C08091E20083FF23C08091E100D4
:10394000877F8093E10082E08093CC061092CD06C1
:103950008091E1008E7F8093E1008091E2008E7F74
:103960008093E2008091E20080618093E20042E077
:1039700060E080E00E94AC068091F0008860809357
:10398000F000FF91EF91BF91AF919F918F917F9147
:103990006F915F914F913F912F910F900FBE0F90BC
:1039A0001F90189519BC1092CC061092A70674CFE0
:1039B0008091E30087FD93E09093CC06B5CF789497
:1039C0001F921FB61F9211248F939F93AF93BF93A3
:1039D0008091A1069091A206A091A306B091A406A1
:1039E0000196A11DB11D8093A1069093A206A093FC
:1039F000A306B093A406BF91AF919F918F911F90A2
:103A00001FBE1F9018959C014FB7F8948091A10696
:103A10009091A206A091A306B091A4064FBF821B6D
:103A2000930B08952FB7F8948091A1069091A20668
:103A3000A091A306B091A4062FBF08950E94121D65
:103A40009C0190910D0480910E04982B21F03093ED
:103A50000A042093090490910F0480911004982B7C
:103A600021F03093080420930704E0919C06F09124
:103A70009D06309749F082E080930B040480F58125
:103A8000E02D8BE094E009950895662309F45DC06C
:103A90008D3C41F40E941C0E819580930E040E947F
:103AA0001E1D08958E3C19F40E941C0EF6CF8F3C0B
:103AB00031F40E941C0E819580930D04F0CF803D5F
:103AC00019F40E941C0EF8CF893D29F40E94FA0DCA
:103AD00080930F04E4CF8A3D21F40E94FA0D819572
:103AE000F7CF8B3D31F40E94FA0D8195809310043D
:103AF000D6CF8C3D19F40E94FA0DF8CF9FE2980FB3
:103B0000983070F4815D990B21E030E001C0220F04
:103B10008A95EAF780910C04822B80930C04BFCF26
:103B20008D3D31F480910604816080930604B7CF07
:103B30008E3D21F4809106048260F7CF8F3D09F01D
:103B4000AECF809106048460F0CF40910D048D3C8F
:103B500059F480910E0487FF0DC010920E0441119C
:103B60000BC01092040408C08E3C81F480910E04B6
:103B700018169CF3442381F080910F049091100457
:103B8000892B09F08CCF1092050489CF8F3C49F422
:103B900047FFF0CF10920D0480910E048111ECCFFD
:103BA000E0CF803D19F41416ACF3E4CF90910F04EC
:103BB000893D29F41916F4F610920F04DBCF8A3DE3
:103BC00019F497FFD7CFF8CF909110048B3D29F4CB
:103BD00097FFD0CF10921004CDCF8C3D19F4191659
:103BE000CCF3C8CF9FE2980F983090F4815D990B89
:103BF00021E030E0B90102C0660F771F8A95E2F735
:103C0000CB01809590910C04892380930C04B2CF52
:103C10008D3D31F4809106048E7F80930604AACFF7
:103C20008E3D21F4809106048D7FF7CF8F3D09F002
:103C3000A1CF809106048B7FF0CFAAE0B0E0E3E251
:103C4000FEE10C946A308E010F5F1F4F8AE0F8018D
:103C500011928A95E9F791E0E92E92E0F92E680138
:103C6000AA24A394B12CF70181917F018F3F09F41D
:103C700046C0F894E82FE295EF70F0E021A18F7034
:103C8000A50102C0440F551F8A95E2F7CA01922F81
:103C9000982B91A392A18095892382A3789400C048
:103CA000E6E0F2E021E030E0912C812C41914F3FA1
:103CB00009F467C0A42FA295AF70B0E090968C91E4
:103CC00090E04F7002C0959587954A95E2F780FD88
:103CD00058C0C901882A992A220F331F52E0E531C2
:103CE000F50721F7F701319780818F3F11F00E948E
:103CF0003E0E80EA8A95F1F7F60191828082F2E029
:103D0000CF0ED11C46E0E41642E0F40609F0ABCF3A
:103D10004AE050E0B80182EE93E00E942631892B00
:103D200099F18AE0F801A2EEB3E001900D928A9534
:103D3000E1F781E08093E1030E94121D9093E0037C
:103D40008093DF038091DF039091E0030E94031DC5
:103D50000397F0F04AE050E062EE73E08EEE93E0FD
:103D60000E942631892BC9F08AE0E2EEF3E0AEEE44
:103D7000B3E001900D928A95E1F781E01092E103A2
:103D800008C090E080E0A6CF8091E1038111DACFF6
:103D900080E02A96ECE00C94863080E0EFCF8091B2
:103DA000DB039091DA03892B809336038091DE0345
:103DB000882329F10E94121D2091DC033091DD033C
:103DC000821B930B8C3D954010F00E944410809113
:103DD00036039091DE03892B809336038091100186
:103DE0008823E1F18091A50687FF38C08EE1E8E3E2
:103DF000F3E090E08150A0F591110E94441040E260
:103E000050E06AEB73E086E393E00E942631892B51
:103E100021F180E2E6E3F3E0AAEBB3E001900D923A
:103E20008A95E1F7E0919C06F0919D063097A9F004
:103E300080911001882359F08091A50687FF07C063
:103E4000809136038093370386E0809336030280A7
:103E5000F381E02D86E393E00995089586E0C7CFCE
:103E60002191222339F29F5FC5CF1092DB0380910D
:103E70001001E8E3F3E0882329F18091A50687FF8C
:103E800021C08EE1DF011D928A95E9F790E080E084
:103E90000E941E0890E080E00E94F9071092DA0369
:103EA0000E94CF1E86E0EBE0F4E0DF011D928A95D0
:103EB000E9F71092040410920504109206040E947F
:103EC0001E1D089586E0DECFAAE2B0E0EAE6FFE13B
:103ED0000C9473308EEC96E02091F100FC0121935C
:103EE000CF01F6E0863D9F07B9F78091CF0683307A
:103EF00009F470C0B8F4813009F447C0823009F485
:103F0000B1C08091E80083FF7EC28091CE0690917F
:103F1000CF069A3008F077C2E92FF0E0E85EFD4C5A
:103F20000C94BB308A3009F48CC08B3009F46FC01C
:103F3000893039F78091CE06813219F78091D20607
:103F40009091D3060297E8F68091E800877F8093EE
:103F5000E8008091E80082FF38C09091F3008091E2
:103F6000F200029731F48091F100813011F0863037
:103F700021F48091F1008093A9068091E8008B776D
:103F80008093E8000E948D06BCCF8091CE06813AD6
:103F900009F0B7CF8091E800877F8093E800809197
:103FA000D2069091D306892B61F460E28AEA96E00A
:103FB00070E00E9439078091E8008B778093E800D9
:103FC000A0CF60E090E080E0F3CF8091CC0681113B
:103FD000C0CF97CF8091CE06813A09F092CF8091E1
:103FE000D2069091D306892B09F08BCF8091E800FF
:103FF000877F8093E8008091E80080FFFCCF80916C
:1040000010018093F1008091E8008E77B9CF809104
:10401000CE06813209F075CF8091D2069091D306F9
:10402000892B09F06ECF8091E800877F8093E800AC
:104030000E948D068091D006809310010E94351F4A
:1040400060CF8091CE06813209F05BCF8091E8008D
:10405000877F8093E8000E948D068091D10680932F
:10406000A8064FCF8091CE06813A09F04ACF8091C1
:10407000E800877F8093E8008091E80080FFFCCF14
:104080008091A806BECF803899F0823809F0BBC174
:104090008091D2068F70873008F0B5C18093E90017
:1040A0008091EB0085FB882780F91092E90006C01B
:1040B0008091CA069091CB06911182609091E800A0
:1040C000977F9093E8008093F1001092F100809127
:1040D000E8008E7794C1882309F482C1823009F008
:1040E00092C18091D006811185C18091D2068F70D6
:1040F0002FEF280F263008F086C18093E900209129
:10410000EB0020FF77C1933031F48091EB008062A7
:104110008093EB006FC19091EB0090619093EB0066
:1041200021E030E001C0220F8A95EAF72093EA00EF
:104130001092EA008091EB008860EACF811163C1A0
:104140001091D0061F778091E3008078812B8093B7
:10415000E3008091E800877F8093E8000E948D064D
:104160008091E80080FFFCCF8091E300806880931D
:10417000E30082E0111183E08093CC0644C18058B3
:10418000823008F040C18091D0069091D1068C3DDC
:1041900023E09207A1F583E08A838AE289834FB7FF
:1041A000F894DE01139620E03EE051E2E32FF0E0C8
:1041B00050935700E49120FF03C0E295EF703F5FFA
:1041C000EF708E2F90E0EA30C0F0C7968D939D93EC
:1041D0002F5F243159F74FBF8091E800877F80938C
:1041E000E8006AE270E0CE0101960E9439078091F2
:1041F000E8008B778093E80006C1C096E7CF409136
:10420000D2065091D306292F33272330310509F4E4
:1042100044C078F52130310509F46FC08BE390E09C
:10422000EAE8FAE02230310509F0EDC02091E8001B
:10423000277F2093E8002091D4063091D50682177D
:10424000930708F49C0140E02115310509F064C092
:10425000411162C08091E80082FDC9CF8091CC06F7
:10426000882329F2853019F28091E80083FFF2CF8C
:10427000BECF21323105A9F12232310509F0C3C088
:104280004115510509F443C04130510509F0BBC047
:1042900086EB90E0E4E9F9E0C9CF992781309105F8
:1042A000C1F0009759F0029709F0ADC0E7EDFAE0D0
:1042B000E4918E2F90E0E7EDFAE007C0E9EFFAE035
:1042C000E4918E2F90E0E9EFFAE0009709F49BC0AB
:1042D000ADCFE9EEFAE0E4918E2F90E0E9EEFAE05E
:1042E000F4CF4115510571F04130510509F08BC0F3
:1042F00089E090E0E5EBFAE099CF82E190E0E5EC2F
:10430000FAE094CF89E090E0ECE9FAE08FCF80E426
:1043100090E0EAE4FAE08ACF8091CC06882309F4A1
:1043200066CF853009F463CF8091E80083FD5FCFCD
:104330008091E80082FD8ECF8091E80080FF84CFDD
:104340009091F3008091F2002115310519F0883029
:10435000910550F041E0089709F040E08091E800B5
:104360008E778093E80070CF44914093F1003196AE
:10437000215031090196E8CF803809F044C080917E
:10438000E800877F8093E8008091CD068093F1005C
:104390009ECE811138C01091D0061230A0F58091C8
:1043A000E800877F8093E8001093CD060E948D0679
:1043B000112311F084E005C08091E30087FDFACF5E
:1043C00081E08093CC0642E061EC81E00E94AC0683
:1043D00042E261EC82E00E94AC068091CC0613C000
:1043E0008091D006813079F481E0933009F080E04B
:1043F0008093CB061092E9008091E800877F80933C
:10440000E8000E948D068091E80083FF0AC0809139
:10441000E800877F8093E8008091EB0080628093C2
:10442000EB00AA96E3E00C948F301F920F920FB628
:104430000F9211242F933F934F935F936F937F932A
:104440008F939F93AF93BF93CF93DF93EF93FF939C
:10445000D091E900DF708091EC00C82FC17080FD21
:10446000C0E81092E9008091F000877F8093F0000F
:1044700078940E94641F1092E9008091F000886097
:104480008093F000CD2BCF70C093E900FF91EF91A6
:10449000DF91CF91BF91AF919F918F917F916F915C
:1044A0005F914F913F912F910F900FBE0F901F90F2
:1044B00018950E94351F2FEF84E39CE02150804027
:1044C0009040E1F700C0000088E19CE00FB6F8944E
:1044D000A895809360000FBE90936000FFCF882363
:1044E00021F00E944F100E94CF1E0895882339F0BA
:1044F0009091DB03982B9093DB030E94CF1E0895CD
:10450000882399F19CEF980F913A40F4682F86E345
:1045100093E00E949A070E94CF1E089590E2980FA0
:10452000983050F4877091E001C0990F8A95EAF7AE
:10453000892F0E944F10EFCF9BE5980F933028F4FE
:1045400090E080E00E941E08089598E5980F993148
:1045500028F490E080E00E94F907089593E3980F13
:10456000933118F460E00E94451D0895CF93C82F41
:104570008823D9F18CEF8C0F813AC8F58091100116
:10458000882311F18091A50687FF1EC0EC2FE695C8
:10459000E695E695F0E0EA5CFC4F828190E04C2FD6
:1045A000477021E030E002C0220F331F4A95E2F746
:1045B00082239323892B91F06C2F86E393E00E9452
:1045C0009A070E94CF1E0AC0E8E3F3E08EE393E06F
:1045D0002191C21789F38E179F07D1F76C2F86E3BD
:1045E00093E00E94C4070E94CF1ECF91089580E2FD
:1045F0008C0F883068F4C77021E030E001C0220FD2
:10460000CA95EAF78091DB03822B8093DB03EBCF23
:10461000EBE5EC0FE33040F4F0E0E453FE4F808133
:1046200090E00E941E08E1CFE8E5EC0FE93150F47C
:10463000F0E0EE0FFF1FE153FE4F808191810E9459
:10464000F907D3CF83E38C0F833178F661E08C2FA9
:104650000E94451DCACF1F93CF93DF93182FD0E040
:10466000C0E0893311F4C0E5D0E0812F0E94B6226A
:10467000209739F4812F0E948022DF91CF911F91E2
:1046800008958FE99FE00197F1F700C0000021979E
:10469000EFCFB0E0A0E0EFE4F3E20C946C30EC017B
:1046A0008AE0A82EFE012491222309F497C021302C
:1046B00009F03EC031968491813031F42296FE019A
:1046C00084910E942B2307C0823039F42296FE0188
:1046D00084910E94B6222196E5CF833031F4229650
:1046E000FE0184910E948022F6CF843009F074C0CC
:1046F0002296FE01249190E080E0FE013196205345
:10470000330B2A30310548F0019728F3EFE9FFE039
:104710003197F1F700C00000F7CFA89EA001A99E35
:10472000500D1124C901840F951F2491EF01E5CF8D
:10473000E22FF0E0E35DF44FB490822F86958695EA
:10474000869590E0FC01E35EF44FE4902770F12C35
:10475000022E02C0F594E7940A94E2F731E0E322D6
:10476000FF24FC01E35FF44FC490D12C022E02C061
:10477000D594C7940A94E2F7E1E0CE22DD24FC014F
:10478000E350F54F049110E002C0159507952A9566
:10479000E2F701701127E114F10419F081EE0E9493
:1047A000B622C114D10419F086EE0E94B6228B2DD8
:1047B0000E942B23C114D10419F086EE0E9480229E
:1047C000E114F10419F081EE0E9480220115110517
:1047D00009F481CF8CE275CFEF017DCFCDB7DEB785
:1047E000EAE00C9488300F931F93CF93DF93C62F8A
:1047F000D42F022FFC0182818823A9F06093050742
:104800000E94121D9093040780930307C77081E0F4
:1048100001C0880FCA95EAF70E947622DF91CF91F6
:104820001F910F91089580910507681332C0809100
:104830000307909104070E94031D883C910548F5E9
:1048400010E21D0FCD17B9F080E28C0F883040F4D4
:10485000C77081E001C0880FCA95EAF70E946F22F5
:10486000183048F481E09D2F977001C0880F9A9509
:10487000EAF70E947622802F0E942B23183070F6D0
:10488000D77081E001C0880FDA95EAF70E946F22A5
:10489000C5CFC77081E001C0880FCA95EAF7F6CF8F
:1048A000A5E0B0E0E6E5F4E20C946A307C01DC01BE
:1048B00013968D919C911497892B39F08C911196B8
:1048C0009C9189238F3F09F09DC42596ECE00C94C0
:1048D00086300E946010182F682F89819A810E946B
:1048E000D41069817A81812F0E94980E8C01FC017D
:1048F000FE57E831F10508F0AFC0EE5DFD4CD70181
:1049000012968C910C94BB30882321F08CEB92E0B2
:104910000E944923F7018281882309F49CC41092E4
:104920000507C8019057839708F07FC484E090E0A2
:104930000E9454319093A6068093A506F801E15099
:10494000F047E232F10508F0C2C0E65CFD4C0C9481
:10495000BB308823F9F284EA92E0DACF8823D1F2DF
:104960008CE892E0D5CF8823A9F283E792E0D0CFFC
:10497000882381F28BE592E0CBCF882359F283E440
:1049800092E0C6CF882331F28BE292E0C1CF882338
:1049900009F283E192E0BCCF882309F4BBCF8BEF0F
:1049A00091E0B6CF882309F4B5CF82EE91E0B0CF85
:1049B000882309F4AFCF89EC91E0AACF882309F4CA
:1049C000A9CF8FEA91E0A4CF882309F4A3CF8BE984
:1049D00091E09ECF882309F49DCF87E891E098CF9E
:1049E000882309F497CF82E791E092CF882309F4D6
:1049F00091CF8BE591E08CCF882309F48BCF81E4B4
:104A000091E086CF882309F485CF8DE291E080CFB5
:104A1000882309F47FCF86E191E07ACF882309F4D7
:104A200079CF82E091E074CF882309F473CF8AEEC6
:104A300090E06ECF882309F46DCF85ED90E068CFCC
:104A4000882309F467CF80EC90E062CF882309F4D3
:104A500061CF8CEA90E05CCFFC01E851FC47E73085
:104A6000F10508F057CFE45AFD4C0C94BB3026E218
:104A700041EE61EEC7010E94F3238091B903877074
:104A800009F423CFD70112968C91882309F41DCF06
:104A90008091A60682FF19CF82E00E94211115CFD6
:104AA00027E245EE65EEE6CF26E241EE60EEE2CF8C
:104AB00027E245EE64EEDECF26E241EE62EEDACF8B
:104AC00027E245EE66EED6CF28E241E0EBCF8091BB
:104AD000A50681608093A50695C08091A606886092
:104AE0008093A6068FC08091A5068260F3CF809147
:104AF000A5068460EFCF8091A5068860EBCF8091FA
:104B0000A6068160EDCF8091A6068260E9CF8091F4
:104B1000A5068061DFCF8091A5068062DBCF809102
:104B2000A5068064D7CF0E94351F8091A5068068B6
:104B3000D1CF8091A5068C60CDCF8091A6068360F1
:104B4000CFCF8091A5068E7FC5CF8091A606877FA7
:104B5000C7CF8091A5068D7FBDCF8091A5068B7FA5
:104B6000B9CF8091A506877FB5CF8091A6068E7FAD
:104B7000B7CF8091A6068D7FB3CF8091A5068F7E9B
:104B8000A9CF8091A5068F7DA5CF8091A5068F7BAB
:104B9000A1CF0E94351F8091A5068F779BCF809172
:104BA000A506837F97CF8091A6068C7F99CF8091B1
:104BB000A50682FB992790F921E0922790FB82F9C4
:104BC00090FB83F987CF8091A606982F90959170DE
:104BD0008E7F892B90FB81F983CF9091A506892F39
:104BE0008F7B96FF806476CF0E94351F9091A5063B
:104BF000892F97FB87F980586DCF61E08EE090E0B8
:104C00000E946A316091A5067091A60684E090E04A
:104C10000E9488310E94351F30CF60E0EFCF909125
:104C2000A506892F8F7E94FF806154CF9091A506B1
:104C3000892F8E7F90FF81604DCF9091A606892F9E
:104C4000877F93FF88604CCF8091070791E0892789
:104C5000809307071092140180910607816080936A
:104C600006070BCF4AEB58E064EC78E00E9450084E
:104C700004CF44EC58E06AEB78E0F8CF46EA58E01D
:104C800060EB78E0F3CF40EB58E066EA78E0EECFF7
:104C90004CE858E069E978E0E9CF49E958E06CE888
:104CA00078E0E4CF42E758E06FE778E0DFCF4FE706
:104CB00058E062E778E0DACF46E558E064E678E06D
:104CC000D5CF44E658E066E578E0D0CF81E00E9499
:104CD0001106D3CE84E0FBCF89E0F9CF8EE0F7CF89
:104CE0000E94351FFFEF24E33CE0F15020403040AC
:104CF000E1F700C000000E94ED116FEF7FEF90E040
:104D000080E00E9488310E9459228091A60682FB91
:104D1000882780F991E089270E94901BF701828102
:104D200000811181882309F446C0C8010E946010E7
:104D3000D82E682FC8010E94D410B8018D2D0E9472
:104D4000980E0E94B50E8C01882ED7011296DC9029
:104D500012971596BC90B2943FE0B3228091B903AC
:104D60008770C1F0AD2CDD20B1F0812F807F8034C1
:104D700021F080E2800F883068F08091A60682FFE3
:104D800009C082E00E9421118091B9038770AA2492
:104D9000A3948111A12C912E92942FE09222BBE03A
:104DA000B91508F474C0E92DF0E0ED59FD4C0C94F0
:104DB000BB3080E0B1CFC8010E94A110D82EBDCF7A
:104DC000E12FEF70CE2E107F19F0C29490EFC92220
:104DD000DD20B9F0CC2069F080E2800F883010F03F
:104DE000811009C08091DB03C82AC092DB030E94B6
:104DF000CF1E802F4AC08091DA03C82AC092DA03FE
:104E0000F6CF802F0E948022CC2009F440C0005EA3
:104E1000083010F0811004C08C2D0E944F1006C085
:104E2000C0948091DA03C822C092DA030E94CF1E98
:104E30002EC0F12FFF70CF2E107F103219F0C294C8
:104E400080EFC822882089F021E0821609F482C010
:104E5000DD2009F48BC0BB2009F455C0F701858122
:104E600080FFC7CF8F7085834EC09091A60692FDBC
:104E700043C0DD20D9F1CC2039F08091DB03C82A72
:104E8000C092DB030E94CF1E80E00E94B622A92DB3
:104E9000A850BB0B149710F40E944308AA20A9F055
:104EA0008091B90380FD11C0F70112828595859527
:104EB00085950E944111C7010E9450248091B90339
:104EC0008595859585950E940F1185E0F701DE0196
:104ED000119601900D928A95E1F709811A81C80116
:104EE0000E94A110B8010E94980EEFCC80E00E94B1
:104EF0008022CC2061F290CFDD20D1F08091DE03C2
:104F0000C82AB11004C08C2D0E947622C0CF31E097
:104F1000B312F9CF92FFBBCF8C1509F4B8CF0E9422
:104F2000121D9093DD038093DC03C092DE03AFCFAC
:104F3000B11006C00E9444108C2D0E946F22A7CF92
:104F400081E0B81609F4A3CF8C2D0E946F220E9435
:104F500044109DCFDD2029F095E09B1508F497CFF4
:104F6000D2CFA4E0AB1508F492CFE6CFBB2021F35B
:104F7000F9E38F1209C02FEF37EE83E02150304064
:104F80008040E1F700C00000802F0E9480227FCF88
:104F9000812F86958695837061F0813009F077CFF7
:104FA000C8019370D11002C080E090E00E94F90720
:104FB0006ECFC8019370D11002C080E090E00E94D3
:104FC0001E0865CF6D2D802F0E94451D60CF812F5B
:104FD000837009F03FC0D1105ACF402F42954695BB
:104FE0004770440F440F802F8F7090E0042E02C052
:104FF000880F991F0A94E2F730E020E004FF09C00F
:105000002FE030E002C0220F331F4A95E2F72095CF
:105010003095169516951370123099F078F44091EA
:10502000390550913A05113039F0822B932B8423A6
:1050300095230E9451112BCF842B952B822B932BE0
:10504000F8CF822B932B2091390530913A05822796
:105050009327EFCF8695DD2011F0812F8170882373
:1050600009F415CF402F429546954770440F440FE1
:10507000802F8F7090E0042E02C0880F991F0A9431
:10508000E2F730E020E004FF09C02FE030E002C08A
:10509000220F331F4A95E2F7209530951695169505
:1050A0001370123099F078F440913B0550913C0513
:1050B000113039F0822B932B842395230E940A11FF
:1050C000E6CE842B952B822B932BF8CF822B932B20
:1050D00020913B0530913C0582279327EFCF1F702D
:1050E000DD2029F0812F0E944111802F0DCF802FCC
:1050F0000E946F22812F0E940F11C9CE802F92EF44
:10510000891699F1981570F0A0EF8A16D1F0B1EFD9
:105110008B1691F0DD2009F465C0B1106ACE812FA5
:105120008F7127C0E3EF8E1639F1F4EF8F12F2CFB3
:105130008091A60682FD2EC0812F8F71DD20D9F2CD
:1051400018C0DD2069F024E02B1508F4A0CE1F71F3
:1051500081E090E002C0880F991F1A95E2F7B8CF5E
:1051600035E03B1508F493CEF2CF812F8F71D1102B
:10517000C2CF0E9441118BCE90E080E0DD2009F487
:105180009DCF1F7181E090E002C0880F991F1A9592
:10519000E2F794CFDD20D9F01F71812F0E944111D9
:1051A0008091A60682FF11C0A8E01A9FC0011124B9
:1051B00083608093B903812F0E9441110E94121DC8
:1051C0009093B8038093B70362CE812FD2CF81E052
:1051D0000E942111B1E0BB1508F059CE82E00E9477
:1051E000211155CEBB2059F0893309F0CDCEEFEF18
:1051F000F7EE23E0E150F0402040E1F7C3CE812FED
:105200008F7179CF85E0F701DE01119601900D9243
:105210008A95E1F7D70112962C9189819A81211103
:1052200058CB0E94A110182F5CCB0631BCE71B079E
:1052300001F58091DB038A7A91E009F490E0909384
:10524000560369E2811165E386E393E00E94C40797
:105250000E94CF1E12CC0631ECE71E0751F580915B
:10526000560369E2811165E386E393E00E949A07A1
:10527000EFCF0330FCE71F0709F43FCD50F40115D1
:105280003CE7130709F42CCD01301C4709F43BCD52
:1052900045CD0B359CE7190709F48BCD0C35ACE7F0
:1052A0001A0709F432CD0A351C4709F037CD81E0E1
:1052B00033CD8091DB038272F801E052F847E5318B
:1052C000F10508F02BCDE159FD4C0C94BB301F9338
:1052D000CF93DF9380918403807F09F049C0809150
:1052E0008103882309F444C08091B603D0918503DB
:1052F00060917F0370918003A0918203B09183033A
:10530000C62FC72316E0D81799F190E0109711F037
:10531000CF3F19F401968770F6CF189F9001199F1F
:10532000300D1124F901EA57FC4F41814713F2CFA8
:1053300040814613EFCF42814111ECCF438154812C
:105340004A1B5B0B483C510528F7809184038F7002
:10535000806180938403F901E557FC4F80818F7051
:10536000806180838FE793E00E9450240E94561052
:10537000DF91CF911F910895A1E1B0E0E2ECF9E255
:105380000C946C308C0185E0F801DE011D960190D3
:105390000D928A95E1F7F801E2808FE7A82E83E06D
:1053A000B82E60918203709183036115710509F431
:1053B00026C190917F0340918003892F84238F3FE2
:1053C00009F41DC120813181C380D480F090810314
:1053D000F601E61BF70BFF2009F4DCC08091840383
:1053E000582F507FE83CF10508F09FC051116BC069
:1053F000FE2C431314C0921312C0E11010C08F7022
:10540000806180938403C5010E94502480918403AD
:10541000F80185838F2D6196EAE00C948830C114E1
:10542000D10429F0822F83238F3F09F003C180E04C
:10543000F82FF170DF2E80FF3CC08091B6034091C1
:10544000850356E0841315C02D873E878D859E8584
:105450000E949410292F22952F702230F0F02430D2
:1054600018F59F70F1F0F8019581907FD1F4D12C5F
:105470001EC090E0589FF001599FF00D1124EA578B
:10548000FC4F6181361306C06081261303C0628120
:10549000E6120FC001968770D5CF9F7011F0882358
:1054A00031F3805E883018F3C8010E945024FD2C2F
:1054B000B1CFEE2009F4AECF809184038160809358
:1054C0008403F12CA7CF431306C0921304C0F80144
:1054D000EE2009F479C0C8010E945611882309F111
:1054E000EE20F9F080918403803270F020917F03E8
:1054F0003091800338872F831986DB86CA868C8794
:10550000CE0107960E94502486E0F801AFE7B3E091
:1055100001900D928A95E1F70E946729FF24F39488
:1055200079CFC8010E945024F9CF51110AC08FE7EA
:1055300093E00E94502486E0F50111928A95E9F7E4
:10554000C0CF43130FC092130DC0E1100BC0F80180
:105550008583C8010E94502486E0F50111928A9546
:10556000E9F758CFC8010E9456118823D1F2EE20E6
:10557000C1F280918403803238F220917F03309110
:1055800080033A8329831B82DD82CC828E83CE0105
:105590000196B8CFE83CF105F8F6FE2CEE2009F2B2
:1055A00043131FC092131DC08091840380FD10C05F
:1055B000982F907F69F0F8018583903F31F0982F04
:1055C000907F905F8F70892B8583C8010E94502443
:1055D00086E0F801AFE7B3E001900D928A95E1F71C
:1055E00019CFC8010E94561181118ECF809184037A
:1055F000816080938403C8010E9450240BCFEE2069
:1056000009F48FCFC8010E945611F82E882309F49F
:1056100088CF86E0F801AFE7B3E001900D928A955C
:10562000E1F780917F03909180030E9494100E9483
:105630006729F0CE81E08E25FBCEA7E1B0E0E3E262
:10564000FBE20C9473304B8B5C8B6D8B7E8B8F8B62
:1056500061111092DA031A8A198A85E0FE017396A5
:10566000DE011D9601900D928A95E1F78091A606C4
:1056700082FF1CC00E94121D2091B7033091B80315
:10568000821B930B8C3D954020F08091B90382FFE3
:1056900079C00E94121D2091DC033091DD03821B32
:1056A000930B8C3D954010F00E94441086E0FE0163
:1056B0003D96DE01179601900D928A95E1F7CE0195
:1056C00007960E94BC29882359F016E08091B60302
:1056D00090918503891343C06796E3E00C948F3063
:1056E00086E0FE013796DE01119601900D928A95B3
:1056F000E1F78A859B85892B41F38F8198858923E2
:105700008F3F19F32091850330E0C901019687701E
:1057100099274091B6034817190671F40E94351F66
:10572000109285031092B60386E0EFE7F3E0DF0105
:105730001D928A95E9F7C9CF96E0929FD001939F79
:10574000B00D1124AA57BC4FFE01319601900D9265
:105750009A95E1F7809385030E945610B6CF819FFA
:10576000C00111248A579C4F0E94BC29882309F448
:10577000B3CF8091B60390E001968770992780930C
:10578000B603A4CF82E00E94211183CF1F921FB6DF
:105790001F9211248F939F93AF93BF938091A00684
:1057A000811113C08091A1069091A206A091A30639
:1057B000B091A4064196A11DB11D8093A1069093BE
:1057C000A206A093A306B093A406BF91AF919F91A8
:1057D0008F911F901FBE1F901895CDB7DEB76797AA
:1057E0000FB6F894DEBF0FBECDBF85B7806885BF0A
:1057F00085B7806885BF84B7877F84BF0FB6F8946C
:10580000A89580916000886180936000109260008C
:105810000FBE80E890E00FB6F894809361009093FB
:1058200061000FBE8CE39EE09093350380933403B8
:105830000E943D060E94DE068091E2008460809313
:10584000E20078948091CC068823A1F01091E900C1
:105850001F709091EC00892F817090FD80E8182BCB
:105860001092E9008091E80083FD0E94641F1F7080
:105870001093E90082E084BD93E095BD9AEF97BD57
:1058800080936E0001E012E0D8018D918D018F3F71
:1058900011F00E943E0EB2E006301B07A9F706E0A9
:1058A00012E095E1E92E92E0F92EF80181918F0145
:1058B0008F3F11F00E943E0EE016F106B1F78AE02C
:1058C000EEEEF3E0DF01282F1D922A95E9F7E2EED4
:1058D000F3E0DF011D928A95E9F790E080E00E94F5
:1058E0005431873E9E4F11F00E94A71B82E090E04A
:1058F0000E944C318093F80384E090E00E94543180
:105900009093A6068093A5060E941D1EEFEBFDE571
:105910003197F1F700C000000E941D1E8091EE0338
:1059200080FF08C06FEF7FEF90E080E00E94883139
:105930000E94ED1183E090E00E944C3190E00E94C3
:1059400051110E9428131092DA068FEF9FEF909367
:10595000F4068093F3069093F6068093F5069093F1
:10596000F8068093F7069093FA068093F9069093D1
:10597000FC068093FB069093FE068093FD069093B1
:1059800000078093FF06909302078093010710920F
:105990000C05909326058093250590932805809308
:1059A000270590932A058093290590932C058093D1
:1059B0002B0590932E0580932D05909330058093B1
:1059C0002F05909332058093310590933405809391
:1059D000330590E080E00E945431873E9E4F21F0D5
:1059E0000E94A71B0E94751B81E08093060746E07A
:1059F00050E06CE170E087E097E00E943C3110924B
:105A00000607809107078C7F11F40E94751B84E0C4
:105A100091E090939D0680939C06772473948091E7
:105A2000CC06853089F400E4F02E83E0E82E00E116
:105A300012E18091CC06853009F4D0C00E94351F58
:105A40000E94430810923D050E941D1E89EF93E0BD
:105A50009A8B898BAEEEB3E0BD8BAC8BFC012191B0
:105A600031918D919D9144E0E330F40709F407C131
:105A700028173907A1F31DE1812E12E0912E612C28
:105A8000AC89BD89ED90FD90BD8BAC8BE989FA891D
:105A900081919191FA8BE98B8E159F0509F48BC04A
:105AA0009C012E253F253F8B2E8B1401512CCC249D
:105AB000C394D12C8E899F898C219D21892B09F437
:105AC0006CC087010C211D215C866D8681E001156B
:105AD000110509F480E08E870E94121D8160782FE5
