:100000000C945A020C9477020C9477020C94B31956
:100010000C9477020C9477020C9477020C9477027C
:100020000C9477020C9477020C948A210C945E2233
:100030000C94521C0C9477020C9477020C94770267
:100040000C9477020C9477020C9477020C9477024C
:100050000C9477020C94F51C0C9477020C947702A4
:100060000C9477020C9477020C9477020C9477022C
:100070000C9477020C9477020C9477020C9477021C
:100080000C9477020C9477020C9477020C9477020C
:100090000C9477020C9477020C9477020C947702FC
:1000A0000C9477020C9477020C94770229001400C8
:1000B0001A000900130005002B00040015001600AB
:1000C00017000A0005521D001B000600070019005A
:1000D00000000000000029432A00024214553400A9
:1000E0001C0018000F000D00280012000C00080072
:1000F0001100100011553800370036000B000E00BB
:100100000000000000004C782C000454290014006A
:100110001A000800150017002B0004001600070045
:1001200009000A0005521D001B0006001900050009
:1001300000000000000029432A0002421455130069
:1001400012000C0018001C00280034000F000E00E4
:100150000D000B001155380037003600100011005B
:100160000000000000004C782C0004540000000047
:100170000000000000000000000001550455085573
:1001800002550000005200000000000000000000C6
:10019000000000000000000000000000000022023B
:1001A000260025002400250200002E002300220046
:1001B00021002E020000370020001F001E00210237
:1001C00000000000000027002C002D0000000000AF
:1001D0000000000000000000000001550455085513
:1001E0000255000000520000000000000000000066
:1001F00000000000000000000000000000003702C6
:1002000030002F00360200000000330027022602D3
:1002100033022E02000031003102240234020000B9
:1002200000000000000035002C002D0200008800B6
:100230002C01200A210A0000000035082B082C059B
:10024000065200000052005DFF5C015239000000C0
:10025000000000000000A800AE00AB00000000009D
:10026000000000000000000000000000000000008E
:100270002C0800000000000000000000000000004A
:10028000000000000000000000000052B600350829
:100290002B084A004D00F900B700500051005200F1
:1002A0004F00FA0000521D081B08060819080555E2
:1002B000000000000000085502552A000000000060
:1002C000FA00ED00F900000000000000F000EE0070
:1002D000EF00000000000000FC00F300FB00000045
:1002E000000000000000F2002C00F1000000BE5CE5
:1002F000BE00BD00BF5C0000C35CAC00AA00A9004A
:10030000AB0000000052C55CCB5CCA5CC45C000062
:10031000000000000000A800AE00AD000000430097
:100320004200410040000000000044003F003E0049
:100330003D000000000045003C003B003A0000008A
:100340000000000000001855125500520C03430035
:100350006F0072006E0065000000100366006F0001
:100360006F007300740061006E0000000403090454
:1003700009023B00020100A0FA0904000001030188
:100380000100092111010001224000070581030835
:10039000000109040100010300000009211101000E
:1003A0000122B600070582032000011201000200AD
:1003B0000000085346010001000102000105010987
:1003C00002A10185020901A10005091901290815E9
:1003D00000250195087501810205010930093115D3
:1003E00081257F95027508810609381581257F953D
:1003F0000175088106050C0A38021581257F9501D3
:1004000075088106C0C005010980A1018503190195
:100410002AB700150126B700950175108100C005A7
:100420000C0901A101850419012AA002150126A0C9
:1004300002950175108100C005010906A10185061C
:10044000050719E029E715002501950875018102C6
:100450000507190029EF1500250195F075018102A6
:100460000508190129059505750191029501750386
:100470009101C005010906A101050719E029E71549
:100480000025019508750181029501750881010516
:1004900007190029FF150026FF0095067508810041
:1004A0000508190129059505750191029501750346
:1004B0009101C00011241FBECFEFDAE0DEBFCDBF37
:1004C00011E0A0E0B1E0E8EDF9E402C005900D9282
:1004D000AE39B107D9F722E0AEE9B1E001C01D9213
:1004E000AE3DB207E1F70E944D140C94D4240C9455
:1004F000000081E0089581E008950E947B02089544
:1005000008950E9480020895A5E0B0E0EAE8F2E0D4
:100510000C94402449835A833091A10189819A81A6
:10052000311119C0662399F0222389F00E949408A2
:10053000182F682F89819A810E94700869817A81B9
:10054000812F0E94120F2596E3E00C945C240E94F8
:100550008208182FF3CF0E94940869817A81F1CF25
:10056000FC01262F408151816281738184810E9428
:100570008402089581E00895CF93DF93EC0160E059
:100580000E94B002BE010E948102DF91CF910895C6
:100590000E94941008950E949810089508950E9452
:1005A000BF060E94CE022FEF84E39CE021508040E2
:1005B0009040E1F700C0000008950E94CF020E9421
:1005C000191D08950E94CF020E942A1D08950F93BD
:1005D0001F93CF93DF938C0161E00E94B002EC0186
:1005E000B8010E947D02811106C080E0DF91CF91A9
:1005F0001F910F910895B801CE010E94C118882360
:10060000A1F3B801CE010E94F616882371F3B80158
:10061000CE010E943318882341F3F8018281882398
:1006200061F0CB35FDE5DF0701F158F4C115ECE5CC
:10063000DE0791F0CF3DDC4591F0C8010E947902C0
:10064000D5CFCD358DE5D80769F090F0C83ADD45B6
:10065000A1F70E94E202C9CF0E94DD02C6CF0E942C
:100660005A0DF7CF0E94940CE8CF0E949E0CE5CF64
:100670000E94A20CE2CF0E942F1C0E9458030895F2
:100680000E945C030E94341C089508950E94450353
:10069000089581E008950E94490308950895CF9335
:1006A000C82F0E9446038C2F0E944B03CF910895C0
:1006B00080E00E944F0308950E94D91A0E944F03C0
:1006C00008950E94D91A9091A001981721F0809363
:1006D000A0010E944F030895ABE0B0E0E2E7F3E031
:1006E0000C9441244F83588769877A878B876111DF
:1006F0000E94DF0B1E821D8285E0FE013796DE011F
:10070000119601900D928A95E1F78C819D81892B3C
:1007100061F449815A816B817C818D819E810E9427
:10072000080B2B96E2E00C945D2489819A81892341
:100730008F3F79F3CE0101960E94BA028111E9CF71
:10074000F0CFFC01808191810E94CE080895CF9363
:10075000C82F8823B9F08CEF8C0F813AA8F46C2F46
:1007600080910001909101010E94551B882329F07E
:100770008C2F0E949F0B0E94000C8C2F0E94970BC5
:100780000E94000CCF91089580E28C0F883048F4CD
:10079000C77081E001C0880FCA95EAF70E94C20BBA
:1007A000EFCFEBE5EC0FE33040F4F0E0E25AFE4F20
:1007B000808190E00E94151BE5CFE8E5EC0FE73162
:1007C00050F4F0E0EE0FFF1FE05DFE4F808191815D
:1007D0000E942B1BD7CFCD3EA8F28C2F0E94D114A4
:1007E0000E94A415CFCF882379F19CEF980F913AFE
:1007F00028F40E949F0B0E94000C089590E2980F2D
:10080000983050F4877091E001C0990F8A95EAF70B
:10081000892F0E94C80BEFCF9BE5980F933028F4E7
:1008200090E080E00E94151B089598E5980F97319D
:1008300028F490E080E00E942B1B08958D3E20F06C
:100840000E942B150E94A41508951F93CF93DF9348
:10085000182FEB010E94A703209739F4812F0E94E3
:10086000F303DF91CF911F9108958FE99FE00197E6
:10087000F1F700C000002197EFCF70E060E089330E
:1008800011F460E570E00E9425040895882321F0AA
:100890000E94C20B0E94000C0895882321F00E9440
:1008A000C80B0E94000C0895B0E0A0E0EAE5F4E077
:1008B0000C943A246C01D62FC72FFC011281F580CD
:1008C000F2949FE0F9220E94B80BE82E8823B9F039
:1008D000E12E1123A1F08C2F807F803421F080E263
:1008E0008D0F8830D0F08091BA0282FF16C082E06E
:1008F0000E94630C0E94B80B91E0E82EE926BC2E02
:10090000B2948FE0B822FBE0FB1508F468C0EB2D31
:10091000F0E0EA52FB4D0C942B24E12CF0CF0C2F8D
:100920000F70C07F11F00295007F112399F0002312
:1009300059F080E28D0F883010F0D11107C0802F60
:100940000E94C20B0E94000C8D2F41C0802F0E947C
:10095000D20BF8CF8D2F0E94F303002309F43FC080
:1009600080E28D0F883010F0D11104C0802F0E94DA
:10097000C80B03C0802F0E94D80B0E94000C2FC010
:100980000C2F0F70C07FC03211F00295007FDD2365
:1009900081F0D13009F463C0112309F46DC0FF2048
:1009A00009F463C0F601858180FFCECF8F70858307
:1009B0005CC08091BA0282FD33C0112359F000233C
:1009C00029F0802F0E94C20B0E94000C80E00E9440
:1009D000A70305C080E00E94F3030111C7CFEB2DF0
:1009E000E850FF0B349720F40E94D91A0E944F035D
:1009F000EE2089F00E94B40B80FD0DC0F60112823A
:100A00000E94AE0B0E947807C6010E947F060E94DA
:100A1000AE0B0E949A07CDB7DEB7E9E00C945624DE
:100A2000112389F0F11006C00E94E20B802B0E9476
:100A30004604D5CF21E0F212F7CF0E94E20B802BC3
:100A40000E94E90BCCCFF11006C00E94F60B802F5C
:100A50000E944D04C4CF31E0F31609F2F6CF112302
:100A600031F085E08F1508F4BACF802FE0CF94E005
:100A70009F1508F4B4CFEBCFFF2049F3D93349F4E5
:100A8000FFEF27EE33E0F15020403040E1F700C0A7
:100A900000008D2F0E94F303A2CF8C2F86958695A0
:100AA000837069F0813009F09ACF8D2F9C2F93705D
:100AB000111102C090E080E00E942B1B90CF8D2F7F
:100AC0009C2F9370111102C090E080E00E94151BD2
:100AD00086CF8D2F112329F00E94D1140E94A415D6
:100AE0007ECF0E942B15FACF8C2F837009F041C066
:100AF000111175CF4D2F429546954770440F440F05
:100B00000D2F0F7010E030E020E0042E04C0000F25
:100B1000111F221F331F0A94D2F760E070E0CB014F
:100B2000D4FF0FC06FE070E080E090E004C0660F7B
:100B3000771F881F991F4A95D2F760957095809509
:100B40009095C695C695C370602B712B822B932B05
:100B5000C23049F058F4C13019F00E9423073FCF4A
:100B60000E9410073CCF0E94360739CF0E940D0724
:100B700036CF8695112311F08C2F8170882309F4CC
:100B80002ECF4D2F429546954770440F440F0D2FA1
:100B90000F7010E030E020E0042E04C0000F111FA1
:100BA000221F331F0A94D2F760E070E0CB01D4FF1C
:100BB0000FC06FE070E080E090E004C0660F771F28
:100BC000881F991F4A95D2F76095709580959095EA
:100BD000C695C695C370602B712B822B932BC230A8
:100BE00049F058F4C13019F00E94F307F8CE0E9482
:100BF000E007F5CE0E940608F2CE0E944F07EFCE26
:100C0000CF70112329F08C2F0E9478078D2F0FCFE2
:100C10008D2F0E944D048C2F0E949A07E0CED23F68
:100C200051F160F4D03FB9F0D13F81F0112309F4C4
:100C300049C0F11089CE8C2F8F7121C0D33F11F1A3
:100C4000D43FA1F78091BA0282FD26C08C2F8F710C
:100C5000112311F314C0112349F084E08F1508F417
:100C6000BECE8C2F8F710E94BE07B9CE95E09F1526
:100C700008F4B5CEF6CF8C2F8F711111CDCF0E9415
:100C80007807ADCE112329F08C2F8F710E94620757
:100C9000A6CE0E945C07A3CE112349F0CF718C2F02
:100CA0000E94780763E08C2F0E94450C98CE81E06B
:100CB0000E94630CE1E0EF1508F091CE82E00E9403
:100CC000630C8DCEF110DACE8C2F8F71A5CF0F93E0
:100CD0001F93CF93DF93EC01688179818A810E9411
:100CE000D9088C010E9419080E940C07B801CE0196
:100CF0000E945404DF91CF911F910F910895CF93DB
:100D0000DF93EC018B819C81892B29F0888199816B
:100D100089238F3F51F4DF91CF910895CE010E9436
:100D20006706CE010E94BC02F6CFCE010E94E70208
:100D30008111F4CF0E94B80B882369F38A8188233C
:100D400051F38091BA0282FFE6CF82E00E94630CE9
:100D5000E2CF90E080E00E94151B90E080E00E94CE
:100D60002B1B0E94DF0B0E94000C0E94C0150E94EA
:100D7000A41508950E94A70B0E94A90608950E9439
:100D8000CF0B0E94BA06089592959F70963091F00D
:100D900058F4925F9F70923058F4803F19F030F40D
:100DA000883E30F481E008959A5FF4CF843FD1F318
:100DB00080E00895883EB0F3813FD1F7F3CFFC0186
:100DC000808191810E94CE080E94C4060895A5E00A
:100DD000B0E0EDEEF6E00C9441242596E2E00C94B0
:100DE0005D24A6E0B0E0E7EFF6E00C9441242696FF
:100DF000E2E00C945D2408950E94FB0608950E9491
:100E0000FC066093C4017093C5018093C601909362
:100E1000C7010E94A906089508950E94FF0608953B
:100E20000F931F930091C4011091C5012091C60139
:100E30003091C701602B712B822B932B0E94FF06F0
:100E40001F910F9108950F931F930091C40110916A
:100E5000C5012091C6013091C7016023712382230F
:100E600093230E94FF061F910F9108950F931F93E4
:100E70000091C4011091C5012091C6013091C701B4
:100E800060277127822793270E94FF061F910F91E9
:100E900008950E94FB0608950E94490708950E9444
:100EA0004C076093C0017093C1018093C20190937D
:100EB000C3010E94A906089560E070E0CB010E9482
:100EC0004F0708950F931F9341E050E060E070E0FA
:100ED0008A019B0104C0000F111F221F331F8A9536
:100EE000D2F7C901B8010E944F071F910F910895D1
:100EF0000F931F9341E050E060E070E004C0440FA6
:100F0000551F661F771F8A95D2F78091C001909177
:100F1000C101A091C201B091C3018A019B01082BBC
:100F2000192B2A2B3B2BC901B8010E944F071F9197
:100F30000F9108950F931F9341E050E060E070E03F
:100F400004C0440F551F661F771F8A95D2F7CB0147
:100F5000BA0160957095809590950091C0011091AF
:100F6000C1012091C2013091C3016023712382230A
:100F700093230E944F071F910F9108950F931F9382
:100F800041E050E060E070E004C0440F551F661F70
:100F9000771F8A95D2F78091C0019091C101A091ED
:100FA000C201B091C3018A019B01082719272A2792
:100FB0003B27C901B8010E944F071F910F91089567
:100FC0000F931F930091C0011091C1012091C201A4
:100FD0003091C301602B712B822B932B0E944F0702
:100FE0001F910F9108950F931F930091C0011091CD
:100FF000C1012091C2013091C3016023712382237A
:1010000093230E944F071F910F9108950F931F93F1
:101010000091C0011091C1012091C2013091C30122
:1010200060277127822793270E944F071F910F91F6
:1010300008950895262F277091E001C0990F2A95F1
:10104000EAF723E0769567952A95E1F725E0269F54
:10105000F001279FF00D1124E40FF51F50E040E050
:10106000682F70E08191DF0111979B01042E02C06F
:10107000369527950A94E2F7217021952827292390
:1010800028272C934F5F5F4F4530510559F708953E
:10109000A82FA77023E0969587952A95E1F725E07C
:1010A000289FF001299FF00D1124E60FF71F50E053
:1010B00040E080E0219130E00A2E02C0369527956D
:1010C0000A94E2F721703327042E01C0220F0A94FC
:1010D000EAF7822B4F5F5F4F4530510559F708956E
:1010E000262F983070F4863060F4682F70E086E028
:1010F000989F600D711D112442EA51E0822F0E94D9
:101100001A080895292F983068F4863058F490E032
:1011100062EA71E036E0239F800D911D11240E9448
:101120004808089580E00895B0E0A0E0EAE9F8E01A
:101130000C943A248C01C090C001D090C101E09081
:10114000C201F090C3018091C4019091C501A091AA
:10115000C601B091C701C82AD92AEA2AFB2ACFE1E1
:10116000D0E0BC2ED701C6010C2E04C0B695A795C1
:10117000979587950A94D2F780FD09C0219788F743
:10118000B12C8B2DCDB7DEB7E9E00C945624B80115
:101190008C2F0E942D0F019789F3F3CFCF93DF930C
:1011A000EC010E949408BE010E942D0FDF91CF91A7
:1011B00008951F93CF93DF93EB019091A1019923A1
:1011C00039F0CB010E94CE08DF91CF911F91089595
:1011D000882369F0CB010E949408182F682FCE0154
:1011E0000E947008BE01812F0E942D0FEDCFCB0110
:1011F0000E948208182FF6CF1F93CF93DF93C091E0
:10120000C80116E08091C9018C1304C0DF91CF9111
:101210001F910895D0E01C9FF0011D9FF00D112437
:10122000E653FE4F408151816281738184819581B3
:101230000E94F1062196C770E5CF4091FA015091C6
:10124000FB016091FC017091FD018091FE01909184
:10125000FF010E94F10608951F93CF93DF938091C1
:10126000FF01807F09F049C08091FC01882309F4C7
:1012700044C08091C801C091C9016091FA01709188
:10128000FB01A091FD01B091FE01D62FD72316E0FE
:10129000C81799F190E0109711F0DF3F19F401960B
:1012A0008770F6CF189F9001199F300D1124F90116
:1012B000E653FE4F41814713F2CF40814613EFCFF3
:1012C00042814111ECCF438154814A1B5B0B483C66
:1012D000510528F78091FF018F7080618093FF0195
:1012E000F901E153FE4F80818F70806180838AEF26
:1012F00091E00E947F060E94FC08DF91CF911F9130
:101300000895A1E1B0E0E7E8F9E00C9439248C01FC
:1013100085E0F801DE011D9601900D928A95E1F7B6
:10132000F801E2808AEFC82E81E0D82E6091FD019D
:101330007091FE016115710509F44EC19091FA0199
:101340002091FB01892F82238F3F09F445C1408101
:101350005181A380B480F090FC01F501E61BF70BEE
:10136000FF2009F4EAC08091FF01382F307FE83C6C
:10137000F10508F0A3C031116DC0FE2C251316C075
:10138000941314C0E11012C08F7080618093FF012C
:101390000E941D09C6010E947F068091FF01F8018D
:1013A00085838F2D6196EAE00C945524A114B10435
:1013B00029F0842F85238F3F09F027C180E0F82F83
:1013C000F170DF2E80FF3CC08091C8012091C901DF
:1013D00036E0821315C04D875E878D859E850E94FD
:1013E000CE08292F22952F702230F0F0243018F5E6
:1013F0009F70F1F0F8019581907FD1F4D12C1EC03F
:1014000090E0389FF001399FF00D1124E653FE4F14
:101410006181651306C06081641303C06281E612B6
:101420000FC001968770D5CF9F7011F0882331F3DC
:10143000805E883018F3C8010E947F06FD2CB1CF72
:10144000EE2009F4AECF8091FF0181608093FF010F
:10145000F12CA7CF251306C0941304C0F801EE2089
:1014600009F487C0C8010E94DF06882319F1EE2025
:1014700009F18091FF01803270F02091FA013091E2
:10148000FB0138872F831986BB86AA868C87CE01FD
:1014900007960E947F0686E0F801AAEFB1E001906E
:1014A0000D928A95E1F70E942C090E941D09FF24E4
:1014B000F39477CFC8010E947F06F9CF311113C092
:1014C0007A2DB98AA88A6E2D89890E94E7068AEF4B
:1014D00091E00E947F0686E0F60111928A95E9F775
:1014E0000E941D09B5CF25130FC094130DC0E11044
:1014F0000BC0F8018583C8010E947F0686E0F601D3
:1015000011928A95E9F74DCFC8010E94DF06882322
:1015100089F2EE2079F28091FF01803208F4BBCF8E
:101520002091FA013091FB013A8329831B82BD820D
:10153000AC828E83CE010196ACCFE83CF10508F079
:101540003EC0FE2CEE2009F4B5CF25132AC094131B
:1015500028C08091FF0180FD1BC0982F907FC1F0B3
:10156000F8018583903F31F0982F907F905F8F70C6
:10157000892B8583C8010E947F0686E0F801AAEFC7
:10158000B1E001900D928A95E1F70E941D0909CF03
:1015900086E0F801AAEFB1E001900D928A95E1F79B
:1015A00000CFC8010E94DF06811175CF8091FF0135
:1015B00081608093FF01C8010E947F06F2CE7A2DE0
:1015C000B98AA88A6E2D89890E94E70686E0F6010D
:1015D00011928A95E9F7D9CFEE2009F46BCFC801B3
:1015E0000E94DF06F82E882309F464CF86E0F80114
:1015F000AAEFB1E001900D928A95E1F78AEF91E0B0
:101600000E94A1030E942C09C0CF81E08E25D7CE75
:10161000ACE0B0E0EEE0FBE00C9440244F83588750
:1016200069877A878B879C87CE0107960E948109FC
:10163000882369F08A859B85892B39F04F815885ED
:10164000842F85238F3F09F06BC016E05FC086E0D2
:10165000FE013796DE01119601900D928A95E1F711
:101660008A859B85892B89F388859F8189238F3F74
:1016700061F32091C90130E0C90101968770992773
:101680004091C8014817190671F40E94BF061092D4
:10169000C9011092C80186E0EAEFF1E0DF011D9276
:1016A0008A95E9F7D2CF96E0929FD001939FB00D33
:1016B0001124A653BE4FFE01319601900D929A95CA
:1016C000E1F78093C9010E94FC08BFCF819FC00150
:1016D000112486539E4F0E9481098823E9F0E091EE
:1016E000C8011E9FF0011124E653FE4F4081518135
:1016F00062817381848195810E94F1068091C80185
:1017000090E00196877099278093C8018091C80165
:101710009091C9018913DACF2C96E3E00C945C24F4
:1017200069857A858B859C850E94F1068ECF682F0E
:1017300080910001909101010E94D51B0895682FAE
:1017400080910001909101010E94E31B0895809116
:101750000001909101010E94F11B089580912002E7
:1017600085958595859508958091200287700895C7
:1017700090912002977081E009F480E008958091B3
:101780004302089590914302892B80934302089568
:10179000809590914302982390934302089510926C
:1017A0004302089590914202892B8093420208954A
:1017B000809590914202982390934202089510924E
:1017C0004202089580912102089508950E94E50B38
:1017D00008959091BA0292FF08C090912102981743
:1017E00021F0809321020E94E60B0895809121024E
:1017F000882329F01092210280E00E94E60B0895D0
:10180000CF93DF93E0910001F091010180914302B9
:101810008083E0910001F09101018081909142026A
:10182000892B808390912102992381F0E09100011E
:10183000F09101018081892B80838091000190913A
:1018400001010E94411B81110E94F60BC091000111
:10185000D091010140E250E060E072E0CE010E94D0
:101860007C24892B59F080E2FE01A0E0B2E00190D7
:101870000D928A95E1F7CE010E94ED1ADF91CF918A
:10188000089508950E94410C08959091BA0292FF24
:1018900011C098E0899F90011124622B609320026F
:1018A0000E947807809120028595859585950E94F4
:1018B000420C08950E94780708951092200280E05B
:1018C0000E94420C08959091200280958923809374
:1018D0002002282F277091F4282F082E000C330B9C
:1018E0009217130659F09091BA0292FF07C085959E
:1018F000859585950E949A070E945D0C08959091A8
:10190000BA0292FB222720F9281769F080FB92F98E
:101910009093BA028091B9029091BA020E94D00CC1
:1019200082E00E94630C08958091BA0282FB8827AE
:1019300080F991E089270E947F0C089581E00E9440
:101940007F0C089580E00E947F0C08956FEF7FEF79
:1019500090E080E00E94BE24089590E080E00E9424
:101960009A2421E0883E9E4F09F020E0822F0895BE
:1019700082E090E00E949224089583E090E00E942B
:1019800092240895CF9384E090E00E949224C82F7F
:1019900082E290E00E949224982F8C2FCF9108959C
:1019A000CF93C92F682F84E090E00E94A0246C2F71
:1019B00082E290E00E94A024CF910895AB01BC0187
:1019C0008FE090E00E94B2240895AB01BC0183E156
:1019D00090E00E94B224089560E070E0CB010E9484
:1019E000E50C089560E070E0CB010E94DE0C0E94DF
:1019F000EC0C089568EE7EEF90E080E00E94BE243B
:101A000060E082E090E00E94A02460E083E090E04B
:101A10000E94A0241092C4011092C5011092C60128
:101A20001092C70160E084E090E00E94A02464E08E
:101A300082E290E00E94A02460E085E090E00E94B5
:101A4000A02460E086E090E00E94A0246FEF87E091
:101A500090E00E94A02440E050E0BA0188E090E0CD
:101A60000E94B22460E08DE090E00E94A02440E05B
:101A700050E0BA0188E190E00E94B22460E087E182
:101A800090E00E94A02440E050E0BA018CE190E098
:101A90000E94B22470E060E080E290E00E94BE24E8
:101AA00040E050E0BA0188E190E00E94B2240E9438
:101AB000F20C08950E94FA0C0895682F8EE090E0D1
:101AC0000E94A02408950E94BE1C6093500270934F
:101AD0005102809352029093530260934C02709390
:101AE0004D0280934E0290934F02089508950895F9
:101AF0000E94770D089508950E947B0D08958CE44F
:101B000090E10E94CF1A0E94760D0E94780D0895F0
:101B10000E9441120895089508950E948B0D0E941D
:101B20008C0D08950E946E100E944E0308950E942D
:101B3000A91C0E940C100E945C120E94A5110E9418
:101B4000920D0E94DE160E9466120E947C0D08957E
:101B5000AAE0B0E0EEEAFDE00C9437240E94C81140
:101B6000982E81110E94630D84E4A82E82E0B82E85
:101B700010E000E0802E802F0E949B10E82EF501DF
:101B8000C1905F01C816B1F18091540281FD0E949D
:101B9000A110D12CFF24F394CE248C2D8F2129F178
:101BA0000E94880D882399F0DE828F82EF2081E0E9
:101BB00009F480E088870E94B21C8160782F9A87A0
:101BC00089874E815F8168858A850E946C03F80150
:101BD000EC5BFD4F8081F826F08281E0911001C01E
:101BE00080E02A96ECE00C945324D394FF0CF6E0AA
:101BF000DF12D3CF0F5F1F4F0830110509F0BACFA6
:101C00008FEF89838A831B820E94B21C8160782FA8
:101C10009D838C8349815A816B818D810E946C03E5
:101C2000DCCF0E94A80D0E9441120E94E2150E9482
:101C300061030895CF93DF930E94320FEC01811569
:101C400021E5920708F042C0811530E5930708F0BE
:101C50009DC0883E910530F5803E910508F092C008
:101C6000883A910588F4853A910508F084C081305E
:101C7000910509F487C0009709F484C0049708F01F
:101C800081C0D0E0C0E07EC08F3B9105D0F7C85A3C
:101C9000D0E0CC0FDD1FCF59DE4F0990D881C02D89
:101CA000D46470C08115904250F4C11581E0D8070A
:101CB00008F068C0CD3ED10520F3D06563C0C115E2
:101CC00090E4D907F0F2DF70D06A5CC0811525E599
:101CD000920700F5811534E5930708F08BC0811554
:101CE00043E5940708F073C0C11582E5D80708F4EE
:101CF00069C0CE018370992721E030E002C0220F35
:101D0000331F8A95E2F7C695C69580E2C89FE00129
:101D1000112454C0C11599E5D907A8F4C11528E5C7
:101D2000D20708F06CC0C11536E5D30708F0A9CF7B
:101D30008C2F0E94C90FC82FD0E0DC2FCC27CC27D6
:101D4000DF71D0621FC0C1154AE5D40708F45CC03A
:101D5000CE0190568115904208F093CF8D2F8F7150
:101D60000E94C90F90E0982F882788279F719C01B7
:101D70002C2BE901E6CFC55AD0E0C157DE4FC88110
:101D8000D0E0D064CE01DF91CF910895E4E0969544
:101D90008795EA95E1F783702C2F26952695237079
:101DA00040E2249F90011124382B8C2F8370C1E0D6
:101DB000D0E002C0CC0FDD1F8A95E2F7C22BD32BF7
:101DC000DC68E0CFDC2FCC27C16FD06ADBCF83701B
:101DD000992721E030E002C0220F331F8A95E2F7F5
:101DE000C695C69590E2C99FE0011124C22BD32B62
:101DF000DA68C8CFD82FCC27C46FD06AC3CFDC2F06
:101E0000CC27C06FD06ABECF8C2F8F700E94C90FB5
:101E100034E0D695C7953A95E1F7CF709C2FEC0149
:101E2000D069B0CF972F7830A8F4663098F470E07E
:101E300026E0929F600D711D1124FB0190E3899FA4
:101E4000E00DF11D1124EE0FFF1FE455FF4F8591AA
:101E50009491089580E090E008950E94120F0E94EE
:101E60001A0E089582389105B1F1B0F481339105CD
:101E700009F475C048F48932910509F469C08A32C1
:101E8000910509F473C008958533910509F459C08B
:101E90008933910501F10895833E9105A9F138F444
:101EA000803E9105F9F0823E910549F10895863E04
:101EB0009105A9F1873E9105C9F1843E910519F577
:101EC0002091BA0221FF1FC08091B90284FD14C085
:101ED00087EE90E008952091B9022370A1F080EE82
:101EE00090E008952091B90220FD47C03091BA02D8
:101EF00030FF09C024FF44C090E080E004C020917E
:101F0000B90222FDF7CF08952091B90222FD3BC00E
:101F10003091BA0230FDE3CF24FFF5CFEDCF209111
:101F2000B90223FFF0CF24FDE7CFD2CF2091B90231
:101F300023FD2CC03091BA0231FFEECF84EE90E049
:101F400008952091B90225FFDECF89E290E008953F
:101F50002091B90225FFD7CF85E390E00895209125
:101F6000B90226FFD0CF8AE290E008952091B9020D
:101F700026FFC9CF81E390E0089589E390E00895BA
:101F800083EE90E0089582EE90E0089586EE90E072
:101F900008959091B90292FF06C0282F2871283029
:101FA000F9F4877F846093FF06C0282F28712831B9
:101FB000F1F4877E84612091BA0220FF06C0382F99
:101FC00038713830D9F4877F816021FF06C0282F0F
:101FD00028712831D1F4877E816194FD877E089530
:101FE000282F24712430F9F68B7F8860DCCF282FCE
:101FF0002471243101F78B7E8861DDCF382F317158
:10200000313019F78E7F8860E0CF282F2171213180
:1020100021F78E7E8861E1CF1092B5021092B60250
:102020001092B7021092B8020895CF92DF92EF9209
:10203000FF926B017C010E94411281110EC00E942F
:10204000BE1CC61AD70AE80AF90AC092B502D09295
:10205000B602E092B702F092B802FF90EF90DF90E4
:10206000CF9008950F931F930E944112882329F067
:102070000E94BE1C1F910F9108950E94BE1C0091EA
:10208000B5021091B6022091B7023091B802600FEC
:10209000711F821F931FEECF80E008950E94A60C4F
:1020A00008950E94C8118FE39CE90197F1F700C0E1
:1020B00000000E94C8110E94591281110AC084E0D8
:1020C0000E949B1081FF04C00E944E100E94191DA7
:1020D000089580E0F5CF0E94511008950E94AD0C44
:1020E000811102C00E945A0D0E94B80C80935402C4
:1020F0000E94C20C9093BA028093B9020E946B10A6
:102100000E94BD0C682F70E090E080E00E940D07F7
:102110006091C0017091C1018091C2019091C30191
:102120000E944C07089508950E9493100895089501
:102130000E9497100895E82FF0E0EC53FD4F808146
:102140000895089580EA8A95F1F7089500C00895EA
:102150000E94A210089508950E94AB100895EF9276
:10216000FF921F93CF93DF9300D000D0CDB7DEB79F
:102170000E944112182F6091CC02882309F447C0B5
:1021800019821A821B821C82862F90E09E012F5F8B
:102190003F4F7901B9018C539D4F0E9474128823DF
:1021A000E9F08091BB0290E044E050E0B7018C532D
:1021B0009D4F0E947C2421E020935502892BC9F475
:1021C00010E00E94CB02812F0F900F900F900F9084
:1021D000DF91CF911F91FF90EF900895809155026C
:1021E000882371F384E0F70111928A95E9F7109240
:1021F0005502E091BB02F0E0EC53FD4F89819A81DA
:10220000AB81BC8180839183A283B383DACF70E0FA
:102210006C537D4F8091BB0290E08C539D4F0E9488
:10222000FB120E94AC10CFCFF894E82FE295EF702C
:10223000F0E031A1282F2F7081E090E001C0880FDD
:102240002A95EAF7982F9095932391A392A1892B31
:1022500082A378940895CF93DF9384E90E941411A8
:1022600086E60E94141187E90E94141186EC0E94F0
:102270001411C2E9D1E089918F3F11F00E9414112D
:1022800081E0C839D807B9F7DF91CF910895B0E060
:10229000A0E0EDE4F1E10C943B24EC01D62E062FF6
:1022A00010E0C80188569E4F7C01FC0180818F3F61
:1022B00009F444C0F894E82FE295EF70F0E091A1A2
:1022C0008F7021E030E001C0220F8A95EAF7892F54
:1022D000822B81A382A12095282322A378940E9497
:1022E000A610E2E9F1E031E0C12C21912F3F59F134
:1022F000A22FA295AF70B0E090968C9190E02F70D5
:1023000002C0959587952A95E2F780FD1CC0832F22
:10231000C82A330F81E0E839F80739F7F7018081DF
:102320008F3F11F00E94141161E0C11001C060E004
:102330008D2D0E94A810C00FD11FC882CDB7DEB767
:10234000E8E00C94572480E0E3CF80910201809173
:10235000020194E0811190E09093CC0284E0891B0B
:102360008093BB020E942B1188E0E4ECF2E0DF01D5
:10237000982F1D929A95E9F7ECEBF2E0DF011D92A0
:102380008A95E9F784E00E940B120E94C802089522
:10239000A8E0B0E0EEECF1E10C943D248E010F5F7B
:1023A0001F4F88E0F80111928A95E9F7F12C6F2D03
:1023B000C8010E944711F394F4E0FF12F8CF48E0FF
:1023C00050E0B8018CEB92E00E947C247C0121E07B
:1023D000892B09F420E0E114F10441F088E0F801D0
:1023E000ACEBB2E001900D928A95E1F76091CC02DE
:1023F00070E06C537D4F44E08CEB92E00E940C1235
:1024000081E090E0E114F10411F40E94AF102896ED
:10241000E6E00C9459240895FF920F931F93CF93F5
:10242000DF93F82E092F162FD72FC42F222349F020
:1024300081E0809358020E94B21C909357028093CF
:102440005602809158028823A1F080915602909103
:1024500057020E94CA1C059760F0EF2DF02FA12FA4
:10246000BD2FCE0FDF2FD11DEC17FD0739F41092D1
:102470005802CDB7DEB7E5E00C945A2481918D93D4
:10248000F3CF80915B02811107C00E940A24882348
:1024900051F081E080935B0281E090915B0291308A
:1024A00009F080E0089582E080935B020E94052499
:1024B000F3CF0E94411208950E94591280930201A5
:1024C0000E94411281110E94AA1208950E94411295
:1024D000811102C00E94AD12089581E090915C02CA
:1024E0009A3008F080E008950F931F93CF93DF9305
:1024F000EC018B0180915C028A30B8F4B801CE0106
:102500000E94F812C82F811122C080915C028F3F77
:10251000B9F40E94B21C90935A02809359028C2FF6
:10252000DF91CF911F910F91089580915902909161
:102530005A020E94CA1C843F914000F7C0E0EFCFCE
:102540008F5F80935C028A3020F7C1E0E8CF109261
:102550005C02E5CF0E946D1908950E9470190895DC
:10256000B0E0A0E0E6EBF2E10C943C247901C82F46
:10257000880FDD0B41155105A9F0FE0193E0EE0F28
:10258000FF1F9A95E1F7ED5FFE4F81819281835A9B
:102590009D4F208130E04217530708F49A01A901AA
:1025A0000E948924CE010E94591AD82E8823D1F086
:1025B00001151105B9F083E0CC0FDD1F8A95E1F715
:1025C000FE01ED5FFE4F438150E00417150708F44C
:1025D000A801CD5FDE4F6C817D81635A7D4FC701BD
:1025E0000E9489248D2DCDB7DEB7E7E00C945824E6
:1025F0000E94F21308950E9409140895A4E0B0E027
:10260000E4E0F3E10C943F24609172027091730254
:1026100080917402909175020E94D91C11E0643679
:1026200071058105910518F10E9432106E5F7F4F90
:102630008F4F9F4F69837A838B839C8310E000E0E8
:1026400030E020E044E050E0BE016F5F7F4F82E069
:102650000E94B012182F882351F00E94BE1C609374
:102660007202709373028093740290937502812FAB
:102670002496E4E00C945B24B0E0A0E0E2E4F3E113
:102680000C9439247C015B016A010E946D1201E007
:1026900010E0882311F00AE010E0C1E0D0E0B501BD
:1026A000C701F6010995811104C021960C171D0779
:1026B0002CF4CDB7DEB7EAE00C945524CC9F900102
:1026C000CD9F300D300D112490E080E045E34A9518
:1026D000F1F70000019682179307C1F7E0CFA5E05C
:1026E000B0E0E5E7F3E10C9439245B01E0909C0154
:1026F000F0909D0101E010E09E012B5F3F4F50E004
:1027000040E070E060E080E00E94B012182F882363
:1027100009F44BC067018FEFC81AD80A60916E02A6
:1027200070916F0280917002909171020E94D91C89
:10273000643671058105910580F104E010E09E0189
:102740002F5F3F4F50E040E070E060E081E00E948A
:10275000B012F82E64E070E0C6010E94DF1611E0AE
:102760009D81981310E01F2159F10E94BE1C6093B7
:102770006E0270936F028093700290937102898150
:102780009A81AB81BC8180936A0290936B02A09383
:102790006C02B0936D0211E013C064E070E0C601FA
:1027A0000E94DF169D818913C8CFF7018181928134
:1027B000A381B48189839A83AB83BC831111DFCF5A
:1027C00080916A0290916B02A0916C02B0916D02AF
:1027D000F50180839183A283B383812F2596EAE05C
:1027E0000C9455240F931F93CF93DF93EC018B012F
:1027F0004FE653E10E943C13882331F04EEF52E143
:10280000B801CE010E943C13DF91CF911F910F912F
:1028100008950F931F93CF93DF93C0919C01D091A4
:102820009D01CE01019624E0FB01DC0101900D9297
:102830002A95E1F764E070E00E94DF1688836D81DD
:102840007E818F81988500916602109167022091A8
:10285000680230916902601771078207930751F08F
:102860006093660270936702809368029093690296
:102870000E941510DF91CF911F910F9108950E9432
:10288000E01E0E94970D0E94ED1E08950E94F21E08
:102890000E94110E0E940C1F08950E944B1C0E9462
:1028A000C61E0E947F0D0E943F140E9446140E9483
:1028B0008D0DFBCF80917C0280FF0DC060912001C7
:1028C00070E0660F771F6038710570F5611571054E
:1028D00069F1862F089581FF07C06091200184E08F
:1028E000689FB0011124EFCF6091200182FD0AC0E2
:1028F00080917B028823A9F020911F016091200123
:10290000821710F088E0ECCF869FC001112433E0DD
:10291000880F991F3A95E1F7622F70E00E94172403
:10292000D2CF68E070E0D5CF8FE7089581E00895B9
:1029300080917C0280FF0CC060911C0170E0759555
:102940006795759567956115710549F1862F08950D
:1029500081FF06C060911C0170E075956795F3CF0B
:1029600060911C0182FD0BC090917A029923A1F025
:1029700060911B0180911C01961738F0682F70E060
:102980006038710500F38FE70895899FC001112415
:1029900070E00E941724F4CF61E070E0D7CF81E0AF
:1029A00008958D3E31F40E945A14819580938002DF
:1029B00008958E3E19F40E945A14F8CF8F3E31F4D8
:1029C0000E945A14819580937F020895803F19F4E4
:1029D0000E945A14F8CF893F29F40E9498148093DA
:1029E000810208958A3F21F40E9498148195F7CFBF
:1029F0008B3F31F40E949814819580938202089550
:102A00008C3F19F40E949814F8CF9FE0980F9830EB
:102A100070F4815F990B21E030E001C0220F8A95AC
:102A2000EAF780917E02822B80937E0208958D3F8B
:102A300031F480917C02816080937C0208958E3F06
:102A400021F480917C028260F7CF8F3FB9F78091AB
:102A50007C028460F1CF40917F028D3E59F48091D9
:102A6000800287FF0DC01092800241110BC01092AE
:102A70007B0208C08E3E81F48091800218169CF380
:102A8000442381F08091810290918202892B09F088
:102A90005AC010927A0208958F3E49F447FFF0CF52
:102AA00010927F02809180028111ECCFE0CF803FB5
:102AB00019F41416ACF3E4CF90918102893F29F404
:102AC0001916F4F610928102DBCF8A3F19F497FFB2
:102AD000D7CFF8CF909182028B3F29F497FFD0CFC8
:102AE00010928202CDCF8C3F19F41916CCF3C8CFC7
:102AF0009FE0980F983090F4815F990B21E030E0CF
:102B0000B90102C0660F771F8A95E2F7CB01809565
:102B100090917E02892380937E02B2CF8D3F31F463
:102B200080917C028E7F80937C02AACF8E3F21F41D
:102B300080917C028D7FF7CF8F3F09F0A1CF8091EC
:102B40007C028B7FF0CF08950E94B21C9C01909173
:102B50007F0280918002982B21F03093790220939C
:102B600078029091810280918202982B21F030931B
:102B70007702209376028DE792E00E94071B08956A
:102B800086E0EDE7F2E0DF011D928A95E9F7109209
:102B90007B0210927A0210927C020895FC018281DD
:102BA00081110EC0838181110BC08481811108C005
:102BB00091E08581811101C090E0892F8170089595
:102BC00081E0FCCFA6E0B0E0E8EEF5E10C94402413
:102BD00086E0EDE7F2E0DE01119601900D928A9514
:102BE000E1F710927F0210928002109281021092FF
:102BF00082028B819C81892B89F08091780290914F
:102C000079020E94CA1CAC0190917B029923C9F100
:102C1000809121018417150608F440C08D819E81A2
:102C2000892B91F080917602909177020E94CA1CC4
:102C3000AC0190917A02992309F471C080911D0131
:102C40008417150608F479C0BE016F5F7F4F8DE7CA
:102C500092E00E94031C811105C08DE792E00E9462
:102C6000CE1581110E94A41586E0FE013196ADE7D4
:102C7000B2E001900D928A95E1F72696E3E00C947C
:102C80005C24209122018AE0289F900111242417BE
:102C9000350720F69F5F90937B0202C09F3FD1F7DC
:102CA0001B81112359F00E945A149FEF11160CF446
:102CB00091E0899F802D112480937F021C81112334
:102CC00059F00E945A149FEF11160CF491E0899F5D
:102CD000802D11248093800230917F02332309F4E8
:102CE0009DCF20918002222309F498CF45EB340335
:102CF000C0011124992359F090937F0245EB2403DE
:102D000090011124332339F03093800287CF81E082
:102D100080937F02F3CF81E0809380027FCF209168
:102D20001E018AE0289F900111242417350708F01E
:102D30008BCF9F5F90937A0202C09F3FD1F71D8196
:102D4000112359F00E9498149FEF11160CF491E092
:102D5000899F802D1124809381021E81112359F0B7
:102D60000E9498149FEF11160CF491E0899F802D1A
:102D700011248093820230918102332309F464CFBD
:102D800020918202222309F45FCF45EB3403C00176
:102D90001124992359F09093810245EB240390016B
:102DA0001124332339F0309382024ECF81E0809397
:102DB0008102F3CF81E08093820246CF0895FC0127
:102DC000680F791F8FEF91E3E617F70709F408956D
:102DD0002191822728E030E087FF06C0880F8927ED
:102DE00021503109C9F7F0CF880FFACFCF93DF9385
:102DF000EC01FB018281882309F433C1C430FDE575
:102E0000DF07C0F5CB3F9CE5D90730F49E01225087
:102E10003C4524313105B0F50E94C20C9093BA02B2
:102E20008093B902C1318CE5D80709F4EEC008F0EF
:102E300069C0C930ECE5DE0709F4D5C0C8F5C53076
:102E40008CE5D80709F4C7C000F5C330ECE5DE0710
:102E500009F4B9C008F0BBC0C230DC4509F4ADC00C
:102E60008091B9029091BA020E94D00C0E94BF06D4
:102E700080E008C0C236EDE5DE0771F2C63AFDE536
:102E8000DF0751F2DF91CF9108958091B9028062FE
:102E9000C7309CE5D90709F493C08091B9028061DD
:102EA000C830DC4508F48CC08091B902806488C0C9
:102EB0008091B9028B7FCD30FCE5DF0709F480C03B
:102EC00098F48091B9028E7FCB309CE5D90709F444
:102ED00077C08091B9028C60CC30DC4508F470C0BA
:102EE0008091B9028D7F6CC08091B9028F7ECF3006
:102EF000FCE5DF0709F464C008F47BC08091B902E7
:102F00008F7D5EC0CE3F9CE5D90709F47AC050F5AD
:102F1000C531FCE5DF0709F486C098F48091B90259
:102F2000837FC3319CE5D90709F44AC008F471C016
:102F30000E94BF069091B902892F97FB87F98058AC
:102F40003FC0CC3FFCE5DF0709F449C008F055C09D
:102F50008091BA028160CB3FDC4509F081CF80933C
:102F6000BA027ECFC230EDE5DE0709F468C0A8F4EE
:102F7000C1158DE5D80709F452C08091BA0283606B
:102F8000C130DD4560F38091BA02982F9095917021
:102F90008E7F892B90FB81F9E2CFC236EDE5DE070B
:102FA00009F451C0C63AFDE5DF0709F453C0C33048
:102FB000DD4509F055CF80E043C08091B9028160C2
:102FC0008093B9024DCF8091B9028260F9CF809190
:102FD000B9028460F5CF8091B9028860F1CF809109
:102FE000BA028260BCCF0E94BF068091B90280689D
:102FF000E7CF8091B902877FE3CF8091BA028E7FBD
:10300000AECF8091BA028D7FAACF8091B9028F7B1B
:10301000D7CF0E94BF068091B9028F77D1CF809120
:10302000BA028C7F9CCF8091B90282FB992790F9DC
:1030300021E0922790FB82F990FB83F9C1CF81E0D8
:103040000E945D0D0DCF9091B902892F8F7E94FF64
:103050008061B6CF9091B902892F8E7F90FF8160F9
:10306000AFCF81E00FCFCF93DF93EB0186319C454B
:1030700011F50E94BF0B9A81992399F08A7A91E009
:1030800009F490E090938302811109C089E20E94C3
:10309000970B0E94000C80E0DF91CF91089585E3AB
:1030A000F6CF80918302811104C089E20E949F0BB8
:1030B000F0CF85E3FBCF81E0EFCF0F931F93CF934A
:1030C000DF93C42FD22FFC0182818823C9F0409363
:1030D00086020E94B21C909385028093840280E253
:1030E0008C0F883040F4C77081E001C0880FCA950A
:1030F000EAF70E944604DF91CF911F910F91089546
:1031000010918602141332C080918402909185023E
:103110000E94CA1C883C910548F5C0E2CD0F1D17DE
:10312000B9F080E2810F883040F4177081E001C06F
:10313000880F1A95EAF70E944D04C83048F481E0E0
:103140009D2F977001C0880F9A95EAF70E94460458
:10315000802F0E943D04C83070F6D77081E001C016
:10316000880FDA95EAF70E944D04C5CF80E28C0FF4
:10317000883008F6C77081E001C0880FCA95EAF769
:10318000F2CF0F939C01CB01243F4CE5340759F15A
:10319000A8F4293DFCE53F0701F12A3D4CE5340741
:1031A000D1F1283D3C4591F406E221EE41EE68ED77
:1031B0007CE50E945D1880E00F910895263FFCE5B4
:1031C0003F07E9F0B0F0273F3C45F9F0FC01828170
:1031D000882339F110928602EFCF07E225EE45EE03
:1031E00069ED7CE5E6CF06E221EE40EE64EF7CE59A
:1031F000E0CF07E225EE44EE65EF7CE5DACF06E2AC
:1032000021EE42EE66EF7CE5D4CF07E225EE46EEF6
:1032100067EF7CE5CECF08E221E045EE6AED7CE584
:10322000C8CF81E0C9CF8EE14A9B02C08150E1F74F
:103230004A9BFECF08955A9880E28A95F1F75A9AF0
:103240000895FC013BE03A95F1F798E020E080E03A
:1032500031E040E14A95F1F7880F4A9B02C0816056
:10326000232742E04A95F1F7000040E14A95F1F743
:10327000915079F790E19A95F1F799B132E03A954A
:10328000F1F7000040E14A95F1F792FB992790F998
:1032900092272081920F90830895A1E0B0E0E3E5AA
:1032A000F9E10C943D2419828C017C01E60EF11C9D
:1032B0000E151F0541F481E09981911180E021965E
:1032C000E6E00C9459240E941319CE0101960E9445
:1032D0002119F80181938F01EBCF529A5A9A0895E0
:1032E00052985A9AEA9AE9E6F0E080818F7C8083CE
:1032F00008956150770B91E001C0990F6A95EAF744
:1033000020E031E0911108C0222391F05A9A80E226
:103310008A95F1F75A980895492F482339F05A9A17
:10332000232740E24A95F1F79695ECCF5A98F9CFCA
:103330005A98EDCFFF920F931F93CF93DF93EC0139
:103340008C01060F111DC017D10729F4CDB7DEB7C8
:10335000E5E00C945A24F9900E941B1968E08F2D27
:103360000E947919F0CF1F920F920FB60F9211247D
:103370000F931F932F933F934F935F936F937F937D
:103380008F939F93AF93BF93EF93FF93CF93DF936D
:103390000F92CDB7DEB719820E941319CE010196A4
:1033A0000E942119082F069506950695282F22952B
:1033B0002570902F9570290F922F93702695269542
:1033C000920F982797708981982B09F05CC0043080
:1033D00008F059C080E18A95F1F75A9A529A82E032
:1033E0008A95F1F700C05A9888E0089F800111245F
:1033F000D801AD5FBE4F1696ED91FC9117973097AF
:10340000A9F060919C0170919D0114962D913C91C1
:103410001597260F371F11968D919C911297680F63
:10342000791F13964C9113978C910995F801ED5FD4
:10343000FE4F6381662351F020919C0130919D01E4
:1034400084819581820F931F0E949A190E941B19F3
:1034500080E18A95F1F75A9852985A9A80E18A95B4
:10346000F1F7F801ED5FFE4F6081662351F0209186
:103470009C0130919D0181819281820F931F0E9456
:103480004D190E9413190F90DF91CF91FF91EF9189
:10349000BF91AF919F918F917F916F915F914F916C
:1034A0003F912F911F910F910F900FBE0F901F9082
:1034B00018950F931F93CF93DF93EC0104970CF0B3
:1034C0004CC0F894529A5A9885E08A95F1F700001A
:1034D0009C2F969595708C2F8570980F892F8370EF
:1034E0009695969523E0CC0FDD1F2A95E1F7980F6E
:1034F0008E01092B0E941B1900C068E0802F0E94DA
:10350000791980E18A95F1F752985A9A4A9B1EC020
:1035100087E090E04A991CC0FE01ED5FFE4F638199
:103520006623F9F020919C0130919D018481958161
:10353000820F931F0E944D19811113C0529A5A9AFB
:103540007894DF91CF911F910F91089500C0DECF45
:10355000019729F4529A5A9A789480E0F2CF00C0E9
:10356000D9CF0E94131980E28A95F1F75A98529A9E
:1035700080E18A95F1F7CD5FDE4F6881662351F0D7
:1035800020919C0130919D0189819A81820F931F26
:103590000E949A190E941B19789481E0D2CF9093CF
:1035A0009F0180939E01089590938D0280938C02D9
:1035B00008950E944112811103C0809187020895ED
:1035C000E0918C02F0918D02309729F00190F0810A
:1035D000E02D0995089580E00895E0918C02F09126
:1035E0008D02309799F020912F01222359F02091DC
:1035F000B90227FF07C0DC012C9111962C9311977B
:1036000026E02C930280F381E02D09950895E09146
:103610008C02F0918D02309739F022E0DC012C937E
:103620000480F581E02D0995089520918A0230915A
:103630008B022817390771F090938B0280938A02CE
:10364000E0918C02F0918D02309721F00680F78195
:10365000E02D09950895209188023091890228175C
:10366000390771F09093890280938802E0918C026F
:10367000F0918D02309721F00084F185E02D0995BD
:103680000895FC01329680912F01882321F08091CA
:10369000B9029EE187FF96E080E0915008F408951A
:1036A00021912223D1F38F5FF8CF662301F120917E
:1036B0002F012223F1F02091B90227FF1AC0462FD3
:1036C0004695469546954E3190F4677021E030E07E
:1036D00002C0220F331F6A95E2F7840F911DFC018F
:1036E000828190E02823392381E0232B69F480E054
:1036F0000895FC01329608962191261721F0E817CB
:10370000F907D1F7F4CF81E008959C01FC013296CE
:103710009FEF80E04191461751F09F3F19F441110E
:1037200001C0982F8F5F8630A9F79F3F09F4089555
:10373000290F311D97FD3A95F90162830895FC0127
:10374000329608962191261303C0DF0111971C922F
:10375000E817F907B9F70895E62FE695E695E69597
:10376000EE3168F4E80FF92FF11D677021E030E0C9
:1037700001C0220F6A95EAF78281822B8283089525
:10378000E62FE695E695E695EE3170F4E80FF92F11
:10379000F11D677021E030E001C0220F6A95EAF761
:1037A0002095828128232283089520912F012223AE
:1037B00039F02091B90227FF03C00E94AC1B089585
:1037C0000E94851B089520912F01222339F020911A
:1037D000B90227FF03C00E94C01B08950E949F1BCF
:1037E0000895FC01329680912F01882351F0809139
:1037F000B90287FF06C08EE1DF011D928A95E9F7C5
:10380000089586E0F9CF46E050E00E947C2421E054
:10381000892B09F420E0822F089508950E940D1C41
:103820000895811106C081E080938E020E940E1CD3
:10383000089582E0F9CF83E080938E020E940E1CEF
:1038400008950E94111C089581E080938E020E94C9
:103850000E1C08950E94241C0895089508950E9446
:103860002E1C0895089508950E942D1C0895CF934D
:103870000E94321C0E94C8110E94331CC0E08C2F91
:103880000E949B10811105C0CF5FC830C1F7CF9156
:10389000089581E0FCCF85B7806885BF85B78068D3
:1038A00085BF08951F921FB61F9211248F939F9377
:1038B000AF93BF9380918F02811113C08091CD028D
:1038C0009091CE02A091CF02B091D0024196A11D5D
:1038D000B11D8093CD029093CE02A093CF02B093FE
:1038E000D002BF91AF919F918F911F901FBE1F90EB
:1038F00018958091D502843031F10E943B031092DB
:103900008F0288E190E020E40FB6F894A8958093A8
:1039100060000FBE2093600083B7817F846083BF07
:1039200083B7816083BF7894889583B78E7F83BF88
:103930000FB6F894A895809160008861809360002C
:10394000109260000FBE08950E94BF060E944003BF
:10395000089582E084BD93E095BD9AEF97BD809372
:103960006E0008952FB7F8948091CD029091CE0209
:10397000A091CF02B091D0022FBF08952FB7F89435
:103980006091CD027091CE028091CF029091D002D1
:103990002FBF08959C014FB7F8948091CD0290916C
:1039A000CE02A091CF02B091D0024FBF821B930BE9
:1039B0000895CF92DF92EF92FF922FB7F894C090C4
:1039C000CD02D090CE02E090CF02F090D0022FBF77
:1039D000A7019601261B370B480B590BCA01B901E9
:1039E000FF90EF90DF90CF90089578941F921FB6CC
:1039F0001F9211248F939F93AF93BF938091CD0219
:103A00009091CE02A091CF02B091D0020196A11D5B
:103A1000B11D8093CD029093CE02A093CF02B093BC
:103A2000D002BF91AF919F918F911F901FBE1F90A9
:103A3000189587E797E7909301088093000888E13D
:103A40009AE00FB6F894A895809360000FBE90930B
:103A50006000FFCF88E19AE00FB6F894A8958093B4
:103A600060000FBE90936000FFCF8091B302089575
:103A700008959C0182E08093E9009FEF8091E80027
:103A8000915085FD06C085ED8A95F1F700009111F2
:103A9000F5CF8091E80085FF0CC050E040E066E083
:103AA00070E0C9010E947E1F8091E8008E778093AC
:103AB000E8000895CF93DF93EC0180912F018823D4
:103AC000B1F18091B90287FF32C060E282E0809359
:103AD000E9008FEF9091E800815095FD06C095EDCB
:103AE0009A95F1F700008111F5CF8091E80085FFEC
:103AF0001BC080912F0170E050E040E0811104C0B4
:103B000050E040E068E070E0CE010E947E1F8091AE
:103B1000E8008E778093E80080E2FE01A3E9B2E03E
:103B200001900D928A95E1F7DF91CF91089568E0B9
:103B300081E0CDCF809390027093920260939102C6
:103B40008091D502843001F582E08093E9008FEF07
:103B50009091E800815095FD06C095ED9A95F1F79A
:103B600000008111F5CF8091E80085FF0DC050E085
:103B700040E063E070E080E992E00E947E1F809167
:103B8000E8008E778093E8000895BC0184E00E94ED
:103B90009A1D0895BC0183E00E949A1D08958091AA
:103BA000D402811109C00E940E210E946B218091D4
:103BB000E20084608093E20008951092D402089598
:103BC0000E94241C08956091D10281E0611101C01E
:103BD00080E00E941B1C08959091D50281E09430F2
:103BE00009F080E06091D1020E94211C089542E01A
:103BF00061EC81E00E948A2042E261EC82E00E9456
:103C00008A209091D50281E0943009F080E06091A3
:103C1000D1020E94111C08958091D702833009F4CB
:103C200061C030F48130D1F1823009F49EC0089532
:103C30008A3009F48AC08B3009F46FC0893009F0EA
:103C400050C08091D602813209F04BC08091DA02D7
:103C50009091DB02029708F044C08091E800877FD2
:103C60008093E8008091E80082FF37C09091F300D4
:103C70008091F200029731F48091F100813011F0CF
:103C8000863021F48091F1008093B3028091E800A6
:103C90008B778093E8000E94BE2023C08091D602DB
:103CA000813AF9F48091E800877F8093E800809161
:103CB000DA029091DB02892B61F460E283E992E001
:103CC00070E00E94CD1F8091E8008B778093E80020
:103CD000089560E090E080E0F3CF8091D5028111FB
:103CE000C1CF08958091D602813AD9F78091DA0246
:103CF0009091DB02892BA9F78091E800877F809360
:103D0000E8008091E80080FFFCCF80912F01809334
:103D1000F1008091E8008E77BCCF8091D60281328D
:103D200001F78091DA029091DB02892BD1F6809124
:103D3000E800877F8093E8000E94BE208091D8022F
:103D400080932F010E94BF0608958091D602813290
:103D500041F68091E800877F8093E8000E94BE20B2
:103D60008091D9028093B40208958091D602813A5D
:103D700009F0B7CF8091E800877F8093E8008091B9
:103D8000E80080FFFCCF8091B402C1CF84B7877F69
:103D900084BF0FB6F894A8958091600088618093E5
:103DA0006000109260000FBE80E890E00FB6F894BB
:103DB00080936100909361000FBE0E942A1C0895B9
:103DC0000E940E210E946B21E2EEF0E0808184606F
:103DD000808378940E94EA23089583E291E00E9410
:103DE000D41A08958091D502853031F48091D5029E
:103DF000853019F00E94A41C08950E94791C8091BE
:103E0000D302882399F30E94371C882379F30E94F8
:103E1000681F0E94BF06EACF08950E94101F0895F0
:103E2000292F33272330310519F168F4213031056A
:103E300009F444C02230310509F445C090E080E027
:103E400030E020E025C02132310549F12232310530
:103E5000A9F780E490E023E734E061157105C1F033
:103E600086EB90E02DEB33E06130710589F0E6CF11
:103E700099278130910581F0009729F00297F1F69A
:103E8000ECE4F3E002C0ECE6F3E0849190E09F0103
:103E9000FA01318320830895EAE5F3E0F6CF89E063
:103EA00090E022E833E06115710591F389E090E03C
:103EB0002BE933E06130710559F3C0CF82E190E026
:103EC0002BEA33E0E5CF8BE390E020E733E0E0CF6F
:103ED00080E189BD82E189BD09B400FEFDCF8091FA
:103EE000D8008F7D8093D8008091E000826080931D
:103EF000E0008091E00081FDFCCF0895AF92BF9279
:103F0000CF92DF92FF920F931F93CF93DF936C01B9
:103F1000EB018A010E94DD20F82E811123C00115DA
:103F2000110539F0F80180819181C81BD90BC80EA9
:103F3000D91EB12CA12C2097A9F08091E80085FD15
:103F400022C08091E8008E778093E800011511056A
:103F5000A1F0F80180819181A80EB91EB182A082E2
:103F600085E0F82E8F2DDF91CF911F910F91FF905B
:103F7000DF90CF90BF90AF9008950E94DD208823FE
:103F8000D1F2F82EEFCFF60181916F018093F1000D
:103F90002197FFEFAF1ABF0ACECFFC018091DC0260
:103FA0009091DD0286179707A0F06115710529F43D
:103FB0009091E8009E779093E80090E0611571057C
:103FC00051F4911108C08091E80082FF34C080E074
:103FD0000895BC01F2CF8091D5028823C1F18530CC
:103FE000C1F18091E80083FD30C08091E80082FD3E
:103FF000EACF8091E80080FFE1CF8091F30020912B
:10400000F200382F6115710519F02830310558F08C
:1040100091E02830310509F090E02091E8002E77FA
:104020002093E800CBCF81918093F100615071091A
:104030002F5F3F4FE7CF8091D502882341F0853035
:1040400041F08091E80083FFBECF81E0089582E0D7
:10405000089583E00895FC018091DC029091DD02D7
:1040600086179707A0F06115710529F48091E80083
:104070008E778093E80090E06115710551F49111FD
:1040800008C08091E80082FF35C080E00895BC013F
:10409000F2CF8091D5028823C9F18530C9F1809192
:1040A000E80083FD31C08091E80082FDEACF809175
:1040B000E80080FFE1CF8091F3002091F200382FDB
:1040C0006115710519F02830310558F091E028305C
:1040D000310509F090E08091E8008E778093E80048
:1040E000CBCF84918093F1003196615071092F5F9D
:1040F0003F4FE6CF8091D502882341F0853041F0D3
:104100008091E80083FFBDCF81E0089582E00895AB
:1041100083E00895982F973028F08F708093E900FE
:1041200081E008959093E900242F762F50E09817AE
:1041300031F07091EC002091ED005091F00021FDE4
:1041400002C09F5FE8CF3091EB003E7F3093EB00E1
:104150003091ED003D7F3093ED003091EB00316008
:104160003093EB007093EC002093ED005093F0003F
:104170002091EE0027FDE5CF80E008958091D602E2
:1041800087FF13C08091E80082FF06C08091E8009D
:104190008B778093E80004C08091D5028111F2CF23
:1041A00008958091D5028823D9F38091E80080FF9B
:1041B000F8CF8091E8008E77ECCF2091E400309129
:1041C000E50095E6A9012091EC00822F817020FF87
:1041D00006C08091E80080FF06C080E0089520912D
:1041E000E80022FD1AC08091D502882389F085302D
:1041F00089F08091EB0085FD0FC02091E4003091A3
:10420000E50042175307F9F29150E1F684E0089572
:1042100082E0089583E0089581E008950E947D2161
:104220000E948521E0EEF0E0808181608083E8EDEE
:10423000F0E080818F77808319BCA7EDB0E08C918E
:104240008E7F8C9380818F7E80831092D40208951C
:104250000F931F93CF93DF930E947D210E948521AE
:10426000C8EDD0E088818F778883888180688883D3
:1042700088818F7D888319BC1092D5021092D1025B
:104280001092D3021092D20200EE10E0F801808169
:104290008B7F808388818160888342E060E080E05A
:1042A0000E948A20E1EEF0E080818E7F8083E2EE42
:1042B000F0E0808181608083808188608083F80164
:1042C00080818E7F8083888180618883DF91CF9118
:1042D0001F910F910895E8EDF0E080818F7E80833B
:1042E000E7EDF0E080818160808384E082BF81E03F
:1042F0008093D4020E9428210895E8EDF0E08081A7
:104300008E7F80831092E20008951092DA0010925E
:10431000E10008951F920F920FB60F9211242F9370
:104320003F934F935F936F937F938F939F93AF933D
:10433000BF93EF93FF938091E10082FF0BC08091C8
:10434000E20082FF07C08091E1008B7F8093E10053
:104350000E94E9238091DA0080FF19C08091D80083
:1043600080FF15C08091DA008E7F8093DA00809103
:10437000D90080FF96C080E189BD82E189BD09B482
:1043800000FEFDCF81E08093D5020E94CF1D809179
:10439000E10080FF19C08091E20080FF15C080918C
:1043A000E2008E7F8093E2008091E2008061809342
:1043B000E2008091D80080628093D80019BC85E02B
:1043C0008093D5020E94E31D8091E10084FF2BC001
:1043D0008091E20084FF27C080E189BD82E189BD30
:1043E00089B5982F917080FFFBCF8091D8008F7D89
:1043F0008093D8008091E1008F7E8093E1008091CE
:10440000E2008F7E8093E2008091E20081608093E1
:10441000E2008091D102882309F449C084E08093AE
:10442000D5020E94EC1D8091E10083FF29C080919C
:10443000E20083FF25C08091E100877F8093E10047
:1044400082E08093D5021092D1028091E1008E7FAC
:104450008093E1008091E2008E7F8093E200809162
:10446000E20080618093E20042E060E080E00E9430
:104470008A208091F00088608093F0000E94E01D07
:10448000FF91EF91BF91AF919F918F917F916F912C
:104490005F914F913F912F910F900FBE0F901F9002
:1044A000189519BC1092D5020E94DD1D70CF809125
:1044B000E30087FD93E09093D502B3CF1F920F9254
:1044C0000FB60F9211242F933F934F935F936F93E7
:1044D0007F938F939F93AF93BF93CF93DF93EF938C
:1044E000FF93D091E900DF708091EC00C82FC1707C
:1044F00080FDC0E81092E9008091F000877F8093F2
:10450000F00078940E94A2221092E9008091F000BD
:1045100088608093F000CD2BCF70C093E900FF91AD
:10452000EF91DF91CF91BF91AF919F918F917F914B
:104530006F915F914F913F912F910F900FBE0F9010
:104540001F901895AAE2B0E0E8EAF2E20C94402449
:1045500086ED92E02091F100FC012193CF01F2E081
:104560008E3D9F07B9F70E940C1E8091E80083FFE3
:104570001EC18091D6029091D7029A3008F017C1DF
:10458000E92FF0E0EE51FB4D0C942B24803899F08C
:10459000823809F00CC18091DA028F70873008F000
:1045A00006C18093E9008091EB0085FB882780F9A4
:1045B0001092E90006C08091D2029091D30291112D
:1045C00082609091E800977F9093E8008093F100DB
:1045D0001092F1008091E8008E77E5C0882309F4FD
:1045E000D3C0823009F0E3C08091D8028111D6C0D7
:1045F0008091DA028F702FEF280F263008F0D7C095
:104600008093E9002091EB0020FFC8C0933031F483
:104610008091EB0080628093EB00C0C09091EB0032
:1046200090619093EB0021E030E001C0220F8A9569
:10463000EAF72093EA001092EA008091EB0088608C
:10464000EACF8111B4C01091D8021F778091E300A6
:104650008078812B8093E3008091E800877F8093AE
:10466000E8000E94BE208091E80080FFFCCF80918E
:10467000E30080688093E30082E0111183E080937F
:10468000D50295C08058823008F091C08091D80240
:104690009091D9028C3D23E09207A1F583E08A83B3
:1046A0008AE289834FB7F894DE01139620E03EE05A
:1046B00051E2E32FF0E050935700E49120FF03C054
:1046C000E295EF703F5FEF708E2F90E0EA30C0F020
:1046D000C7968D939D932F5F243159F74FBF8091DB
:1046E000E800877F8093E8006AE270E0CE010196DF
:1046F0000E94CD1F8091E8008B778093E80057C01F
:10470000C096E7CF6091DA027091DB02AE014F5F95
:104710005F4F0E940D1FBC01892B09F448C0909186
:10472000E800977F9093E80089819A810E942B206E
:10473000E1CF8038E1F58091E800877F8093E80041
:104740008091D1028093F10045CF811130C09091CA
:10475000D802923060F58091E800877F8093E8006E
:104760009093D1020E94BE208091D102882311F043
:1047700084E005C08091E30087FDFACF81E080935B
:10478000D5020E94F71D13C08091D802813079F4C0
:1047900081E0933009F080E08093D3021092E90029
:1047A0008091E800877F8093E8000E94BE2080917E
:1047B000E80083FF0AC08091E800877F8093E800CB
:1047C0008091EB0080628093EB00AA96E3E00C946A
:1047D0005C240895CF938091D5028823A1F0C091E5
:1047E000E900CF709091EC00892F817090FD80E8F6
:1047F000C82B1092E9008091E80083FD0E94A2225C
:10480000CF70C093E900CF9108950E940E211092BD
:10481000D5020895E8EDF0E08081806180838AE12F
:104820008A95F1F700C08091D9008170089597FBB7
:10483000072E16F4009407D077FD09D00E94682453
:1048400007FC05D03EF4909581959F4F0895709593
:1048500061957F4F0895EE0FFF1F0590F491E02DB5
:1048600009942F923F924F925F926F927F928F9214
:104870009F92AF92BF92CF92DF92EF92FF920F93EF
:104880001F93CF93DF93CDB7DEB7CA1BDB0B0FB6F9
:10489000F894DEBF0FBECDBF09942A8839884888B6
:1048A0005F846E847D848C849B84AA84B984C8844C
:1048B000DF80EE80FD800C811B81AA81B981CE0F43
:1048C000D11D0FB6F894DEBF0FBECDBFED01089528
:1048D000AA1BBB1B51E107C0AA1FBB1FA617B70726
:1048E00010F0A61BB70B881F991F5A95A9F7809542
:1048F0009095BC01CD010895FB01DC0104C08D91B0
:104900000190801921F441505040C8F7881B990B41
:104910000895FB01DC0102C001900D92415050400E
:10492000D8F70895F999FECF92BD81BDF89A9927DD
:1049300080B50895A8E1B0E042E050E00C94C624B0
:10494000262FF999FECF92BD81BDF89A019700B448
:10495000021639F01FBA20BD0FB6F894FA9AF99AE8
:104960000FBE08950396272F0E94A1240E94A02421
:10497000252F0E94A124242F0C94A1240196272FD7
:104980000E94A1240C94A024DC01CB01FC01F99924
:10499000FECF06C0F2BDE1BDF89A319600B40D928B
:1049A00041505040B8F70895F894FFCF8F048F041A
:1049B000C004C0044D056905EF04EF04740500064A
:1049C0000F060F06C622EE22D723EE22D72321237D
:0849D0004223D7239923A523FC
:1049D80022020100000001000000000000000401A4
:1049E8000000000405000000000000280850011E17
:1049F8000A1401351D5A1D391DCA1DC51D381D0152
:104A0800E200E900EA00B500B600B700CD00830176
:104A1800CC008A019201940121022302240225027A
:104A2800260227022A02B300B4006F0070008182B8
:104A380083E200E900EA00B500B600B700CD0083C4
:104A480001CC008A0192019401210223022402254B
:104A580002260227022A02B300B4006F0070008108
:0E4A68008283F4F5F6F73133946697C65D024B
:00000001FF
