:100000000C94CD040C94EA040C94EA040C9442245D
:100010000C94EA040C94EA040C94EA040C94EA04A8
:100020000C94EA040C94EA040C942F0E0C94B8146B
:100030000C94AE1E0C94EA040C94EA040C94EA04AA
:100040000C94EA040C94EA040C94EA040C94EA0478
:100050000C94EA040C94080F0C94EA040C94EA043F
:100060000C94EA040C94EA040C94EA040C94EA0458
:100070000C94EA040C94EA040C94EA040C94EA0448
:100080000C94EA040C94EA040C94EA040C94EA0438
:100090000C94EA040C94EA040C94EA040C94EA0428
:1000A0000C94EA040C94EA040C94EA0400000000A6
:1000B0000000000000000000000000000000000040
:1000C0000000000000000000000000000000000030
:1000D0007E0F00D4FFFFFFC7000000780000000083
:1000E000000000002A2B2800000000000000000093
:1000F0000000000000000029000000002C1E342039
:10010000212224342627252E362D3738271E1F205E
:100110002122232425263333362E37381F040506A3
:100120000708090A0B0C0D0E0F10111213141516E7
:100130001718191A1B1C1D2F3130232D35040506E5
:100140000708090A0B0C0D0E0F10111213141516C7
:100150001718191A1B1C1D2F3130354C0101E301F2
:100160000432307C6F75746C6F6F6B010432307CBD
:10017000010128000101E3010432307C6974756ECD
:100180006573010432307C010128000101E30104A0
:1001900032307C666967010432307C01012800013D
:1001A00001E3010432307C706F7765727368656CAF
:1001B000010432307C010128000101E301043230E6
:1001C0007C6E6F74657061010432307C010128001F
:1001D0000101E3010432307C74656C650104323046
:1001E0007C010128000101E3010432307C6E6F7450
:1001F000010432307C010128000101E301043230A6
:100200007C636872010432307C010128000102E342
:10021000200103E3010432307C6D61690104323056
:100220007C010128000102E3200103E301043230D4
:100230007C6D7573010432307C010128000102E3FA
:10024000200103E3010432307C6669670104323027
:100250007C010128000102E3200103E301043230A4
:100260007C746572010432307C010128000102E3D4
:10027000200103E3010432307C7465787401043298
:10028000307C010128000102E3200103E301043274
:10029000307C74656C010432307C0101280001025D
:1002A000E3200103E3010432307C6E6F74010432F9
:1002B000307C010128000102E3200103E301043244
:1002C000307C736166010432307C010128000045F6
:1002D00014001A000900130005002B00040015008B
:1002E000160017000A0039001D611B640600070094
:1002F000190000000000000002552A422943004571
:1003000034001C0018000F000D00065412000C00F1
:1003100008001100100004533871377436000B00C8
:100320000E000000000000004C782C412800000066
:1003300035082B0850084F0800002F0850005100C6
:1003400052004F00300800001D081B08060819085D
:1003500000000000000000002B002A00290000001F
:10036000000000000000000000000000E400E600C3
:10037000E700E5000000000000000000F900FA00BE
:10038000000000000000000000000000000000006D
:10039000000000000000000000000000E000E2009B
:1003A000E300E10000000000000000000000000089
:1003B000000000000000000000000000000000003D
:1003C000380026002500240025022E0027002300E7
:1003D000220021002E020000220220001F001E0029
:1003E000210200000000000037002C002D0000005A
:1003F000000000000000000000000000E000E2003B
:10040000E300E10000000000000000000000000028
:1004100000000000000000000000000000000000DC
:10042000370230002F0036020000000033002702A0
:10043000260233022E02000031003102240234026F
:10044000000000000000000035002C002D021E00FE
:1004500014001A000800150017001F000400160001
:10046000070009000A00E1001D001B00060019003A
:100470000500000000000000E0002C00E300240064
:100480002300F900ED00FA00200026002500F0000E
:10049000EE00EF00210001002700FC00F300FB004C
:1004A0002200000000000000F200F100280000001F
:1004B000E000E200E300E10000000000AC00AA0060
:1004C000A900AB0000000000BE5CBE00BD00BF5C28
:1004D0000000000000000000A800AE00AD00000019
:1004E00044004200410040000000000043003F0083
:1004F0003E003D000000000045003C003B003A008B
:1005000000000000000000000000000000000000EB
:1005100000000000200A210A0000000000520752DB
:100520002C092C0100000000000000000000000069
:1005300000000000000000000000000000000000BB
:10054000000000000000000000002B08B15DB05D5D
:10055000AF5DAE5D00000000B55DB45DB35DB25D42
:10056000000000000000000000002C080000004C0B
:1005700014001A000900130005002B0004001500E8
:10058000160017000A0039001D681B6406000700EA
:10059000190000000000000002552A49294A004CB9
:1005A00034001C0018000F000D000D5412000C0048
:1005B0000800110010000B533878377436000B0018
:1005C0000E000000000000004C712C4828000000C4
:1005D0002B082B044A004D0000005004500051002D
:1005E00052004F004F0400001D011B0106011901BC
:1005F00000000000000000002B002A00290000007D
:10060000000000000000000000000000E700E6001D
:10061000E400E5000000000000000000F900FA001E
:1006200000000000000000000000000000000000CA
:10063000000000000000000000000000E300E200F5
:10064000E000E100000000000000000000000000E9
:10065000000000000000000000000000000000009A
:10066000380026002500240025022E002700230044
:10067000220021002E020000220220001F001E0086
:10068000210200000000000037002C002D000000B7
:10069000000000000000000000000000E300E20095
:1006A000E000E10000000000000000000000000089
:1006B000000000000000000000000000000000003A
:1006C000370230002F0036020000000033002702FE
:1006D000260233022E0200003100310224023402CD
:1006E000000000000000000035002C002D021E005C
:1006F00014001A000800150017001F00040016005F
:10070000070009000A00E1001D001B000600190097
:100710000500000000000000E0002C00E0002400C4
:100720002300F900ED00FA00200026002500F0006B
:10073000EE00EF00210001002700FC00F300FB00A9
:100740002200000000000000F200F100280000007C
:10075000E300E200E000E10000000000AC00AA00BD
:10076000A900AB0000000000BE5CBE00BD00BF5C85
:100770000000000000000000A800AE00AD00000076
:1007800044004200410040000000000043003F00E0
:100790003E003D000000000045003C003B003A00E8
:1007A0000000000000000000000000000000000049
:1007B00000000000160A160A00000000005207524E
:1007C00037082C08000000000000000000000000B6
:1007D0000000000000000000000000000000000019
:1007E000000000000000000000002B04B95DB85DAF
:1007F000B75DB65D00000000BD5DBC5DBB5DBA5D70
:10080000000000000000000000002C08000000DADA
:100810000281FFD9F1DB20A4A62EAF00A0C000A169
:10082000C800AED580A81FD300408D14200000AFB3
:1008300000AE05010902A10185020901A100050917
:100840001901290815002501950875018102050186
:10085000093009311581257F95027508810609380F
:100860001581257F950175088106050C0A3802154A
:1008700081257F950175088106C0C005010980A109
:1008800001850319012AB700150126B700950175E6
:10089000108100C0050C0901A101850419012AA0DD
:1008A00002150126A002950175108100C0050109FD
:1008B00006A1018506050719E029E7150025019520
:1008C00008750181020507190029EF15002501951A
:1008D000F075018102050819012905950575019139
:1008E00002950175039101C005010906A1010507E3
:1008F00019E029E715002501950875018102950188
:10090000750881010507190029FF150026FF0095CC
:1009100006750881000508190129059505750191DD
:1009200002950175039101C009023B00020100A07C
:10093000FA0904000001030101000921110100016D
:10094000224000070581030800010904010001039A
:1009500000000009211101000122B60007058203F1
:1009600020000112010002000000085346010001AE
:1009700000010200010C0343006F0072006E00656D
:10098000000000100366006F006F007300740061C8
:10099000006E000000040309040011241FBECFEF05
:1009A000DAE0DEBFCDBF11E0A0E0B1E0E6E8FCE4B4
:1009B00002C005900D92A237B107D9F724E0A2E753
:1009C000B1E001C01D92A83DB207E1F70E94D51E1B
:1009D0000C941B260C940000FC01AC014C5F5F4F93
:1009E0008FEF91E32191822728E030E087FF09C053
:1009F000880F892721503109C9F7E417F50791F7C6
:100A00000895880FF7CFE8EDF0E080818E7F808336
:100A10001092E2001092DA001092E100A0EEB0E035
:100A20008C9181608C9380818F77808319BCA7ED36
:100A3000B0E08C918E7F8C9380818F7E808310922A
:100A4000A60408952091E4003091E50095E6A901FF
:100A50002091EC00822F817020FF06C08091E80079
:100A600080FF06C080E008952091E80022FD1AC0B2
:100A70008091CB04882389F0853089F08091EB0048
:100A800085FD0FC02091E4003091E5004217530727
:100A9000F9F29150E1F684E0089582E0089583E050
:100AA000089581E00895EF92FF920F931F93CF93E3
:100AB0007C018B010E942205C82F811117C08091F3
:100AC000E80085FD0BC08091E8008E778093E800F8
:100AD0000E942205882399F3C82F08C0F70181914D
:100AE0007F018093F1000150110949F78C2FCF91BC
:100AF0001F910F91FF90EF9008958091CD0487FF93
:100B000013C08091E80082FF06C08091E8008B77D7
:100B10008093E80004C08091CB048111F2CF089546
:100B20008091CB048823D9F38091E80080FFF8CF2F
:100B30008091E8008E77ECCF982F9093E900242FD6
:100B4000762F50E0891731F07091EC002091ED0084
:100B50005091F00021FD07C09F5F973071F780939F
:100B6000E90081E008953091EB003E7F3093EB0087
:100B70003091ED003D7F3093ED003091EB0031601E
:100B80003093EB007093EC002093ED005093F00055
:100B90002091EE0027FDE0CF80E00895B0E0A0E0D6
:100BA000E4EDF5E00C947C25C8EDD0E088818F7EE3
:100BB0008883E7EDF0E080818160808384E082BFFC
:100BC00081E08093A60488818E7F888302EE10E006
:100BD000F80110821092DA0081EEC82ED12CF601B5
:100BE000108288818F778883888180688883888154
:100BF0008F7D888319BC1092CB041092CC04109284
:100C0000CA041092C90490EEE92EF12CF7018081FC
:100C10008B7F808388818160888342E060E080E010
:100C20000E949C05F60180818E7F8083F80180817F
:100C300081608083808188608083F70180818E7FDE
:100C40008083888180618883CDB7DEB7E8E00C942B
:100C50009825FC018091D3049091D40486179707BE
:100C6000A0F06115710529F49091E8009E779093AA
:100C7000E80090E06115710551F4911108C0809170
:100C8000E80082FF34C080E00895BC01F2CF80917B
:100C9000CB048823C1F18530C1F18091E80083FD48
:100CA00030C08091E80082FDEACF8091E80080FFAB
:100CB000E1CF8091F3002091F200382F611571058A
:100CC00019F02830310558F091E02830310509F04D
:100CD00090E02091E8002E772093E800CBCF81911F
:100CE0008093F100615071092F5F3F4FE7CF8091F2
:100CF000CB04882341F0853041F08091E80083FFE8
:100D0000BECF81E0089582E0089583E008950895BC
:100D10008091A804089587E797E79093010880934E
:100D2000000888E19AE00FB6F894A89580936000D7
:100D30000FBE90936000FFCF2FB7F89460919D0491
:100D400070919E0480919F049091A0042FBF0895FC
:100D500020912C012223C9F02091A10427FF15C066
:100D6000E62FE695E695E695EE31D8F4E80FF92FF3
:100D7000F11D677021E030E001C0220F6A95EAF7AB
:100D800020958281282322830895FC0132960896BB
:100D90002191621303C0DF0111971C92E817F90734
:100DA000B9F7089520912C012223C1F02091A104CC
:100DB00027FF14C0E62FE695E695E695EE31F8F4A8
:100DC000E80FF92FF11D677021E030E001C0220F1C
:100DD0006A95EAF78281822B82830895FC0132961C
:100DE0002FEF30E04191641751F02F3F19F441117A
:100DF00001C0232F3F5F3630A9F72F3F09F4089534
:100E0000820F911D27FD9A95FC0162830895209120
:100E10009A0430919B042817390771F090939B0432
:100E200080939A04E0919804F0919904309721F00E
:100E30000084F185E02D0995089520919604309164
:100E400097042817390771F09093970480939604BC
:100E5000E0919804F0919904309721F00680F78191
:100E6000E02D0995089540918C048D3E59F48091B0
:100E70008D0487FF0DC010928D0441110BC010929C
:100E8000840408C08E3E81F480918D0418169CF372
:100E9000442381F080918E0490918F04892B09F076
:100EA0005AC01092830408958F3E49F447FFF0CF53
:100EB00010928C0480918D048111ECCFE0CF803FA3
:100EC00019F41416ACF3E4CF90918E04893F29F401
:100ED0001916F4F610928E04DBCF8A3F19F497FFAF
:100EE000D7CFF8CF90918F048B3F29F497FFD0CFC5
:100EF00010928F04CDCF8C3F19F41916CCF3C8CFC4
:100F00009FE0980F983090F4815F990B21E030E0DA
:100F1000B90102C0660F771F8A95E2F7CB01809571
:100F200090918B04892380938B04B2CF8D3F31F451
:100F3000809185048E7F80938504AACF8E3F21F413
:100F4000809185048D7FF7CF8F3F09F0A1CF8091ED
:100F500085048B7FF0CF08958091850480FD16C0B5
:100F600081FD16C082FD16C0809183048823A1F004
:100F7000883280F428E0829FC001112468E270E08A
:100F80000E94A925862F672B39F0089582E00895E5
:100F900084E0089588E0089581E0089580918504B3
:100FA00080FD14C081FD14C082FD16C080918404B0
:100FB000882381F08E3180F420E3829FC0011124C8
:100FC0006EE170E00E94A925862F08958CE00895B7
:100FD00088E1089588E0089580E308958D3E31F416
:100FE0000E94CE07819580938D0408958E3E19F45A
:100FF0000E94CE07F8CF8F3E31F40E94CE07819534
:1010000080938C040895803F19F40E94CE07F8CF96
:10101000893F29F40E94AC0780938E0408958A3F8B
:1010200021F40E94AC078195F7CF8B3F31F40E94E9
:10103000AC07819580938F0408958C3F19F40E942A
:10104000AC07F8CF9FE0980F983070F4815F990B50
:1010500021E030E001C0220F8A95EAF780918B04ED
:10106000822B80938B0408958D3F31F48091850409
:1010700081608093850408958E3F21F480918504DA
:101080008260F7CF8F3FB9F7809185048460F1CFFC
:1010900080E00895F894E82FE295EF70F0E031A138
:1010A000282F2F7081E090E001C0880F2A95EAF781
:1010B000982F9095932391A392A1892B82A3789442
:1010C00008959091A10492FF06C0282F287128301E
:1010D000F9F4877F846093FF06C0282F2871283198
:1010E000F1F4877E84612091A20420FF06C0382F8E
:1010F00038713830D9F4877F816021FF06C0282FEE
:1011000028712831D1F4877E816194FD877E08950E
:10111000282F24712430F9F68B7F8860DCCF282FAC
:101120002471243101F78B7E8861DDCF382F317136
:10113000313019F78E7F8860E0CF282F217121315F
:1011400021F78E7E8861E1CF972F7830A8F4663042
:1011500098F470E026E0929F600D711D1124FB0150
:1011600090E3899FE00DF11D1124EE0FFF1FE25364
:10117000FD4F85919491089580E090E00895CF937C
:10118000DF93EC0182389105A9F1D8F581339105FF
:1011900009F496C048F58932910509F48AC08A9706
:1011A00009F495C0C11521E5D20708F0BCC0C115EE
:1011B00030E5D30708F014C1C83ED10508F09CC043
:1011C000C13ED10560F5C83AD10508F087C0C53ADF
:1011D000D10508F0FDC0C130D10509F12097F9F023
:1011E000C430D105E0F440C08533910509F45AC0FC
:1011F000C997C1F68091A104837089F0C0EED0E058
:101200000EC0833E910599F170F4803E910501F185
:10121000823E910539F68091A10482FD21C0CE0164
:10122000DF91CF910895863E910561F1873E91054A
:1012300071F1843E910509F0B5CF8091A20481FF40
:10124000EECF8091A104C7EED0E084FD0DC0E7CFC2
:101250008091A10480FD12C19091A20490FFDFCF84
:10126000C3EED0E084FFDBCFD0E0C0E0D8CF8091E8
:10127000A10482FD06C19091A20490FDBFCF84FF1E
:10128000CECFF2CF8091A10483FDDDCFC8CF809176
:10129000A10483FDF9C09091A20491FFF0CFC4EEA8
:1012A000D0E0BDCF8091A10485FFB9CFC9E2D0E0E5
:1012B000B6CF8091A10485FFB2CFC5E3D0E0AFCF18
:1012C0008091A10486FFABCFCAE2D0E0A8CF809185
:1012D000A10486FFA4CFC1E3D0E0A1CFCF3BD105CD
:1012E00018F6C85AD0E0CC0FDD1FC05DDE4F099064
:1012F000D881C02DD46493CFC11540E2D40758F4EF
:10130000C11581E0D80708F08ACFCD3ED10508F499
:10131000ABCFD06584CFC11590E4D90708F4A4CF32
:10132000DF70D06A7CCFC11525E5D20700F5C11565
:1013300034E5D30708F08AC0C11543E5D40708F0A7
:1013400071C0C11582E5D80708F467C0CE0183706B
:10135000992721E030E002C0220F331F8A95E2F77F
:10136000C695C69580E2C89FE001112452C0C11500
:1013700099E5D907A8F4C11528E5D20708F06BC094
:10138000C11536E5D30708F06FCF8C2F0E94610896
:10139000C82FD0E0DC2FCC27CC27DF71D0623FCF25
:1013A000C1154AE5D40708F45BC0CE0190568115FB
:1013B000904208F059CF8D2F8F710E94610890E004
:1013C000982F882788279F719C012C2BE901E6CF55
:1013D000C55AD0E0C35DDE4FC881D0E0D0641FCFD6
:1013E000CE01E4E096958795EA95E1F783702C2F7E
:1013F00026952695237040E2249F90011124382BD6
:101400008C2F8370C1E0D0E002C0CC0FDD1F8A9525
:10141000E2F7C22BD32BDC6802CFDC2FCC27C16FC5
:10142000D06AFDCECE018370992721E030E002C062
:10143000220F331F8A95E2F7C695C69590E2C99FA1
:10144000E0011124C22BD32BDA68E9CEDC2FCC27A4
:10145000C46FD06AE4CEDC2FCC27C06FD06ADFCE59
:101460008C2F8F700E94610834E0D695C7953A950D
:10147000E1F7CF709C2FEC01D069D1CEC9E3D0E069
:10148000CECEC2EED0E0CBCEC6EED0E0C8CE8091BC
:101490001202882331F0109212021092110210925F
:1014A00010020895809590910F02982390930F0257
:1014B00008958091EA019091B901981301C00895AF
:1014C0008F5F8770FACFB0E0A0E0E9E6FAE00C9415
:1014D0007B258C01C0904602D0904702E0904802E4
:1014E000F09049028091130290911402A09115028C
:1014F000B0911602C82AD92AEA2AFB2ACFE1D0E005
:10150000BC2ED701C6010C2E04C0B695A7959795A1
:1015100087950A94D2F780FD09C0219788F7B12CEE
:101520008B2DCDB7DEB7E9E00C949725B8018C2F51
:101530000E94A4080E94BF08019779F3F1CFCF93CE
:10154000DF93EC010E94630ABE010E94A4080E947E
:10155000BF08DF91CF910895292F983080F586300C
:1015600070F590E036E0239F800D911D1124682FC7
:10157000677023E0969587952A95E1F725E0289FE7
:10158000F001299FF00D1124EB56FE4F50E040E092
:1015900080E0219130E0062E02C0369527950A940E
:1015A000E2F721703327042E01C0220F0A94EAF7D4
:1015B000822B4F5F5F4F4530510559F7089580E00A
:1015C0000895292F9830A0F5863090F590E036E008
:1015D000239F800D911D1124282F277041E001C009
:1015E000440F2A95EAF723E0969587952A95E1F727
:1015F00025E0289FF001299FF00D1124EB56FE4FA6
:1016000030E020E070E05191DF011197CB01022E14
:1016100002C0969587950A94E2F781708195852797
:10162000842385278C932F5F3F4F2530310559F751
:101630000895FC01808191810E949F0A92959F707C
:10164000963091F058F4925F9F70923058F4803F3A
:1016500019F030F4883E30F481E008959A5FF4CFB9
:10166000843FD1F380E00895883EB0F3813FD1F705
:10167000F3CFB0E0A0E0EFE3FBE00C947C256C013D
:101680007B0164E670E088E70E94B922EC0197FDD7
:1016900012C010E000E0F601E00FF11F849164E653
:1016A00070E00E942723EC01892B29F40F5F1F4F64
:1016B0000E151F0581F70E949E23CE01CDB7DEB720
:1016C000E8E00C94982580919404909195049111F0
:1016D00003C091E089270895882369F062E070E0F3
:1016E00080E398E00E94390B892B19F080919404D3
:1016F00008951092940480919404EBCFCF93C091FD
:101700009404809195048823D1F00E949C06605A2D
:1017100075418F4F9F4F6093900470939104809315
:10172000920490939304C11108C062E070E08EE2CD
:1017300098E00E94390B892B29F0C09194048C2FDA
:10174000CF91089581E080939404F7CF8093A30410
:101750007093A5046093A4048091CB04843001F5B8
:1017600082E08093E9008FEF9091E800815095FD31
:1017700006C095ED9A95F1F700008111F5CF8091A3
:10178000E80085FF0DC050E040E063E070E083EAD0
:1017900094E00E9453058091E8008E778093E800E2
:1017A0000895BC0184E00E94A60B0895BC0183E06B
:1017B0000E94A60B08959C0182E08093E9009FEFB0
:1017C0008091E800915085FD06C085ED8A95F1F77E
:1017D00000009111F5CF8091E80085FF0CC050E02A
:1017E00040E066E070E0C9010E9453058091E80086
:1017F0008E778093E8000895CF93DF93EC0180917A
:101800002C018823B1F18091A10487FF32C060E2EE
:1018100082E08093E9008FEF9091E800815095FD80
:1018200006C095ED9A95F1F700008111F5CF8091F2
:10183000E80085FF1BC080912C0170E050E040E083
:10184000811104C050E040E068E070E0CE010E94E9
:1018500053058091E8008E778093E80080E2FE01D6
:10186000A9EAB4E001900D928A95E1F7DF91CF915A
:10187000089568E081E0CDCFB0E0A0E0E2E4FCE0D4
:101880000C947A257C015B016A018091370201E0AA
:1018900010E08A3010F40AE010E0C1E0D0E0B501B9
:1018A000C701F6010995811104C021960C171D0787
:1018B0002CF4CDB7DEB7EAE00C949625CC9F9001CE
:1018C000CD9F300D300D112490E080E045E34A9526
:1018D000F1F70000019682179307C1F7E0CF8091DE
:1018E0002102811110C08091D80080618093D800BE
:1018F0008AE18A95F1F700C08091D90080FF0AC083
:1019000081E08093210281E090912102913009F0E1
:1019100080E0089582E0809321020E9403051092E6
:10192000CB04F1CF0E946F0C882359F0E09198040A
:10193000F0919904309729F00190F081E02D0995FC
:10194000089580E00895CF9384E090E00E94D92527
:10195000C82F82E290E00E94D925982F8C2FCF913A
:101960000895A4E0B0E0E7EBFCE00C948025409102
:1019700033025091340260913502709136022FB7D4
:10198000F89480919D0490919E04A0919F04B09141
:10199000A0042FBF841B950BA60BB70B11E0843658
:1019A0009105A105B10590F10E946F0C882399F172
:1019B0000E949C066E5F7F4F8F4F9F4F69837A8393
:1019C0008B839C838091110190911201865D9D4FC4
:1019D0004091100150E04530510510F044E050E0D6
:1019E000BE016F5F7F4F0E94D02582E090E00E9491
:1019F000E824182F882351F00E949C06609333023C
:101A0000709334028093350290933602812F24968E
:101A1000E4E00C949C250E949C06009138021091F1
:101A2000390220913A0230913B02600F711F821FF0
:101A3000931FC0CFEF92FF921F93CF93DF9300D0FD
:101A400000D00F92CDB7DEB77B0190E080E00E941E
:101A5000E824182F882309F487C04091030150E03F
:101A60004115510511F041E050E060910401709181
:101A70000501665D7D4FCE0105960E94D0254091FF
:101A800026025091270260912802709129022FB7F7
:101A9000F89480919D0490919E04A0919F04B09130
:101AA000A0042FBF841B950BA60BB70B84369105A2
:101AB000A105B10540F48BE292E00E94EC049D8107
:101AC000891709F451C081E090E00E94E824811157
:101AD0001AC010E08091220290912302A09124026A
:101AE000B0912502F70180839183A283B383812F74
:101AF0000F900F900F900F900F90DF91CF911F914B
:101B0000FF90EF90089540910B0150E04530510552
:101B100010F044E050E060910C0170910D01665DA1
:101B20007D4FCE0101960E94D0258BE292E00E946B
:101B3000EC049D818913CDCF0E949C066093260200
:101B400070932702809328029093290289819A81B9
:101B5000AB81BC818093220290932302A093240244
:101B6000B093250211E0B6CF80912B0290912C0208
:101B7000A0912D02B0912E0289839A83AB83BC83FE
:101B80001111E4CFA7CF68EE7EEF90E080E00E94D5
:101B9000052660E082E090E00E94E72560E083E0B7
:101BA00090E00E94E7251092130210921402109206
:101BB00015021092160260E084E090E00E94E72592
:101BC00064E082E290E00E94E72560E085E090E03A
:101BD0000E94E72560E086E090E00E94E7256FEF35
:101BE00087E090E00E94E72540E050E0BA0188E0FD
:101BF00090E00E94F92560E08DE090E00E94E725EA
:101C000040E050E0BA0188E190E00E94F92560E0F0
:101C100087E190E00E94E72540E050E0BA018CE1C6
:101C200090E00E94F92570E060E080E290E00E9480
:101C3000052640E050E0BA0188E190E00E94F925D5
:101C400040E050E0BA018FE090E00E94F92540E0CA
:101C500050E0BA0183E190E00E94F92508951F92B7
:101C60000F920FB60F9211242F933F934F935F93D0
:101C70006F937F938F939F93AF93BF93EF93FF9354
:101C80008091E10082FF09C08091E20082FF05C0DF
:101C90008091E1008B7F8093E1008091DA0080FFEA
:101CA00024C08091D80080FF20C08091DA008E7F10
:101CB0008093DA008091D90080FF9DC080E189BDCA
:101CC00082E189BD09B400FEFDCF81E08093CB04A1
:101CD0008091A604811109C00E9403050E94CE05CF
:101CE0008091E20084608093E2008091E10080FFB7
:101CF00017C08091E20080FF13C08091E2008E7FC8
:101D00008093E2008091E20080618093E200809104
:101D1000D80080628093D80019BC85E08093CB0402
:101D20008091E10084FF2BC08091E20084FF27C0F6
:101D300080E189BD82E189BD89B5982F917080FFCE
:101D4000FBCF8091D8008F7D8093D8008091E100F7
:101D50008F7E8093E1008091E2008F7E8093E2008D
:101D60008091E20081608093E2008091CC0488231E
:101D700009F447C084E08093CB048091CB04809128
:101D8000E10083FF27C08091E20083FF23C08091A0
:101D9000E100877F8093E10082E08093CB04109282
:101DA000CC048091E1008E7F8093E1008091E2007D
:101DB0008E7F8093E2008091E20080618093E20058
:101DC00042E060E080E00E949C058091F000886025
:101DD0008093F000FF91EF91BF91AF919F918F9110
:101DE0007F916F915F914F913F912F910F900FBE17
:101DF0000F901F90189519BC1092CB041092A60456
:101E000074CF8091E30087FD93E09093CB04B5CF2E
:101E100078941F921FB61F9211248F939F93AF93B4
:101E2000BF9380919D0490919E04A0919F04B091D6
:101E3000A0040196A11DB11D80939D0490939E0462
:101E4000A0939F04B093A004BF91AF919F918F91F5
:101E50001F901FBE1F9018959C014FB7F89480915A
:101E60009D0490919E04A0919F04B091A0044FBF47
:101E7000821B930B08952FB7F89480919D04909145
:101E80009E04A0919F04B091A0042FBF08950E94CA
:101E90003B0F9C0190918C0480918D04982B21F034
:101EA000309389042093880490918E0480918F044C
:101EB000982B21F03093870420938604E0919804B6
:101EC000F0919904309749F082E080938A0404806D
:101ED000F581E02D8AE894E009950895ACE0B0E042
:101EE000E4E7FFE00C9477258E010F5F1F4F88E039
:101EF000D8011D928A95E9F780E6C82E81E0D82E98
:101F0000F12CE12CAA24A394B12C2AE6822E21E004
:101F1000922EF60181916F018F3F09F442C0F8942F
:101F2000E82FE295EF70F0E021A18F70A50102C0CB
:101F3000440F551F8A95E2F7CA01922F982B91A35F
:101F400092A18095892382A3789400C0E4E6F1E011
:101F5000712C31E021912F3F09F46EC0A22FA29580
:101F6000AF70B0E090968C9190E02F7002C0959584
:101F700087952A95E2F780FD5FC0832F782A330F7B
:101F80008E169F0639F7F601319780818F3F11F049
:101F90000E944A0850EA5A95F1F7F801EE0DFF1D2C
:101FA00070828FEFE81AF80AA4E0EA16F10409F04B
:101FB000B0CF48E050E0B8018CE392E00E94C32526
:101FC0007C01892B41F088E0F801ACE3B2E001909C
:101FD0000D928A95E1F710914502E114F10471F137
:101FE00081E0809319020E943B0F90931802809326
:101FF000170280911702909118020E942C0F0597EA
:1020000090F0E12FF0E0E65BFD4F80913C02808391
:1020100080913D02818380913E02828380913F02C4
:1020200083831092190281E090E0E114F10451F0F1
:102030002C96EDE00C94932580E0A0CF80911902BE
:102040008111D7CF0E946F0CF82EE09145028823B2
:1020500009F46CC019861A861B861C860E2F10E0A8
:10206000065B1D4F809137028A3050F54AE15DE0F2
:10207000BE01675F7F4FC8010E943C0C882379F145
:1020800041EB5CE0BE01675F7F4FC8010E943C0CE2
:10209000882329F1109237028091440290E044E0B5
:1020A00050E0BE01675F7F4F865B9D4F0E94C32556
:1020B00021E020932002892B59F5F12C8F2DB8CFE8
:1020C00080911A0290911B020E942C0F843F914034
:1020D00068F680912002811112C080E0A9CF809122
:1020E00037028F3F29F08F5F809337028A30A0F24A
:1020F0000E943B0F90931B0280931A02EACFFE01CD
:10210000399684E0DF011D928A95E9F7109220024A
:10211000E0914402F0E0E65BFD4F89859A85AB854E
:10212000BC8580839183A283B383C8CFF0E0E65B54
:10213000FD4F84E0ABE2B2E001900D928A95E1F7A9
:102140008BE292E00E94EC0480932A02C0902F025E
:10215000D0903002E0903102F090320280911C0267
:1021600090911D02A0911E02B0911F02C816D906BF
:10217000EA06FB0609F4B1CFC0921C02D0921D0200
:10218000E0921E02F0921F020E946F0C8111A5CFF7
:102190000E949C06C61AD70AE80AF90AC0923802B9
:1021A000D0923902E0923A02F0923B0296CF8091AF
:1021B0000F0290910E02892B80937401809112027C
:1021C000882329F10E943B0F2091100230911102C7
:1021D000821B930B8C3D954010F00E94470A809122
:1021E000740190911202892B8093740180912C01CB
:1021F0008823E1F18091A10487FF38C08EE1E6E7F2
:10220000F1E090E08150A0F591110E94470A40E270
:1022100050E06EEE71E084E791E00E94C325892BC7
:1022200021F180E2E4E7F1E0AEEEB1E001900D9241
:102230008A95E1F7E0919804F09199043097A9F01C
:1022400080912C01882359F08091A10487FF07C059
:10225000809174018093750186E0809374010280FF
:10226000F381E02D84E791E00995089586E0C7CFDA
:102270002191222339F29F5FC5CF90E080E00E9438
:102280001D0790E080E00E94070710920E020E9456
:10229000D71086E0EAE8F4E0DF011D928A95E9F7BD
:1022A0001092840410928304109285040E94470FB8
:1022B000089560934602709347028093480290937A
:1022C00049020E943D1108950F931F9341E050E091
:1022D00060E070E004C0440F551F661F771F8A95A9
:1022E000D2F7CB01BA0160957095809590950091D9
:1022F0004602109147022091480230914902602322
:102300007123822393230E9459111F910F910895E5
:102310009091ED01809589238093ED01282F2770FE
:10232000B1F4282F082E000C330B9217130679F006
:102330009091A20492FF0BC08595859585950E948A
:1023400064111092ED011092EC011092EB010895CE
:10235000CF93C091A204C2FB992790F9981791F0EE
:1023600080FBC2F9C093A2046091A10484E090E0D4
:102370000E94E7256C2F82E290E00E94E72582E030
:102380000E948811CF9108950F931F9341E050E070
:1023900060E070E004C0440F551F661F771F8A95E8
:1023A000D2F78091460290914702A0914802B091E5
:1023B00049028A019B01082B192B2A2B3B2BC901AF
:1023C000B8010E9459111F910F9108956093130253
:1023D0007093140280931502909316020E943D118F
:1023E000089510920F0280912C01E6E7F1E0882316
:1023F00061F08091A10487FF08C08EE1DF011D928A
:102400008A95E9F70E943D11089586E0F7CFAAE288
:10241000B0E0EDE0F2E10C9481258DEC94E02091A8
:10242000F100FC012193CF01F4E0853D9F07B9F74E
:102430008091CE04833009F470C0B8F4813009F47F
:1024400047C0823009F4B1C08091E80083FF7EC2AA
:102450008091CD049091CE049A3008F077C2E92F94
:10246000F0E0E35EF94D0C94BD258A3009F48CC090
:102470008B3009F46FC0893039F78091CD048132F7
:1024800019F78091D1049091D2040297E8F68091D7
:10249000E800877F8093E8008091E80082FF38C0E1
:1024A0009091F3008091F200029731F48091F10055
:1024B000813011F0863021F48091F1008093A804DE
:1024C0008091E8008B778093E8000E947D05BCCF67
:1024D0008091CD04813A09F0B7CF8091E800877FE1
:1024E0008093E8008091D1049091D204892B61F40B
:1024F00060E289EA94E070E00E9429068091E80099
:102500008B778093E800A0CF60E090E080E0F3CF8D
:102510008091CB048111C0CF97CF8091CD04813AB7
:1025200009F092CF8091D1049091D204892B09F0C7
:102530008BCF8091E800877F8093E8008091E8004E
:1025400080FFFCCF80912C018093F1008091E80006
:102550008E77B9CF8091CD04813209F075CF80910B
:10256000D1049091D204892B09F06ECF8091E800BC
:10257000877F8093E8000E947D058091CF0480933F
:102580002C010E94F11160CF8091CD04813209F0BD
:102590005BCF8091E800877F8093E8000E947D05F3
:1025A0008091D0048093A7044FCF8091CD04813ACD
:1025B00009F04ACF8091E800877F8093E8008091FE
:1025C000E80080FFFCCF8091A704BECF803899F04F
:1025D000823809F0BBC18091D1048F70873008F038
:1025E000B5C18093E9008091EB0085FB882780F9D5
:1025F0001092E90006C08091C9049091CA0491111B
:1026000082609091E800977F9093E8008093F100BA
:102610001092F1008091E8008E7794C1882309F42C
:1026200082C1823009F092C18091CF04811185C1AD
:102630008091D1048F702FEF280F263008F086C1CB
:102640008093E9002091EB0020FF77C1933031F4B3
:102650008091EB0080628093EB006FC19091EB0062
:1026600090619093EB0021E030E001C0220F8A9549
:10267000EAF72093EA001092EA008091EB0088606C
:10268000EACF811163C11091CF041F778091E300DD
:102690008078812B8093E3008091E800877F80938E
:1026A000E8000E947D058091E80080FFFCCF8091CA
:1026B000E30080688093E30082E0111183E080935F
:1026C000CB0444C18058823008F040C18091CF04CF
:1026D0009091D0048C3D23E09207A1F583E08A839A
:1026E0008AE289834FB7F894DE01139620E03EE03A
:1026F00051E2E32FF0E050935700E49120FF03C034
:10270000E295EF703F5FEF708E2F90E0EA30C0F0FF
:10271000C7968D939D932F5F243159F74FBF8091BA
:10272000E800877F8093E8006AE270E0CE010196BE
:102730000E9429068091E8008B778093E80006C10B
:10274000C096E7CF4091D1045091D204292F33276E
:102750002330310509F444C078F52130310509F4FE
:102760006FC08BE390E0E8E2F9E02230310509F038
:10277000EDC02091E800277F2093E8002091D3044A
:102780003091D4048217930708F49C0140E021158E
:10279000310509F064C0411162C08091E80082FDFA
:1027A000C9CF8091CB04882329F2853019F280911A
:1027B000E80083FFF2CFBECF21323105A9F12232EA
:1027C000310509F0C3C04115510509F443C041303A
:1027D000510509F0BBC086EB90E0E2E3F8E0C9CF19
:1027E000992781309105C1F0009759F0029709F0BF
:1027F000ADC0E5E7F9E0E4918E2F90E0E5E7F9E080
:1028000007C0E5E9F9E0E4918E2F90E0E5E9F9E011
:10281000009709F49BC0ADCFE3E8F9E0E4918E2F77
:1028200090E0E3E8F9E0F4CF4115510571F0413053
:10283000510509F08BC089E090E0E3E5F9E099CF1C
:1028400082E190E0E3E6F9E094CF89E090E0EAE30A
:10285000F9E08FCF80E490E0E8EEF8E08ACF809155
:10286000CB04882309F466CF853009F463CF8091C7
:10287000E80083FD5FCF8091E80082FD8ECF8091DC
:10288000E80080FF84CF9091F3008091F200211541
:10289000310519F08830910550F041E0089709F0B2
:1028A00040E08091E8008E778093E80070CF4491FB
:1028B0004093F1003196215031090196E8CF8038DC
:1028C00009F044C08091E800877F8093E800809100
:1028D000CC048093F1009ECE811138C01091CF04BA
:1028E0001230A0F58091E800877F8093E800109374
:1028F000CC040E947D05112311F084E005C0809175
:10290000E30087FDFACF81E08093CB0442E061ECE5
:1029100081E00E949C0542E261EC82E00E949C05FD
:102920008091CB0413C08091CF04813079F481E091
:10293000933009F080E08093CA041092E9008091FE
:10294000E800877F8093E8000E947D058091E80081
:1029500083FF0AC08091E800877F8093E800809120
:10296000EB0080628093EB00AA96E3E00C949D2537
:102970001F920F920FB60F9211242F933F934F93F4
:102980005F936F937F938F939F93AF93BF93CF93F7
:10299000DF93EF93FF93D091E900DF708091EC001B
:1029A000C82FC17080FDC0E81092E9008091F0004E
:1029B000877F8093F00078940E9407121092E900BC
:1029C0008091F00088608093F000CD2BCF70C09391
:1029D000E900FF91EF91DF91CF91BF91AF919F916E
:1029E0008F917F916F915F914F913F912F910F90B8
:1029F0000FBE0F901F9018950E94F1112FEF84E3E6
:102A00009CE0215080409040E1F700C0000088E148
:102A10009AE00FB6F894A895809360000FBE90934B
:102A20006000FFCF882321F00E94520A0E94D71035
:102A30000895882339F090910F02982B90930F02FC
:102A40000E94D7100895882391F19CEF980F913A36
:102A500040F4682F84E791E00E94A8060E94D710F6
:102A6000089590E2980F983050F4877091E001C07B
:102A7000990F8A95EAF7892F0E94520AEFCF9BE5BA
:102A8000980F933028F490E080E00E941D0708958D
:102A900098E5980F973128F490E080E00E940707AE
:102AA00008958D3E20F00E9433070E94470F08953D
:102AB000CF93C82F8823D9F18CEF8C0F813AC8F5BA
:102AC00080912C01882311F18091A10487FF1EC001
:102AD000EC2FE695E695E695F0E0EC58FE4F828106
:102AE00090E04C2F477021E030E002C0220F331FEE
:102AF0004A95E2F782239323892B91F06C2F84E788
:102B000091E00E94A8060E94D7100AC0E6E7F1E013
:102B10008CE791E02191C21789F38E179F07D1F7B7
:102B20006C2F84E791E00E94D2060E94D710CF91CB
:102B3000089580E28C0F883068F4C77021E030E09F
:102B400001C0220FCA95EAF780910F02822B809371
:102B50000F02EBCFEBE5EC0FE33040F4F0E0E35D88
:102B6000FE4F808190E00E941D07E1CFE8E5EC0F69
:102B7000E73150F4F0E0EE0FFF1FE05DFE4F808183
:102B800091810E940707D3CFCD3E88F28C2F0E94FF
:102B9000EE070E94470FCBCF1F93CF93DF93182FE1
:102BA000D0E0C0E0893311F4C0E5D0E0812F0E946D
:102BB0005815209739F4812F0E942315DF91CF916A
:102BC0001F9108958FE99FE00197F1F700C0000081
:102BD0002197EFCF0F931F93CF93DF93C62FD42F5F
:102BE000022FFC0182818823A9F06093D7040E9400
:102BF0003B0F9093D6048093D504C77081E001C049
:102C0000880FCA95EAF70E941915DF91CF911F919D
:102C10000F9108958091D704681332C08091D50434
:102C20009091D6040E942C0F883C910548F510E243
:102C30001D0FCD17B9F080E28C0F883040F4C770BB
:102C400081E001C0880FCA95EAF70E94121518307A
:102C500048F481E09D2F977001C0880F9A95EAF79C
:102C60000E941915802F0E94CC15183070F6D7706D
:102C700081E001C0880FDA95EAF70E941215C5CFEE
:102C8000C77081E001C0880FCA95EAF7F6CFB0E0BF
:102C9000A0E0EDE4F6E10C947A25EC018AE0A82EA0
:102CA000FE012491222309F497C0213009F03EC08F
:102CB00031968491813031F42296FE0184910E94F4
:102CC000CC1507C0823039F42296FE0184910E940F
:102CD00058152196E5CF833031F42296FE01849178
:102CE0000E942315F6CF843009F074C02296FE01AD
:102CF000249190E080E0FE0131962053330B2A307E
:102D0000310548F0019728F3EFE9FFE03197F1F73B
:102D100000C00000F7CFA89EA001A99E500D11246D
:102D2000C901840F951F2491EF01E5CFE22FF0E058
:102D3000E452FF4FB490822F86958695869590E059
:102D4000FC01E453FF4FE4902770F12C022E02C0E7
:102D5000F594E7940A94E2F731E0E322FF24FC01C2
:102D6000E454FF4FC490D12C022E02C0D594C794D6
:102D70000A94E2F7E1E0CE22DD24FC01E455FF4FA6
:102D8000049110E002C0159507952A95E2F70170AD
:102D90001127E114F10419F081EE0E945815C114B5
:102DA000D10419F086EE0E9458158B2D0E94CC1587
:102DB000C114D10419F086EE0E942315E114F10428
:102DC00019F081EE0E9423150115110509F481CF38
:102DD0008CE275CFEF017DCFCDB7DEB7EAE00C9482
:102DE0009625A5E0B0E0E7EFF6E10C9474257C01B0
:102DF000DC0113968D919C911497892B39F08C915D
:102E000011969C9189238F3F09F019C52596E0E121
:102E10000C9490250E94630A182F682F89819A814B
:102E20000E94E10A69817A81812F0E94A4088C01A5
:102E3000FC01EE5AFD45E031F10508F0B7C0E95D4F
:102E4000F94DD70112968C910C94BD25882321F061
:102E500086EB92E00E944716F7018281882309F4ED
:102E600001C51092D7040430FDE51F0708F0E9C042
:102E70000B3F2CE5120730F4C80182509C45449763
:102E800008F0E9C00E94A30C9093A2048093A104CF
:102E900001319CE5190709F4BBC108F035C10930BF
:102EA000BCE51B0709F4A2C108F000C10530FCE530
:102EB0001F0709F493C108F0E5C003303CE5130790
:102EC00009F482C108F086C18091A10481600230BA
:102ED0009CE5190709F47BC16091A1041091A2043B
:102EE00084E090E00E94E725612F82E290E00E945A
:102EF000E7250E94F1117FC0882309F4ADCF8EE948
:102F000092E0A8CF882309F4A7CF86E892E0A2CF69
:102F1000882309F4A1CF8DE692E09CCF882309F4A1
:102F20009BCF85E592E096CF882309F495CF8DE37A
:102F300092E090CF882309F48FCF85E292E08ACF88
:102F4000882309F489CF8DE092E084CF882309F4A7
:102F500083CF89EF91E07ECF882309F47DCF85EE82
:102F600091E078CF882309F477CF80ED91E072CF9C
:102F7000882309F471CF89EB91E06CCF882309F4A1
:102F80006BCF8FE991E066CF882309F465CF8BE89A
:102F900091E060CF882309F45FCF84E791E05ACFB6
:102FA000882309F459CF8CE591E054CF843FBCE5E8
:102FB0009B07C1F180F4893DFCE59F0779F18A3DCB
:102FC0002CE59207D9F1883D9C4509F045CF26E2D2
:102FD00041EE61EE0DC0063F8CE5180759F130F166
:102FE00027E245EE66EE073FACE51A0709F034CF5D
:102FF000C7010E94EA158091ED01877009F406CFA0
:10300000D70112968C91882309F400CF8091A204F5
:1030100082FFFCCE82E00E948811F8CE27E245EEC6
:1030200065EEE6CF26E241EE60EEE2CF27E245EE26
:1030300064EEDECF26E241EE62EEDACF28E241E036
:10304000EFCF02363DE5130709F41CCF063A8DE5B4
:10305000180709F417CF0631ACE51A0709F011C4B7
:1030600080910F028A7A91E009F490E090939401A4
:1030700069E2811165E384E791E00E94D2060E9433
:10308000D710B9CF8091A10480620730ACE51A0750
:1030900009F49DC08091A10480610830BCE51B0744
:1030A00008F495C08091A104806491C08091A1042E
:1030B0008B7F0D30ECE51E0709F489C0A0F48091E8
:1030C000A1048E7F0B302CE5120709F480C080919B
:1030D000A1048C600C303CE5130708F478C08091A3
:1030E000A1048D7F74C00F308CE5180709F48CC0E3
:1030F0008091A104877F00319CE5190708F467C01F
:103100008091A1048F7D63C00E3FACE51A0709F4DE
:1031100077C058F50531ECE51E0709F483C098F433
:103120008091A104837F03312CE5120709F44FC07D
:1031300008F472C00E94F1119091A104892F97FBAD
:1031400087F9805844C00C3F8CE5180709F44AC041
:1031500008F052C08091A20481600B3FACE51A07D1
:1031600009F0BACE8093A204B7CE0230BDE51B07AA
:1031700009F464C0C0F48091A2048C7F0115FDE5C0
:103180001F0781F38091A204836001302DE51207AF
:1031900048F38091A204982F909591708E7F892B8F
:1031A00090FB81F9DFCF02363DE5130709F44CC0EF
:1031B000063A8DE5180709F44EC003309DE519075E
:1031C00009F08ACE60E03BC08091A10482608093C8
:1031D000A10482CE8091A1048460F9CF8091A104E2
:1031E0008860F5CF8091A2048260BCCF0E94F1116B
:1031F0008091A1048068EBCF8091A2048E7FB2CF32
:103200008091A2048D7FAECF8091A1048F7EDFCF0D
:103210008091A1048F7BDBCF0E94F1118091A104EA
:103220008F77D5CF8091A10482FB992790F921E077
:10323000922790FB82F990FB83F9C9CF61E08EE081
:1032400090E00E94E72548CE9091A104892F8F7EBF
:1032500094FF8061BCCF9091A104892F8E7F90FF55
:103260008160B5CF0E94F111BFEFE4E3FCE0B15003
:10327000E040F040E1F700C000000E948B06809122
:10328000A20482FB882780F991E089270E94A81177
:10329000F701828100811181882309F448C0C801A7
:1032A0000E94630AD82E682FC8010E94E10AB80163
:1032B0008D2D0E94A4080E94BF088C01882ED70182
:1032C0001296DC90129715969C9092943FE0932270
:1032D0008091ED018770C1F0BD2CDD20B1F0812F10
:1032E000807F803421F080E2800F883068F0809108
:1032F000A20482FF09C082E00E9488118091ED0142
:103300008770BB24B3948111B12CA12EA2942FE01D
:10331000A222BBE0BA1508F476C0EA2DF0E0E95C21
:10332000F94D0C94BD2581E0B1CF80E0AFCFC8014D
:103330000E94AC0AD82EBBCFE12FEF70CE2E107FAB
:1033400019F0C29490EFC922DD20B9F0CC2069F0C9
:1033500080E2800F883010F0811009C080910F0248
:10336000C82AC0920F020E94D710802F4AC08091B5
:103370000E02C82AC0920E02F6CF802F0E9423159B
:10338000CC2009F440C0005E083010F0811004C069
:103390008C2D0E94520A06C0C09480910E02C82251
:1033A000C0920E020E94D7102EC0F12FFF70CF2EB8
:1033B000107F103219F0C29480EFC822882089F063
:1033C00021E0821609F47DC0DD2009F486C0992031
:1033D00009F455C0F701858180FFC7CF8F708583C1
:1033E0004EC09091A20492FD43C0DD20D9F1CC20C3
:1033F00039F080910F02C82AC0920F020E94D710A4
:1034000080E00E945815AA2DA850BB0B149710F409
:103410000E94920CBB20A9F08091ED0180FD11C0AB
:10342000F70112828595859585950E94C411C70183
:103430000E94F1168091ED018595859585950E94F4
:10344000641185E0F701DE01119601900D928A95D5
:10345000E1F709811A81C8010E94AC0AB8010E94F3
:10346000A408D4CC80E00E942315CC2061F290CF38
:10347000DD20D1F080911202C82A911004C08C2D59
:103480000E941915C0CF31E09312F9CF92FFBBCF44
:103490008C1509F4B8CF0E943B0F909311028093D2
:1034A0001002C0921202AFCF911006C00E94470ACC
:1034B0008C2D0E941215A7CF81E0981609F4A3CF96
:1034C000F5CFDD2029F095E0991508F49CCFD7CFF2
:1034D000A4E0A91508F497CFEBCF992049F3F9E3BD
:1034E0008F1209C02FEF37EE83E02150304080402B
:1034F000E1F700C00000802F0E94231584CF812FA8
:1035000086958695837061F0813009F07CCFC80183
:103510009370D11002C090E080E00E94070773CF43
:10352000C8019370D11002C090E080E00E941D0796
:103530006ACF802FDD2029F00E94EE070E94470FFE
:1035400062CF0E943307FACF812F837009F066C0E3
:10355000D11059CF802F829586958770880F880F5C
:10356000602F6F70462E512C712C612C082E04C0D8
:10357000440C551C661C771C0A94D2F740E050E0BE
:10358000BA0104FF0FC04FE050E060E070E004C0FB
:10359000440F551F661F771F8A95D2F740955095A7
:1035A00060957095812F869586958370823019F18C
:1035B000D8F4009113021091140220911502309159
:1035C0001602813069F04429552966297729CB01F3
:1035D000BA0160237123822393230E94E61113CF43
:1035E000402A512A622A732ACB01BA01642975291B
:1035F00086299729F2CF44295529662977290091F0
:103600001302109114022091150230911602CB0181
:10361000BA016027712782279327DFCF8695DD20A7
:1036200011F0812F8170882309F4EDCE802F8295CF
:1036300086958770880F880F602F6F70462E512CEB
:10364000712C612C082E04C0440C551C661C771C80
:103650000A94D2F740E050E0BA0104FF0FC04FE0F7
:1036600050E060E070E004C0440F551F661F771FF4
:103670008A95D2F74095509560957095812F8695E3
:1036800086958370823019F1D8F40091460210912A
:1036900047022091480230914902813069F0442963
:1036A000552966297729CB01BA016023712382232A
:1036B00093230E945911A7CE402A512A622A732AC5
:1036C000CB01BA016429752986299729F2CF4429AB
:1036D00055296629772900914602109147022091C9
:1036E000480230914902CB01BA0160277127822735
:1036F0009327DFCF1F70DD2029F0812F0E94C41196
:10370000802FBECE802F0E941215812F0E9464113F
:103710007ACE802F92EF891609F43FC0981570F089
:10372000A0EF8A16D1F0B1EF8B1691F0DD2009F4ED
:1037300076C091101ACE812F8F7133C0E3EF8E16B1
:1037400099F1F4EF8F12F2CF8091A20482FD3FC075
:10375000812F8F71DD20D1F224C0DD20C9F024E05B
:10376000291508F450CE1F7161E070E080E090E010
:1037700004C0660F771F881F991F1A95D2F7009112
:103780004602109147022091480230914902ADCF84
:1037900035E0391508F437CEE6CF812F8F71D1107F
:1037A000B5CF0E94C4112FCE60E070E0CB01DD20C8
:1037B00009F47FCF1F7161E070E080E090E004C009
:1037C000660F771F881F991F1A95D2F772CFDD20D9
:1037D000D9F01F71812F0E94C4118091A20482FF31
:1037E00011C0A8E01A9FC001112483608093ED01ED
:1037F000812F0E94C4110E943B0F9093EC01809393
:10380000EB0101CE812FCDCF81E00E948811B1E084
:10381000B91508F0F8CD82E00E948811F4CD992006
:1038200059F0893309F067CEEFEFF7EE23E0E1506E
:10383000F0402040E1F75DCE812F8F7167CF85E0AA
:10384000F701DE01119601900D928A95E1F7D701FB
:1038500012962C9189819A812111DCCA0E94AC0AAE
:10386000182FE0CA0631BCE51B0709F011CD809185
:10387000940169E2811165E384E791E00E94A80662
:10388000FECB0B35EDE51E0709F44DCD68F40115AF
:103890002CE5120709F4E6CC0F3D1C4509F0F8CCE5
:1038A0000E94C30D0E94FC140D358DE5180709F424
:1038B000E6CC08F43ACD083A1D45A1F3E9CC1F93B4
:1038C000CF93DF938091B801807F09F049C0809148
:1038D000B501882309F444C08091EA01D091B9016F
:1038E0006091B3017091B401A091B601B091B7019C
:1038F000C62FC72316E0D81799F190E0109711F062
:10390000CF3F19F401968770F6CF189F9001199F49
:10391000300D1124F901E654FE4F41814713F2CFD7
:1039200040814613EFCF42814111ECCF4381548156
:103930004A1B5B0B483C510528F78091B8018F70FA
:1039400080618093B801F901E154FE4F80818F704E
:103950008061808383EB91E00E94F1160E94590AF6
:10396000DF91CF911F910895A1E1B0E0EAEBFCE176
:103970000C947A258C0185E0F801DE011D960190FA
:103980000D928A95E1F7F801E28083EBA82E81E0A1
:10399000B82E6091B6017091B7016115710509F4F7
:1039A00016C19091B3014091B401892F84238F3FB8
:1039B00009F40DC120813181C380D480F090B5011C
:1039C000F601E61BF70BFF2009F4E8C08091B8016F
:1039D000582F507FE83CF10508F0ABC051116BC087
:1039E000FE2C431314C0921312C0E11010C08F704C
:1039F00080618093B801C5010E94F1168091B801E1
:103A0000F80185838F2D6196EAE00C949625C11408
:103A1000D10429F0822F83238F3F09F0F3C080E087
:103A2000F82FF170DF2E80FF3CC08091EA014091B9
:103A3000B90156E0841315C02D873E878D859E857C
:103A40000E949F0A292F22952F702230F0F02430F7
:103A500018F59F70F1F0F8019581907FD1F4D12C89
:103A60001EC090E0589FF001599FF00D1124E654BC
:103A7000FE4F6181361306C06081261303C0628148
:103A8000E6120FC001968770D5CF9F7011F0882382
:103A900031F3805E883018F3C8010E94F116FD2CC6
:103AA000B1CFEE2009F4AECF8091B8018160809350
:103AB000B801F12CA7CF431312C0921310C0E1102C
:103AC0000EC0F8018583C8010E94F11686E0F80156
:103AD000A3EBB1E001900D928A95E1F793CFC80175
:103AE0000E94190B882309F1EE20F9F08091B801AA
:103AF000803270F02091B3013091B40138872F8368
:103B00001986DB86CA868C87CE0107960E94F1163D
:103B100086E0F801A3EBB1E001900D928A95E1F700
:103B20000E945F1CFF24F3946DCFC8010E94F11620
:103B3000F9CF51110AC083EB91E00E94F11686E0A3
:103B4000F50111928A95E9F7B4CF43130FC0921390
:103B50000DC0E1100BC0F8018583C8010E94F11669
:103B600086E0F50111928A95E9F74CCFC8010E94D1
:103B7000190B8823D1F2EE20C1F28091B801803276
:103B800038F22091B3013091B4013A8329831B822A
:103B9000DD82CC828E83CE010196B8CFE83CF10560
:103BA000F8F6FE2CEE2009F2431303C0921709F435
:103BB0008DCFC8010E94190B8111AACF8091B80145
:103BC00081608093B801C8010E94F1161BCFEE20DE
:103BD00009F4ABCFC8010E94190BF82E882309F411
:103BE000A4CF86E0F801A3EBB1E001900D928A9595
:103BF000E1F78091B3019091B4010E949F0A0E9465
:103C00005F1C00CF81E08E250BCFA7E1B0E0EBE099
:103C1000FEE10C9481254B8B5C8B6D8B7E8B8F8BA7
:103C2000611110920E021A8A198A85E0FE017396BC
:103C3000DE011D9601900D928A95E1F78091A20414
:103C400082FF1CC00E943B0F2091EB013091EC01E0
:103C5000821B930B8C3D954020F08091ED0182FFFB
:103C600079C00E943B0F2091100230911102821BFB
:103C7000930B8C3D954010F00E94470A86E0FE01B0
:103C80003D96DE01179601900D928A95E1F7CE01DF
:103C900007960E94B41C882359F016E08091EA012F
:103CA0009091B901891343C06796E3E00C949D2578
:103CB00086E0FE013796DE01119601900D928A95FD
:103CC000E1F78A859B85892B41F38F81988589232C
:103CD0008F3F19F32091B90130E0C9010196877037
:103CE00099274091EA014817190671F40E94F111D1
:103CF0001092B9011092EA0186E0E3EBF1E0DF01F6
:103D00001D928A95E9F7C9CF96E0929FD001939FC3
:103D1000B00D1124A654BE4FFE01319601900D92B4
:103D20009A95E1F78093B9010E94590AB6CF819F15
:103D3000C001112486549E4F0E94B41C882309F4AC
:103D4000B3CF8091EA0190E0019687709927809324
:103D5000EA01A4CF82E00E94881183CF1F921FB690
:103D60001F9211248F939F93AF93BF9380919C04D4
:103D7000811113C080919D0490919E04A0919F0495
:103D8000B091A0044196A11DB11D80939D04909314
:103D90009E04A0939F04B093A004BF91AF919F9104
:103DA0008F911F901FBE1F901895CDB7DEB76297F9
:103DB0000FB6F894DEBF0FBECDBF85B7806885BF54
:103DC00085B7806885BF84B7877F84BF0FB6F894B6
:103DD000A8958091600088618093600010926000D7
:103DE0000FBE80E890E00FB6F89480936100909346
:103DF00061000FBE88E498E0909373018093720194
:103E00000E9403050E94CE058091E20084608093A9
:103E1000E20078948091CB048823A1F01091E9000E
:103E20001F709091EC00892F817090FD80E8182B15
:103E30001092E9008091E80083FD0E9407121F7034
:103E40001093E90082E084BD93E095BD9AEF97BDA1
:103E500080936E00109238021092390210923A024A
:103E600010923B020E946F0C809318010E946F0C0D
:103E700081110E94FC23809118018091180194E027
:103E8000811190E09093450284E0891B8093440265
:103E900084E90E944A0886E60E944A0887E90E944F
:103EA0004A0886EC0E944A0804E611E0D8018D9188
:103EB0008D018F3F11F00E944A08B1E00A361B07BE
:103EC000A9F788E0EAE4F2E0DF01282F1D922A95A5
:103ED000E9F7ECE3F2E0DF011D928A95E9F790E063
:103EE00080E00E94E125883E9E4F11F00E94C30DA4
:103EF00082E090E00E94D925809352020E94A30C98
:103F00009093A2048093A1040E946E0FEFE3FCE95A
:103F10003197F1F700C000000E946E0F0E946F0CF5
:103F2000E4E08111E0E0F0E0E65BFD4F808181FF9D
:103F300008C06FEF7FEF90E080E00E9405260E94AE
:103F40008B0683E090E00E94D925682F70E090E016
:103F500080E00E94E61110927C0480E880935B026E
:103F60000E94B3226DE070E081E298E00E94390B7C
:103F7000892BC9F580917C0463E070E081FDEBC181
:103F80008EE198E00E94390B892B69F56DE070E0B5
:103F90008EE098E00E94390B892B29F50E949C063F
:103FA000605A75418F4F9F4F6093900470939104B6
:103FB0008093920490939304ECE7F2E080E092E027
:103FC000DF019C011D9221503040E1F78FEF9FEF00
:103FD00090937F0480937E0481E080939504809386
:103FE000940410927D040E946F0C811102C00E9403
:103FF000FF2389E191E090939904809398046624CB
:104000006394712C8091CB0400E112E1853009F4B6
:10401000DFC10E946E0FD82E81110E949C06AAE477
:10402000B2E0E3E5F2E010E000E0B02EED90819127
:104030008E1509F4DCC18E25C12CFF24F394982F32
:104040009F2109F4CFC10E946F0C882399F0CF8281
:10405000B886EF2081E009F480E089870E943B0F59
:104060008160782F9B878A874F81588569858B85EA
:104070000E94051EF801ED5AFD4F8081F826F0825E
:104080000E946F0C80919504882309F486C080916A
:104090008004909181040E942C0FC29730F00E94FE
:1040A0003B0F909381048093800420917E04309193
:1040B0007F042115310509F457C080917D048111D9
:1040C00053C0082F10E07301082E02C0EE0CFF1C35
:1040D0000A94E2F7A9014E215F21452B09F49EC104
:1040E00090917C0490FD9CC18295880F807680938E
:1040F00027019801369527953695279520932A0113
:10410000815E8093280110922B0124E630E047E085
:1041100050E065E271E088E70E945623892B21F583
:10412000A80125E0440F551F2A95E1F780917C04F2
:1041300080FD84C144585D4F04E610E020E230E089
:1041400060E488E70E947723892B71F40E947E0B3C
:10415000E094F09480917E0490917F04E822F9220B
:10416000F0927F04E0927E04809194048823A9F069
:104170000E949C0600919004109191042091920459
:1041800030919304601B710B820B930B6F3F7F4F39
:104190008F4F9F4710F40E94630BD1100E947E0B3B
:1041A00086E0EAE8F4E0DE01119601900D928A952E
:1041B000E1F710928C0410928D0410928E041092EC
:1041C0008F048B819C81892B09F44AC080918804DB
:1041D000909189040E942C0F9C0190918404992352
:1041E00009F4BCC125313105D8F19F3F19F09F5F1B
:1041F000909384041B81112359F00E94CE079FEFF6
:1042000011160CF491E0899F802D112480938C0469
:104210001C81112359F00E94CE079FEF11160CF458
:1042200091E0899F802D112480938D0430918C041E
:104230003323B1F020918D04222391F045EB340318
:10424000C0011124992309F45EC190938C0445EBBD
:10425000240390011124332309F459C130938D04B0
:104260008D819E81892B09F44AC0809186049091AA
:1042700087040E942C0F9C0190918304992309F4D8
:1042800068C121353105D8F19F3F19F09F5F9093A8
:1042900083041D81112359F00E94AC079FEF111672
:1042A0000CF491E0899F802D112480938E041E814F
:1042B000112359F00E94AC079FEF11160CF491E006
:1042C000899F802D112480938F0430918E04332395
:1042D000B1F020918F04222391F045EB3403C0010B
:1042E0001124992309F417C190938E0445EB2403FC
:1042F00090011124332309F412C130938F0446E056
:1043000050E0BE016F5F7F4F8AE894E00E94C325B2
:10431000892B61F480918C0490918D04892B90916C
:104320008E04892B90918F04892B11F00E94470FE6
:1043300086E0FE013196AAE8B4E001900D928A95DC
:10434000E1F70E94920C90918204891709F45ACEE9
:104350008093820454CE8BE198E014CE8091CB04FC
:10436000843031F10E94630B10929C0488E190E04C
:10437000A0E40FB6F894A895809360000FBEA093B8
:10438000600083B7817F846083BF83B7816083BF10
:104390007894889583B78E7F83BF0FB6F894A895DD
:1043A00080916000886180936000109260000FBE71
:1043B0008091CA04882361F00E946E0FEAE4F2E063
:1043C00081918111B0C022E532E02E173F07C1F77D
:1043D0008091CB04853009F4C1CF0E94F1110E9475
:1043E000920C17CEC394FF0C36E0C31228CE0F5F99
:1043F0001F4F0830110509F018CE8FEF8C878D877D
:104400001E860E943B0F8160782F988B8F874C858A
:104410005D856E8588890E94051E32CE8F5F51CEE4
:10442000880F880F880F8093270110922A01895FD7
:104430008093280183E080932B0167CEECE5F2E0C6
:1044400080E2DF011D928A95E9F7EEE6F1E0FA8B52
:10445000E98B0AE611E092E7292E91E0392EA9892D
:10446000BA892D91BA8BA98BF80141908F01440E26
:10447000552E511CC20184589D4F2C01E22FF0E0B3
:10448000E45AFD4F30E020E087E0982E921AC62CC7
:10449000022E01C0CC0C0A94EAF7520190E0D5013B
:1044A0008D915D018C21692D691B6770862E062E0A
:1044B000000C770BB82F01C0BB0F8A94EAF78B2E44
:1044C0007195619571096770772701C086956A9526
:1044D000EAF7882A8081882A80829F5F9830F9F6DF
:1044E0002F5F3F4F31962830310571F6E989FA89FF
:1044F0002E163F0609F0B3CF04E610E020E230E0CC
:104500004CE552E01DCE81E080938C04A0CE81E08A
:1045100080938D04A5CE81E080938E04E7CE81E068
:1045200080938F04ECCE09BD19BD09B400FEFDCF08
:104530008091D8008F7D8093D8008091E0008260C8
:104540008093E0008091E00081FDFCCF0E94F1119A
:104550003FCF2B30310508F099CED1CE2B3031052D
:1045600008F045CE7DCE1092B9008CE08093B80063
:104570000895B0E0A0E0EFEBF2E20C947925B82EBC
:10458000EB010E943B0F6C01EE24E394F12CC4314B
:10459000D10560F025E0E22EF12CCF3FDC0731F0B1
:1045A000CE0164E170E00E945E257B0184EAA82EC2
:1045B00094E8992E1092BC00A092BC000E943B0F80
:1045C0008C018091BC0087FF0DC08091B900887F6D
:1045D000883001F18091B900887F8031D9F00FEFE8
:1045E0001FEF09C00E943B0F801B910B8E159F058A
:1045F00040F30EEF1FEFCF3FDC07E1F2C6010E9450
:104600002C0F8C179D07B0F2C801CDB7DEB7EBE0D9
:104610000C949525B092BB009092BC000E943B0F79
:104620008C018091BC0087FF0AC08091B900887F0F
:10463000883111F0803499F610E000E0E5CF0E9457
:104640003B0F801B910B8E159F0558F3D2CF0F9314
:104650001F93CF93DF93EB018093BB0084E880939B
:10466000BC000E943B0F8C018091BC0087FF11C0F1
:104670002091B900287F81E090E0283211F490E089
:1046800080E0919581959109DF91CF911F910F91D4
:104690000895CF3FDC0741F30E943B0F801B910B35
:1046A0008C179D0708F38EEF9FEFEECFB0E0A0E0F0
:1046B000ECE5F3E20C947C256B018A017901B901E8
:1046C0000E94B922E6010C0D1D1DC017D10711F083
:1046D00097FF08C024E92093BC00CDB7DEB7E8E01F
:1046E0000C949825B70189910E942723EECFB0E062
:1046F000A0E0EDE7F3E20C947C25C62F6A01790176
:10470000B8010E94B92297FD0CC0B8018C2F0E94FD
:104710002723E601EC0CFD1CCE15DF0511F097FFF9
:1047200008C024E92093BC00CDB7DEB7E8E00C94C4
:104730009825B80189910E942723EECF84E98093C0
:10474000BC0008958EE14A9B02C08150E1F74A9B6C
:10475000FECF08955A9880E28A95F1F75A9A089503
:10476000FC013BE03A95F1F798E020E080E031E091
:1047700040E14A95F1F7880F4A9B02C081602327E8
:1047800042E04A95F1F7000040E14A95F1F7915077
:1047900079F790E19A95F1F799B132E03A95F1F70E
:1047A000000040E14A95F1F792FB992790F9922792
:1047B0002081920F90830895A1E0B0E0E2EEF3E251
:1047C0000C947E2519828C017C01E60EF11C0E15DD
:1047D0001F0541F481E09981911180E02196E6E086
:1047E0000C949A250E94A223CE0101960E94B02328
:1047F000F80181938F01EBCF529A5A9A08955298FB
:104800005A9AEA9AE9E6F0E080818F7C80830895E5
:104810006150770B91E001C0990F6A95EAF720E0AB
:1048200031E0911108C0222391F05A9A80E28A95D2
:10483000F1F75A980895492F482339F05A9A2327B7
:1048400040E24A95F1F79695ECCF5A98F9CF5A98ED
:10485000EDCFFF920F931F93CF93DF93EC018C0169
:10486000060F111DC017D10729F4CDB7DEB7E5E05B
:104870000C949B25F9900E94AA2368E08F2D0E943A
:104880000824F0CF1F920F920FB60F9211240F93AE
:104890001F932F933F934F935F936F937F938F93C8
:1048A0009F93AF93BF93EF93FF93CF93DF930F92B9
:1048B000CDB7DEB719820E94A223CE0101960E94D5
:1048C000B023082F069506950695282F229525706A
:1048D000902F9570290F922F937026952695920F01
:1048E000982797708981982B09F05CC0043008F0F4
:1048F00059C080E18A95F1F75A9A529A82E08A95D6
:10490000F1F700C05A9888E0089F80011124D8016F
:10491000A050BF4F1696ED91FC9117973097A9F0D4
:1049200060915E0170915F0114962D913C911597F5
:10493000260F371F11968D919C911297680F791F42
:1049400013964C9113978C910995F801E050FF4F05
:104950006381662351F020915E0130915F01848173
:104960009581820F931F0E9429240E94AA2380E12F
:104970008A95F1F75A9852985A9A80E18A95F1F7F8
:10498000F801E050FF4F6081662351F020915E01F5
:1049900030915F0181819281820F931F0E94DC23FD
:1049A0000E94A2230F90DF91CF91FF91EF91BF91D1
:1049B000AF919F918F917F916F915F914F913F91B7
:1049C0002F911F910F910F900FBE0F901F90189570
:1049D0000F931F93CF93DF93EC0104970CF04CC01F
:1049E000F894529A5A9885E08A95F1F700009C2F26
:1049F000969595708C2F8570980F892F837096955A
:104A0000969523E0CC0FDD1F2A95E1F7980F8E01D4
:104A1000092B0E94AA2300C068E0802F0E9408246E
:104A200080E18A95F1F752985A9A4A9B1EC087E016
:104A300090E04A991CC0FE01E050FF4F638166235D
:104A4000F9F020915E0130915F0184819581820FA0
:104A5000931F0E94DC23811113C0529A5A9A7894B2
:104A6000DF91CF911F910F91089500C0DECF019784
:104A700029F4529A5A9A789480E0F2CF00C0D9CFA4
:104A80000E94A22380E28A95F1F75A98529A80E117
:104A90008A95F1F7C050DF4F6881662351F020916D
:104AA0005E0130915F0189819A81820F931F0E947C
:104AB00029240E94AA23789481E0D2CFAA1BBB1B91
:104AC00051E107C0AA1FBB1FA617B70710F0A61B0E
:104AD000B70B881F991F5A95A9F780959095BC012F
:104AE000CD0108952F923F924F925F926F927F92E5
:104AF0008F929F92AF92BF92CF92DF92EF92FF92EE
:104B00000F931F93CF93DF93CDB7DEB7CA1BDB0B99
:104B10000FB6F894DEBF0FBECDBF09942A8839883E
:104B200048885F846E847D848C849B84AA84B98445
:104B3000C884DF80EE80FD800C811B81AA81B98151
:104B4000CE0FD11D0FB6F894DEBF0FBECDBFED0165
:104B5000089597FB072E16F4009407D077FD09D02F
:104B60000E945E2507FC05D03EF4909581959F4FED
:104B70000895709561957F4F0895EE0FFF1F059082
:104B8000F491E02D0994FB01DC0104C08D910190AA
:104B9000801921F441505040C8F7881B990B0895A3
:104BA000FB01DC0102C001900D9241505040D8F74A
:104BB0000895F999FECF92BD81BDF89A992780B5E5
:104BC0000895A8E1B0E042E050E00C940D26262FB5
:104BD000F999FECF92BD81BDF89A019700B40216F3
:104BE00039F01FBA20BD0FB6F894FA9AF99A0FBEA1
:104BF00008950396272F0E94E8250E94E725252F78
:104C00000E94E825242F0C94E8250196272F0E9466
:104C1000E8250C94E725DC01CB01FC01F999FECFD6
:104C200006C0F2BDE1BDF89A319600B40D92415034
:104C30005040B8F70895F894FFCFE6120E13A6146B
:104C40000E13A61441136213A6145F146C142617D6
:104C50007C17821788178E1794179A17A017A61714
:104C6000AC17B217B817BE17C417CA17D0179C19BC
:104C70009C19D519D5197F1A991A031A031AA41A5F
:064C80007A1B891B891B51
:104C86000000000100000000000000040100000018
:104C96000405000000000000018806FC0BDB0BD6B3
:104CA6000BD10B87060021007F220003018182833E
:104CB600E200E900EA00B500B600B700CD008301C6
:104CC600CC008A01920194012102230224022502CA
:104CD600260227022A02B300B4006F0070002A02DF
:104CE600946697C6F4F5F6F73133000810181810D5
:024CF6000800B4
:00000001FF
