:100000000C9459050C9476050C9476050C94E82410
:100010000C9476050C9476050C9476050C94760574
:100020000C9476050C9476050C947E0F0C940716B0
:100030000C94EB1E0C9476050C9476050C947605C6
:100040000C9476050C9476050C9476050C94760544
:100050000C9476050C9457100C9476050C94760548
:100060000C9476050C9476050C9476050C94760524
:100070000C9476050C9476050C9476050C94760514
:100080000C9476050C9476050C9476050C94760504
:100090000C9476050C9476050C9476050C947605F4
:1000A0000C9476050C9476050C94760500461400A5
:1000B0001A000900130005002B00040015001600AB
:1000C00017000A0029001D611B64060007001900C3
:1000D00000000000000002552A4229430046340077
:1000E0001C0018000F000D00045412000C00080042
:1000F0001100100007533871377436000B000E00E2
:100100000000000000004C782C4528000046140038
:100110001A000800150017002B0004001600070045
:1001200009000A0029001D611B6406001900050072
:1001300000000000000002552A4229430046130037
:1001400012000C0018001C00045434000F000E00B4
:100150000D000B0007533871377436001000110082
:100160000000000000004C782C4528000000000032
:1001700000000000000000000000E000E200E300DA
:10018000E10000000000000000000000000000008E
:10019000000000000000000000000000000022023B
:1001A000260025002400250237002E00230022000F
:1001B00021002E020000000020001F001E0021026E
:1001C00000000000000027002C002D0000000000AF
:1001D00000000000000000000000E000E200E3007A
:1001E000E10000000000000000000000000000002E
:1001F00000000000000000000000000000003702C6
:1002000030002F00360200000000330027022602D3
:1002100033022E02000031003102240234020000B9
:1002200000000000000035002C002D02000000003E
:100230000000200A210A0000000088002C012C097F
:10024000390000000000005DFF5C01520052000018
:10025000000000000000A800AE00AB00000000009D
:100260000000000000000000000017001100160050
:100270002C080000000010001000170017000000FC
:100280000000000000000000000000000000350831
:100290002B084A004D0000002F085000510052006A
:1002A0004F00300800007A007B007C007D000000D9
:1002B0000000000000002B002A00290000000000C0
:1002C00000000000000000000000E400E600E7007D
:1002D000E5000000000000000000F900FA00000046
:1002E0000000000000000000000000000000E0002E
:1002F000E200E300E10000000000AC00AA00A90059
:10030000AB0000000000BE5CBE00BD00BF5C000092
:10031000000000000000A800AE00AD0000000000DA
:100320004200410040000000450044003F003E0004
:100330003D000000000000003C003B003A000000CF
:100340000000000000004300000000001E00140038
:100350001A000800150017001F000400160007000F
:1003600009000A00E1001D001B000600190005003D
:10037000000000000000E0002C00E3002400230047
:10038000F900ED00FA00200026002500F000EE0044
:10039000EF00210001002700FC00F300FB00220019
:1003A000000000000000F200F100280000DA0281E5
:1003B000FFD9F1DB20A4A62EAF00A0C000A1C80089
:1003C000AED580A81FD300408D1420000A004650EF
:1003D0005300535953004E4156003153484F540077
:1003E000434F4445004E554D005157545900434C1E
:1003F0004D4B004C6179657200497A756D690A76DA
:10040000352E310A0A0000AF00AE05010902A10134
:1004100085020901A1000509190129081500250116
:100420009508750181020501093009311581257F83
:1004300095027508810609381581257F9501750893
:100440008106050C0A38021581257F950175088102
:1004500006C0C005010980A101850319012AB70062
:10046000150126B700950175108100C0050C090122
:10047000A101850419012AA002150126A0029501F7
:1004800075108100C005010906A10185060507193F
:10049000E029E71500250195087501810205071976
:1004A0000029EF1500250195F07501810205081955
:1004B000012905950575019102950175039101C00A
:1004C00005010906A101050719E029E71500250125
:1004D00095087501810295017508810105071900CC
:1004E00029FF150026FF00950675088100050819EB
:1004F000012905950575019102950175039101C0CA
:1005000009023B00020100A0FA09040000010301F6
:1005100001000921110100012240000705810308A3
:10052000000109040100010300000009211101007C
:100530000122B6000705820320000112010002001B
:10054000000008534601000100010200010C0343B2
:10055000006F0072006E0065000000100366006FFF
:10056000006F007300740061006E00000004030956
:10057000040000000000003E5B4F5B3E003E6B4FFE
:100580006B3E001C3E7C3E1C00183C7E3C18001C50
:10059000577D571C001C5E7F5E1C0000183C180035
:1005A00000FFE7C3E7FF00001824180000FFE7DBA7
:1005B000E7FF0030483A060E002629792926004038
:1005C0007F05050700407F05253F005A3CE73C5A60
:1005D000007F3E1C1C0800081C1C3E7F0014227F6C
:1005E0002214005F5F005F5F0006097F017F00004B
:1005F0006689956A0060606060600094A2FFA294C2
:100600000008047E04080010207E20100008082A3C
:100610001C0800081C2A0808001E10101010000CEE
:100620001E0C1E0C0030383E383000060E3E0E0602
:100630000000000000000000005F00000000070054
:10064000070000147F147F1400242A7F2A1200233D
:100650001308646200364956205000000807030062
:1006600000001C224100000041221C00002A1C7FC7
:100670001C2A0008083E08080000807030000008AE
:10068000080808080000006060000020100804024C
:10069000003E5149453E0000427F400000724949FA
:1006A0004946002141494D33001814127F1000279C
:1006B00045454539003C4A49493100412111090766
:1006C00000364949493600464949291E00000014B0
:1006D0000000000040340000000008142241001413
:1006E00014141414000041221408000201590906D0
:1006F000003E415D594E007C1211127C007F494939
:100700004936003E41414122007F4141413E007F48
:1007100049494941007F09090901003E414151739E
:10072000007F0808087F0000417F41000020404111
:100730003F01007F08142241007F40404040007F7D
:10074000021C027F007F0408107F003E4141413EB1
:10075000007F09090906003E4151215E007F091909
:1007600029460026494949320003017F0103003F21
:100770004040403F001F2040201F003F4038403F86
:1007800000631408146300030478040300615949EA
:100790004D4300007F414141000204081020000049
:1007A0004141417F000402010204004040404040BA
:1007B000000003070800002054547840007F2844BC
:1007C000443800384444442800384444287F0038E2
:1007D000545454180000087E0902001824241C7880
:1007E000007F080404780000447D40000020404061
:1007F0003D00007F102844000000417F4000007C45
:1008000004780478007C08040478003844444438B0
:10081000007C1824241800182424187C007C080468
:1008200004080048545454240004043F4424003C69
:100830004040207C001C2040201C003C4030403CBC
:10084000004428102844004C9090907C004464544C
:100850004C44000008364100000000770000000012
:1008600041360800000201020402003C2623263C17
:100870000000000000000000000000000000000078
:1008800000C0E0F0F8F81800C0F0FCFEFFFFFFFF2A
:10089000FFFFFF7E00000000000000000080C0E0BD
:1008A000E0E0E0E0E0E0E0C0800000000080C0E0C8
:1008B000E0E0E0E0E0E0E0C080000000E0E0C0C098
:1008C000E0E0E0E00000E0E0C0C0E0E0E0E0E0C048
:1008D000800000000080C0E0E0E0E0E0E0E0E0C098
:1008E000800000000000000000000000000000E0A8
:1008F000F0F0F0E0ECEEF7F37020007C7C7C7E0002
:100900007E7E7E7F7F7F000080C0E07E5B4F5BFE4F
:10091000C00000C000DCD7DEDEDED7DC00C0000097
:1009200000000000000000000000000000000000C7
:1009300000000000000000000000F8FCFEFFE000E6
:10094000FFFFFFFFFFFF80FFFFFFFFFFFFFFFFFF36
:100950001F0701000000000000000000FFFFFF81F2
:1009600000000000000081C3C3C30000FFFFFF813F
:1009700000000000000081FFFFFF0000FFFFFF01FB
:10098000000000000000FFFFFF010000000001FF69
:10099000FFFF0000FFFFFF9D1C1C1C1C1C1C9DDF9B
:1009A000DFDF000000000000000000000000000F7A
:1009B0001F3F7F7F7F7F7F3F1E0C001F1F1F3F0059
:1009C0003F3F3F7F7F7F00307B7F78302020307833
:1009D0007F3B0003000F7F0F0F0F7F0F000300000E
:1009E0000000000000000000000000000000000007
:1009F00000000000000000000000030F1F3F3F3F09
:100A00003F1F1F3F3F7F7F7F3F3F1F3F7F7F7F7F96
:100A10007C7878381C0F00000000000000010307FC
:100A20000707070707070703010000000001030786
:100A3000070707070707070301000000070707006C
:100A4000000000000000070707000000000000078A
:100A50000707000000010307070707070707070349
:100A60000100000000000000000000000000000085
:100A70000000000000000000000000000000000076
:100A80000000000000000000000000000000000066
:100A90000000000000000000000000000000000056
:100AA0000000000000000000000000000000000046
:100AB000000011241FBECFEFDAE0DEBFCDBF11E092
:100AC000A0E0B1E0EAE2F3E502C005900D92A23B9E
:100AD000B107D9F725E0A2EBB1E001C01D92A83320
:100AE000B207E1F70E94121F0C9475290C940000C4
:100AF000FC01AC014C5F5F4F8FEF91E321918227A6
:100B000028E030E087FF09C0880F8927215031098C
:100B1000C9F7E417F50791F70895880FF7CFE8EDC7
:100B2000F0E080818E7F80831092E2001092DA00E4
:100B30001092E100A0EEB0E08C9181608C938081F6
:100B40008F77808319BCA7EDB0E08C918E7F8C935A
:100B500080818F7E80831092FB0208952091E400B3
:100B60003091E50095E6A9012091EC00822F81707B
:100B700020FF06C08091E80080FF06C080E0089555
:100B80002091E80022FD1AC080912003882389F07B
:100B9000853089F08091EB0085FD0FC02091E40045
:100BA0003091E50042175307F9F29150E1F684E0E5
:100BB000089582E0089583E0089581E00895EF921A
:100BC000FF920F931F93CF937C018B010E94AE0580
:100BD000C82F811117C08091E80085FD0BC080915E
:100BE000E8008E778093E8000E94AE05882399F391
:100BF000C82F08C0F70181917F018093F100015057
:100C0000110949F78C2FCF911F910F91FF90EF9011
:100C100008958091220387FF13C08091E80082FF2E
:100C200006C08091E8008B778093E80004C0809133
:100C300020038111F2CF0895809120038823D9F3F6
:100C40008091E80080FFF8CF8091E8008E77ECCFAC
:100C5000982F9093E900242F762F50E0891731F0D8
:100C60007091EC002091ED005091F00021FD07C043
:100C70009F5F973071F78093E90081E0089530918C
:100C8000EB003E7F3093EB003091ED003D7F3093E1
:100C9000ED003091EB0031603093EB007093EC008D
:100CA0002093ED005093F0002091EE0027FDE0CF5F
:100CB00080E00895B0E0A0E0E0E6F6E00C942226A3
:100CC000C8EDD0E088818F7E8883E7EDF0E08081F9
:100CD0008160808384E082BF81E08093FB02888111
:100CE0008E7F888302EE10E0F80110821092DA0005
:100CF00081EEC82ED12CF601108288818F778883EF
:100D000088818068888388818F7D888319BC109250
:100D100020031092210310921F0310921E0390EEE5
:100D2000E92EF12CF70180818B7F8083888181609F
:100D3000888342E060E080E00E942806F60180811E
:100D40008E7F8083F80180818160808380818860CC
:100D50008083F70180818E7F808388818061888392
:100D6000CDB7DEB7E8E00C943E26FC018091280365
:100D70009091290386179707A0F06115710529F452
:100D80009091E8009E779093E80090E061157105DE
:100D900051F4911108C08091E80082FF34C080E0D6
:100DA0000895BC01F2CF809120038823C1F18530E2
:100DB000C1F18091E80083FD30C08091E80082FDA0
:100DC000EACF8091E80080FFE1CF8091F30020918D
:100DD000F200382F6115710519F02830310558F0EF
:100DE00091E02830310509F090E02091E8002E775D
:100DF0002093E800CBCF81918093F100615071097D
:100E00002F5F3F4FE7CF80912003882341F085304B
:100E100041F08091E80083FFBECF81E0089582E039
:100E2000089583E0089508958091FD02089587E76D
:100E300097E7909301088093000888E19AE00FB645
:100E4000F894A895809360000FBE90936000FFCF48
:100E50002FB7F8946091F2027091F3028091F4023E
:100E60009091F5022FBF089520912C012223C9F003
:100E70002091F60227FF15C0E62FE695E695E69548
:100E8000EE31D8F4E80FF92FF11D677021E030E062
:100E900001C0220F6A95EAF72095828128232283D8
:100EA0000895FC01329608962191621303C0DF0178
:100EB00011971C92E817F907B9F7089520912C01B2
:100EC0002223C1F02091F60227FF14C0E62FE695F9
:100ED000E695E695EE31F8F4E80FF92FF11D67700D
:100EE00021E030E001C0220F6A95EAF78281822B6F
:100EF00082830895FC0132962FEF30E04191641710
:100F000051F02F3F19F4411101C0232F3F5F3630BC
:100F1000A9F72F3F09F40895820F911D27FD9A9597
:100F2000FC01628308952091EF023091F0022817AE
:100F3000390771F09093F0028093EF02E091ED0297
:100F4000F091EE02309721F00084F185E02D0995B3
:100F500008952091EB023091EC022817390771F0C7
:100F60009093EC028093EB02E091ED02F091EE029F
:100F7000309721F00680F781E02D09950895409182
:100F8000E1028D3E59F48091E20287FF0DC010927C
:100F9000E20241110BC01092D90208C08E3E81F4CA
:100FA0008091E20218169CF3442381F08091E302C1
:100FB0009091E402892B09F05AC01092D80208954A
:100FC0008F3E49F447FFF0CF1092E1028091E20298
:100FD0008111ECCFE0CF803F19F41416ACF3E4CFCD
:100FE0009091E302893F29F41916F4F61092E30276
:100FF000DBCF8A3F19F497FFD7CFF8CF9091E40267
:101000008B3F29F497FFD0CF1092E402CDCF8C3FD5
:1010100019F41916CCF3C8CF9FE0980F983090F4CC
:10102000815F990B21E030E0B90102C0660F771FA4
:101030008A95E2F7CB0180959091E0028923809315
:10104000E002B2CF8D3F31F48091DA028E7F80933F
:10105000DA02AACF8E3F21F48091DA028D7FF7CF9A
:101060008F3F09F0A1CF8091DA028B7FF0CF0895F6
:101070008091DA0280FD16C081FD16C082FD16C087
:101080008091D8028823A1F0883280F428E0829FE2
:10109000C001112468E270E00E945B26862F672B56
:1010A00039F0089582E0089584E0089588E0089575
:1010B00081E008958091DA0280FD14C081FD14C0A2
:1010C00082FD16C08091D902882381F08E3180F490
:1010D00020E3829FC00111246EE170E00E945B2634
:1010E000862F08958CE0089588E1089588E008959A
:1010F00080E308958D3E31F40E945A0881958093D3
:10110000E20208958E3E19F40E945A08F8CF8F3EED
:1011100031F40E945A0881958093E1020895803F3E
:1011200019F40E945A08F8CF893F29F40E94380820
:101130008093E30208958A3F21F40E943808819544
:10114000F7CF8B3F31F40E94380881958093E402F9
:1011500008958C3F19F40E943808F8CF9FE0980F4B
:10116000983070F4815F990B21E030E001C0220FCC
:101170008A95EAF78091E002822B8093E00208953D
:101180008D3F31F48091DA0281608093DA02089514
:101190008E3F21F48091DA028260F7CF8F3FB9F75A
:1011A0008091DA028460F1CF80E00895F894E82F0E
:1011B000E295EF70F0E031A1282F2F7081E090E0F0
:1011C00001C0880F2A95EAF7982F9095932391A351
:1011D00092A1892B82A3789408959091F60292FFB0
:1011E00006C0282F28712830F9F4877F846093FF88
:1011F00006C0282F28712831F1F4877E8461209160
:10120000F70220FF06C0382F38713830D9F4877FB5
:10121000816021FF06C0282F28712831D1F4877EF4
:10122000816194FD877E0895282F24712430F9F67A
:101230008B7F8860DCCF282F2471243101F78B7ECF
:101240008861DDCF382F3171313019F78E7F88609A
:10125000E0CF282F2171213121F78E7E8861E1CFE7
:10126000972F7830A8F4663098F470E026E0929FCB
:10127000600D711D1124FB0190E3899FE00DF11DAC
:101280001124EE0FFF1FE455FF4F859194910895AF
:1012900080E090E00895CF93DF93EC0182389105D0
:1012A000A9F1D8F58133910509F496C048F5893242
:1012B000910509F48AC08A9709F495C0C11521E502
:1012C000D20708F0BCC0C11530E5D30708F014C13F
:1012D000C83ED10508F09CC0C13ED10560F5C83AB2
:1012E000D10508F087C0C53AD10508F0FDC0C1306E
:1012F000D10509F12097F9F0C430D105E0F440C0E0
:101300008533910509F45AC0C997C1F68091F60258
:10131000837089F0C0EED0E00EC0833E910599F154
:1013200070F4803E910501F1823E910539F680917D
:10133000F60282FD21C0CE01DF91CF910895863E55
:10134000910561F1873E910571F1843E910509F0A7
:10135000B5CF8091F70281FFEECF8091F602C7EE04
:10136000D0E084FD0DC0E7CF8091F60280FD12C170
:101370009091F70290FFDFCFC3EED0E084FFDBCF88
:10138000D0E0C0E0D8CF8091F60282FD06C19091F6
:10139000F70290FDBFCF84FFCECFF2CF8091F6024F
:1013A00083FDDDCFC8CF8091F60283FDF9C0909117
:1013B000F70291FFF0CFC4EED0E0BDCF8091F602EE
:1013C00085FFB9CFC9E2D0E0B6CF8091F60285FFA4
:1013D000B2CFC5E3D0E0AFCF8091F60286FFABCFAE
:1013E000CAE2D0E0A8CF8091F60286FFA4CFC1E385
:1013F000D0E0A1CFCF3BD10518F6C85AD0E0CC0F32
:10140000DD1FC159DE4F0990D881C02DD46493CF20
:10141000C11540E2D40758F4C11581E0D80708F09F
:101420008ACFCD3ED10508F4ABCFD06584CFC115AE
:1014300090E4D90708F4A4CFDF70D06A7CCFC1153F
:1014400025E5D20700F5C11534E5D30708F08AC0B9
:10145000C11543E5D40708F071C0C11582E5D8076E
:1014600008F467C0CE018370992721E030E002C004
:10147000220F331F8A95E2F7C695C69580E2C89F72
:10148000E001112452C0C11599E5D907A8F4C1158E
:1014900028E5D20708F06BC0C11536E5D30708F080
:1014A0006FCF8C2F0E94ED08C82FD0E0DC2FCC2707
:1014B000CC27DF71D0623FCFC1154AE5D40708F4CD
:1014C0005BC0CE0190568115904208F059CF8D2F08
:1014D0008F710E94ED0890E0982F882788279F71D0
:1014E0009C012C2BE901E6CFC55AD0E0C459DE4F50
:1014F000C881D0E0D0641FCFCE01E4E096958795F7
:10150000EA95E1F783702C2F26952695237040E20B
:10151000249F90011124382B8C2F8370C1E0D0E0E0
:1015200002C0CC0FDD1F8A95E2F7C22BD32BDC68FB
:1015300002CFDC2FCC27C16FD06AFDCECE018370E5
:10154000992721E030E002C0220F331F8A95E2F78D
:10155000C695C69590E2C99FE0011124C22BD32BFA
:10156000DA68E9CEDC2FCC27C46FD06AE4CEDC2F5A
:10157000CC27C06FD06ADFCE8C2F8F700E94ED0811
:1015800034E0D695C7953A95E1F7CF709C2FEC01E2
:10159000D069D1CEC9E3D0E0CECEC2EED0E0CBCE82
:1015A000C6EED0E0C8CE80915202882331F010926E
:1015B000520210925102109250020895809590911B
:1015C0004F02982390934F02089580912A029091A0
:1015D000F901981301C008958F5F8770FACFB0E0CA
:1015E000A0E0E5EFFAE00C9421268C01C090970270
:1015F000D0909802E0909902F0909A028091530264
:1016000090915402A0915502B0915602C82AD92A4D
:10161000EA2AFB2ACFE1D0E0BC2ED701C6010C2E6E
:1016200004C0B695A795979587950A94D2F780FD43
:1016300009C0219788F7B12C8B2DCDB7DEB7E9E033
:101640000C943D26B8018C2F0E9430090E944B0952
:10165000019779F3F1CFCF93DF93EC010E94EF0A6A
:10166000BE010E9430090E944B09DF91CF9108957D
:10167000292F983080F5863070F590E036E0239F72
:10168000800D911D1124682F677023E09695879532
:101690002A95E1F725E0289FF001299FF00D1124FC
:1016A000EB52FE4F50E040E080E0219130E0062E0A
:1016B00002C0369527950A94E2F721703327042E4D
:1016C00001C0220F0A94EAF7822B4F5F5F4F45302B
:1016D000510559F7089580E00895292F9830A0F515
:1016E000863090F590E036E0239F800D911D112407
:1016F000282F277041E001C0440F2A95EAF723E024
:10170000969587952A95E1F725E0289FF001299F76
:10171000F00D1124EB52FE4F30E020E070E05191CB
:10172000DF011197CB01022E02C0969587950A948E
:10173000E2F7817081958527842385278C932F5F1D
:101740003F4F2530310559F70895FC018081918183
:101750000E942B0B92959F70963091F058F4925FF7
:101760009F70923058F4803F19F030F4883E30F486
:1017700081E008959A5FF4CF843FD1F380E008952B
:10178000883EB0F3813FD1F7F3CFCF93DF93682F3B
:1017900081E06A3019F06D3031F480E00E94450C30
:1017A000DF91CF910895809136059091370526E01D
:1017B000FC01A0E3B5E001900D922A95E1F7603EAF
:1017C00008F458C026E0FC0111922A95E9F7C0916F
:1017D0003605D091370546E050E0BE0180E395E044
:1017E0000E947E269E0120533340892B41F1C9017E
:1017F00045E0969587954A95E1F741E050E0BA01BA
:1018000002C0660F771F8A95E2F7CB0160912E0325
:1018100070912F03862B972BB9016B5F7F4FE5E00B
:1018200076956795EA95E1F702C0440F551F6A95D2
:10183000E2F7842B952B90932F0380932E032A5F3E
:101840003F4F40912D03642F70E0C9010E94042690
:10185000481B463010F4240F311D211572E0370764
:1018600010F030E020E0205D3C4F309337052093AE
:10187000360596CFF6E06F9FB00111246F587A4F6E
:1018800046E050E00E947526A2CFCF93382FE0911A
:101890003605F0913705E053F34020912D03622F78
:1018A00070E0CF010E940426281B822F332361F0B1
:1018B00066E00E944F26C82FC15010F4CF910895C2
:1018C00080E20E94C50BF8CF9F01280F311D211522
:1018D000324018F080E0F0E0E0E08E0F9F2F911D85
:1018E000805D9C4F9093370580933605E7CFCF936B
:1018F000DF93EC01FE018491811106C081E00E941A
:10190000450CDF91CF9108950E94C50B2196F2CF2F
:101910008093F8027093FA026093F9028091200399
:10192000843001F582E08093E9008FEF9091E80028
:10193000815095FD06C095ED9A95F1F70000811153
:10194000F5CF8091E80085FF0DC050E040E063E0F6
:1019500070E088EF92E00E94DF058091E8008E77CA
:101960008093E8000895BC0184E00E94880C0895EB
:10197000BC0183E00E94880C08959C0182E0809362
:10198000E9009FEF8091E800915085FD06C085ED4C
:101990008A95F1F700009111F5CF8091E80085FF5D
:1019A0000CC050E040E066E070E0C9010E94DF0535
:1019B0008091E8008E778093E8000895CF93DF93BD
:1019C000EC0180912C018823B1F18091F60287FF10
:1019D00032C060E282E08093E9008FEF9091E800EE
:1019E000815095FD06C095ED9A95F1F700008111A3
:1019F000F5CF8091E80085FF1BC080912C0170E03D
:101A000050E040E0811104C050E040E068E070E048
:101A1000CE010E94DF058091E8008E778093E80078
:101A200080E2FE01AEEFB2E001900D928A95E1F7FF
:101A3000DF91CF91089568E081E0CDCFB0E0A0E0E4
:101A4000E4E2FDE00C9420267C015B016A018091B8
:101A5000770201E010E08A3010F40AE010E0C1E003
:101A6000D0E0B501C701F6010995811104C02196A6
:101A70000C171D072CF4CDB7DEB7EAE00C943C261A
:101A8000CC9F9001CD9F300D300D112490E080E06F
:101A900045E34A95F1F70000019682179307C1F7D5
:101AA000E0CF80916102811110C08091D8008061E7
:101AB0008093D8008AE18A95F1F700C08091D9001F
:101AC00080FF0AC081E08093610281E09091610211
:101AD000913009F080E0089582E0809361020E94D5
:101AE0008F0510922003F1CF0E94510D882359F0E9
:101AF000E091ED02F091EE02309729F00190F08133
:101B0000E02D0995089580E00895B0E0A0E0EBE8AD
:101B1000FDE00C9422266C017B0164E670E088E70E
:101B20000E945F23EC0197FD12C010E000E0F60177
:101B3000E00FF11F849164E670E00E94CD23EC0178
:101B4000892B29F40F5F1F4F0E151F0581F70E9487
:101B50004424CE01CDB7DEB7E8E00C943E26809158
:101B6000E9029091EA02911103C091E0892708955A
:101B7000882369F062E070E088E094E00E94850DBF
:101B8000892B19F08091E90208951092E902809161
:101B9000E902EBCFCF93C091E9028091EA0288235A
:101BA000D1F00E942807605A75418F4F9F4F609374
:101BB000E5027093E6028093E7029093E802C11178
:101BC00008C062E070E086E094E00E94850D892BF9
:101BD00029F0C091E9028C2FCF91089581E0809384
:101BE000E902F7CFCF9384E090E00E943329C82F19
:101BF00082E290E00E943329982F8C2FCF91089594
:101C0000A4E0B0E0E6E0FEE00C94262640917302EA
:101C10005091740260917502709176022FB7F8941A
:101C20008091F2029091F302A091F402B091F5023A
:101C30002FBF841B950BA60BB70B11E084369105C3
:101C4000A105B10590F10E94510D882399F10E94E0
:101C500028076E5F7F4F8F4F9F4F69837A838B83F7
:101C60009C83809111019091120186599D4F409162
:101C7000100150E04530510510F044E050E0BE0145
:101C80006F5F7F4F0E948B2682E090E00E948E253E
:101C9000182F882351F00E942807609373027093D5
:101CA00074028093750290937602812F2496E4E06B
:101CB0000C9442260E942807009178021091790224
:101CC00020917A0230917B02600F711F821F931F57
:101CD000C0CFEF92FF921F93CF93DF9300D000D03D
:101CE0000F92CDB7DEB77B0190E080E00E948E2599
:101CF000182F882309F487C04091030150E0411553
:101D0000510511F041E050E060910401709105012E
:101D100066597D4FCE0105960E948B264091660242
:101D20005091670260916802709169022FB7F89430
:101D30008091F2029091F302A091F402B091F50229
:101D40002FBF841B950BA60BB70B84369105A105FD
:101D5000B10540F48BE692E00E9478059D818917D9
:101D600009F451C081E090E00E948E2581111AC0D3
:101D700010E08091620290916302A0916402B091A0
:101D80006502F70180839183A283B383812F0F9033
:101D90000F900F900F900F90DF91CF911F91FF90B8
:101DA000EF90089540910B0150E04530510510F03F
:101DB00044E050E060910C0170910D0166597D4F37
:101DC000CE0101960E948B268BE692E00E94780558
:101DD0009D818913CDCF0E9428076093660270937E
:101DE0006702809368029093690289819A81AB812E
:101DF000BC818093620290936302A0936402B093CB
:101E0000650211E0B6CF80916B0290916C02A091B7
:101E10006D02B0916E0289839A83AB83BC831111EA
:101E2000E4CFA7CF68EE7EEF90E080E00E945F29CC
:101E300060E082E090E00E94412960E083E090E071
:101E40000E9441291092530210925402109255029E
:101E50001092560260E084E090E00E94412964E024
:101E600082E290E00E94412960E085E090E00E94DB
:101E7000412960E086E090E00E9441296FEF87E011
:101E800090E00E94412940E050E0BA0188E090E0F3
:101E90000E94532960E08DE090E00E94412940E0DB
:101EA00050E0BA0188E190E00E94532960E087E1A8
:101EB00090E00E94412940E050E0BA018CE190E0BE
:101EC0000E94532970E060E080E290E00E945F2968
:101ED00040E050E0BA0188E190E00E94532940E0E0
:101EE00050E0BA018FE090E00E94532940E050E0BA
:101EF000BA0183E190E00E94532908951F920F9246
:101F00000FB60F9211242F933F934F935F936F93CC
:101F10007F938F939F93AF93BF93EF93FF938091A2
:101F2000E10082FF09C08091E20082FF05C080913C
:101F3000E1008B7F8093E1008091DA0080FF24C074
:101F40008091D80080FF20C08091DA008E7F80933E
:101F5000DA008091D90080FF9DC080E189BD82E1D7
:101F600089BD09B400FEFDCF81E0809320038091FC
:101F7000FB02811109C00E948F050E945A068091C0
:101F8000E20084608093E2008091E10080FF17C04E
:101F90008091E20080FF13C08091E2008E7F8093E9
:101FA000E2008091E20080618093E2008091D8009D
:101FB00080628093D80019BC85E0809320038091D3
:101FC000E10084FF2BC08091E20084FF27C080E104
:101FD00089BD82E189BD89B5982F917080FFFBCFC3
:101FE0008091D8008F7D8093D8008091E1008F7E12
:101FF0008093E1008091E2008F7E8093E2008091E7
:10200000E20081608093E20080912103882309F43B
:1020100047C084E080932003809120038091E100F9
:1020200083FF27C08091E20083FF23C08091E100FD
:10203000877F8093E10082E0809320031092210348
:102040008091E1008E7F8093E1008091E2008E7F9D
:102050008093E2008091E20080618093E20042E0A0
:1020600060E080E00E9428068091F0008860809304
:10207000F000FF91EF91BF91AF919F918F917F9170
:102080006F915F914F913F912F910F900FBE0F90E5
:102090001F90189519BC109220031092FB0274CF68
:1020A0008091E30087FD93E090932003B5CF78946F
:1020B0001F921FB61F9211248F939F93AF93BF93CC
:1020C0008091F2029091F302A091F402B091F50296
:1020D0000196A11DB11D8093F2029093F302A0938B
:1020E000F402B093F502BF91AF919F918F911F9031
:1020F0001FBE1F9018959C014FB7F8948091F20273
:102100009091F302A091F402B091F5024FBF821BAF
:10211000930B08952FB7F8948091F2029091F302F7
:10212000A091F402B091F5022FBF08950E948A1089
:102130009C019091E1028091E202982B21F0309372
:10214000DE022093DD029091E3028091E402982B5D
:1021500021F03093DC022093DB02E091ED02F0915C
:10216000EE02309749F082E08093DF020480F5812F
:10217000E02D8FED92E009950895ACE0B0E0E3EC3E
:10218000F0E10C941D268E010F5F1F4F88E0D801EF
:102190001D928A95E9F78FE9C82E81E0D82EF12C9F
:1021A000E12CAA24A394B12C29EA822E21E0922EBC
:1021B000F60181916F018F3F09F442C0F894E82F36
:1021C000E295EF70F0E021A18F70A50102C0440FED
:1021D000551F8A95E2F7CA01922F982B91A392A1DD
:1021E0008095892382A3789400C0E3EAF1E0712C02
:1021F00031E021912F3F09F46EC0A22FA295AF705C
:10220000B0E090968C9190E02F7002C095958795E4
:102210002A95E2F780FD5FC0832F782A330F8E1650
:102220009F0639F7F601319780818F3F11F00E94A8
:10223000D60850EA5A95F1F7F801EE0DFF1D7082AD
:102240008FEFE81AF80AA4E0EA16F10409F0B0CF1B
:1022500048E050E0B8018CE792E00E947E267C01C5
:10226000892B41F088E0F801ACE7B2E001900D92D3
:102270008A95E1F710918502E114F10471F181E092
:10228000809359020E948A109093580280935702BB
:1022900080915702909158020E947B10059790F010
:1022A000E12FF0E0EA57FD4F80917C02808380911E
:1022B0007D02818380917E02828380917F0283836D
:1022C0001092590281E090E0E114F10451F02C9653
:1022D000EDE00C94392680E0A0CF80915902811165
:1022E000D7CF0E94510DF82EE0918502882309F482
:1022F0006CC019861A861B861C860E2F10E00A57A2
:102300001D4F809177028A3050F549E65EE0BE01AC
:10231000675F7F4FC8010E941E0D882379F140E05E
:102320005EE0BE01675F7F4FC8010E941E0D8823DB
:1023300029F1109277028091840290E044E050E00D
:10234000BE01675F7F4F8A579D4F0E947E2621E026
:1023500020936002892B59F5F12C8F2DB8CF8091F5
:102360005A0290915B020E947B10843F914068F674
:1023700080916002811112C080E0A9CF8091770224
:102380008F3F29F08F5F809377028A30A0F20E94FE
:102390008A1090935B0280935A02EACFFE0139962D
:1023A00084E0DF011D928A95E9F710926002E091C6
:1023B0008402F0E0EA57FD4F89859A85AB85BC859C
:1023C00080839183A283B383C8CFF0E0EA57FD4FA7
:1023D00084E0ABE6B2E001900D928A95E1F78BE6DE
:1023E00092E00E94780580936A02C0906F02D090BC
:1023F0007002E0907102F090720280915C02909104
:102400005D02A0915E02B0915F02C816D906EA068D
:10241000FB0609F4B1CFC0925C02D0925D02E0925B
:102420005E02F0925F020E94510D8111A5CF0E94C1
:102430002807C61AD70AE80AF90AC0927802D09289
:102440007902E0927A02F0927B0296CF80914F025D
:1024500090914E02892B8093B4018091520288237F
:1024600029F10E948A102091500230915102821B62
:10247000930B843F914010F00E94D30A8091B401E5
:1024800090915202892B8093B40180912C01882372
:10249000E1F18091F60287FF38C08EE1E6EBF1E0D2
:1024A00090E08150A0F591110E94D30A40E250E0E3
:1024B0006EE272E084EB91E00E947E26892B21F18E
:1024C00080E2E4EBF1E0AEE2B2E001900D928A9599
:1024D000E1F7E091ED02F091EE023097A9F08091E2
:1024E0002C01882359F08091F60287FF07C0809164
:1024F000B4018093B50186E08093B4010280F3813A
:10250000E02D84EB91E00995089586E0C7CF2191F5
:10251000222339F29F5FC5CF90E080E00E94A90797
:1025200090E080E00E94930710924E020E942612D3
:1025300086E0EFEDF2E0DF011D928A95E9F7109257
:10254000D9021092D8021092DA020E9496100895D1
:1025500060939702709398028093990290939A02E5
:102560000E948C1208950F931F9341E050E060E0A9
:1025700070E004C0440F551F661F771F8A95D2F77D
:10258000CB01BA0160957095809590950091970266
:10259000109198022091990230919A026023712340
:1025A000822393230E94A8121F910F910895909166
:1025B0002D028095892380932D02282F2770B1F456
:1025C000282F082E000C330B9217130679F09091E8
:1025D000F70292FF0BC08595859585950E94B312F1
:1025E00010922D0210922C0210922B020895CF937C
:1025F000C091F702C2FB992790F9981791F080FBE0
:10260000C2F9C093F7026091F60284E090E00E9464
:1026100041296C2F82E290E00E94412982E00E94D1
:10262000D712CF9108950F931F9341E050E060E0DF
:1026300070E004C0440F551F661F771F8A95D2F7BC
:102640008091970290919802A0919902B0919A027C
:102650008A019B01082B192B2A2B3B2BC901B8019E
:102660000E94A8121F910F910895609353027093D6
:10267000540280935502909356020E948C12089542
:1026800010924F0280912C01E6EBF1E0882361F07B
:102690008091F60287FF08C08EE1DF011D928A95C6
:1026A000E9F70E948C12089586E0F7CFAAE2B0E025
:1026B000ECE5F3E10C94272682E293E02091F1000F
:1026C000FC012193CF01F3E08A329F07B9F7809193
:1026D0002303833009F470C0B8F4813009F447C093
:1026E000823009F4B1C08091E80083FF7EC28091FE
:1026F0002203909123039A3008F077C2E92FF0E08B
:10270000E958F64D0C946F268A3009F48CC08B3052
:1027100009F46FC0893039F780912203813219F7AB
:1027200080912603909127030297E8F68091E800B4
:10273000877F8093E8008091E80082FF38C0909105
:10274000F3008091F200029731F48091F100813022
:1027500011F0863021F48091F1008093FD02809188
:10276000E8008B778093E8000E940906BCCF809137
:102770002203813A09F0B7CF8091E800877F8093E8
:10278000E8008091260390912703892B61F460E291
:102790008EEF92E070E00E94B5068091E8008B77A2
:1027A0008093E800A0CF60E090E080E0F3CF8091DC
:1027B00020038111C0CF97CF80912203813A09F085
:1027C00092CF8091260390912703892B09F08BCF1C
:1027D0008091E800877F8093E8008091E80080FF87
:1027E000FCCF80912C018093F1008091E8008E77DE
:1027F000B9CF80912203813209F075CF80912603F1
:1028000090912703892B09F06ECF8091E800877F94
:102810008093E8000E9409068091240380932C0194
:102820000E94401360CF80912203813209F05BCF78
:102830008091E800877F8093E8000E9409068091DC
:1028400025038093FC024FCF80912203813A09F047
:102850004ACF8091E800877F8093E8008091E8006C
:1028600080FFFCCF8091FC02BECF803899F0823887
:1028700009F0BBC1809126038F70873008F0B5C185
:102880008093E9008091EB0085FB882780F9109206
:10289000E90006C080911E0390911F039111826090
:1028A0009091E800977F9093E8008093F100109258
:1028B000F1008091E8008E7794C1882309F482C1E9
:1028C000823009F092C180912403811185C18091E9
:1028D00026038F702FEF280F263008F086C18093D3
:1028E000E9002091EB0020FF77C1933031F4809113
:1028F000EB0080628093EB006FC19091EB009061E0
:102900009093EB0021E030E001C0220F8A95EAF7B6
:102910002093EA001092EA008091EB008860EACFF1
:10292000811163C1109124031F778091E3008078A7
:10293000812B8093E3008091E800877F8093E800FB
:102940000E9409068091E80080FFFCCF8091E3009F
:1029500080688093E30082E0111183E0809320037C
:1029600044C18058823008F040C180912403909186
:1029700025038C3D23E09207A1F583E08A838AE258
:1029800089834FB7F894DE01139620E03EE051E2D0
:10299000E32FF0E050935700E49120FF03C0E2954D
:1029A000EF703F5FEF708E2F90E0EA30C0F0C79677
:1029B0008D939D932F5F243159F74FBF8091E8008D
:1029C000877F8093E8006AE270E0CE0101960E9462
:1029D000B5068091E8008B778093E80006C1C09629
:1029E000E7CF4091260350912703292F3327233027
:1029F000310509F444C078F52130310509F46FC080
:102A00008BE390E0E0E0F5E02230310509F0EDC025
:102A10002091E800277F2093E8002091280330913F
:102A200029038217930708F49C0140E02115310522
:102A300009F064C0411162C08091E80082FDC9CFF5
:102A400080912003882329F2853019F28091E800D3
:102A500083FFF2CFBECF21323105A9F122323105F9
:102A600009F0C3C04115510509F443C04130510577
:102A700009F0BBC086EB90E0EAE0F4E0C9CF99270B
:102A800081309105C1F0009759F0029709F0ADC06F
:102A9000EDE4F5E0E4918E2F90E0EDE4F5E007C081
:102AA000EDE6F5E0E4918E2F90E0EDE6F5E000979D
:102AB00009F49BC0ADCFEBE5F5E0E4918E2F90E0FB
:102AC000EBE5F5E0F4CF4115510571F041305105CA
:102AD00009F08BC089E090E0EBE2F5E099CF82E16C
:102AE00090E0EBE3F5E094CF89E090E0E2E1F5E0FF
:102AF0008FCF80E490E0E0ECF4E08ACF8091200377
:102B0000882309F466CF853009F463CF8091E8000B
:102B100083FD5FCF8091E80082FD8ECF8091E80039
:102B200080FF84CF9091F3008091F2002115310550
:102B300019F08830910550F041E0089709F040E025
:102B40008091E8008E778093E80070CF44914093A5
:102B5000F1003196215031090196E8CF803809F013
:102B600044C08091E800877F8093E8008091210332
:102B70008093F1009ECE811138C010912403123051
:102B8000A0F58091E800877F8093E80010932103EF
:102B90000E940906112311F084E005C08091E30032
:102BA00087FDFACF81E08093200342E061EC81E071
:102BB0000E94280642E261EC82E00E942806809191
:102BC000200313C080912403813079F481E0933095
:102BD00009F080E080931F031092E9008091E800E3
:102BE000877F8093E8000E9409068091E80083FFB8
:102BF0000AC08091E800877F8093E8008091EB0015
:102C000080628093EB00AA96E3E00C9443261F9227
:102C10000F920FB60F9211242F933F934F935F9310
:102C20006F937F938F939F93AF93BF93CF93DF93D4
:102C3000EF93FF93D091E900DF708091EC00C82FF3
:102C4000C17080FDC0E81092E9008091F000877F9C
:102C50008093F00078940E9456131092E9008091BE
:102C6000F00088608093F000CD2BCF70C093E90016
:102C7000FF91EF91DF91CF91BF91AF919F918F9194
:102C80007F916F915F914F913F912F910F900FBE68
:102C90000F901F9018950E9440132FEF84E39CE043
:102CA000215080409040E1F700C0000088E19AE0A8
:102CB0000FB6F894A895809360000FBE90936000C3
:102CC000FFCF882321F00E94DE0A0E942612089579
:102CD000882339F090914F02982B90934F020E94D5
:102CE00026120895882391F19CEF980F913A40F4B1
:102CF000682F84EB91E00E9434070E942612089509
:102D000090E2980F983050F4877091E001C0990FCD
:102D10008A95EAF7892F0E94DE0AEFCF9BE5980F8C
:102D2000933028F490E080E00E94A907089598E588
:102D3000980F973128F490E080E00E94930708955F
:102D40008D3E20F00E94BF070E9496100895CF93F9
:102D5000C82F8823D9F18CEF8C0F813AC8F5809168
:102D60002C01882311F18091F60287FF1EC0EC2F01
:102D7000E695E695E695F0E0EC54FE4F828190E012
:102D80004C2F477021E030E002C0220F331F4A95DC
:102D9000E2F782239323892B91F06C2F84EB91E04F
:102DA0000E9434070E9426120AC0E6EBF1E08CEB89
:102DB00091E02191C21789F38E179F07D1F76C2FED
:102DC00084EB91E00E945E070E942612CF91089545
:102DD00080E28C0F883068F4C77021E030E001C0D9
:102DE000220FCA95EAF780914F02822B80934F02FF
:102DF000EBCFEBE5EC0FE33040F4F0E0E459FE4FAD
:102E0000808190E00E94A907E1CFE8E5EC0FE7316F
:102E100050F4F0E0EE0FFF1FE159FE4F80819181E9
:102E20000E949307D3CFCD3E88F28C2F0E947A0860
:102E30000E949610CBCF0F931F93CF93DF93C62F93
:102E4000D42F022FFC0182818823A9F060932C03E8
:102E50000E948A1090932B0380932A03C77081E00D
:102E600001C0880FCA95EAF70E946816DF91CF91DA
:102E70001F910F91089580912C03681335C08091A4
:102E80002A0390912B030E947B10883C910560F5EA
:102E900010E21D0FCD17B9F080E28C0F883040F49E
:102EA000C77081E001C0880FCA95EAF70E946116D9
:102EB000183048F481E09D2F977001C0880F9A95D3
:102EC000EAF70E946816802F0E94A716802F0E94A2
:102ED0007216183058F6D77081E001C0880FDA9565
:102EE000EAF70E946116C2CFC77081E001C0880F67
:102EF000CA95EAF7F6CFA5E0B0E0E1E8F7E10C9477
:102F00001A267C01FC0183819481892B31F0808118
:102F1000918189238F3F09F0C1C42596E0E10C948B
:102F200036260E94EF0A182F682F89819A810E9405
:102F30006D0B69817A81812F0E9430098C01F70124
:102F400082818823E1F080E20C33110520F4F8013E
:102F5000E05DFE4F80811F928F938DE291E09F9301
:102F60008F931F9288E18F938BE992E09F938F93C9
:102F70000E9494260FB6F894DEBF0FBECDBF043F6B
:102F80003CE5130709F489C030F5093D9CE51907B4
:102F900009F47FC00A3DECE51E0709F48AC0083D2C
:102FA000FCE51F0731F526E241EE61EEC7010E9404
:102FB0001B1780912D02877009F4AFCFF701828132
:102FC000882309F4AACF8091F70282FFA6CF82E07E
:102FD0000E94D712A2CF063F2CE5120709F465C064
:102FE00008F45FC027E245EE66EE073F8CE5180760
:102FF000E9F2F7018281882309F461C410922C035D
:103000000430FDE51F0708F057C00B3F2CE5120701
:1030100030F4C80182509C45449708F057C00E9484
:10302000F20D9093F7028093F60201319CE51907A7
:1030300009F427C108F0A3C00930FCE51F0709F413
:103040000AC108F06EC005303CE5130709F4FBC067
:1030500008F053C003309CE5190709F4EAC008F0F2
:10306000EEC08091F60281600230FCE51F0709F492
:10307000E3C06091F6021091F70284E090E00E94B4
:103080004129612F82E290E00E9441290E94401371
:1030900090CF27E245EE65EE89CF26E241EE60EE65
:1030A00085CF27E245EE64EE81CF26E241EE62EE67
:1030B0007DCF28E241E0EFCF02363DE5130709F46A
:1030C000AECF063A8DE5180709F4A9CF06312CE5F5
:1030D000120709F003C480914F028A7A91E009F443
:1030E00090E09093D40169E2811165E384EB91E073
:1030F0000E945E070E9426125CCF8091F6028062D9
:1031000007302CE5120709F497C08091F602806120
:1031100008303CE5130708F48FC08091F602806404
:103120008BC00D308CE5180709F49FC0A0F4809186
:10313000F6028E7F0B30ECE51E0709F47DC080910E
:10314000F6028C600C30FCE51F0708F475C0809116
:10315000F6028D7F71C08091F6028F7E0F302CE5D4
:10316000120709F469C08091F602877F00313CE5BF
:10317000130708F461C08091F6028F7D5DC00E3F99
:103180008CE5180709F479C058F50531ECE51E0700
:1031900009F481C098F48091F602837F03312CE515
:1031A000120709F449C008F470C00E9440139091BE
:1031B000F602892F97FB87F980583EC00C3F8CE5BB
:1031C000180709F444C008F054C08091F7028160E8
:1031D0000B3FECE51E0709F04CCF8093F70249CF77
:1031E0000230FDE51F0709F462C090F48091F702F8
:1031F0008C7F01153DE5130781F398F18091F7026B
:10320000982F909591708E7F892B90FB81F9E5CF57
:1032100002369DE5190709F450C0063AEDE51E0790
:1032200009F452C00330FDE51F0709F022CF60E02A
:103230003FC08091F60282608093F6021ACF80919F
:10324000F6028460F9CF8091F6028860F5CF809114
:10325000F7028260C2CF0E9440138091F60280681C
:10326000EBCF8091F7028360B8CF8091F6028B7F1D
:10327000E3CF8091F7028E7FB0CF8091F7028D7FF0
:10328000ACCF8091F6028F7BD7CF0E944013809104
:10329000F6028F77D1CF8091F60282FB992790F9C1
:1032A00021E0922790FB82F990FB83F9C5CF61E082
:1032B0008EE090E00E944129DCCE9091F602892FA9
:1032C0008F7E94FF8061B8CF9091F602892F8E7F18
:1032D00090FF8160B1CF0E9440133FEF84E39CE0F8
:1032E000315080409040E1F700C000000E94170775
:1032F0008091F70282FB882780F991E089270E945C
:10330000F712F701828100811181882309F445C0F9
:10331000C8010E94EF0AD82E682FC8010E946D0BC9
:10332000B8018D2D0E9430090E944B098C01882E16
:10333000F701D280958092943FE0932280912D02F4
:103340008770C1F0BD2CDD20B1F0812F807F8034EB
:1033500021F080E2800F883068F08091F70282FFD0
:1033600009C082E00E94D71280912D028770BB2491
:10337000B3948111B12CA12EA2942FE0A222FBE0E4
:10338000FA1508F476C0EA2DF0E0EF57F64D0C94EC
:103390006F2681E0B4CF80E0B2CFC8010E94380B25
:1033A000D82EBECF212F2F70C22E107F19F0C294BD
:1033B00090EFC922DD20B9F0CC2069F080E2800FC7
:1033C000883010F0811009C080914F02C82AC09245
:1033D0004F020E942612802F4AC080914E02C82AB6
:1033E000C0924E02F6CF802F0E947216CC2009F4B4
:1033F00040C0005E083010F0811004C08C2D0E9487
:10340000DE0A06C0C09480914E02C822C0924E02CD
:103410000E9426122EC0312F3F70C32E107F103213
:1034200019F0C29480EFC822882089F081E08816C4
:1034300009F47DC0DD2009F486C0992009F455C047
:10344000F701858180FFC7CF8F7085834EC0909133
:10345000F70292FD43C0DD20D9F1CC2039F08091F4
:103460004F02C82AC0924F020E94261280E00E949A
:10347000A716EA2DE850FF0B349710F40E94740D44
:10348000BB20A9F080912D0280FD11C0F7011282AE
:103490008595859585950E941313C7010E947B171A
:1034A00080912D028595859585950E94B31285E0C2
:1034B000F701DE01119601900D928A95E1F70981DD
:1034C0001A81C8010E94380BB8010E94300925CD2D
:1034D00080E00E947216CC2061F290CFDD20D1F006
:1034E00080915202C82A911004C08C2D0E94681647
:1034F000C0CFE1E09E12F9CF92FFBBCF8C1509F44B
:10350000B8CF0E948A109093510280935002C092CB
:103510005202AFCF911006C00E94D30A8C2D0E9498
:103520006116A7CFF1E09F1609F4A3CFF5CFDD20F8
:1035300029F025E0291508F49CCFD7CF34E03915C0
:1035400008F497CFEBCF992049F3F9E38F129FC18D
:103550002FEF37EE83E0215030408040E1F700C08C
:10356000000095C1812F86958695837061F081302A
:1035700009F07FCFC8019370D11002C090E080E0C5
:103580000E94930776CFC8019370D11002C090E0DB
:1035900080E00E94A9076DCF802FDD2029F00E94D6
:1035A0007A080E94961065CF0E94BF07FACF812F3C
:1035B000837009F066C0D1105CCF802F829586950C
:1035C0008770880F880F602F6F70462E512C712CDA
:1035D000612C082E04C0440C551C661C771C0A94F0
:1035E000D2F740E050E0BA0104FF0FC04FE050E0D6
:1035F00060E070E004C0440F551F661F771F8A9576
:10360000D2F74095509560957095812F8695869557
:103610008370823019F1D8F4009153021091540252
:103620002091550230915602813069F04429552984
:1036300066297729CB01BA01602371238223932362
:103640000E94351316CF402A512A622A732ACB01D1
:10365000BA016429752986299729F2CF4429552969
:103660006629772900915302109154022091550246
:1036700030915602CB01BA01602771278227932728
:10368000DFCF8695DD2011F0812F8170882309F42A
:10369000F0CE802F829586958770880F880F602FD7
:1036A0006F70462E512C712C612C082E04C0440CD6
:1036B000551C661C771C0A94D2F740E050E0BA0112
:1036C00004FF0FC04FE050E060E070E004C0440F22
:1036D000551F661F771F8A95D2F7409550956095C4
:1036E0007095812F869586958370823019F1D8F474
:1036F00000919702109198022091990230919A02BC
:10370000813069F04429552966297729CB01BA010E
:1037100060237123822393230E94A812AACE402AF9
:10372000512A622A732ACB01BA0164297529862994
:103730009729F2CF442955296629772900919702C4
:10374000109198022091990230919A02CB01BA010E
:103750006027712782279327DFCF1F70DD2029F094
:10376000812F0E941313802FC1CE802F0E946116DB
:10377000812F0E94B3127DCE802F92EF891609F41B
:103780003FC0981570F0E0EF8E16D1F0F1EF8F1674
:1037900091F0DD2009F476C091101DCE812F8F713C
:1037A00033C023EF821699F134EF8312F2CF809168
:1037B000F70282FD3FC0812F8F71DD20D1F224C03E
:1037C000DD20C9F084E0891508F453CE1F7161E053
:1037D00070E080E090E004C0660F771F881F991F9B
:1037E0001A95D2F7009197021091980220919902B0
:1037F00030919A02ADCF95E0991508F43ACEE6CF14
:10380000812F8F71D110B5CF0E94131332CE60E09B
:1038100070E0CB01DD2009F47FCF1F7161E070E023
:1038200080E090E004C0660F771F881F991F1A95EB
:10383000D2F772CFDD20D9F01F71812F0E941313B0
:103840008091F70282FF11C0E8E01E9FC0011124A1
:10385000836080932D02812F0E9413130E948A108F
:1038600090932C0280932B0204CE812FCDCF81E048
:103870000E94D712F1E0F91508F0FBCD82E00E941A
:10388000D712F7CD992039F0893309F461CE802F12
:103890000E947216EECD812F8F716BCF85E0DE0115
:1038A000119601900D928A95E1F7F70122818981A5
:1038B0009A81211136CB0E94380B182F3ACB063152
:1038C000FCE51F0709F01DCD8091D40169E281114B
:1038D00065E384EB91E00E9434070CCC0B352DE5B9
:1038E000120709F456CD68F401158CE5180709F4A0
:1038F000F2CC0F3D1C4509F004CD0E94120F0E942E
:103900004B160D35EDE51E0709F4F2CC08F443CD56
:10391000083A1D45A1F3F5CC1F93CF93DF93809117
:10392000F801807F09F049C08091F501882309F4EE
:1039300044C080912A02D091F9016091F301709105
:10394000F401A091F601B091F701C62FC72316E04C
:10395000D81799F190E0109711F0CF3F19F4019624
:103960008770F6CF189F9001199F300D1124F9012F
:10397000E650FE4F41814713F2CF40814613EFCF0F
:1039800042814111ECCF438154814A1B5B0B483C7F
:10399000510528F78091F8018F7080618093F801BC
:1039A000F901E150FE4F80818F708061808383EF49
:1039B00091E00E947B170E94E50ADF91CF911F9151
:1039C0000895A1E1B0E0E7EEFCE10C9420268C0123
:1039D00085E0F801DE011D9601900D928A95E1F7D0
:1039E000F801E28083EFA82E81E0B82E6091F60105
:1039F0007091F7016115710509F426C19091F301E9
:103A00004091F401892F84238F3F09F41DC1208147
:103A10003181C380D480F090F501F601E61BF70BED
:103A2000FF2009F4DCC08091F801582F507FE83C5A
:103A3000F10508F09FC051116BC0FE2C431314C058
:103A4000921312C0E11010C08F7080618093F80152
:103A5000C5010E947B178091F801F80185838F2DA5
:103A60006196EAE00C943C26C114D10429F0822F1F
:103A700083238F3F09F003C180E0F82FF170DF2E20
:103A800080FF3CC080912A024091F90156E08413E6
:103A900015C02D873E878D859E850E942B0B292F73
:103AA00022952F702230F0F0243018F59F70F1F03D
:103AB000F8019581907FD1F4D12C1EC090E0589FE1
:103AC000F001599FF00D1124E650FE4F618136132D
:103AD00006C06081261303C06281E6120FC0019602
:103AE0008770D5CF9F7011F0882331F3805E8830C6
:103AF00018F3C8010E947B17FD2CB1CFEE2009F40A
:103B0000AECF8091F80181608093F801F12CA7CFAE
:103B1000431306C0921304C0F801EE2009F479C0E3
:103B2000C8010E94A50B882309F1EE20F9F08091CD
:103B3000F801803270F02091F3013091F401388760
:103B40002F831986DB86CA868C87CE0107960E9452
:103B50007B1786E0F801A3EFB1E001900D928A9502
:103B6000E1F70E948C1CFF24F39479CFC8010E94D6
:103B70007B17F9CF51110AC083EF91E00E947B17A8
:103B800086E0F50111928A95E9F7C0CF43130FC083
:103B900092130DC0E1100BC0F8018583C8010E948B
:103BA0007B1786E0F50111928A95E9F758CFC80195
:103BB0000E94A50B8823D1F2EE20C1F28091F8017A
:103BC000803238F22091F3013091F4013A83298355
:103BD0001B82DD82CC828E83CE010196B8CFE83C79
:103BE000F105F8F6FE2CEE2009F243131FC09213E4
:103BF0001DC08091F80180FD10C0982F907F69F062
:103C0000F8018583903F31F0982F907F905F8F70FF
:103C1000892B8583C8010E947B1786E0F801A3EFFA
:103C2000B1E001900D928A95E1F719CFC8010E9489
:103C3000A50B81118ECF8091F80181608093F801EE
:103C4000C8010E947B170BCFEE2009F48FCFC8016B
:103C50000E94A50BF82E882309F488CF86E0F8018E
:103C6000A3EFB1E001900D928A95E1F78091F30105
:103C70009091F4010E942B0B0E948C1CF0CE81E0ED
:103C80008E25FBCEA7E1B0E0E8E4FEE10C94272608
:103C90004B8B5C8B6D8B7E8B8F8B611110924E02E8
:103CA0001A8A198A85E0FE017396DE011D9601903D
:103CB0000D928A95E1F78091F70282FF1CC00E9465
:103CC0008A1020912B0230912C02821B930B843F8F
:103CD000914020F080912D0282FF79C00E948A10CD
:103CE0002091500230915102821B930B843F9140EE
:103CF00010F00E94D30A86E0FE013D96DE01179681
:103D000001900D928A95E1F7CE0107960E94E11C81
:103D1000882359F016E080912A029091F9018913C5
:103D200043C06796E3E00C94432686E0FE01379695
:103D3000DE01119601900D928A95E1F78A859B85A7
:103D4000892B41F38F81988589238F3F19F3209127
:103D5000F90130E0C90101968770992740912A0244
:103D60004817190671F40E9440131092F90110923D
:103D70002A0286E0E3EFF1E0DF011D928A95E9F780
:103D8000C9CF96E0929FD001939FB00D1124A65009
:103D9000BE4FFE01319601900D929A95E1F7809306
:103DA000F9010E94E50AB6CF819FC0011124865017
:103DB0009E4F0E94E11C882309F4B3CF80912A0210
:103DC00090E001968770992780932A02A4CF82E021
:103DD0000E94D71283CF1F921FB61F9211248F9378
:103DE0009F93AF93BF938091F102811113C0809193
:103DF000F2029091F302A091F402B091F502419683
:103E0000A11DB11D8093F2029093F302A093F402DE
:103E1000B093F502BF91AF919F918F911F901FBEFC
:103E20001F901895CDB7DEB762970FB6F894DEBF36
:103E30000FBECDBF85B7806885BF85B7806885BF59
:103E400084B7877F84BF0FB6F894A89580916000EF
:103E5000886180936000109260000FBE80E890E05F
:103E60000FB6F89480936100909361000FBE84EDCB
:103E700098E09093B3018093B2010E948F050E9455
:103E80005A068091E20084608093E20078948091E9
:103E900020038823A1F01091E9001F709091EC009D
:103EA000892F817090FD80E8182B1092E900809195
:103EB000E80083FD0E9456131F701093E90082E012
:103EC00084BD93E095BD9AEF97BD80936E001092EC
:103ED00078021092790210927A0210927B020E946C
:103EE000510D809318010E94510D81110E94A2244E
:103EF000809118018091180194E0811190E09093D5
:103F0000850284E0891B8093840284E90E94D6089C
:103F100086E60E94D60887E90E94D60886EC0E94B1
:103F2000D60803EA11E079EAE72E71E0F72ED8010E
:103F30008D918D018F3F11F00E94D608E016F10699
:103F4000B1F788E0E6E8F2E0DF01282F1D922A951C
:103F5000E9F7ECE7F2E0DF011D928A95E9F790E0DE
:103F600080E00E943B29883E9E4F11F00E94120F74
:103F700082E090E00E94332980938E020E94F20D2D
:103F80009093F7028093F6020E94BD10EFE3FCE9E4
:103F90003197F1F700C000000E94BD100E94510D42
:103FA000E4E08111E0E0F0E0EA57FD4F808181FF1D
:103FB00008C06FEF7FEF90E080E00E945F290E94D1
:103FC000170783E090E00E943329682F70E090E0AB
:103FD00080E00E94351383E08093D30280E28093D7
:103FE0002D030E9459236DE070E08FEB93E00E9457
:103FF000850D892BE9F58091D30263E070E081FDA6
:1040000092C18CEB93E00E94850D892B89F56DE0C0
:1040100070E08CEA93E00E94850D892B49F50E949F
:104020002807605A75418F4F9F4F6093E502709348
:10403000E6028093E7029093E802E0E3F3E080E099
:1040400092E0DF019C011D9221503040E1F7F09396
:104050003705E09336058FEF9FEF90932F03809302
:104060002E0381E08093EA028093E9021092D40249
:104070000E94510D811102C00E94A52489E191E0A6
:104080009093EE028093ED0268E1862E912C809150
:10409000200300E112E1853009F480C10E94BD10C7
:1040A000D82E81110E942807A6E8B2E0EFE8F2E0DE
:1040B00010E000E0B02EED9081918E1509F47DC1E5
:1040C0008E25C12CFF24F394982F9F2109F470C1F1
:1040D0000E94510D882399F0CF82B886EF2081E0AD
:1040E00009F480E089870E948A108160782F9B877D
:1040F0008A874F81588569858B850E94421EF80109
:10410000E157FD4F8081F826F0820E94510D809189
:10411000EA02882351F18091D5029091D6020E9443
:104120007B10C29708F060C120912E0330912F03BD
:104130002115310509F0BBC18091E9028823A9F05E
:104140000E9428070091E5021091E6022091E70203
:104150003091E802601B710B820B930B6F3F7F4F16
:104160008F4F9F4710F40E94AF0DD1100E94CA0DCF
:1041700086E0EFEDF2E0DE01119601900D928A9556
:10418000E1F71092E1021092E2021092E302109223
:10419000E4028B819C81892B09F44AC08091DD0265
:1041A0009091DE020E947B109C019091D90299238C
:1041B00009F47AC225313105D8F19F3F19F09F5F8C
:1041C0009093D9021B81112359F00E945A089FEF46
:1041D00011160CF491E0899F802D11248093E10247
:1041E0001C81112359F00E945A089FEF11160CF4FC
:1041F00091E0899F802D11248093E2023091E102A9
:104200003323B1F02091E202222391F045EB3403F5
:10421000C0011124992309F41CC29093E10245EBDB
:10422000240390011124332309F417C23093E202CE
:104230008D819E81892B09F44AC08091DB02909187
:10424000DC020E947B109C019091D802992309F412
:1042500026C221353105D8F19F3F19F09F5F909319
:10426000D8021D81112359F00E9438089FEF1116C2
:104270000CF491E0899F802D11248093E3021E812C
:10428000112359F00E9438089FEF11160CF491E0A9
:10429000899F802D11248093E4023091E30233231F
:1042A000B1F02091E402222391F045EB3403C001E8
:1042B0001124992309F4D5C19093E30245EB24031B
:1042C00090011124332309F4D0C13093E40246E075
:1042D00050E0BE016F5F7F4F8FED92E00E947E261F
:1042E000892B61F48091E1029091E202892B9091F7
:1042F000E302892B9091E402892B11F00E94961021
:1043000086E0FE013196AFEDB2E001900D928A9504
:10431000E1F70E94740D9091D702891709F4B7CE86
:104320008093D702B4CE89EB93E06DCE80912003C9
:10433000843021F10E94AF0D1092F10230E40FB6EB
:10434000F894A895809260000FBE3093600083B708
:10435000817F846083BF83B7816083BF78948895B1
:1043600083B78E7F83BF0FB6F894A89580916000C5
:10437000886180936000109260000FBE80911F03DF
:10438000882361F00E94BD10E6E8F2E0819181117E
:1043900070C18EE892E08E179F07C1F780912003CD
:1043A000853009F4C3CF0E9440130E94740D76CE6D
:1043B000C394FF0C96E0C91287CE0F5F1F4F0830E1
:1043C000110509F077CE8FEF8C878D871E860E94AE
:1043D0008A108160782F988B8F874C855D856E85DC
:1043E00088890E94421E91CE0E948A109093D60224
:1043F0008093D502A0E3B3E0B0933705A0933605D0
:104400000E94510D811106C08091EA02882309F4AF
:1044100093CE8ACE89EF93E00E94770C83EF93E0EE
:104420000E94770C8091970290919802A091990236
:10443000B0919A0288309105A105B10548F4FC01BC
:10444000E357F64D0C946F268EEE93E00E94770CA6
:104450008CEC93E00E94770C0BE912E0F8010190DC
:104460000020E9F78F01015011095BE9E52E52E0C8
:10447000F52EE016F10640F6D7018D917D010E94E0
:10448000C50BF7CF89EE93E0E1CF85EE93E0DECF69
:1044900080EE93E0DBCF8AED93E0D8CF86ED93E01A
:1044A000D5CF82ED93E0D2CF8EEC93E0CFCF809149
:1044B000D40261E070E081113FCE082F10E07B0153
:1044C000082E02C0EE0CFF1C0A94E2F7A9014E214F
:1044D0005F21452B09F447C09091D30290FD45C060
:1044E0008295880F807680932701980136952795CD
:1044F0003695279520932A01815E8093280110929A
:104500002B0124E630E047E050E065E271E088E707
:104510000E94FC23892B09F00FCEA80125E0440F4F
:10452000551F2A95E1F78091D30280FD2CC0405D94
:104530005C4F04E610E020E230E060E488E70E948F
:104540001D24892B09F0F8CD0E94CA0DE094F09447
:1045500080912E0390912F03E822F922F0922F03ED
:10456000E0922E03E9CD8F5FA8CF880F880F880FC8
:104570008093270110922A01895F8093280183E0AC
:1045800080932B01BECFE3EBF2E080E2DF011D92CE
:104590008A95E9F7EDEAF1E0FA8BE98B09EA11E097
:1045A00091EB292E91E0392EA989BA892D91BA8BE8
:1045B000A98BF80141908F01440E552E511CC20168
:1045C000805D9C4F2C01E22FF0E0ED54FD4F30E078
:1045D00020E087E0682E621ACC24C394022E01C02A
:1045E000CC0C0A94EAF7520190E0D5018D915D015F
:1045F0008C21662D691B6770762E062E000C770BBA
:10460000B82F01C0BB0F7A94EAF77B2E71956195A4
:1046100071096770772701C086956A95EAF7782A4D
:104620008081782A70829F5F9830F9F62F5F3F4F24
:1046300031962830310569F6E989FA892E163F0648
:1046400009F0B2CF04E610E020E230E043EB52E0A4
:1046500074CF81E08093E102E2CD81E08093E202B9
:10466000E7CD81E08093E30229CE81E08093E402EC
:104670002ECE09BD19BD09B400FEFDCF8091D80032
:104680008F7D8093D8008091E00082608093E0006D
:104690008091E00081FDFCCF0E9440137FCE2B3043
:1046A000310508F0DBCD13CE2B30310508F087CD76
:1046B000BFCD1092B9008CE08093B8000895B0E0AF
:1046C000A0E0E5E6F3E20C941F26B82EEB010E9471
:1046D0008A106C01EE24E394F12CC431D10560F012
:1046E00025E0E22EF12CCF3FDC0731F0CE0164E172
:1046F00070E00E9404267B0184EAA82E94E8992E9B
:104700001092BC00A092BC000E948A108C01809183
:10471000BC0087FF0DC08091B900887F883001F10F
:104720008091B900887F8031D9F00FEF1FEF09C069
:104730000E948A10801B910B8E159F0540F30EEF8F
:104740001FEFCF3FDC07E1F2C6010E947B108C1700
:104750009D07B0F2C801CDB7DEB7EBE00C943B2665
:10476000B092BB009092BC000E948A108C01809194
:10477000BC0087FF0AC08091B900887F883111F0A2
:10478000803499F610E000E0E5CF0E948A10801B8B
:10479000910B8E159F0558F3D2CF0F931F93CF9394
:1047A000DF93EB018093BB0084E88093BC000E9400
:1047B0008A108C018091BC0087FF11C02091B90044
:1047C000287F81E090E0283211F490E080E091951C
:1047D00081959109DF91CF911F910F910895CF3F5E
:1047E000DC0741F30E948A10801B910B8C179D07F8
:1047F00008F38EEF9FEFEECFB0E0A0E0E2E0F4E24E
:104800000C9422266B018A017901B9010E945F2371
:10481000E6010C0D1D1DC017D10711F097FF08C050
:1048200024E92093BC00CDB7DEB7E8E00C943E2627
:10483000B70189910E94CD23EECFB0E0A0E0E3E282
:10484000F4E20C942226C62F6A017901B8010E9475
:104850005F2397FD0CC0B8018C2F0E94CD23E60189
:10486000EC0CFD1CCE15DF0511F097FF08C024E904
:104870002093BC00CDB7DEB7E8E00C943E26B8012B
:1048800089910E94CD23EECF84E98093BC000895E6
:104890008EE14A9B02C08150E1F74A9BFECF08950A
:1048A0005A9880E28A95F1F75A9A0895FC013BE004
:1048B0003A95F1F798E020E080E031E040E14A9558
:1048C000F1F7880F4A9B02C08160232742E04A9596
:1048D000F1F7000040E14A95F1F7915079F790E146
:1048E0009A95F1F799B132E03A95F1F7000040E17D
:1048F0004A95F1F792FB992790F992272081920F20
:1049000090830895A1E0B0E0E8E8F4E20C94242656
:1049100019828C017C01E60EF11C0E151F0541F475
:1049200081E09981911180E02196E6E00C94402687
:104930000E944824CE0101960E945624F8018193DA
:104940008F01EBCF529A5A9A089552985A9AEA9A3E
:10495000E9E6F0E080818F7C808308956150770BD9
:1049600091E001C0990F6A95EAF720E031E09111DA
:1049700008C0222391F05A9A80E28A95F1F75A985A
:104980000895492F482339F05A9A232740E24A953F
:10499000F1F79695ECCF5A98F9CF5A98EDCFFF9250
:1049A0000F931F93CF93DF93EC018C01060F111D22
:1049B000C017D10729F4CDB7DEB7E5E00C94412646
:1049C000F9900E94502468E08F2D0E94AE24F0CF11
:1049D0001F920F920FB60F9211240F931F932F93D4
:1049E0003F934F935F936F937F938F939F93AF9377
:1049F000BF93EF93FF93CF93DF930F92CDB7DEB7C3
:104A000019820E944824CE0101960E945624082F44
:104A1000069506950695282F22952570902F95705E
:104A2000290F922F937026952695920F98279770AD
:104A30008981982B09F05CC0043008F059C080E1EE
:104A40008A95F1F75A9A529A82E08A95F1F700C056
:104A50005A9888E0089F80011124D801A050BF4FC8
:104A60001696ED91FC9117973097A9F060919D01F2
:104A700070919E0114962D913C911597260F371F2A
:104A800011968D919C911297680F791F13964C91F6
:104A900013978C910995F801E050FF4F63816623CD
:104AA00051F020919D0130919E0184819581820F6A
:104AB000931F0E94CF240E94502480E18A95F1F731
:104AC0005A9852985A9A80E18A95F1F7F801E05085
:104AD000FF4F6081662351F020919D0130919E012E
:104AE00081819281820F931F0E9482240E94482418
:104AF0000F90DF91CF91FF91EF91BF91AF919F9177
:104B00008F917F916F915F914F913F912F911F9165
:104B10000F910F900FBE0F901F9018950F931F933A
:104B2000CF93DF93EC0104970CF04CC0F894529AA9
:104B30005A9885E08A95F1F700009C2F969595701C
:104B40008C2F8570980F892F83709695969523E00A
:104B5000CC0FDD1F2A95E1F7980F8E01092B0E94DB
:104B6000502400C068E0802F0E94AE2480E18A9526
:104B7000F1F752985A9A4A9B1EC087E090E04A99F2
:104B80001CC0FE01E050FF4F63816623F9F02091C5
:104B90009D0130919E0184819581820F931F0E9417
:104BA0008224811113C0529A5A9A7894DF91CF913E
:104BB0001F910F91089500C0DECF019729F4529AFA
:104BC0005A9A789480E0F2CF00C0D9CF0E9448244E
:104BD00080E28A95F1F75A98529A80E18A95F1F726
:104BE000C050DF4F6881662351F020919D013091C4
:104BF0009E0189819A81820F931F0E94CF240E9477
:104C00005024789481E0D2CFAA1BBB1B51E107C08E
:104C1000AA1FBB1FA617B70710F0A61BB70B881F4C
:104C2000991F5A95A9F780959095BC01CD010895DB
:104C30002F923F924F925F926F927F928F929F92AC
:104C4000AF92BF92CF92DF92EF92FF920F931F939A
:104C5000CF93DF93CDB7DEB7CA1BDB0B0FB6F8944B
:104C6000DEBF0FBECDBF09942A88398848885F848B
:104C70006E847D848C849B84AA84B984C884DF80FC
:104C8000EE80FD800C811B81AA81B981CE0FD11DE0
:104C90000FB6F894DEBF0FBECDBFED010895991B8E
:104CA00079E004C0991F961708F0961B881F7A9523
:104CB000C9F78095089597FB072E16F4009407D046
:104CC00077FD09D00E94042607FC05D03EF490959C
:104CD00081959F4F0895709561957F4F0895EE0FD0
:104CE000FF1F0590F491E02D0994FB01DC0102C047
:104CF00005900D9241505040D8F70895FB01DC011A
:104D000004C08D910190801921F441505040C8F7A2
:104D1000881B990B0895FB01DC0102C001900D92E4
:104D200041505040D8F70895AEE0B0E0EAE9F6E22D
:104D30000C9426260D891E898F89988D26E02C8358
:104D40001A83098397FF02C080E090E801979E8351
:104D50008D83AE01455E5F4F698D7A8DCE010196E0
:104D60000E94C4264D815E8157FD0AC02F8138857F
:104D7000421753070CF49A01020F131FF801108217
:104D80002E96E4E00C944226ABE0B0E0EAECF6E2CA
:104D90000C9418267C013B018A01FC0117821682C3
:104DA000838181FFB9C19AE0292ECE0101965C0171
:104DB000F7019381F30193FD859193FF81913F0169
:104DC000882309F446C1853239F493FD859193FF18
:104DD00081913F01853229F4B70190E00E94A52816
:104DE000E7CF912C412C512CFFE1F51538F08B3297
:104DF00009F188F4803201F1833221F157FC3AC085
:104E000020ED280F2A3040F556FE1FC0929C200D41
:104E10001124922E06C08D3291F0803379F7689478
:104E200050F8F30193FD859193FF81913F0181112A
:104E3000DBCF20C0689451F8689452F8F2CF6894A0
:104E400053F8EFCF689454F8ECCF429C200D112416
:104E5000422E689455F8E5CF8E3229F456FCF9C0FD
:104E6000689456F8DECF8C3619F4689457F8D9CF89
:104E70008836B9F2982F9F7D95549330C0F08336D1
:104E8000A1F18337C1F1833509F05BC0F801C1900E
:104E9000D1908F01692D70E056FC02C06FEF7FEF5B
:104EA000C6010E948F284C01689457F80AC00C5F15
:104EB0001F4F2FE3298388248394912C6501E89464
:104EC00057F853FC04C04814190409F018F5342CA1
:104ED0008114910431F5332009F46ACFB70180E2DF
:104EE00090E00E94A5283A94F6CFF801808189834A
:104EF0000E5F1F4FE0CFF801C190D1908F01692D57
:104F000070E056FC02C06FEF7FEFC6010E949A2846
:104F10004C01D5CFB70180E290E00E94A5284A94C9
:104F2000D2CFF60157FC859157FE81916F01B701F1
:104F300090E00E94A52831103A94F1E08F1A910870
:104F4000C7CF843619F0893609F074C0F80157FECE
:104F50006AC061917191819191918F01252D2F7678
:104F6000D22E97FF09C090958095709561957F4FDF
:104F70008F4F9F4F6894D7F82AE030E0A5010E9438
:104F8000D528C82ECA188C2C5D2CD6FE0CC0E894EF
:104F900050F8C91440F4D4FE05C0D2FC03C0FD2D66
:104FA000FE7E5F2E892C54FE8FC0FE01EC0DF11D9C
:104FB0008081803309F081C0252D297E522E852DD8
:104FC0008870382E53FC8FC050FE89C09C2C8414EE
:104FD00018F44C0C942C981854FE8BC0B70180E345
:104FE00090E00E94A52852FE09C088E790E051FE9B
:104FF00002C088E590E0B7010E94A528C91408F412
:1050000084C0CA94D12C9FEFC91AD90ACA0CDB1CE0
:10501000F60182916F01B70190E00E94A528AC14BF
:10502000BD04B1F758CF61917191072E000C880B28
:10503000990B93CFD52CE894D4F82AE030E085374B
:1050400039F1952D997FD92E8F3601F148F48835A5
:10505000A9F0F701868197812B96E2E10C94342622
:10506000803749F08837A9F7D4FE02C06894D2F897
:1050700020E130E00DC06894D4F8F6CF54FE03C0B0
:10508000E92FE660DE2E20E132E002C028E030E0C9
:10509000F801D7FE0DC061917191819191918F01BD
:1050A000A5010E94D528C82ECA18E894D7F86BCF5E
:1050B0006191719190E080E0F2CF52FC02C0839444
:1050C0007ECF839483947BCF852D867809F477CF28
:1050D000F6CFB70180E290E00E94A5288394841463
:1050E000C0F3312C79CF342C3818841408F474CFE1
:1050F000F8CF852D867809F481CF8BE251FE80E2CE
:1051000057FC8DE2B70190E077CFB70180E390E0E4
:105110000E94A5289A9472CF8FEF9FEF9DCFFC013C
:105120000590615070400110D8F7809590958E0FD2
:105130009F1F0895FC016150704001900110D8F745
:10514000809590958E0F9F1F08950F931F93CF9377
:10515000DF93182F092FEB018B8181FD09C01FEF11
:105160000FEF812F902FDF91CF911F910F91089515
:1051700082FF14C02E813F818C819D8128173907C1
:105180003CF4E881F981CF010196998388831083EB
:105190008E819F8101969F838E83E3CFE885F98579
:1051A000812F0995892BA1F3DACFFA01AA2728309C
:1051B00051F1203181F1E8946F936E7F6E5F7F4FE4
:1051C0008F4F9F4FAF4FB1E03ED0B4E03CD0670F60
:1051D000781F891F9A1FA11D680F791F8A1F911DB3
:1051E000A11D6A0F711D811D911DA11D20D009F403
:1051F00068943F912AE0269F11243019305D319345
:10520000DEF6CF010895462F4770405D4193B3E02D
:105210000FD0C9F7F6CF462F4F70405D4A3318F0D4
:10522000495D31FD4052419302D0A9F7EACFB4E085
:10523000A6959795879577956795BA95C9F700973D
:105240006105710508959B01AC010A2E06945795DE
:10525000479537952795BA95C9F7620F731F841F35
:10526000951FA01D0895F999FECF92BD81BDF89AB2
:10527000992780B50895A8E1B0E042E050E00C9491
:105280006729262FF999FECF92BD81BDF89A019723
:1052900000B4021639F01FBA20BD0FB6F894FA9A7E
:1052A000F99A0FBE08950396272F0E9442290E9463
:1052B0004129252F0E944229242F0C94422901962E
:1052C000272F0E9442290C944129DC01CB01FC01CB
:1052D000F999FECF06C0F2BDE1BDF89A319600B44F
:1052E0000D9241505040B8F70895F894FFCF35140F
:1052F0005D14F5155D14F5159014B114F515AE1582
:10530000BB15D219D2190B1A0B1AB21ACC1A391AA8
:10531000391AD71AAD1BBC1BBC1B242242224522C2
:0A53200048224B224E225122542253
:10532A00000000010000000000000004010000006D
:10533A000405000000000000011407DE0CBD0CB8D3
:10534A000CB30C13070021007F2200030125630020
:10535A00202020204142434445464748494A4B4C75
:10536A004D4E4F505152535455565758595A31323F
:10537A003334353637383930524542545F2D3D5B28
:10538A005D5C233B27602C2E2F202020818283E224
:10539A0000E900EA00B500B600B700CD008301CCF1
:1053AA00008A019201940121022302240225022685
:1053BA000227022A02B300B4006F0070006A029446
:1053CA006697C6F4F5F6F731330008101818100876
:0253DA000000D1
:00000001FF
