:100000000C94CD040C94EA040C94EA040C9411238F
:100010000C94EA040C94EA040C94EA040C94EA04A8
:100020000C94EA040C94EA040C94160D0C94E2135C
:100030000C94FA1C0C94EA040C94EA040C94EA0460
:100040000C94EA040C94EA040C94EA040C94EA0478
:100050000C94EA040C94EF0D0C94EA040C94EA045A
:100060000C94EA040C94EA040C94EA040C94EA0458
:100070000C94EA040C94EA040C94EA040C94EA0448
:100080000C94EA040C94EA040C94EA040C94EA0438
:100090000C94EA040C94EA040C94EA040C94EA0428
:1000A0000C94EA040C94EA040C94EA040101E301C0
:1000B0000432307C6F75746C6F6F6B010432307C6E
:1000C000010128000101E3010432307C6974756E7E
:1000D0006573010432307C010128000101E3010451
:1000E00032307C666967010432307C0101280001EE
:1000F00001E3010432307C706F7765727368656C60
:10010000010432307C010128000101E30104323096
:100110007C6E6F74657061010432307C01012800CF
:100120000101E3010432307C74656C6501043230F6
:100130007C010128000101E3010432307C6E6F7400
:10014000010432307C010128000101E30104323056
:100150007C636872010432307C010128000102E3F3
:10016000200103E3010432307C6D61690104323007
:100170007C010128000102E3200103E30104323085
:100180007C6D7573010432307C010128000102E3AB
:10019000200103E3010432307C66696701043230D8
:1001A0007C010128000102E3200103E30104323055
:1001B0007C746572010432307C010128000102E385
:1001C000200103E3010432307C7465787401043249
:1001D000307C010128000102E3200103E301043225
:1001E000307C74656C010432307C0101280001020E
:1001F000E3200103E3010432307C6E6F74010432AA
:10020000307C010128000102E3200103E3010432F4
:10021000307C736166010432307C010128000045A6
:100220001A000F001C0013000E002B2406001500FE
:10023000160017000A00392114000D0019000700EC
:100240000500000000000000A2522A422943004598
:1002500034001800120009001D00865204000C0032
:1002600008001100100064523800370036000B00FF
:100270001B000000000000004C382C41280000004A
:1002800035082B0850084F0800002F085000510077
:1002900052004F00300800001D081B08060819080E
:1002A00000000000000000002B002A0029000000D0
:1002B000000000000000000000000000E400E60074
:1002C000E700E5000000000000000000D900DA00AF
:1002D000000000000000000000000000000000001E
:1002E000000000000000000000000000E000E2004C
:1002F000E300E1000000000000000000000000003A
:1003000000000000000000000000000000000000ED
:10031000380026002500240025022C002E00230092
:10032000220021002E020000220220001F001E00D9
:100330002102000000000000370027002D0000000F
:10034000000000000000000000000000E000E200EB
:10035000E300E100000000000000000000000000D9
:10036000000000000000000000000000000000008D
:10037000370230002F003602000000003300270251
:10038000260233022E020000310031022402340220
:10039000000000000000000035002C002D021E00AF
:1003A00014001A000800150017001F0004001600B2
:1003B000070009000A00E1001D001B0006001900EB
:1003C0000500000000000000E0002C00E300240015
:1003D0002300D900CD00DA00200026002500D0003F
:1003E000CE00CF00210001002700DC00D300DB009D
:1003F0002200000000000000D200D1002800000010
:10040000E000E200E300E10000000000AC00AA0010
:10041000A900AB00000000000378BE00BD00047816
:100420000000000000000000A800AE00AD000000C9
:1004300044004200410040000000000043003F0033
:100440003E003D000000000045003C003B003A003B
:10045000000000000000000000000000000000009C
:1004600000000000200A210A00000000405247520C
:100470002C092C010000000000000000000000001A
:10048000000000000000000000000000000000006C
:10049000000000000000000000002B08037E027E28
:1004A000017E007E00000000077E067E057E047E41
:1004B000000000000000000000002C080000004CBC
:1004C0001A000F001C0013000E002B24060015005C
:1004D000160017000A00392814000D001900070043
:1004E0000500000000000000A2522A49294A004CE1
:1004F00034001800120009001D008D5204000C0089
:100500000800110010006B523800370036000B0055
:100510001B000000000000004C312C4828000000A7
:100520002B082B044A004D000000500450005100DD
:1005300052004F004F0400001D011B01060119016C
:1005400000000000000000002B002A00290000002D
:10055000000000000000000000000000E700E600CE
:10056000E400E5000000000000000000D900DA000F
:10057000000000000000000000000000000000007B
:10058000000000000000000000000000E300E200A6
:10059000E000E1000000000000000000000000009A
:1005A000000000000000000000000000000000004B
:1005B000380026002500240025022C002E002300F0
:1005C000220021002E020000220220001F001E0037
:1005D0002102000000000000370027002D0000006D
:1005E000000000000000000000000000E300E20046
:1005F000E000E1000000000000000000000000003A
:1006000000000000000000000000000000000000EA
:10061000370230002F0036020000000033002702AE
:10062000260233022E02000031003102240234027D
:10063000000000000000000035002C002D021E000C
:1006400014001A000800150017001F00040016000F
:10065000070009000A00E1001D001B000600190048
:100660000500000000000000E0002C00E000240075
:100670002300D900CD00DA00200026002500D0009C
:10068000CE00CF00210001002700DC00D300DB00FA
:100690002200000000000000D200D100280000006D
:1006A000E300E200E000E10000000000AC00AA006E
:1006B000A900AB00000000000378BE00BD00047874
:1006C0000000000000000000A800AE00AD00000027
:1006D00044004200410040000000000043003F0091
:1006E0003E003D000000000045003C003B003A0099
:1006F00000000000000000000000000000000000FA
:1007000000000000160A160A00000000405247527E
:1007100037082C0800000000000000000000000066
:1007200000000000000000000000000000000000C9
:10073000000000000000000000002B040B7E0A7E79
:10074000097E087E000000000F7E0E7E0D7E0C7E6E
:10075000000000000000000000002C08000000DA8B
:100760000281FFD9F1DB20A4A62EAF00A0C000A11A
:10077000C800AED580A81FD300408D14200000AF64
:1007800000AE05010902A10185020901A1000509C8
:100790001901290815002501950875018102050137
:1007A000093009311581257F9502750881060938C0
:1007B0001581257F950175088106050C0A380215FB
:1007C00081257F950175088106C0C005010980A1BA
:1007D00001850319012AB700150126B70095017597
:1007E000108100C0050C0901A101850419012AA08E
:1007F00002150126A002950175108100C0050109AE
:1008000006A1018506050719E029E71500250195D0
:1008100008750181020507190029EF1500250195CA
:10082000F0750181020508190129059505750191E9
:1008300002950175039101C005010906A101050793
:1008400019E029E715002501950875018102950138
:10085000750881010507190029FF150026FF00957D
:10086000067508810005081901290595057501918E
:1008700002950175039101C009023B00020100A02D
:10088000FA0904000001030101000921110100011E
:10089000224000070581030800010904010001034B
:1008A00000000009211101000122B60007058203A2
:1008B000200001120100020000000853460100015F
:1008C00000010200010C0343006F0072006E00651E
:1008D000000000100366006F006F00730074006179
:1008E000006E000000040309040000000000000086
:1008F00000000000000000000000000000000000F8
:10090000000000000000000000000000007E0F005A
:10091000D4FFFFFFC70000007800000000000000C7
:10092000002A2B280000000000000000000000004A
:100930000000000029000000002C1E342021222489
:10094000342627252E362D3738271E1F2021222317
:100950002425263333362E37381F040506070809A9
:100960000A0B0C0D0E0F101112131415161718196F
:100970001A1B1C1D2F3130232D35040506070809CD
:100980000A0B0C0D0E0F101112131415161718194F
:100990001A1B1C1D2F3130354C0011241FBECFEF08
:1009A000DAE0DEBFCDBF11E0A0E0B1E0E6E7FAE4B7
:1009B00002C005900D92A237B107D9F724E0A2E753
:1009C000B1E001C01D92AD3CB207E1F70E94211DCC
:1009D0000C94EA240C940000FC01AC014C5F5F4FC6
:1009E0008FEF91E32191822728E030E087FF09C053
:1009F000880F892721503109C9F7E417F50791F7C6
:100A00000895880FF7CFE8EDF0E080818E7F808336
:100A10001092E2001092DA001092E100A0EEB0E035
:100A20008C9181608C9380818F77808319BCA7ED36
:100A3000B0E08C918E7F8C9380818F7E808310922A
:100A40009B0408952091E4003091E50095E6A9010A
:100A50002091EC00822F817020FF06C08091E80079
:100A600080FF06C080E008952091E80022FD1AC0B2
:100A70008091C004882389F0853089F08091EB0053
:100A800085FD0FC02091E4003091E5004217530727
:100A9000F9F29150E1F684E0089582E0089583E050
:100AA000089581E008958091C20487FF13C080916A
:100AB000E80082FF06C08091E8008B778093E80011
:100AC00004C08091C0048111F2CF08958091C004C8
:100AD0008823D9F38091E80080FFF8CF8091E80067
:100AE0008E77ECCF982F9093E900242F762F50E04B
:100AF000891731F07091EC002091ED005091F000D9
:100B000021FD07C09F5F973071F78093E90081E076
:100B100008953091EB003E7F3093EB003091ED0073
:100B20003D7F3093ED003091EB0031603093EB006E
:100B30007093EC002093ED005093F0002091EE00B4
:100B400027FDE0CF80E00895B0E0A0E0EAEAF5E01C
:100B50000C944B24C8EDD0E088818F7E8883E7ED2C
:100B6000F0E080818160808384E082BF81E08093B7
:100B70009B0488818E7F888302EE10E0F80110824A
:100B80001092DA0081EEC82ED12CF60110828881F5
:100B90008F77888388818068888388818F7D888328
:100BA00019BC1092C0041092C1041092BF0410929C
:100BB000BE0490EEE92EF12CF70180818B7F8083BB
:100BC00088818160888342E060E080E00E94720555
:100BD000F60180818E7F8083F8018081816080832F
:100BE000808188608083F70180818E7F8083888107
:100BF00080618883CDB7DEB7E8E00C946724FC0100
:100C00008091C8049091C90486179707A0F06115D8
:100C1000710529F49091E8009E779093E80090E0A8
:100C20006115710551F4911108C08091E80082FFAF
:100C300034C080E00895BC01F2CF8091C0048823C5
:100C4000C1F18530C1F18091E80083FD30C0809111
:100C5000E80082FDEACF8091E80080FFE1CF80913B
:100C6000F3002091F200382F6115710519F028303A
:100C7000310558F091E02830310509F090E02091DD
:100C8000E8002E772093E800CBCF81918093F1008C
:100C9000615071092F5F3F4FE7CF8091C0048823D7
:100CA00041F0853041F08091E80083FFBECF81E0C4
:100CB000089582E0089583E0089580919D04089549
:100CC00087E797E7909301088093000888E19AE00E
:100CD0000FB6F894A895809360000FBE90936000C3
:100CE000FFCF2FB7F894609195047091960480918E
:100CF0009704909198042FBF0895209128012223F2
:100D0000C9F02091990427FF15C0E62FE695E695D6
:100D1000E695EE31D8F4E80FF92FF11D677021E068
:100D200030E001C0220F6A95EAF7209582812823DE
:100D300022830895FC01329608962191621303C024
:100D4000DF0111971C92E817F907B9F70895209170
:100D500028012223C1F02091990427FF14C0E62F17
:100D6000E695E695E695EE31F8F4E80FF92FF11DDA
:100D7000677021E030E001C0220F6A95EAF78281B6
:100D8000822B82830895FC0132962FEF30E041914F
:100D9000641751F02F3F19F4411101C0232F3F5F19
:100DA0003630A9F72F3F09F40895820F911D27FDD2
:100DB0009A95FC0162830895A3E0B0E0E2EEF6E0CC
:100DC0000C945124209192043091930428173907F0
:100DD000A1F09093930480939204E0919004F09199
:100DE0009104309751F024E029839B838A83068005
:100DF000F781E02DCE01019609952396E2E00C944F
:100E00006D24A3E0B0E0E7E0F7E00C9451242091DA
:100E10008E0430918F0428173907A1F090938F0426
:100E200080938E04E0919004F0919104309751F0FA
:100E300023E029839B838A830680F781E02DCE01FE
:100E4000019609952396E2E00C946D2480917D042F
:100E500080FD16C081FD16C082FD16C080917C0405
:100E60008823A1F0883280F428E0829FC0011124F9
:100E700068E270E00E947824862F672B39F008958D
:100E800082E0089584E0089588E0089581E008955F
:100E900080917D0480FD14C081FD14C082FD16C0C8
:100EA00080917B04882381F08E3180F420E3829F3F
:100EB000C00111246EE170E00E947824862F08950D
:100EC0008CE0089588E1089588E0089580E308950E
:100ED00080E00895F894E82FE295EF70F0E031A1FA
:100EE000282F2F7081E090E001C0880F2A95EAF743
:100EF000982F9095932391A392A1892B82A3789404
:100F000008959091990492FF06C0282F28712830E7
:100F1000F9F4877F846093FF06C0282F2871283159
:100F2000F1F4877E846120919A0420FF06C0382F57
:100F300038713830D9F4877F816021FF06C0282FAF
:100F400028712831D1F4877E816194FD877E0895D0
:100F5000282F24712430F9F68B7F8860DCCF282F6E
:100F60002471243101F78B7E8861DDCF382F3171F8
:100F7000313019F78E7F8860E0CF282F2171213121
:100F800021F78E7E8861E1CF972F7830B8F46630F4
:100F9000A8F48E3098F470E026E0929F600D711DE9
:100FA0001124FB0190E3899FE00DF11D1124EE0F48
:100FB000FF1FE25EFD4F85919491089580E090E0DF
:100FC0000895CF93DF93EC0182389105B9F108F0D1
:100FD00041C08133910509F49FC050F589329105D4
:100FE00009F48FC08A9709F49EC0C11520E5D20785
:100FF00008F0BDC0C11530E4D30708F00AC1C03EF7
:10100000D10508F0A5C0CD3CD10508F000C1C83A13
:10101000D10508F08FC0C53AD10508F0F0C0C13045
:10102000D10539F1209729F1C430D10510F546C01A
:101030008533910509F460C0C997B9F68091990488
:10104000837009F044C180919A0483FF12C0C9E201
:10105000D0E00FC0833E9105A1F178F4803E910568
:1010600009F1823E910509F0C0CF8091990482FD7B
:1010700021C0CE01DF91CF910895863E910561F1A7
:10108000873E910571F1843E910509F0AECF8091C4
:101090009A0481FFEECF80919904C7EED0E084FDE1
:1010A0000DC0E7CF8091990480FD33C090919A04E0
:1010B00090FFDFCFC3EED0E084FFDBCFD0E0C0E015
:1010C000D8CF8091990482FDFFC090919A0490FD41
:1010D000FEC084FFCECFF2CF8091990483FDDDCF97
:1010E000C8CF8091990483FDF5C090919A0491FF37
:1010F000F0CFC4EED0E0BDCF8091990485FFB9CF89
:10110000A6CF8091990485FDE8C080919A0483FF61
:10111000B0CFC9E3D0E0ADCF8091990486FFA9CFCD
:10112000CAE2D0E0A6CF8091990486FFA2CFC1E3A6
:10113000D0E09FCFC13CD10508F6C85AD0E0CC0F13
:10114000DD1FC45DDE4F0990D881C02DD46491CFDE
:10115000C11540E2D40708F0AAC0C11581E0D80744
:1011600008F087CFC83ED10508F483CFA7CFC0369B
:1011700022E5D20718F5C03432E5D30708F053C092
:10118000C03242E5D40708F047C0C11582E5D80750
:1011900008F47FC02C2F2695269540E2249F9001CD
:1011A00011248C2F8370C1E0D0E002C0CC0FDD1F72
:1011B0008A95E2F7C22BD32BDD685BCFC03A22E5DC
:1011C000D20760F4C03832E5D30708F441C0CF71CC
:1011D000D0E0DC2FCC27C46FD06A4BCFC03C42E5B7
:1011E000D40708F44AC0C03E82E5D80708F066CFAD
:1011F000DC2FCC27CC27DF71C06FD06A3ACFC55A1D
:10120000D0E0C75DDE4FC881D0E0D06432CFD0657A
:1012100030CFDF70D06A2DCFCF71D0E0DC2FCC275C
:10122000C16FD06A26CF2C2F26952695277080E295
:10123000289F900111248C2F8370C1E0D0E002C060
:10124000CC0FDD1F8A95E2F7C22BD32BDC6811CFC0
:101250002C2F26952695277040E2249F900111247B
:101260008C2F8370C1E0D0E002C0CC0FDD1F8A95C7
:10127000E2F7C22BD32BDA68FCCE8C2F8F710E9441
:101280008107C82FD0E0DC2FCC27CC27DF71D062BC
:10129000F0CE8C2F8F710E94810735E0D695C795CF
:1012A0003A95E1F7CF709C2FEC01D069E2CE8D2FFB
:1012B0008F710E94810790E0982F882788279F715F
:1012C0009C012C2BE901E3CFC2EED0E0D2CEC0EEE0
:1012D000D0E0CFCEC6EED0E0CCCEC5E3D0E0C9CED4
:1012E00080910C02882331F010920C0210920B02B4
:1012F00010920A0208958095909109029823909384
:10130000090208958091E4019091B301981301C0FE
:1013100008958F5F8770FACFB0E0A0E0E2E9F9E0CE
:101320000C944A247C0100913E0210913F0280916E
:101330003C0290913D02082B192BCFE0D0E0CC2449
:10134000C394D12CBC2EC6010C2E02C0880F991F4D
:101350000A94E2F780239123892B49F4219790F78F
:10136000B12C8B2DCDB7DEB7E9E00C946624B70124
:101370008C2F0E94C4070E94E107019779F3F1CFF7
:10138000CF93DF93EC010E948C09BE010E94C40739
:101390000E94E107DF91CF910895983078F586306B
:1013A00068F5E82FF0E086E0989FE00DF11D11242C
:1013B0009E2F977083E0F695E7958A95E1F7EE0FFB
:1013C000FF1FEE0FFF1FEB56FE4F50E040E080E0A6
:1013D000219130E0092E02C0369527950A94E2F754
:1013E00021703327042E01C0220F0A94EAF7822BC2
:1013F0004F5F5F4F4430510559F7089580E00895DD
:10140000983098F5863088F5E82FF0E086E0989FD0
:10141000E00DF11D11248E2F877041E001C0440FB3
:101420008A95EAF783E0F695E7958A95E1F7EE0F5E
:10143000FF1FEE0FFF1FEB56FE4F30E020E070E085
:101440005191DF011197CB01022E02C0969587952D
:101450000A94E2F7817081958527842385278C93F0
:101460002F5F3F4F2430310559F7089590933F0285
:1014700080933E02089521E030E002C0220F331F26
:101480008A95E2F72095309580913E0290913F0237
:10149000822393230E94360A08959091E701809554
:1014A00089238093E701282F2770B1F4282F082E75
:1014B000000C330B9217130679F090919A0492FF67
:1014C0000BC08595859585950E943B0A1092E70192
:1014D0001092E6011092E501089521E030E002C08B
:1014E000220F331F8A95E2F780913E0290913F02CE
:1014F000822B932B0E94360A089590933D0280938D
:101500003C020895FC0183819481892B29F080811C
:10151000918189238F3F51F480E00895843FE1F762
:1015200017C0883EA8F0813FB9F712C08081918131
:101530000E94C00992959F70963099F358F4925F7B
:101540009F70923048F7803F19F040F7883E20F7AF
:1015500081E008959A5FF4CF0F931F93CF93DF93A9
:101560008B01EA019091C004943061F58093E90009
:101570008FEF9091E800815095FD06C095ED9A950A
:10158000F1F700008111F5CF8091E80085FF1AC0C6
:101590000E942205811111C08091E80085FD06C0DE
:1015A0008091E8008E778093E800F2CFF801819176
:1015B0008F018093F100219779F78091E8008E7771
:1015C0008093E800DF91CF911F910F91089543E040
:1015D00050E0BC0182E00E94AC0A089546E050E071
:1015E000BC0182E00E94AC0A0895CF93DF93EC0126
:1015F00080912801811111C048E050E0BE0181E0D6
:101600000E94AC0A80E2FE01AEE9B4E001900D92C6
:101610008A95E1F7DF91CF9108958091990487FF32
:1016200005C040E282E050E0BE01EACF48E081E040
:10163000FACFB0E0A0E0EFE1FBE00C9449247C019C
:101640005B016A0180912D0201E010E08A3010F404
:101650000AE010E0C1E0D0E0B501C701F60109954C
:10166000811104C021960C171D072CF4CDB7DEB7ED
:10167000EAE00C946524CC9F9001CD9F300D300D95
:10168000112490E080E045E34A95F1F700000196CF
:1016900082179307C1F7E0CF80911702811110C024
:1016A0008091D80080618093D8008AE18A95F1F713
:1016B00000C08091D90080FF0AC081E080931702AA
:1016C00081E090911702913009F080E0089582E066
:1016D000809317020E9403051092C004F1CF0E946C
:1016E0004C0B882359F0E0919004F09191043097CD
:1016F00029F00190F081E02D0995089580E008958A
:10170000B0E0A0E0E6E8FBE00C944B246C017B0128
:1017100064E670E088E70E948B21EC0197FD12C01F
:1017200010E000E0F601E00FF11F849164E670E044
:101730000E94F721EC01892B29F40F5F1F4F0E1532
:101740001F0581F70E946D22CE01CDB7DEB7E8E01C
:101750000C94672480918C0490918D04911103C0A6
:1017600091E089270895882369F062E070E080E8BD
:1017700097E00E94800B892B19F080918C040895CA
:1017800010928C0480918C04EBCFCF93C0918C0489
:1017900080918D048823D1F00E947106605A7541B2
:1017A0008F4F9F4F609388047093890480938A04BD
:1017B00090938B04C11108C062E070E08EE797E05F
:1017C0000E94800B892B29F0C0918C048C2FCF9123
:1017D000089581E080938C04F7CF90919A0492FB56
:1017E000222720F9281779F080FB92F990939A0428
:1017F0006091990470919A0484E090E00E94D4244E
:1018000082E00E944D0A0895A4E0B0E0EAE0FCE026
:101810000C944F244091290250912A0260912B028E
:1018200070912C022FB7F8948091950490919604B2
:10183000A0919704B09198042FBF841B950BA60B21
:10184000B70B11E084369105A105B10590F10E9416
:101850004C0B882399F10E9471066E5F7F4F8F4F6A
:101860009F4F69837A838B839C8380911101909130
:101870001201805E9D4F4091100150E045305105AE
:1018800010F044E050E0BE016F5F7F4F0E949F2444
:1018900082E090E00E94B723182F882351F00E9425
:1018A00071066093290270932A0280932B02909311
:1018B0002C02812F2496E4E00C946B240E94710684
:1018C00000912E0210912F022091300230913102AE
:1018D000600F711F821F931FC0CFEF92FF921F9363
:1018E000CF93DF9300D000D00F92CDB7DEB77B014E
:1018F00090E080E00E94B723182F882309F487C066
:101900004091030150E04115510511F041E050E0D4
:101910006091040170910501605E7D4FCE010596D6
:101920000E949F2440911C0250911D0260911E0252
:1019300070911F022FB7F8948091950490919604AE
:10194000A0919704B09198042FBF841B950BA60B10
:10195000B70B84369105A105B10540F481E292E010
:101960000E94EC049D81891709F451C081E090E048
:101970000E94B72381111AC010E080911802909143
:101980001902A0911A02B0911B02F7018083918382
:10199000A283B383812F0F900F900F900F900F9021
:1019A000DF91CF911F91FF90EF90089540910B012F
:1019B00050E04530510510F044E050E060910C01DA
:1019C00070910D01605E7D4FCE0101960E949F24B3
:1019D00081E292E00E94EC049D818913CDCF0E94A8
:1019E000710660931C0270931D0280931E029093F7
:1019F0001F0289819A81AB81BC81809318029093E8
:101A00001902A0931A02B0931B0211E0B6CF809185
:101A1000210290912202A0912302B0912402898395
:101A20009A83AB83BC831111E4CFA7CF1F920F928F
:101A30000FB60F9211242F933F934F935F936F93A1
:101A40007F938F939F93AF93BF93EF93FF93809177
:101A5000E10082FF09C08091E20082FF05C0809111
:101A6000E1008B7F8093E1008091DA0080FF24C049
:101A70008091D80080FF20C08091DA008E7F809313
:101A8000DA008091D90080FF9DC080E189BD82E1AC
:101A900089BD09B400FEFDCF81E08093C004809130
:101AA0009B04811109C00E9403050E94A405809136
:101AB000E20084608093E2008091E10080FF17C023
:101AC0008091E20080FF13C08091E2008E7F8093BE
:101AD000E2008091E20080618093E2008091D80072
:101AE00080628093D80019BC85E08093C004809107
:101AF000E10084FF2BC08091E20084FF27C080E1D9
:101B000089BD82E189BD89B5982F917080FFFBCF97
:101B10008091D8008F7D8093D8008091E1008F7EE6
:101B20008093E1008091E2008F7E8093E2008091BB
:101B3000E20081608093E2008091C104882309F46F
:101B400047C084E08093C0048091C0048091E1008C
:101B500083FF27C08091E20083FF23C08091E100D2
:101B6000877F8093E10082E08093C0041092C104DB
:101B70008091E1008E7F8093E1008091E2008E7F72
:101B80008093E2008091E20080618093E20042E075
:101B900060E080E00E9472058091F0008860809390
:101BA000F000FF91EF91BF91AF919F918F917F9145
:101BB0006F915F914F913F912F910F900FBE0F90BA
:101BC0001F90189519BC1092C00410929B0474CFFA
:101BD0008091E30087FD93E09093C004B5CF7894A3
:101BE0001F921FB61F9211248F939F93AF93BF93A1
:101BF0008091950490919604A0919704B0919804D7
:101C00000196A11DB11D8093950490939604A09315
:101C10009704B0939804BF91AF919F918F911F90BB
:101C20001FBE1F9018959C014FB7F89480919504A2
:101C300090919604A0919704B09198044FBF821B95
:101C4000930B08952FB7F894809195049091960482
:101C5000A0919704B09198042FBF08950E94220E7E
:101C60009C019091840480918504982B21F03093FD
:101C70008104209380049091860480918704982B9E
:101C800021F030937F0420937E04E0919004F09142
:101C90009104309749F082E0809382040480F581BA
:101CA000E02D82E894E009950895662309F45DC06B
:101CB0008D3C41F40E9448078195809385040E94E1
:101CC0002E0E08958E3C19F40E944807F6CF8F3CE3
:101CD00031F40E944807819580938404F0CF803DC1
:101CE00019F40E944807F8CF893D29F40E9426077D
:101CF00080938604E4CF8A3D21F40E9426078195D3
:101D0000F7CF8B3D31F40E9426078195809387049D
:101D1000D6CF8C3D19F40E942607F8CF9FE2980F8A
:101D2000983070F4815D990B21E030E001C0220F02
:101D30008A95EAF780918304822B80938304BFCF36
:101D40008D3D31F480917D04816080937D04B7CF17
:101D50008E3D21F480917D048260F7CF8F3D09F0A4
:101D6000AECF80917D048460F0CF409184048D3C9F
:101D700059F48091850487FF0DC0109285044111AC
:101D80000BC010927B0408C08E3C81F480918504C6
:101D900018169CF3442381F0809186049091870467
:101DA000892B09F08CCF10927C0489CF8F3C49F4A9
:101DB00047FFF0CF10928404809185048111ECCF0D
:101DC000E0CF803D19F41416ACF3E4CF9091860473
:101DD000893D29F41916F4F610928604DBCF8A3D6A
:101DE00019F497FFD7CFF8CF909187048B3D29F452
:101DF00097FFD0CF10928704CDCF8C3D19F41916E0
:101E0000CCF3C8CF9FE2980F983090F4815D990B86
:101E100021E030E0B90102C0660F771F8A95E2F732
:101E2000CB01809590918304892380938304B2CF62
:101E30008D3D31F480917D048E7F80937D04AACF07
:101E40008E3D21F480917D048D7FF7CF8F3D09F089
:101E5000A1CF80917D048B7FF0CFACE0B0E0E3E3D5
:101E6000FFE00C9446248E010F5F1F4F88E0D801DD
:101E70001D928A95E9F780E6C82E81E0D82EF12CD4
:101E8000E12CAA24A394B12C2AE6822E21E0922EE2
:101E9000F60181916F018F3F09F442C0F894E82F59
:101EA000E295EF70F0E021A18F70A50102C0440F10
:101EB000551F8A95E2F7CA01922F982B91A392A100
:101EC0008095892382A3789400C0E4E6F1E0712C28
:101ED00031E021912F3F09F46BC0A22FA295AF7082
:101EE000B0E090968C9190E02F7002C09595879508
:101EF0002A95E2F780FD5CC0832F782A330F8E1677
:101F00009F0639F7F601319780818F3F11F00E94CB
:101F10006A0750EA5A95F1F7F801EE0DFF1D70823D
:101F20008FEFE81AF80AA4E0EA16F10409F0B0CF3E
:101F300048E050E0B80182E392E00E9492240097CA
:101F400041F028E0F801A2E3B2E001900D922A9559
:101F5000E1F700913B02892B69F181E080930F0248
:101F60000E94220E90930E0280930D0280910D022A
:101F700090910E020E94130E059700F110E00E5B87
:101F80001D4F44E050E062E372E0C8010E949224D9
:101F9000B12C892B51F084E0E2E3F2E0D80101900A
:101FA0000D928A95E1F7BB24B39410920F0207C0FB
:101FB00080E0A3CF80910F028111D8CFB12C0E9475
:101FC0004C0BF82EE0913B02882309F472C019866D
:101FD0001A861B861C860E2F10E00E5B1D4F80910B
:101FE0002D028A3088F54DE65CE0BE01675F7F4FC9
:101FF000C8010E94190B882309F44AC044E05CE040
:10200000BE01675F7F4FC8010E94190B882309F446
:102010003FC010922D0280913A0290E044E050E0DF
:10202000BE01675F7F4F8E5B9D4F0E94922421E02F
:1020300020931602892BF1F4F12C1F2D812F8B296F
:102040002C96EDE00C946224809110029091110284
:102050000E94130E843F914030F68091160288232F
:1020600059F3FE01399684E0DF011D928A95E9F764
:1020700010921602E0913A02F0E0EE5BFD4F898586
:102080009A85AB85BC8580839183A283B383D5CFAA
:1020900080912D028F3F31F08F5F80932D028A3027
:1020A00008F4B9CF0E94220E90931102809310027F
:1020B000D4CFF0E0EE5BFD4F84E0A1E2B2E001900E
:1020C0000D928A95E1F781E292E00E94EC04809300
:1020D0002002C0902502D0902602E0902702F090C6
:1020E00028028091120290911302A0911402B091E3
:1020F0001502C816D906EA06FB0611F410E09ECFB9
:10210000C0921202D0921302E0921402F0921502D1
:102110000E944C0B182F8111F1CF0E947106C61A34
:10212000D70AE80AF90AC0922E02D0922F02E09252
:102130003002F092310282CF809109029091080220
:10214000892B8093740180910C02882329F10E94CD
:10215000220E20910A0230910B02821B930B8C3DC0
:10216000954010F00E9470098091740190910C02CA
:10217000892B80937401809128018823E1F180915B
:10218000990487FF38C08EE1E6E7F1E090E08150E6
:10219000A0F591110E94700940E250E068EE71E0F4
:1021A00084E791E00E949224892B21F180E2E4E708
:1021B000F1E0A8EEB1E001900D928A95E1F7E0918F
:1021C0009004F09191043097A9F080912801882320
:1021D00059F08091990487FF07C080917401809322
:1021E000750186E0809374010280F381E02D84E71D
:1021F00091E00995089586E0C7CF2191222339F215
:102200009F5FC5CF1092090280912801E6E7F1E0B7
:10221000882329F18091990487FF21C08EE1DF0195
:102220001D928A95E9F790E080E00E94010790E016
:1022300080E00E94DC06109208020E949C1086E05A
:10224000E2E8F4E0DF011D928A95E9F710927B0441
:1022500010927C0410927D040E942E0E089586E058
:10226000DECFAAE2B0E0E7E3F1E10C94502482EC87
:1022700094E02091F100FC012193CF01F4E08A3C2D
:102280009F07B9F78091C304833009F470C0B8F494
:10229000813009F447C0823009F4B1C08091E80070
:1022A00083FF7EC28091C2049091C3049A3008F0EB
:1022B00077C2E92FF0E0E451FB4D0C948C248A3076
:1022C00009F48CC08B3009F46FC0893039F78091E4
:1022D000C204813219F78091C6049091C704029715
:1022E000E8F68091E800877F8093E8008091E8001D
:1022F00082FF38C09091F3008091F200029731F490
:102300008091F100813011F0863021F48091F1004C
:1023100080939D048091E8008B778093E8000E9471
:102320005305BCCF8091C204813A09F0B7CF8091A8
:10233000E800877F8093E8008091C6049091C704ED
:10234000892B61F460E28EE994E070E00E94FF0561
:102350008091E8008B778093E800A0CF60E090E068
:1023600080E0F3CF8091C0048111C0CF97CF8091DE
:10237000C204813A09F092CF8091C6049091C704BB
:10238000892B09F08BCF8091E800877F8093E8004C
:102390008091E80080FFFCCF809128018093F100BC
:1023A0008091E8008E77B9CF8091C204813209F024
:1023B00075CF8091C6049091C704892B09F06ECF28
:1023C0008091E800877F8093E8000E945305809108
:1023D000C404809328010E94021160CF8091C2043E
:1023E000813209F05BCF8091E800877F8093E8001D
:1023F0000E9453058091C50480939C044FCF809127
:10240000C204813A09F04ACF8091E800877F809327
:10241000E8008091E80080FFFCCF80919C04BECF53
:10242000803899F0823809F0BBC18091C6048F7062
:10243000873008F0B5C18093E9008091EB0085FBFF
:10244000882780F91092E90006C08091BE0490911F
:10245000BF04911182609091E800977F9093E8000B
:102460008093F1001092F1008091E8008E7794C182
:10247000882309F482C1823009F092C18091C4049A
:10248000811185C18091C6048F702FEF280F2630EF
:1024900008F086C18093E9002091EB0020FF77C10E
:1024A000933031F48091EB0080628093EB006FC138
:1024B0009091EB0090619093EB0021E030E001C03F
:1024C000220F8A95EAF72093EA001092EA008091A1
:1024D000EB008860EACF811163C11091C4041F77BB
:1024E0008091E3008078812B8093E3008091E80065
:1024F000877F8093E8000E9453058091E80080FF69
:10250000FCCF8091E30080688093E30082E01111AA
:1025100083E08093C00444C18058823008F040C1F9
:102520008091C4049091C5048C3D23E09207A1F5ED
:1025300083E08A838AE289834FB7F894DE01139699
:1025400020E03EE051E2E32FF0E050935700E491A9
:1025500020FF03C0E295EF703F5FEF708E2F90E099
:10256000EA30C0F0C7968D939D932F5F243159F7C1
:102570004FBF8091E800877F8093E8006AE270E0B7
:10258000CE0101960E94FF058091E8008B77809331
:10259000E80006C1C096E7CF4091C6045091C70439
:1025A000292F33272330310509F444C078F5213031
:1025B000310509F46FC08BE390E0E8E7F8E02230E2
:1025C000310509F0EDC02091E800277F2093E80055
:1025D0002091C8043091C9048217930708F49C0124
:1025E00040E02115310509F064C0411162C08091BD
:1025F000E80082FDC9CF8091C004882329F285308C
:1026000019F28091E80083FFF2CFBECF213231056D
:10261000A9F12232310509F0C3C04115510509F471
:1026200043C04130510509F0BBC086EB90E0E2E8C1
:10263000F7E0C9CF992781309105C1F0009759F093
:10264000029709F0ADC0E5ECF8E0E4918E2F90E040
:10265000E5ECF8E007C0E5EEF8E0E4918E2F90E0BD
:10266000E5EEF8E0009709F49BC0ADCFE3EDF8E0AC
:10267000E4918E2F90E0E3EDF8E0F4CF41155105A1
:1026800071F04130510509F08BC089E090E0E3EA38
:10269000F8E099CF82E190E0E3EBF8E094CF89E0B5
:1026A00090E0EAE8F8E08FCF80E490E0E8E3F8E03B
:1026B0008ACF8091C004882309F466CF853009F45D
:1026C00063CF8091E80083FD5FCF8091E80082FDB9
:1026D0008ECF8091E80080FF84CF9091F3008091AD
:1026E000F2002115310519F08830910550F041E0D4
:1026F000089709F040E08091E8008E778093E80029
:1027000070CF44914093F1003196215031090196E8
:10271000E8CF803809F044C08091E800877F80933B
:10272000E8008091C1048093F1009ECE811138C0F1
:102730001091C4041230A0F58091E800877F809347
:10274000E8001093C1040E945305112311F084E0A6
:1027500005C08091E30087FDFACF81E08093C0043B
:1027600042E061EC81E00E94720542E261EC82E0AD
:102770000E9472058091C00413C08091C40481300E
:1027800079F481E0933009F080E08093BF041092E7
:10279000E9008091E800877F8093E8000E9453055C
:1027A0008091E80083FF0AC08091E800877F8093D2
:1027B000E8008091EB0080628093EB00AA96E3E052
:1027C0000C946C241F920F920FB60F9211242F932A
:1027D0003F934F935F936F937F938F939F93AF93A9
:1027E000BF93CF93DF93EF93FF93D091E900DF7016
:1027F0008091EC00C82FC17080FDC0E81092E90004
:102800008091F000877F8093F00078940E943111CE
:102810001092E9008091F00088608093F000CD2B49
:10282000CF70C093E900FF91EF91DF91CF91BF91FD
:10283000AF919F918F917F916F915F914F913F9158
:102840002F910F900FBE0F901F9018950E940211AC
:102850002FEF84E39CE0215080409040E1F700C0DE
:10286000000088E19AE00FB6F894A8958093600084
:102870000FBE90936000FFCF882321F00E947B0958
:102880000E949C100895882339F090910902982B9A
:10289000909309020E949C100895882399F19CEF5F
:1028A000980F913A40F4682F84E791E00E947D06EA
:1028B0000E949C10089590E2980F983050F4877011
:1028C00091E001C0990F8A95EAF7892F0E947B0950
:1028D000EFCF9BE5980F933028F490E080E00E94C2
:1028E0000107089598E5980F993128F490E080E069
:1028F0000E94DC06089593E3980F933118F460E08A
:102900000E94550E0895CF93C82F8823D9F18CEFDC
:102910008C0F813AC8F580912801882311F18091AC
:10292000990487FF1EC0EC2FE695E695E695F0E04A
:10293000EC58FE4F828190E04C2F477021E030E050
:1029400002C0220F331F4A95E2F782239323892B7B
:1029500091F06C2F84E791E00E947D060E949C100C
:102960000AC0E6E7F1E08CE791E02191C21789F314
:102970008E179F07D1F76C2F84E791E00E94A7067E
:102980000E949C10CF91089580E28C0F883068F4EB
:10299000C77021E030E001C0220FCA95EAF78091AC
:1029A0000902822B80930902EBCFEBE5EC0FE330B9
:1029B00040F4F0E0E75DFE4F808190E00E94010767
:1029C000E1CFE8E5EC0FE93150F4F0E0EE0FFF1F46
:1029D000E45DFE4F808191810E94DC06D3CF83E3CA
:1029E0008C0F833178F661E08C2F0E94550ECACF90
:1029F0001F93CF93DF93182FD0E0C0E0893311F4F9
:102A0000C0E5D0E0812F0E948314209739F4812FF4
:102A10000E944D14DF91CF911F9108958FE99FE09F
:102A20000197F1F700C000002197EFCFB0E0A0E0E0
:102A3000ECE1F5E10C944924EC018AE0A82EFE01BA
:102A40002491222309F497C0213009F03EC0319629
:102A50008491813031F42296FE0184910E94F81411
:102A600007C0823039F42296FE0184910E948314BB
:102A70002196E5CF833031F42296FE0184910E94A5
:102A80004D14F6CF843009F074C02296FE012491D3
:102A900090E080E0FE0131962053330B2A3031055F
:102AA00048F0019728F3EFE9FFE03197F1F700C014
:102AB0000000F7CFA89EA001A99E500D1124C901C6
:102AC000840F951F2491EF01E5CFE22FF0E0E75E40
:102AD000F64FB490822F86958695869590E0FC01FE
:102AE000E75FF64FE4902770F12C022E02C0F594B8
:102AF000E7940A94E2F731E0E322FF24FC01E75077
:102B0000F74FC490D12C022E02C0D594C7940A94DA
:102B1000E2F7E1E0CE22DD24FC01E751F74F04911A
:102B200010E002C0159507952A95E2F7017011276C
:102B3000E114F10419F081EE0E948314C114D10450
:102B400019F086EE0E9483148B2D0E94F814C11494
:102B5000D10419F086EE0E944D14E114F10419F02D
:102B600081EE0E944D140115110509F481CF8CE20C
:102B700075CFEF017DCFCDB7DEB7EAE00C946524C9
:102B80000F931F93CF93DF93C62FD42F022FFC01F7
:102B900082818823A9F06093CC040E94220E909336
:102BA000CB048093CA04C77081E001C0880FCA9526
:102BB000EAF70E944314DF91CF911F910F9108957E
:102BC0008091CC04681332C08091CA049091CB04E8
:102BD0000E94130E883C910548F510E21D0FCD1799
:102BE000B9F080E28C0F883040F4C77081E001C0FA
:102BF000880FCA95EAF70E943C14183048F481E027
:102C00009D2F977001C0880F9A95EAF70E94431490
:102C1000802F0E94F814183070F6D77081E001C040
:102C2000880FDA95EAF70E943C14C5CFC77081E09F
:102C300001C0880FCA95EAF7F6CFA5E0B0E0E3E25D
:102C4000F6E10C9447247C01DC0113968D919C9154
:102C50001497892B39F08C9111969C9189238F3F81
:102C600009F021C42596ECE00C9463240E948C09A1
:102C7000182F682F89819A810E94000A69817A81C0
:102C8000812F0E94C4078C01FC01FE57E031F10541
:102C900008F07FC0EA50FB4DD70112968C910C943E
:102CA0008C24882321F086E092E00E941615F7011B
:102CB0008281882309F420C41092CC04C801905763
:102CC000839708F003C484E090E00E94B0249093BE
:102CD0009A0480939904F801E150F047E232F1053B
:102CE00008F092C0EA5FFA4D0C948C248823F9F224
:102CF0008EEE91E0DACF8823D1F286ED91E0D5CF48
:102D00008823A9F28DEB91E0D0CF882381F285EA68
:102D100091E0CBCF882359F28DE891E0C6CF88238C
:102D200031F285E791E0C1CF882309F28DE591E08A
:102D3000BCCF882309F4BBCF89E491E0B6CF8823C8
:102D400009F4B5CF85E391E0B0CF882309F4AFCF84
:102D500080E291E0AACF882309F4A9CF89E091E02D
:102D6000A4CF882309F4A3CF8FEE90E09ECF8823D1
:102D700009F49DCF8BED90E098CF882309F497CF8D
:102D800084EC90E092CF882309F491CF8CEA90E014
:102D90008CCFFC01E851FC47E730F10508F087CF04
:102DA000E85DFA4D0C948C2426E241EE61EEC701F9
:102DB0000E94C0158091E701877009F453CFD701B5
:102DC00012968C91882309F44DCF80919A0482FF4A
:102DD00049CF82E00E944D0A45CF27E245EE65EEDD
:102DE000E6CF26E241EE60EEE2CF27E245EE64EE6A
:102DF000DECF26E241EE62EEDACF27E245EE66EE66
:102E0000D6CF28E241E0EBCF809199048160809396
:102E1000990495C080919A04886080939A048FC029
:102E2000809199048260F3CF809199048460EFCF00
:102E3000809199048860EBCF80919A048160EDCFF6
:102E400080919A048260E9CF809199048061DFCFFC
:102E5000809199048062DBCF809199048064D7CF00
:102E60000E940211809199048068D1CF80919904C9
:102E70008C60CDCF80919A048360CFCF80919904EC
:102E80008E7FC5CF80919A04877FC7CF80919904A8
:102E90008D7FBDCF809199048B7FB9CF80919904AC
:102EA000877FB5CF80919A048E7FB7CF80919A04A7
:102EB0008D7FB3CF809199048F7EA9CF80919904A3
:102EC0008F7DA5CF809199048F7BA1CF0E940211A5
:102ED000809199048F779BCF80919904837F97CFBE
:102EE00080919A048C7F99CF8091990482FB9927D5
:102EF00090F921E0922790FB82F990FB83F987CF2C
:102F000080919A04982F909591708E7F892B90FBD9
:102F100081F983CF90919904892F8F7B96FF8064EC
:102F200076CF0E94021190919904892F97FB87F91F
:102F300080586DCF61E08EE090E00E94B6246091F1
:102F4000990470919A0484E090E00E94D4240E9435
:102F5000021130CF60E0EFCF90919904892F8F7EDE
:102F600094FF806154CF90919904892F8E7F90FFB8
:102F700081604DCF90919A04892F877F93FF88605D
:102F80004CCF0E940211FFEF24E33CE0F1502040BF
:102F90003040E1F700C000000E9460066FEF7FEF55
:102FA00090E080E00E94D4240E94261480919A042C
:102FB00082FB882780F991E089270E94ED0BF701B9
:102FC000828100811181882309F446C0C8010E94D2
:102FD0008C09D82E682FC8010E94000AB8018D2DD7
:102FE0000E94C4070E94E1078C01882ED701129627
:102FF000DC9012971596BC90B2943FE0B32280917A
:10300000E7018770C1F0AD2CDD20B1F0812F807F0A
:10301000803421F080E2800F883068F080919A043B
:1030200082FF09C082E00E944D0A8091E70187700B
:10303000AA24A3948111A12C912E92942FE0922284
:10304000BBE0B91508F474C0E92DF0E0E15DFA4D7C
:103050000C948C2480E0B1CFC8010E94CD09D82EF9
:10306000BDCFE12FEF70CE2E107F19F0C29490EFFC
:10307000C922DD20B9F0CC2069F080E2800F8830D1
:1030800010F0811009C080910902C82AC09209027B
:103090000E949C10802F4AC080910802C82AC092CA
:1030A0000802F6CF802F0E944D14CC2009F440C0B6
:1030B000005E083010F0811004C08C2D0E947B0946
:1030C00006C0C09480910802C822C09208020E94E3
:1030D0009C102EC0F12FFF70CF2E107F103219F0F0
:1030E000C29480EFC822882089F021E0821609F47A
:1030F00082C0DD2009F48BC0BB2009F455C0F70164
:10310000858180FFC7CF8F7085834EC090919A04D0
:1031100092FD43C0DD20D9F1CC2039F08091090225
:10312000C82AC09209020E949C1080E00E94831469
:10313000A92DA850BB0B149710F40E946F0BAA2066
:10314000A9F08091E70180FD11C0F70112828595F9
:10315000859585950E946D0AC7010E941D16809174
:10316000E7018595859585950E943B0A85E0F701E5
:10317000DE01119601900D928A95E1F709811A817D
:10318000C8010E94CD09B8010E94C4076BCD80E040
:103190000E944D14CC2061F290CFDD20D1F08091BF
:1031A0000C02C82AB11004C08C2D0E944314C0CF59
:1031B00031E0B312F9CF92FFBBCFC81609F4B8CFF4
:1031C0000E94220E90930B0280930A02C0920C027E
:1031D000AFCFB11006C00E9470098C2D0E943C1424
:1031E000A7CF81E0B81609F4A3CF8C2D0E943C1420
:1031F0000E9470099DCFDD2029F095E09B1508F411
:1032000097CFD2CFA4E0AB1508F492CFE6CFBB2086
:1032100021F3F9E38F1209C02FEF37EE83E021503D
:1032200030408040E1F700C00000802F0E944D1424
:103230007FCF812F86958695837061F0813009F06C
:1032400077CFC8019370D11002C080E090E00E9457
:10325000DC066ECFC8019370D11002C080E090E010
:103260000E94010765CF6D2D802F0E94550E60CF03
:10327000812F837009F03FC0D1105ACF402F429563
:1032800046954770440F440F802F8F7090E0042EB6
:1032900002C0880F991F0A94E2F730E020E004FF93
:1032A00009C02FE030E002C0220F331F4A95E2F739
:1032B00020953095169516951370123099F078F484
:1032C00040913C0250913D02113039F0822B932BFA
:1032D000842395230E947D0A2BCF842B952B822B50
:1032E000932BF8CF822B932B20913C0230913D02FF
:1032F00082279327EFCF8695DD2011F0812F8170F3
:10330000882309F415CF402F429546954770440F06
:10331000440F802F8F7090E0042E02C0880F991FF9
:103320000A94E2F730E020E004FF09C02FE030E02B
:1033300002C0220F331F4A95E2F72095309516956B
:1033400016951370123099F078F440913E02509126
:103350003F02113039F0822B932B842395230E9456
:10336000360AE6CE842B952B822B932BF8CF822B1B
:10337000932B20913E0230913F0282279327EFCF7B
:103380001F70DD2029F0812F0E946D0A802F0DCF44
:10339000802F0E943C14812F0E943B0AC9CE802FAF
:1033A00092EF891699F1981570F0A0EF8A16D1F076
:1033B000B1EF8B1691F0DD2009F465C0B1106ACE33
:1033C000812F8F7127C0E3EF8E1639F1F4EF8F1242
:1033D000F2CF80919A0482FD2EC0812F8F71DD2063
:1033E000D9F218C0DD2069F024E02B1508F4A0CE36
:1033F0001F7181E090E002C0880F991F1A95E2F7D3
:10340000B8CF35E03B1508F493CEF2CF812F8F7102
:10341000D110C2CF0E946D0A8BCE90E080E0DD20FB
:1034200009F49DCF1F7181E090E002C0880F991FC1
:103430001A95E2F794CFDD20D9F01F71812F0E94F9
:103440006D0A80919A0482FF11C0A8E01A9FC00102
:10345000112483608093E701812F0E946D0A0E94EE
:10346000220E9093E6018093E50162CE812FD2CFA8
:1034700081E00E944D0AB1E0BB1508F059CE82E010
:103480000E944D0A55CEBB2059F0893309F0CDCEAC
:10349000EFEFF7EE23E0E150F0402040E1F7C3CE3C
:1034A000812F8F7179CF85E0F701DE0111960190B0
:1034B0000D928A95E1F7D70112962C9189819A8114
:1034C0002111D4CB0E94CD09182FD8CB0631BCE7EF
:1034D0001B0709F5809109028A7A91E009F490E0CE
:1034E0009093940169E2811165E384E791E00E9481
:1034F000A7060E949C105ECC0631ECE71E0709F07F
:103500005ECD8091940169E2811165E384E791E0E9
:103510000E947D06EECF0330FCE71F0709F43ECD85
:1035200050F401153CE7130709F42BCD01301C477B
:1035300009F43ACD44CD0B359CE7190709F48ACD3F
:103540000C35ACE71A0709F431CD0A351C4709F0F0
:1035500036CD81E032CD1F93CF93DF938091B201BE
:10356000807F09F049C08091AF01882309F444C0ED
:103570008091E401D091B3016091AD017091AE01F1
:10358000A091B001B091B101C62FC72316E0D817A2
:1035900099F190E0109711F0CF3F19F401968770E0
:1035A000F6CF189F9001199F300D1124F901EC54AA
:1035B000FE4F41814713F2CF40814613EFCF428146
:1035C0004111ECCF438154814A1B5B0B483C5105B0
:1035D00028F78091B2018F7080618093B201F90168
:1035E000E754FE4F80818F70806180838DEA91E087
:1035F0000E941D160E948209DF91CF911F910895AC
:10360000A1E1B0E0E6E0FBE10C9449248C0185E007
:10361000F801DE011D9601900D928A95E1F7F801FF
:10362000E2808DEAA82E81E0B82E6091B001709101
:10363000B1016115710509F416C19091AD01409178
:10364000AE01892F84238F3F09F40DC12081318180
:10365000C380D480F090AF01F601E61BF70BFF208A
:1036600009F4E8C08091B201582F507FE83CF10581
:1036700008F0ABC051116BC0FE2C431314C0921361
:1036800012C0E11010C08F7080618093B201C5013B
:103690000E941D168091B201F80185838F2D6196DD
:1036A000EAE00C946524C114D10429F0822F83230D
:1036B0008F3F09F0F3C080E0F82FF170DF2E80FF1C
:1036C0003CC08091E4014091B30156E0841315C0E1
:1036D0002D873E878D859E850E94C009292F2295C2
:1036E0002F702230F0F0243018F59F70F1F0F801BF
:1036F0009581907FD1F4D12C1EC090E0589FF001AD
:10370000599FF00D1124EC54FE4F6181361306C011
:103710006081261303C06281E6120FC00196877094
:10372000D5CF9F7011F0882331F3805E883018F375
:10373000C8010E941D16FD2CB1CFEE2009F4AECFBA
:103740008091B20181608093B201F12CA7CF431325
:1037500012C0921310C0E1100EC0F8018583C80199
:103760000E941D1686E0F801ADEAB1E001900D92CD
:103770008A95E1F793CFC8010E94820A882309F154
:10378000EE20F9F08091B201803270F02091AD010D
:103790003091AE0138872F831986DB86CA868C87E5
:1037A000CE0107960E941D1686E0F801ADEAB1E051
:1037B00001900D928A95E1F70E94AB1AFF24F394D1
:1037C0006DCFC8010E941D16F9CF51110AC08DEAB4
:1037D00091E00E941D1686E0F50111928A95E9F7A5
:1037E000B4CF43130FC092130DC0E1100BC0F8010A
:1037F0008583C8010E941D1686E0F50111928A9505
:10380000E9F74CCFC8010E94820A8823D1F2EE204A
:10381000C1F28091B201803238F22091AD01309135
:10382000AE013A8329831B82DD82CC828E83CE0156
:103830000196B8CFE83CF105F8F6FE2CEE2009F22F
:10384000431303C0921709F48DCFC8010E94820A66
:103850008111AACF8091B20181608093B201C80129
:103860000E941D161BCFEE2009F4ABCFC8010E94A9
:10387000820AF82E882309F4A4CF86E0F801ADEA85
:10388000B1E001900D928A95E1F78091AD019091A0
:10389000AE010E94C0090E94AB1A00CF81E08E25C4
:1038A0000BCFA7E1B0E0E7E5FCE10C9450244B8B93
:1038B0005C8B6D8B7E8B8F8B6111109208021A8A44
:1038C000198A85E0FE017396DE011D9601900D9226
:1038D0008A95E1F780919A0482FF1CC00E94220E13
:1038E0002091E5013091E601821B930B8C3D9540C0
:1038F00020F08091E70182FF79C00E94220E209182
:103900000A0230910B02821B930B8C3D954010F004
:103910000E94700986E0FE013D96DE011796019037
:103920000D928A95E1F7CE0107960E94001B88232D
:1039300059F016E08091E4019091B301891343C0DE
:103940006796E3E00C946C2486E0FE013796DE0176
:10395000119601900D928A95E1F78A859B85892BB6
:1039600041F38F81988589238F3F19F32091B3010B
:1039700030E0C9010196877099274091E40148170A
:10398000190671F40E9402111092B3011092E40121
:1039900086E0EDEAF1E0DF011D928A95E9F7C9CFF3
:1039A00096E0929FD001939FB00D1124AC54BE4F6E
:1039B000FE01319601900D929A95E1F78093B30143
:1039C0000E948209B6CF819FC00111248C549E4F62
:1039D0000E94001B882309F4B3CF8091E40190E09A
:1039E0000196877099278093E401A4CF82E00E941A
:1039F0004D0A83CF1F921FB61F9211248F939F935E
:103A0000AF93BF9380919404811113C0809195046A
:103A100090919604A0919704B09198044196A11DAD
:103A2000B11D8093950490939604A0939704B0934E
:103A30009804BF91AF919F918F911F901FBE1F90CF
:103A40001895CDB7DEB762970FB6F894DEBF0FBEFC
:103A5000CDBF85B7806885BF85B7806885BF84B7CF
:103A6000877F84BF0FB6F894A89580916000886125
:103A700080936000109260000FBE80E890E00FB667
:103A8000F89480936100909361000FBE88E697E000
:103A900090937301809372010E9403050E94A40514
:103AA0008091E20084608093E20078948091C00469
:103AB0008823A1F01091E9001F709091EC00892FEC
:103AC000817090FD80E8182B1092E9008091E80049
:103AD00083FD0E9431111F701093E90082E084BDC4
:103AE00093E095BD9AEF97BD80936E0010922E02E1
:103AF00010922F0210923002109231020E944C0B51
:103B0000809318010E944C0B81110E94CB2280915E
:103B100018018091180194E0811190E090933B028C
:103B200084E0891B80933A0284E90E946A0786E652
:103B30000E946A0787E90E946A0786EC0E946A076A
:103B400004E611E0EAE6EE2EE1E0FE2ED8018D91CA
:103B50008D018F3F11F00E946A07E016F106B1F760
:103B600088E0E2E4F2E0DF01282F1D922A95E9F7D0
:103B7000E2E3F2E0DF011D928A95E9F790E080E050
:103B80000E94B024873E9E4F09F45EC067EE7EEF30
:103B900090E080E00E94D42460E082E090E00E9407
:103BA000B62460E083E090E00E94B62410923D02CB
:103BB00010923C0260E074E184E090E00E94D42422
:103BC00060E086E090E00E94B6246FEF87E090E02E
:103BD0000E94B62440E050E0BA0188E090E00E94E4
:103BE000C82460E08DE090E00E94B62440E050E000
:103BF000BA0188E190E00E94C82460E087E190E08B
:103C00000E94B62440E050E0BA018CE190E00E94AE
:103C1000C82470E060E080E290E00E94D42440E09C
:103C200050E0BA0188E190E00E94C82440E050E0F2
:103C3000BA018FE090E00E94C82440E050E0BA0151
:103C400083E190E00E94C82482E090E00E94A824D2
:103C500080934A0284E090E00E94B02490939A04FA
:103C6000809399040E942D0FEFE3FCE93197F1F75F
:103C700000C000000E942D0F0E944C0BE4E0811157
:103C8000E0E0F0E0EE5BFD4F808181FF08C06FEF68
:103C90007FEF90E080E00E94D4240E94600683E0E1
:103CA00090E00E94A82490E00E947D0A1092740483
:103CB00080E8809353020E9485216DE070E081E7E7
:103CC00097E00E94800B892BC9F58091740463E012
:103CD00070E081FD98C08EE697E00E94800B892BF2
:103CE00069F56DE070E08EE597E00E94800B892B0E
:103CF00029F50E947106605A75418F4F9F4F60935E
:103D000088047093890480938A0490938B04E4E779
:103D1000F2E080E092E0DF019C011D9221503040F2
:103D2000E1F78FEF9FEF909377048093760481E023
:103D300080938D0480938C04109275040E944C0B28
:103D4000811102C00E94CE2289E191E090939104FA
:103D50008093900478E1272E312C8091C00400E1FB
:103D600012E1853009F48AC00E942D0F5BE4E52E34
:103D700052E0F52E62E4C62E62E0D62ED601F7019F
:103D800091918D9123E532E02E173F0709F480C011
:103D90009817B1F30E944C0B882E10E0D6010D91BC
:103DA0006D01F70191907F01901629F19026B12CB9
:103DB000AA24A394892D8A21B1F08820A1F0BC8681
:103DC0001D8791E0802F8A2109F490E09E870E9450
:103DD000220E8160782F988B8F874C855D856E854C
:103DE00088890E94511CB394AA0CF6E0BF12E2CF5E
:103DF000F701319700831F5F183081F60E9471062A
:103E0000DD24D39466C08BE697E067CF8091C00431
:103E1000843021F10E94AA0B1092940430E40FB672
:103E2000F894A895209260000FBE3093600083B78D
:103E3000817F846083BF83B7816083BF78948895D6
:103E400083B78E7F83BF0FB6F894A89580916000EA
:103E5000886180936000109260000FBE8091BF0463
:103E6000882361F00E942D0FE2E4F2E0819181113C
:103E70002CC28AE492E08E179F07C1F78091C0049C
:103E8000853009F4C3CF0E9402110E946F0B6CCFE2
:103E9000981380CF0E94220E8C0180914002909155
:103EA000410208171907A1F08FEF8F8388871986C1
:103EB0000E94220E8160782F9B878A874F815885C8
:103EC00069858B850E94511C10934102009340022A
:103ED000D12C0E944C0B80918D04882371F180912C
:103EE0007804909179040E94130EC29730F00E94DA
:103EF000220E9093790480937804809176049091B7
:103F00007704892B09F0F9C080918C048823A9F0EB
:103F10000E947106009188041091890420918A04FE
:103F200030918B04601B710B820B930B6F3F7F4FA3
:103F30008F4F9F4710F40E94AA0BD1100E94C50B0F
:103F400086E0E2E8F4E0DE01119601900D928A9598
:103F5000E1F7109284041092850410928604109266
:103F600087048B819C81892B09F44AC0809180044D
:103F7000909181040E94130E9C0190917B049923DF
:103F800009F4BEC125313105D8F19F3F19F09F5F7B
:103F900090937B041B81112359F00E9448079FEFE7
:103FA00011160CF491E0899F802D112480938404D4
:103FB0001C81112359F00E9448079FEF11160CF441
:103FC00091E0899F802D1124809385043091840491
:103FD0003323B1F020918504222391F045EB340383
:103FE000C0011124992309F460C19093840445EB26
:103FF000240390011124332309F45BC13093850419
:104000008D819E81892B09F44AC080917E04909114
:104010007F040E94130E9C0190917C04992309F463
:104020006AC121353105D8F19F3F19F09F5F909308
:104030007C041D81112359F00E9426079FEF111661
:104040000CF491E0899F802D1124809386041E81B9
:10405000112359F00E9426079FEF11160CF491E0EE
:10406000899F802D11248093870430918604332307
:10407000B1F020918704222391F045EB3403C00175
:104080001124992309F419C19093860445EB240364
:1040900090011124332309F414C13093870446E0BE
:1040A00050E0BE016F5F7F4F82E894E00E9492244F
:1040B000892B61F48091840490918504892B9091DF
:1040C0008604892B90918704892B11F00E942E0E73
:1040D00086E0FE013196A2E8B4E001900D928A9547
:1040E000E1F70E946F0B90917A04891709F435CE9D
:1040F00080937A040E94710630CE809175048111FC
:1041000003CF0E94C50B20917604309177042115CE
:10411000310509F4F9CE80E041E050E0082F10E0CD
:104120007A01082E02C0EE0CFF1C0A94E2F7B701D8
:1041300062237323672B11F48F5FF0CF9091740487
:1041400090FF9AC0880F880F880F809323011092E8
:104150002601895F8093240183E08093270124E670
:1041600030E047E050E061E271E088E70E942522FC
:10417000892B09F0C9CEA80195E0440F551F9A95E7
:10418000E1F78091740480FF89C0E4E5F2E080E209
:10419000DF011D928A95E9F7EEE6F1E0FA8BE98BF3
:1041A0000AE611E087E0982E88248394A989BA89C9
:1041B0002D91BA8BA98BF80141908F01440E552E99
:1041C000511CC2018C589D4F2C01E22FF0E0EC5A9B
:1041D000FD4F30E020E0692C621AC82C022E01C08D
:1041E000CC0C0A94EAF7520190E0D5018D915D0163
:1041F0008C21662D691B6770762E062E000C770BBE
:10420000B82F01C0BB0F7A94EAF77B2E71956195A8
:1042100071096770772701C086956A95EAF7782A51
:104220008081782A70829F5F9830F9F62F5F3F4F28
:1042300031962830310579F6E989FA89E257F1405B
:1042400009F0B4CF04E610E020E230E044E552E0AB
:1042500060E488E70E944622892B09F055CEE0945D
:10426000F0948091760490917704E822F922F092FC
:104270007704E092760448CE8295880F807680930A
:104280002301980136952795369527952093260189
:10429000815E809324011092270161CF4C585D4FBD
:1042A00004E610E020E230E0D3CF81E08093840484
:1042B0009ECE81E080938504A3CE81E08093860426
:1042C000E5CE81E080938704EACE09BD19BD09B42B
:1042D00000FEFDCF8091D8008F7D8093D800809123
:1042E000E00082608093E0008091E00081FDFCCFDF
:1042F0000E940211C3CD2B30310508F097CECFCEEE
:104300002B30310508F043CE7BCE1092B9008CE003
:104310008093B8000895B0E0A0E0E1E9F1E20C94E8
:104320004824B82EEB010E94220E6C01EE24E39487
:10433000F12CC431D10560F025E0E22EF12CCF3F05
:10434000DC0731F0CE0164E170E00E942D247B0196
:1043500084EAA82E94E8992E1092BC00A092BC008A
:104360000E94220E8C018091BC0087FF0DC08091BD
:10437000B900887F8830F9F08091B900887F80315A
:10438000D1F00FEF1FEF08C0C8010E94130EE8160E
:10439000F90648F70EEF1FEFCF3FDC07E9F2C60141
:1043A0000E94130EC817D907B8F6C801CDB7DEB7FB
:1043B000EBE00C946424B092BB009092BC000E948D
:1043C000220E8C018091BC0087FF0AC08091B90049
:1043D000887F883111F08034A1F610E000E0E5CF4D
:1043E000C8010E94130EE816F90660F7D3CF0F93A9
:1043F0001F93CF93DF93EB018093BB0084E88093FE
:10440000BC000E94220E8C018091BC0087FF11C06D
:104410002091B900287F81E090E0283211F490E0EB
:1044200080E0919581959109DF91CF911F910F9136
:104430000895CF3FDC0741F3C8010E94130EC8174F
:10444000D90710F78EEF9FEFEFCFB0E0A0E0EBE2DF
:10445000F2E20C944B246B018A017901B9010E94AC
:104460008B21E6010C0D1D1DC017D10711F097FF20
:1044700008C024E92093BC00CDB7DEB7E8E00C9477
:104480006724B70189910E94F721EECFB0E0A0E048
:10449000ECE4F2E20C944B24C62F6A017901B801D6
:1044A0000E948B2197FD0CC0B8018C2F0E94F72130
:1044B000E601EC0CFD1CCE15DF0511F097FF08C0DE
:1044C00024E92093BC00CDB7DEB7E8E00C94672464
:1044D000B80189910E94F721EECF84E98093BC0056
:1044E00008958EE14A9B02C08150E1F74A9BFECFBE
:1044F00008955A9880E28A95F1F75A9A0895FC0136
:104500003BE03A95F1F798E020E080E031E040E1CF
:104510004A95F1F7880F4A9B02C08160232742E049
:104520004A95F1F7000040E14A95F1F7915079F78B
:1045300090E19A95F1F799B132E03A95F1F70000E0
:1045400040E14A95F1F792FB992790F99227208153
:10455000920F90830895A1E0B0E0E1EBF2E20C94B9
:104560004D2419828C017C01E60EF11C0E151F05ED
:1045700041F481E09981911180E02196E6E00C946C
:1045800069240E947122CE0101960E947F22F801C7
:1045900081938F01EBCF529A5A9A089552985A9A62
:1045A000EA9AE9E6F0E080818F7C8083089561508B
:1045B000770B91E001C0990F6A95EAF720E031E0AE
:1045C000911108C0222391F05A9A80E28A95F1F75E
:1045D0005A980895492F482339F05A9A232740E2E0
:1045E0004A95F1F79695ECCF5A98F9CF5A98EDCFB6
:1045F000FF920F931F93CF93DF93EC018C01060F73
:10460000111DC017D10729F4CDB7DEB7E5E00C9432
:104610006A24F9900E94792268E08F2D0E94D722A7
:10462000F0CF1F920F920FB60F9211240F931F938A
:104630002F933F934F935F936F937F938F939F93AA
:10464000AF93BF93EF93FF93CF93DF930F92CDB7C9
:10465000DEB719820E947122CE0101960E947F224C
:10466000082F069506950695282F22952570902FE0
:104670009570290F922F937026952695920F982763
:1046800097708981982B09F05CC0043008F059C0FC
:1046900080E18A95F1F75A9A529A82E08A95F1F769
:1046A00000C05A9888E0089F80011124D801A050CA
:1046B000BF4F1696ED91FC9117973097A9F0609136
:1046C0005E0170915F0114962D913C911597260F14
:1046D000371F11968D919C911297680F791F139631
:1046E0004C9113978C910995F801E050FF4F63812D
:1046F000662351F020915E0130915F0184819581A4
:10470000820F931F0E94F8220E94792280E18A95ED
:10471000F1F75A9852985A9A80E18A95F1F7F80180
:10472000E050FF4F6081662351F020915E0130918F
:104730005F0181819281820F931F0E94AB220E94B0
:1047400071220F90DF91CF91FF91EF91BF91AF91C7
:104750009F918F917F916F915F914F913F912F9199
:104760001F910F910F900FBE0F901F9018950F93F0
:104770001F93CF93DF93EC0104970CF04CC0F89497
:10478000529A5A9885E08A95F1F700009C2F9695E9
:1047900095708C2F8570980F892F837096959695BC
:1047A00023E0CC0FDD1F2A95E1F7980F8E01092B2E
:1047B0000E94792200C068E0802F0E94D72280E109
:1047C0008A95F1F752985A9A4A9B1EC087E090E06A
:1047D0004A991CC0FE01E050FF4F63816623F9F047
:1047E00020915E0130915F0184819581820F931F3A
:1047F0000E94AB22811113C0529A5A9A7894DF9189
:10480000CF911F910F91089500C0DECF019729F439
:10481000529A5A9A789480E0F2CF00C0D9CF0E9481
:10482000712280E28A95F1F75A98529A80E18A952E
:10483000F1F7C050DF4F6881662351F020915E018F
:1048400030915F0189819A81820F931F0E94F82223
:104850000E947922789481E0D2CFAA1BBB1B51E140
:1048600007C0AA1FBB1FA617B70710F0A61BB70BE0
:10487000881F991F5A95A9F780959095BC01CD0185
:1048800008952F923F924F925F926F927F928F92F4
:104890009F92AF92BF92CF92DF92EF92FF920F93CF
:1048A0001F93CF93DF93CDB7DEB7CA1BDB0B0FB6D9
:1048B000F894DEBF0FBECDBF09942A883988488896
:1048C0005F846E847D848C849B84AA84B984C8842C
:1048D000DF80EE80FD800C811B81AA81B981CE0F23
:1048E000D11D0FB6F894DEBF0FBECDBFED01089508
:1048F00097FB072E16F4009407D077FD09D00E948D
:104900002D2407FC05D03EF4909581959F4F089586
:10491000709561957F4F0895EE0FFF1F0590F491FC
:10492000E02D0994FB01DC0104C08D9101908019F8
:1049300021F441505040C8F7881B990B0895FB01A2
:10494000DC0102C001900D9241505040D8F708950B
:10495000F999FECF92BD81BDF89A992780B5089547
:10496000A8E1B0E042E050E00C94DC24262FF99955
:10497000FECF92BD81BDF89A019700B4021639F0BE
:104980001FBA20BD0FB6F894FA9AF99A0FBE08958F
:104990000396272F0E94B7240E94B624252F0E9439
:1049A000B724242F0C94B7240196272F0E94B724F4
:1049B0000C94B624DC01CB01FC01F999FECF06C0B2
:1049C000F2BDE1BDF89A319600B40D9241505040CD
:1049D000B8F70895F894FFCF10123812D013381298
:1049E000D0136B128C12D0138913961351167616AE
:1049F0007B16801685168A168F16941699169F16A2
:104A0000A516AB16B116B716BD16C3163E17B317CB
:104A10004617101714174A1718174E175A17241746
:104A2000AC1728175E172C1762178A1730176617EE
:104A3000911736176C1774171C1752172017561733
:104A40003A17701780179A17AA170A174217BA173A
:104A5000F116F516D416ED16F916FD1601173118D4
:104A600031186A186A1819193319981898183819CA
:064A7000C019CF19CF1997
:104A7600000000010000000000000004010000002A
:104A86000405000000000000015D06F50AEE0AE7D5
:104A96000A0021007F22000301818283E200E900EF
:104AA600EA00B500B600B700CD008301CC008A014C
:104AB60092019401210223022402250226022702E2
:104AC6002A02B300B4006F0070009F01CB012002E0
:104AD600946697C6F4F5F6F73133000810181810E7
:024AE6000800C6
:00000001FF
