:100000000C94C0050C94F8050C94F8050C94F805B4
:100010000C94F8050C94F8050C94F8050C94F8056C
:100020000C94F8050C94F8050C94EF1B0C94FE212D
:100030000C94A42B0C94F8050C94F8050C94F8057A
:100040000C94F8050C94F8050C94F8050C94F8053C
:100050000C94F8050C94C81C0C94F8050C94F80545
:100060000C94F8050C94F8050C94F8050C94F8051C
:100070000C94F8050C94F8050C94F8050C94F8050C
:100080000C94F8050C94F8050C94F8050C94F805FC
:100090000C94F8050C94F8050C94F8050C94F805EC
:1000A0000C94F8050C94F8050C94F8050101E30193
:1000B0000432307C77686174010432307C0101289D
:1000C000000101E3010432307C6D69726F0104327A
:1000D000307C010128000101E3010432307C6F759E
:1000E000746C6F6F6B010432307C010128000101D8
:1000F000E3010432307C73706F010432307C010103
:1001000028000101E3010432307C6974756E657367
:10011000010432307C010128000101E30104323086
:100120007C666967010432307C010128000101E32B
:10013000010432307C706F7765727368656C0104FE
:1001400032307C010128000101E3010432307C6E71
:100150006F74657061010432307C01012800010177
:10016000E3010432307C74656C65010432307C013B
:100170000128000101E3010432307C6E6F74010438
:1001800032307C010128000101E3010432307C633C
:100190006872010432307C010128000102E3200171
:1001A00003E3010432307C77686174010432307CEF
:1001B000010128000102E3200103E3010432307C45
:1001C0006D69726F010432307C010128000102E385
:1001D000200103E3010432307C6D61690104323097
:1001E0007C010128000102E3200103E30104323015
:1001F0007C73706F010432307C010128000102E33E
:10020000200103E3010432307C6D75730104323048
:100210007C010128000102E3200103E301043230E4
:100220007C666967010432307C010128000102E329
:10023000200103E3010432307C7465720104323022
:100240007C010128000102E3200103E301043230B4
:100250007C74657874010432307C0101280001024D
:10026000E3200103E3010432307C74656C01043245
:10027000307C010128000102E3200103E301043284
:10028000307C6E6F74010432307C01012800010261
:10029000E3200103E3010432307C73616601043220
:1002A000307C01012800167C1E001F002000210068
:1002B0002200230024002500260027002D002E0008
:1002C0002A0041522B421B000F001C0013000E009D
:1002D0001D0009001200180034002F0030002A040D
:1002E0004C00394306001500160017000A001000E4
:1002F000110008000C0004003300000028442B0803
:10030000A2520D00190007001A00140005000B008E
:10031000360037003800B252000052003508215034
:1003200024502850000000002C000000000031473D
:10033000354566525000000051004F00167C1E00EB
:100340001F00200021002200230024002500260099
:1003500027002D002E002A0040522B0014001A0006
:100360000800150017001C0018000C0012001300F4
:100370002F00300031004C00390004001600070047
:1003800009000A000B000D000E000F0033003400BE
:10039000000028002B08E1001D001B0006001900CA
:1003A000050011001000360037003800E50000009D
:1003B00052003508E000E200E300000000002C00DD
:1003C00000000000E7003545E60050000000510045
:1003D0004F000100010001000100010001000100C7
:1003E0000100010001000100010001000100010005
:1003F00001000100010001000100010021022400B0
:100400002500260038000100010001000100010064
:100410000100E000E300E10001002E0221002200C3
:1004200023002E0001000000010001000100010076
:1004300001000100010001002D001E001F0020002E
:10044000370001000000010001000100010001006F
:100450000000000001000000000027000100010072
:100460000100000001000100010001000100010085
:100470000100010001000100010001000100010074
:100480000100010001000100010001000100010064
:100490000100350036022F00300037020100010054
:1004A0000100010001000100E000E300E1000100A3
:1004B0002E02330226022702330001000000010051
:1004C00001000100010001000100010001002D02F6
:1004D0003402240231023100010000000100010059
:1004E0000100010001000000000001000000000008
:1004F00001000100010001000000010001000100F5
:1005000001000100010001000100010001000100E3
:1005100001000100010001000100010001000100D3
:10052000010050084F080100010001000100E70030
:10053000E60001000100010001000100500051002F
:1005400052004F0001000100E5000100DA00D9006F
:10055000010000000100010001001D081B08060841
:100560001908010001000100010001000100010063
:100570000000010001000100010001000000000076
:10058000010000000000E400010001000100000083
:1005900001000100007C3A003B003C003D003E00B1
:1005A0003F004000410042004300440045004C0031
:1005B0000000037C2878BE00BD0027780000000002
:1005C0000000000000000000000000000000207893
:1005D000A800AC00AA00A900AB00000000000000C9
:1005E00000000000000000000000000021782C0145
:1005F000000000002A7829780000000000000000B8
:100600000000000000000000257822781C701B709C
:10061000000000000000AE0000000000000000002C
:1006200000002478000026782378010001000100F2
:1006300001000100010001000100010001000100B2
:100640000100010001000100010014001A0008006F
:10065000150017000100DA00CD00D90001000100EB
:1006600001000100DF00010004001600070009007E
:100670000A00DB00CF00CE00D000DC00010000004B
:100680000100DE0001001D001B0006001900010032
:10069000D100D200010001000100010000000100B2
:1006A000DD00010001000100000000000100000069
:1006B0000000010001000100010000000100010034
:1006C000000000000000000000000000000000002A
:1006D0000000000000002D082E082A08000000007D
:1006E000000000000000000000000000077E057E02
:1006F000097E00002F083008000000000000000004
:1007000000000000000000000000007E027E017E6C
:10071000037E000000000000000000000000000058
:100720000000000000000000047E067E0A7E087EB5
:1007300000000000000000000000000000000000B9
:1007400000002C0800000000000000000000000075
:100750000000000000000001010101010101010190
:100760000202020202020202020303030303030362
:10077000030404040404040405050505050606062F
:100780000606070707070708080808090909090AEC
:100790000A0A0B0B0B0C0C0C0D0D0D0E0E0E0F0F91
:1007A0000F1010111111121213131414151516161F
:1007B0001717181819191A1A1B1B1C1D1D1E1E1F8E
:1007C0002020212222232424252626272829292ADD
:1007D0002B2C2D2D2E2F3031323233343536373805
:1007E000393A3B3C3D3E3F40414243444546474801
:1007F000494A4C4D4E4F50515354555658595A5BD7
:100800005D5E5F616264656668696B6C6D6F707276
:10081000737577787A7B7D7E8082838587888A8CE2
:100820008E8F91939596989A9C9EA0A2A3A5A7A916
:10083000ABADAFB1B3B5B7BABCBEC0C2C4C6C9CB0D
:10084000CDCFD1D4D6D8DBDDDFE2E4E7E9EBEEF0C3
:10085000F3F5F8FAFDFF009B8B7B00AB8A7A00AAC8
:100860009A7900A9998900A8988800A7978700A677
:10087000968600A5958500A49484003C4C5C002CD1
:100880004D5D002D3D5E002E3E4E0030405000314B
:100890004151002A3A4A002939490028384800279E
:1008A0003747002636460025355600244555003486
:1008B000445400AC9C8C00AD9D8D00AE9E8E00AF6C
:1008C0009F8F00B0A09000B1A19100324252002B46
:1008D0003B4B01A9998901A8988801A7978701A690
:1008E000968601A5958501A49484013C4C5C012C5D
:1008F0004D5D012D3D5E012E3E4E012F3F4F0130DB
:1009000040500033435301AB8A7A0128384801270D
:10091000374701263646012535560124455501AC99
:100920009C8C01AD9D8D01AE9E8E01AF9F8F0131DC
:100930004151013242520133435300B2A281019B23
:100940008B7B012B3B4B012A3A4A0134445401B1C1
:10095000A19101B2A28101B3928201A3938300A36A
:10096000938300B3928205010902A1018502090166
:10097000A10005091901290815002501950875012F
:1009800081020501093009311581257F950275081D
:10099000810609381581257F950175088106050CAA
:1009A0000A38021581257F950175088106C0C005AA
:1009B000010980A101850319012AB700150126B795
:1009C00000950175108100C0050C0901A101850485
:1009D00019012AA002150126A002950175108100B7
:1009E000C005010906A1018506050719E029E715DB
:1009F0000025019508750181020507190029EF15E9
:100A000000250195F0750181020508190129059558
:100A10000575019102950175039101C00501090653
:100A2000A101050719E029E71500250195087501C1
:100A300081029501750881010507190029FF15003C
:100A400026FF0095067508810005081901290595FE
:100A50000575019102950175039101C009023B00E2
:100A6000020100A0FA0904000001030101000921AC
:100A7000110100012240000705810308000109045B
:100A80000100010300000009211101000122B6004C
:100A90000705820320000112010002000000085A2D
:100AA000442114000201020001100344005A0036E0
:100AB00000350052004700420000000E0344005A77
:100AC00000540045004300480000000403090400EE
:100AD0000000000000000000000000000000000016
:100AE0000000000000000000000000000000000006
:100AF0000000007E0F00D4FFFFFFC7000000780059
:100B0000000000000000002A2B2800000000000068
:100B10000000000000000000000029000000002C80
:100B20001E3420212224342627252E362D3738271F
:100B30001E1F202122232425263333362E37381F2B
:100B40000405060708090A0B0C0D0E0F10111213ED
:100B50001415161718191A1B1C1D2F3130232D358B
:100B60000405060708090A0B0C0D0E0F10111213CD
:100B70001415161718191A1B1C1D2F3130354C006F
:100B800011241FBECFEFDAE0DEBFCDBF04B603FEF7
:100B900018C08091090790910A07A0910B07B091A6
:100BA0000C078730904BA740B04B59F410920907BF
:100BB00010920A0710920B0710920C07E0E0F8E37E
:100BC000099527E0A0E3B3E001C01D92A930B20768
:100BD000E1F713E0A0E0B1E0E0ECF4E602C005903C
:100BE0000D92A033B107D9F70E94CB2B0C94CF31D3
:100BF0000C94000090910307937061F081110BC079
:100C00009460909303071092140180910207816011
:100C10008093020708958E3110F09467F2CF880F09
:100C2000880F982BEECF90910307937071F080930B
:100C3000040760930507493C08F048EC4093060719
:100C4000809102078160809302070895E8EDF0E04B
:100C500080818E7F80831092E2001092DA001092E1
:100C6000E100A0EEB0E08C9181608C9380818F7761
:100C7000808319BCA7EDB0E08C918E7F8C9380812E
:100C80008F7E80831092A30608952091E400309116
:100C9000E50095E6A9012091EC00822F817020FFEC
:100CA00006C08091E80080FF06C080E00895209192
:100CB000E80022FD1AC08091C806882389F085309B
:100CC00089F08091EB0085FD0FC02091E400309108
:100CD000E50042175307F9F29150E1F684E00895D8
:100CE00082E0089583E0089581E008958091CA0626
:100CF00087FF13C08091E80082FF06C08091E80062
:100D00008B778093E80004C08091C8068111F2CFF0
:100D100008958091C8068823D9F38091E80080FF68
:100D2000F8CF8091E8008E77ECCF982F9093E90070
:100D3000242F762F50E0891731F07091EC0020912C
:100D4000ED005091F00021FD07C09F5F973071F7D3
:100D50008093E90081E008953091EB003E7F30936D
:100D6000EB003091ED003D7F3093ED003091EB00D2
:100D700031603093EB007093EC002093ED005093C2
:100D8000F0002091EE0027FDE0CF80E00895B0E074
:100D9000A0E0EDECF6E00C944C30C8EDD0E088819A
:100DA0008F7E8883E7EDF0E080818160808384E03E
:100DB00082BF81E08093A30688818E7F888302EEC4
:100DC00010E0F80110821092DA0081EEC82ED12CCA
:100DD000F601108288818F77888388818068888374
:100DE00088818F7D888319BC1092C8061092C9062D
:100DF0001092C7061092C60690EEE92EF12CF7016C
:100E000080818B7F808388818160888342E060E07D
:100E100080E00E949506F60180818E7F8083F80134
:100E2000808181608083808188608083F7018081F8
:100E30008E7F8083888180618883CDB7DEB7E8E0CC
:100E40000C946830FC018091D0069091D1068617F1
:100E50009707A0F06115710529F49091E8009E773D
:100E60009093E80090E06115710551F4911108C06C
:100E70008091E80082FF34C080E00895BC01F2CF89
:100E80008091C8068823C1F18530C1F18091E800C6
:100E900083FD30C08091E80082FDEACF8091E800B8
:100EA00080FFE1CF8091F3002091F200382F61158F
:100EB000710519F02830310558F091E028303105DE
:100EC00009F090E02091E8002E772093E800CBCF46
:100ED00081918093F100615071092F5F3F4FE7CFFF
:100EE0008091C806882341F0853041F08091E80068
:100EF00083FFBECF81E0089582E0089583E00895E6
:100F00008091A5060895209110012223C9F0209117
:100F1000A10627FF15C0E62FE695E695E695EE318A
:100F2000D8F4E80FF92FF11D677021E030E001C01F
:100F3000220F6A95EAF7209582812823228308955B
:100F4000FC01329608962191621303C0DF011197CC
:100F50001C92E817F907B9F7089520911001222390
:100F6000C1F02091A10627FF14C0E62FE695E69573
:100F7000E695EE31F8F4E80FF92FF11D677021E0E6
:100F800030E001C0220F6A95EAF78281822B8283CA
:100F90000895FC0132962FEF30E04191641751F033
:100FA0002F3F19F4411101C0232F3F5F3630A9F7BD
:100FB0002F3F09F40895820F911D27FD9A95FC019A
:100FC00062830895A3E0B0E0E8EEF7E00C945230BD
:100FD00020919A0630919B0628173907A1F090932B
:100FE0009B0680939A06E0919806F09199063097B7
:100FF00051F024E029839B838A830680F781E02DCA
:10100000CE01019609952396E2E00C946E30A3E0A0
:10101000B0E0EDE0F8E00C9452302091960630916B
:10102000970628173907A1F09093970680939606A4
:10103000E0919806F0919906309751F023E02983CA
:101040009B838A830680F781E02DCE010196099566
:101050002396E2E00C946E30E0919806F0919906A8
:10106000309729F00190F081E02D0995089580E0F6
:101070000895FA01811101C0FB0109950895E3E08B
:10108000F7E0248130E1231B08F420E024838091E1
:1010900002078160809302070895E3E0F7E024816E
:1010A00030E1230F08F42FEF248380910207816041
:1010B000809302070895E3E0F7E0438120E1421BBB
:1010C00008F440E08181628190E00E941306089557
:1010D000E3E0F7E0438120E1420F08F44FEF818124
:1010E000628190E00E9413060895E3E0F7E06281D8
:1010F00020E1621B08F460E08181438190E00E945E
:1011000013060895E3E0F7E0628120E1620F08F43E
:101110006FEF8181438190E00E9413060895E3E020
:10112000F7E08181438162818850990B0E94130608
:101130000895E3E0F7E0818190E0438162810896C1
:101140000E94130608958091030786958695815025
:1011500009F48DE10E94FA050895809103078695B0
:1011600086958F5F8E3108F081E00E94FA05089520
:1011700022E8241B08F420E0620F08954095282FF0
:10118000429F412D1124842F0895E42FF0E0EE0FAB
:10119000FF1FEC59FD4F9081921B97FD9195292FD0
:1011A00038E1239F212D1124620F08950F931F937F
:1011B00010E0F801EE0FFF1FEC59FD4F90819057A2
:1011C00097FD9195000F111FF801EB59FD4F00811C
:1011D0000052110B2003F001219FF00D112408E3B0
:1011E00010E0091B110997FD139540039001419FE1
:1011F000300D1124E20FF31F9F01220F331F2E0F1A
:101200003F1F37FF02C021583F4F220F232F221FBD
:10121000330B620F1F910F9108950F931F93522F5D
:1012200010E0F801EE0FFF1FEB59FD4FA081A05217
:10123000BB0B9D015203F001539FF00D1124000FD1
:10124000111FD801AC59BD4F0C910057110B400331
:101250009001419F300D11242E0F3F1F37FF02C018
:10126000215C3F4F96E0359527959A95E1F7620FFF
:101270001F910F9108950F931F93522F10E0F801C3
:10128000EE0FFF1FEB59FD4FA081A052BB0B9D013C
:101290005203F001539FF00D1124000F111FD801CC
:1012A000AC59BD4F0C910057110B40039001419F69
:1012B000300D11242E0F3F1F37FF02C021583F4F22
:1012C000220F232F221F330B620F1F910F910895BE
:1012D000EF920F93972F23E0029FB0011124759591
:1012E00067956E0D792F0F91EF900895322F50E092
:1012F000FA01EE0FFF1FEB59FD4F9081905297FDC1
:101300009195440F551FFA01EC59FD4F2081231B85
:10131000330B290F311D97FD3A95620F0895E42F85
:10132000F0E0EE0FFF1FEB59FD4F6081621B089547
:10133000E42FF0E0EE0FFF1FEC59FD4F6081621BC0
:101340000895622F0895E42FF0E0EE0FFF1FEC598F
:10135000FD4F408134EE439F412D1124E82FF0E0F2
:1013600050E0445E5F4FDA01A21BB1099D01B7FF57
:1013700003C031952195310993E0220F331F9A95CF
:10138000E1F7AF01421B530B9A0157FD20E0582FA4
:10139000259F212D1124822F08950E94381208952F
:1013A0000E94FA110895EF92FF920F939701201B6C
:1013B00031092F3F310519F010F02FEF30E0209563
:1013C000382F320F08F43FEF832F0F91FF90EF90EB
:1013D0000895FC019B01009729F480E077FF2BC062
:1013E00080E80895AC0197FF04C044275527481BA7
:1013F000590BB901640F751F37FD10C0241B350B45
:10140000C901A5E0880F991FAA95E1F70E948530D0
:1014100080E2861BF7FF0FC081950895CB0165E040
:10142000880F991F6A95E1F7BA01621B730B0E943E
:10143000853080E6EECF0895EF920F93CF93DF9340
:10144000D72FC82FC9010E19BA010E94E909602FD0
:10145000681B7D2F8C2FDF91CF910F91EF90089516
:101460000F93CF93DF93D72FC82FC901BA010E94E2
:10147000E909682F600F7D2F8C2FDF91CF910F919D
:101480000895EF920F931F93CF93DF93D62FC72F1B
:10149000182FC9010E19010FBA010E94E909081B92
:1014A000202F219F212D1124822F6D2F7C2FDF9142
:1014B000CF911F910F91EF9008950F931F93CF93AA
:1014C000DF93D62FC72F182FC901212F201B022FE2
:1014D000BA010E94E909982F990F990F891B800F73
:1014E000282F219F212D1124822F6D2F7C2FDF91FA
:1014F000CF911F910F910895E82F86FDE0952E2F33
:101500002F7086FD2F5FE695E695E695E670F0E094
:10151000EF5EFD4F9181929F902D212D1124929588
:101520009F702295207F922B2081920F87FD9195AD
:1015300080E8890F08950F931F93CF93DF938B015A
:10154000D82FC42F822F0E947C0AEC2FF0E0EE0FE0
:10155000FF1FEC59FD4F90819058890F87FD8195B1
:10156000880F682F2CE0629F612D1124600F712F6E
:101570008D2FDF91CF911F910F91089540910C0114
:1015800050910D0125E038E0429FC001439F900D2E
:10159000529F900D1124875E994C90930D0180937A
:1015A0000C01890F0895AC018230910508F408956B
:1015B0009FEF413E8EE1580740F49A0195E0369541
:1015C00027959A95E1F798E0920F61E0E62FE90FF1
:1015D000FF27FF1F9F0135952795822F229FF0013E
:1015E000239FF00DF00D11244E175F0738F49FEF85
:1015F000920F961758F78FEF860F08952F3FE9F354
:1016000061E0620FF6CF0F93CF93DF93D72FC82FF0
:1016100047FD419588E390E0841B910947FD939530
:10162000889FB001899F700D700D1124229FC00109
:10163000239F900D900D1124860F971F0E94D30AAF
:10164000982F990F890F682F600F7D2F8C2FDF91B6
:10165000CF910F91089530E020E0869F212D969F35
:10166000200D311D1124C90108952091070730E193
:10167000230F08F42FEF60E1822F90E00E942B0BE4
:10168000BC0188EB9BE00E942E3090E080E0089542
:10169000AF92BF92CF92DF92FF920F931F93CF939F
:1016A000DF93362F472FE82FF0E0EA5AF84F7111F9
:1016B0000FC0E4918E2F2E2F6E2F722FDF91CF91BE
:1016C0001F910F91FF90DF90CF90BF90AF90089542
:1016D000C72FD0E02491F22E022F10E056E0659F34
:1016E000C0011124EFEFF0E0BF010E942E30832FE4
:1016F00090E0880F991F35E5369FD001379FB00DD8
:1017000011248A1B9B0B982F990F980F6F01CC1AED
:10171000DD0AC09ED001C19EB00DD09EB00D112437
:101720008B2F499FA0011124452F55276F01C41A03
:10173000D50AC09EA001C19E500DD09E500D11240F
:101740005F01A91AB108AC9E6001AD9ED00CBC9E91
:10175000D00C1124CD2CDD24EC19FD09E09FE00113
:10176000E19FD00DF09FD00D1124ED2F6230710557
:10177000A1F050F46115710509F49ECF6130710537
:1017800081F0EB2F852F98CF6430710569F080F0E0
:101790006630710509F490CFF4CFE22F2B2F8D2FF7
:1017A0008BCFE22F252F88CFEB2F822F2D2F84CFA9
:1017B0002B2F8F2DE52F80CFB0E0A0E0E2EEFBE0F5
:1017C0000C944D308C01FC01E451FD4F8081682365
:1017D00049F1D0900507D0910607C0910407EC2E7F
:1017E000F12C0E94BE0A282FC7018C549F4F68E637
:1017F00071E00E9485308E199F0997FD039695959B
:1018000087959595879523706C2F289F600D1124DF
:101810007D2D8D2F0E94480B462F282F672FC80142
:101820000E94D009CDB7DEB7E7E00C946930B0E094
:10183000A0E0EDE1FCE00C944C308C01C091110172
:10184000CC0FCC0F24E0D22EDC0ECD2C24E42D15B1
:1018500010F494E4C92E2091070731E0230F08F417
:101860002FEF30E050E040E06FEF7FEF80E090E05E
:101870000E946C317901D0E02C2FCC1550F081E022
:10188000F3E4FD1508F480E0CDB7DEB7E8E00C9492
:101890006830FE01E451FD4F80819091120189234F
:1018A00011F14091D6064150042E000C550B47FF14
:1018B0001CC0C7016091070721E0620F08F46FEFB9
:1018C0000E942B0BAC016091040770910507809179
:1018D0000607F80109950E94480B462F282F672F0D
:1018E000CE010E94D0092196C7CFFA01EA52F94FE2
:1018F000818982130AC0FA01EE0FFF1FEA52F94FE5
:10190000818D928D8E159F05A8F241505109CFCF40
:10191000B0E0A0E0EEE8FCE00C944D307C01C0911A
:101920001101CC0FCC0F14E01C0F012F153408F05F
:1019300004E4609107076695669521E0620F08F45C
:101940006FEF8091D2069091D3060E942B0BD82E78
:10195000D0E0C01748F081E0143408F080E0CDB743
:10196000DEB7E7E00C946930FE01E451FD4F808161
:1019700090911201892391F06091040770910507FD
:10198000809106072D2D4C2FF70109950E94480BD9
:10199000462F282F672FCE010E94D0092196D9CF3C
:1019A000B0E0A0E0E6EDFCE00C9449306C01C091A1
:1019B0001101CC0FCC0F14E01C0FB12E153410F018
:1019C00034E4B32E60910707669566958091D20640
:1019D0009091D3060E942B0BF82E80E48F0D0E946D
:1019E0007C0A90E8A92EA80E8F2D0E947C0A20E880
:1019F000922E980ED0E0CB1548F081E0143408F018
:101A000080E0CDB7DEB7EBE00C946530FE01E45129
:101A1000FD4F8081909112018923A1F0609104070C
:101A20007091050780910607EF2C0C2F292D4A2D68
:101A3000F60109950E94480B462F282F672FCE01EB
:101A40000E94D0092196D7CFB0E0A0E0EAE2FDE005
:101A50000C9447305C01C0911101CC0FCC0F14E005
:101A60001C0FF12E153410F034E4F32E60910707AB
:101A700066958091D2069091D3060E942B0B782E0A
:101A8000D0E0CF1548F081E0143408F080E0CDB705
:101A9000DEB7EDE00C946330FE01E451FD4F808130
:101AA000909112018923C9F1CE01880F991F875E99
:101AB0009D4FFC01E55BFF4F2081422F4057550BA6
:101AC0006A01845B9F4FFC018081282F2052330BD9
:101AD0004901449F9001459F300D300D1124889C91
:101AE000C001899C900D900D1124820F931F0E94BC
:101AF000D30A082F609104077091050780910607AB
:101B0000E72C9401A601F50109950E94480B462F88
:101B1000282F672FCE010E94D0092196B2CFB0E0C6
:101B2000A0E0E5E9FDE00C944C307C01C09111018E
:101B3000CC0FCC0F14E01C0FD12E153410F034E470
:101B4000D32E6091070766958091D2069091D306B7
:101B50000E942B0BC82ED0E0CD1548F081E0143444
:101B600008F080E0CDB7DEB7E8E00C946830FE0105
:101B7000E451FD4F808190911201892311F1CE0132
:101B8000880F991F875E9D4FFC01E45BFF4F20810A
:101B90002052330B855B9F4FFC0140814057550B12
:101BA0006091040770910507809106070C2DF701DD
:101BB00009950E94480B462F282F672FCE010E94BF
:101BC000D0092196C9CF8091020480FD16C081FD05
:101BD00016C082FD16C0809101048823A1F08832CE
:101BE00080F428E0829FC001112468E270E00E9426
:101BF0008530862F672B39F0089582E0089584E0C0
:101C0000089588E0089581E008958091020480FDA0
:101C100014C081FD14C082FD16C080910004882389
:101C200081F08E3180F420E3829FC00111246EE1A7
:101C300070E00E948530862F08958CE0089588E139
:101C4000089588E0089580E3089580E00895F89469
:101C5000E82FE295EF70F0E031A1282F2F7081E09E
:101C600090E001C0880F2A95EAF7982F909593236A
:101C700091A392A1892B82A3789408959091A106B3
:101C800092FF06C0282F28712830F9F4877F8460DE
:101C900093FF06C0282F28712831F1F4877E8461D4
:101CA0002091A20620FF06C0382F38713830D9F4B1
:101CB000877F816021FF06C0282F28712831D1F449
:101CC000877E816194FD877E0895282F24712430BA
:101CD000F9F68B7F8860DCCF282F2471243101F73F
:101CE0008B7E8861DDCF382F3171313019F78E7FCF
:101CF0008860E0CF282F2171213121F78E7E886105
:101D0000E1CF972F7530B8F46F30A8F4883098F48D
:101D100070E02FE0929F600D711D1124FB019BE488
:101D2000899FE00DF11D1124EE0FFF1FEA55FD4FB5
:101D300085919491089580E090E00895CF93DF938A
:101D4000EC0182389105B9F108F041C08133910569
:101D500009F49FC050F58932910509F48FC08A9724
:101D600009F49EC0C11520E5D20708F0BDC0C11519
:101D700030E4D30708F00AC1C03ED10508F0A5C081
:101D8000CD3CD10508F000C1C83AD10508F08FC09C
:101D9000C53AD10508F0F0C0C130D10539F120971E
:101DA00029F1C430D10510F546C08533910509F4F9
:101DB00060C0C997B9F68091A106837009F044C14B
:101DC0008091A20683FF12C0C9E2D0E00FC0833E1B
:101DD0009105A1F178F4803E910509F1823E9105CB
:101DE00009F0C0CF8091A10682FD21C0CE01DF9114
:101DF000CF910895863E910561F1873E910571F17D
:101E0000843E910509F0AECF8091A20681FFEECF0E
:101E10008091A106C7EED0E084FD0DC0E7CF809190
:101E2000A10680FD33C09091A20690FFDFCFC3EEE4
:101E3000D0E084FFDBCFD0E0C0E0D8CF8091A10616
:101E400082FDFFC09091A20690FDFEC084FFCECF20
:101E5000F2CF8091A10683FDDDCFC8CF8091A1068E
:101E600083FDF5C09091A20691FFF0CFC4EED0E0C3
:101E7000BDCF8091A10685FFB9CFA6CF8091A106E5
:101E800085FDE8C08091A20683FFB0CFC9E3D0E012
:101E9000ADCF8091A10686FFA9CFCAE2D0E0A6CF40
:101EA0008091A10686FFA2CFC1E3D0E09FCFC13CC5
:101EB000D10508F6C85AD0E0CC0FDD1FC553DE4F60
:101EC0000990D881C02DD46491CFC11540E2D407C8
:101ED00008F0AAC0C11581E0D80708F087CFC83E36
:101EE000D10508F483CFA7CFC03622E5D20718F575
:101EF000C03432E5D30708F053C0C03242E5D407FE
:101F000008F047C0C11582E5D80708F47FC02C2F20
:101F10002695269540E2249F900111248C2F8370F2
:101F2000C1E0D0E002C0CC0FDD1F8A95E2F7C22BE2
:101F3000D32BDD685BCFC03A22E5D20760F4C0380E
:101F400032E5D30708F441C0CF71D0E0DC2FCC27B5
:101F5000C46FD06A4BCFC03C42E5D40708F44AC0F6
:101F6000C03E82E5D80708F066CFDC2FCC27CC270F
:101F7000DF71C06FD06A3ACFC55AD0E0C853DE4F88
:101F8000C881D0E0D06432CFD06530CFDF70D06A66
:101F90002DCFCF71D0E0DC2FCC27C16FD06A26CFF8
:101FA0002C2F26952695277080E2289F90011124DA
:101FB0008C2F8370C1E0D0E002C0CC0FDD1F8A956A
:101FC000E2F7C22BD32BDC6811CF2C2F2695269558
:101FD000277040E2249F900111248C2F8370C1E070
:101FE000D0E002C0CC0FDD1F8A95E2F7C22BD32BC5
:101FF000DA68FCCE8C2F8F710E943E0EC82FD0E085
:10200000DC2FCC27CC27DF71D062F0CE8C2F8F71E4
:102010000E943E0E35E0D695C7953A95E1F7CF7010
:102020009C2FEC01D069E2CE8D2F8F710E943E0E65
:1020300090E0982F882788279F719C012C2BE9011D
:10204000E3CFC2EED0E0D2CEC0EED0E0CFCEC6EE2F
:10205000D0E0CCCEC5E3D0E0C9CE8091DA038823AE
:1020600031F01092DA031092D9031092D803089538
:1020700080959091D70398239093D70308958091EA
:10208000B20390918103981301C008958F5F877008
:10209000FACFB0E0A0E0EFE4F0E10C944B307C012B
:1020A00000913705109138058091350590913605DE
:1020B000082B192BCFE0D0E0CC24C394D12CBC2E1C
:1020C000C6010C2E02C0880F991F0A94E2F78023E4
:1020D0009123892B49F4219790F7B12C8B2DCDB703
:1020E000DEB7E9E00C946730B7018C2F0E94810EB7
:1020F0000E949E0E019779F3F1CFCF93DF93EC010D
:102100000E944910BE010E94810E0E949E0EDF9126
:10211000CF910895953078F58F3068F5E82FF0E08D
:102120008FE0989FE00DF11D11249E2F977083E0A2
:10213000F695E7958A95E1F7EE0FFF1FEE0FFF1F6B
:10214000ED5AFC4F50E040E080E0219130E0092E54
:1021500002C0369527950A94E2F721703327042EA2
:1021600001C0220F0A94EAF7822B4F5F5F4F443081
:10217000510559F7089580E00895953098F58F300E
:1021800088F5E82FF0E08FE0989FE00DF11D112415
:102190008E2F877041E001C0440F8A95EAF783E0F3
:1021A000F695E7958A95E1F7EE0FFF1FEE0FFF1FFB
:1021B000ED5AFC4F30E020E070E05191DF011197C3
:1021C000CB01022E02C0969587950A94E2F78170A2
:1021D00081958527842385278C932F5F3F4F24305B
:1021E000310559F708959093380580933705089580
:1021F00021E030E002C0220F331F8A95E2F72095DC
:1022000030958091370590913805822393230E9461
:10221000F31008959091B503809589238093B503B9
:10222000282F2770B1F4282F082E000C330B92179B
:10223000130679F09091A20692FF0BC085958595C3
:1022400085950E94F8101092B5031092B403109275
:10225000B303089521E030E002C0220F331F8A95B6
:10226000E2F78091370590913805822B932B0E94DD
:10227000F310089590933605809335050895FC0179
:1022800083819481892B29F08081918189238F3FDB
:1022900051F480E00895843FE1F717C0883EA8F02C
:1022A000813FB9F712C0808191810E947D10929583
:1022B0009F70963099F358F4925F9F70923048F770
:1022C000803F19F040F7883E20F781E008959A5F3B
:1022D000F4CF0F931F93CF93DF938B01EA0190917B
:1022E000C806943061F58093E9008FEF9091E80083
:1022F000815095FD06C095ED9A95F1F7000081118A
:10230000F5CF8091E80085FF1AC00E944506811133
:1023100011C08091E80085FD06C08091E8008E77AD
:102320008093E800F2CFF80181918F018093F10052
:10233000219779F78091E8008E778093E800DF910C
:10234000CF911F910F91089543E050E0BC0182E0CE
:102350000E946911089546E050E0BC0182E00E94AD
:1023600069110895CF93DF93EC01809110018111E1
:1023700011C048E050E0BE0181E00E94691180E296
:10238000FE01A6EAB6E001900D928A95E1F7DF9191
:10239000CF9108958091A10687FF05C040E282E0B9
:1023A00050E0BE01EACF48E081E0FACF81E08093BF
:1023B000E00080E28093D8001092C9008FE19EE493
:1023C0000197F1F700C0000087E090EBDC018093FB
:1023D000090790930A07A0930B07B0930C0788E1B5
:1023E0009CE00FB6F894A895809360000FBE909380
:1023F0006000FFCFA4E0B0E0E0E0F2E10C944F30E9
:10240000F62E042F122F8434910570F5880F991F32
:10241000880F991FBC016A5A774F44E050E0CE0103
:1024200001960E94FB3089818370EA81282F30E079
:1024300040E9849FC0011124805B9A4FE80FF92F77
:10244000F11DB497F082EB81E80FF92FF11DB497DD
:102450000083EC81E80FF92FF11DB4971083225B04
:102460003A4F81E0F90180832496E5E00C946B30CB
:10247000FF920F931F93CF93DF93182F062FF42E05
:10248000D0E0C0E02F2D402F612FCE010E94FA1125
:102490002196C434D105B1F7CDB7DEB7E5E00C9491
:1024A0006B300F931F93CF93DF93082F000FEB0137
:1024B00014E210933A05EBE3F5E0DE018D91819390
:1024C00085E0EB34F807D1F724E630E041E150E055
:1024D0006AE375E0802F0E940D30105F6096143B18
:1024E00041F7DF91CF911F910F91089580914E0593
:1024F000882329F060E575E084E70E94511210926C
:102500004E0580914F05882329F060EE75E087E73E
:102510000E94511210924F050895EAE3F5E060839E
:10252000418324E630E042E050E0BF01880F0E9482
:102530000D300895EF92FF920F931F93CF93DF9387
:10254000E82E062F10E00C56194FF80180818823E1
:1025500081F0F2E16F9FE0011124C059D94FF12CB5
:1025600049916F2D8E2D0E948D12F39482E1F81205
:10257000F7CFF8011082CDB7DEB7E6E00C946A30F1
:10258000CF93DF93C82F4BE06DEF0E948D1240E098
:102590006AE08C2F0E948D128FE39CE90197F1F77E
:1025A00000C0000040E060E08C2F0E948D1240E0EF
:1025B00061E08C2F0E948D1240E066E08C2F0E941B
:1025C0008D1240E06DEF8C2F0E948D12D0E040E024
:1025D0006D2F8C2F0E948D12DF5FD231C1F740E04A
:1025E0006D2F8C2F0E948D12DF5FD432C1F740E037
:1025F0006D2F8C2F0E948D12DF5FD43BC1F74BE013
:102600006DEF8C2F0E948D1241E06AE08C2F0E94AA
:102610008D1240E06DEF8C2F0E948D12DF91CF91D3
:102620000895A4E0B0E0E7E1F3E10C9446300E94A5
:102630006D2F84E70E94C01287E70E94C01206E552
:1026400018E052E1752E68E0C62ED12CEE24E394FA
:10265000F12C6624639444E050E0B801CE01019669
:102660000E94FB304A8150E0CA0184972B81622F7F
:102670006452770B4B012C81E22FE452FF0B5F0178
:102680002981237030E0FC0197FD379643E0F595F2
:10269000E7954A95E1F7729EA001739E500D1124B3
:1026A0004059594FE40FF52FF11DB6010E948530B6
:1026B000A70101C0440F8A95EAF78081842B8083AB
:1026C000F40197FC379693E0F595E7959A95E1F735
:1026D000729EC001739E900D11248059994FE80F8E
:1026E000F92FF11DC401B6010E948530A70101C078
:1026F000440F8A95EAF78081842B8083F501B7FC2B
:10270000379683E0F595E7958A95E1F7729EC001CB
:10271000739E900D11248059994FE80FF92FF11DE8
:10272000C501B6010E948530A70101C0440F8A95FA
:10273000EAF78081842B80832C56394FF90160821F
:102740000C5F1F4FF9E006361F0709F084CF60E0E9
:1027500084E70E949A1261E087E70E949A12249609
:10276000EEE00C9462301F93CF93DF93EC01FC01F9
:10277000E451FD4F80816823B1F00E94EB30182FA7
:102780000E94EB308F77782F20E8720F08F47FEFEC
:10279000612F809106070E94480B462F282F672F34
:1027A000CE010E94D009DF91CF911F910895A8E03A
:1027B000B0E0EDEDF3E10C944230582E80910F0122
:1027C000851124C090910307937020910E0130E091
:1027D00081E09217130609F480E081708093130161
:1027E0008091080790911201981739F08093120197
:1027F00040E060E080E00E94CD092DE1251560F009
:10280000E52DF0E0EF52FE4C0C94993081E0E5CFDD
:1028100080911301811102C019826FC040E060E015
:1028200080E00E94CD09F8CF30911101330F330FB2
:102830003983132F1C5F012F153408F004E46091D5
:10284000040770910507809106070E94480BF62E39
:10285000E72ED82E9981892F90E09E838D83FD816C
:10286000F01718F021E0298345C0ED81FE81E45185
:10287000FD4F808190911201892339F02D2D4F2D2C
:102880006E2D8D819E810E94D009ED81FE81319651
:10289000FE83ED83E4CF30911101330F330F398381
:1028A000132F1C5F012F153408F004E4E090050796
:1028B000F0900607809104078A83682F7E2D8F2D64
:1028C0000E94480BD62EC72EB82E609107079A811A
:1028D000690F7E2D8F2D0E94480BF62EE72EA82E15
:1028E000F981EF2FF0E0FE83ED833D813017E8F0B2
:1028F00081E08983143408F08FCF809111018F5FBC
:1029000080931101998191110CC082E08093140190
:1029100080911301811105C0511003C083E08093A1
:1029200014012896E2E10C945E30ED81FE81E451C1
:10293000FD4F908180911201892361F02A2D4F2D46
:102940006E2D90FD03C02B2D4D2D6C2D8D819E8104
:102950000E94D0092D813E812F5F3F4F3E832D8302
:10296000C4CF90911101990F990F9983192F1C5F72
:10297000F12E153410F004E4F02EE0900507D0900D
:1029800006072091070700E4029F012D1124F98119
:10299000EF2FF0E0FE83ED833D813F1508F0A8CFD7
:1029A000ED81FE81E451FD4F8081909112018923D8
:1029B000E9F0ED81FE81EE0FFF1FEC59FD4F6081C4
:1029C000069FB0011124B5E075956795BA95E1F7BA
:1029D00080910407680F7E2D8D2D0E94480B462F95
:1029E000282F672F8D819E810E94D0092D813E81E5
:1029F0002F5F3F4F3E832D83CFCF90911101990FD1
:102A0000990F9983192F1C5F012F153408F004E4E6
:102A1000F0900407E0910507EA83E09006076091D3
:102A200007076695669566958091D2069091D306C4
:102A30000E942B0B0E947C0A805887FD8195880F8D
:102A4000282F3E2D239F212D1124822F6F2D7A8137
:102A50000E94480BF62EE72ED82E9981892F90E000
:102A60009E838D83FD81F01708F0FCCEED81FE8101
:102A7000E451FD4F808190911201892339F02D2D71
:102A80004F2D6E2D8D819E810E94D009ED81FE819A
:102A90003196FE83ED83E6CF83EA99E00E94880CAD
:102AA00004C08DE59AE00E948F0D898326CF81E4D2
:102AB0009AE00E94240DF9CF81EA99E0EFCF88E9EE
:102AC00099E0ECCF8FE899E0E9CF86E799E0E6CF8F
:102AD00088E699E0EECF83E09BE0E5CF80E39AE0E3
:102AE000E2CF8CE19AE0E5CF8BE399E00E94D00C35
:102AF000DCCF8DE099E0FACF86ED98E0F7CF30910A
:102B00001101330F330F3983E4E0FE2EF30E809171
:102B10001301811124C06091070720E1620F08F4BE
:102B20006FEF8091D2069091D3060E942B0B6AE042
:102B300070E00E942E30892B59F40E94BE0A64E492
:102B40000E94793060911201892F90E00E94DC0B85
:102B500091E09983E3E4EF1508F0CFCE5DCE0F2D21
:102B600084E48F1508F404E4F981EF2FF0E0FE838C
:102B7000ED8310E08D819E81801791074CF7609165
:102B800012018D819E810E94DC0B2D813E812F5F81
:102B90003F4F3E832D83EECFF0911301F983F11166
:102BA0001EC06091070720E1620F08F46FEF80916B
:102BB000D2069091D3060E942B0B65E070E00E9434
:102BC0002E30892B09F028CE0E94EB3064E470E0AF
:102BD0000E948530609112010E94B3138ECE209125
:102BE0001101220F220F298374E0F72EF20E0F2D10
:102BF00034E43F1508F404E49981892F90E09E8322
:102C00008D8310E02D813E81201731073CF031E0AB
:102C1000398383E48F1508F070CEFECD60911201E8
:102C20008D819E810E94B313ED81FE813196FE83DA
:102C3000ED83E8CF90911101990F990F9983192F86
:102C40001C5F012F153408F004E4E0900507F090B4
:102C50000607E0910407EA83609107076695669589
:102C600066958091D2069091D3060E942B0B0E940C
:102C70007C0A805887FD8195880F682F2CE0629F21
:102C8000612D1124FA816F0F7E2D8F2D0E94480B2C
:102C9000F62EE72ED82E3981232F30E03E832D8368
:102CA0009D81901718F0E1E0E98324CEED81FE814B
:102CB000E451FD4F808190911201892339F02D2D2F
:102CC0004F2D6E2D8D819E810E94D0098D819E8118
:102CD00001969E838D83E4CF8BE99AE0DFCE85EC6D
:102CE00098E0DCCE109111011F5F110F110F409180
:102CF000D2065091D3066091D4067091D50680918A
:102D00000D0490910E04A0910F04B091100484174B
:102D10009507A607B70708F056C00E94BE0A082FFD
:102D20000E94BE0A94E4891BF0F7890F282F30E037
:102D30003E832D83F901E451FD4F80911201908172
:102D4000892309F440C020E040E060E001FD13C0A9
:102D50000E94BE0A082F0E94BE0A782F76952FE7A0
:102D6000720F08F47FEF602F809106070E94480BD6
:102D7000462F282F672F8D819E810E94D009209198
:102D8000070730E1230F08F42FEF60E1822F90E076
:102D90000E942B0BBC0184EF91E00E942E308091A9
:102DA000D2069091D306A091D406B091D506860F95
:102DB000971FA11DB11D80930D0490930E04A09345
:102DC0000F04B093100431E0398394CD4091DD04B9
:102DD0005091DE046091DF047091E0048091D2068E
:102DE0009091D306A091D406B091D506841795078B
:102DF000A607B70708F410CD80911301811122C0F6
:102E000080911101880F880F8983182F1C5F012F73
:102E1000153408F004E49981E92EF12C23E0929F07
:102E2000F0011124EF5EFB4FFE83ED83E01608F402
:102E300049C0E1E1F4E08AED94E0143408F062C0A6
:102E400081E033CE40E060E080E00E94CD0901E106
:102E500014E01E821D826FE7D62E0E94BE0A81FFFB
:102E600010C0F8011082118212822D813E812F5FE5
:102E70003F4F3E832D830D5F1F4F2434310569F78B
:102E8000BFCF0E94BE0AC82E0E94BE0A8695782F28
:102E90002D2D720F08F47FEF8D819E81880F991F71
:102EA000ED81FE818E0F9F1F9C012F5E3B4F7901AC
:102EB0006C2D809106070E94480BF7016083718397
:102EC0008283D3CFF701E451FD4F808190911201AD
:102ED000892341F0ED81FE81228140816181C7011A
:102EE0000E94D0092D813E812D5F3F4F3E832D836F
:102EF0003FEFE31AF30A9ACF23813481458121936E
:102F0000319341938E179F07B9F70E94BE0A81FF44
:102F10001FC01092DA041092DB041092DC040E94AD
:102F2000350B0091D2061091D3062091D406309132
:102F3000D506DC01CB01800F911FA21FB31F809328
:102F4000DD049093DE04A093DF04B093E00464CC2E
:102F50000E94BE0A89830E94BE0A8695782F2FE7B9
:102F6000720F08F47FEF6981809106070E94480B79
:102F70006093DA047093DB048093DC04D0CF8091FB
:102F80001301882329F040E060E080E00E94CD0931
:102F9000409011014394440C440C4091D20650914E
:102FA000D3066091D4067091D50680910405909166
:102FB0000505A0910605B091070584179507A6079A
:102FC000B70708F07FC060910407709105078091F2
:102FD00006070E94480B362E272EF82E01EE14E02D
:102FE00089E192E09E838D8344E6642E42E0742E54
:102FF000AD80BE804501680136E0E32EF6012191E7
:103000006F01F40181914F0190E0222309F461C026
:103010002F2D432D622D0E94D009F50186852F2D7D
:10302000432D622D90E00E94D009F60180813197F6
:103030008083EA94F1E0AF1AB108E110DFCFED81AF
:10304000FE81868190E0F8012681222309F44CC09C
:103050002F2D432D622D0E94D009ED81FE818085A8
:103060002F2D432D622D90E00E94D0090E94BE0AB0
:10307000837091E009F090E0F8019683095F1F4F9B
:103080002D813E81215F3F4F3E832D836216730663
:1030900009F0AECF0E94350B0091D2061091D306F5
:1030A0002091D4063091D506DC01CB01800F911F11
:1030B000A21FB31F8093040590930505A0930605F6
:1030C000B093070531E0398383E4841508F015CC0B
:1030D000A3CB20E040E060E00E94D009F5018685A6
:1030E00020E040E060E09ECF20E040E060E00E9411
:1030F000D009ED81FE81808520E040E060E0B3CF23
:103100008EEB98E00E94170CD0CC88EB98E0FACFB9
:103110009091D6069B8321E0392F321B08F430E0D2
:10312000398380911101880F880F8D838C5F8A838A
:103130008C83853410F094E49C83FD81EF2FF0E0C4
:10314000F887EF83CF01880F991F9C012C593D4FC1
:1031500069013981832F90E0FC013196FE83ED8374
:10316000EC81FF81FE1738F021E029833A81343465
:1031700008F4C3CB51CBEF81F885E451FD4F80813A
:10318000909112018923F1F02090040730900507F7
:103190002D813E812A52394F3901498010E03B810F
:1031A0004316C8F020910607129F112D1124B1017A
:1031B000812F0E94480B462F282F672F8F819885DB
:1031C0000E94D0098F819885019698878F8392E01D
:1031D000C90ED11CC5CFF30181913F01F601A0803A
:1031E000A81ABB088180F3018781881A9908AA9CD4
:1031F0009001AB9C300D300D1124889CC001899C3E
:10320000900D900D1124820F931F0E94D30A082F56
:103210006091070721E0620F08F46FEFF301EE0FF2
:10322000FF1FE65DF640858996890E942B0B7C0185
:103230009401A501B101812F0E94D3091B01439480
:10324000182FADCFAEE2B0E0E8E2F9E10C944430E3
:103250008091310590913205A0913305B0913405EC
:103260002FB7F894C0909D06D0909E06E0909F06E0
:10327000F090A0062FBF46015701881A990AAA0AA2
:10328000BB0A2FB7F89440919D0650919E0660911D
:103290009F067091A0062FBF4093310550933205D1
:1032A000609333057093340510910805E8E0F5E06C
:1032B000212F30E00197AF4FBF4F8C199D09AE0908
:1032C000BF0913131FC0209308058091390510E032
:1032D000811108C080910307182F137019F0182F5F
:1032E00016951695809114018130B1F18823E9F08B
:1032F000823009F4ABC1833009F4B3C1AE96E0E18A
:103300000C946030E18CF28C2701712C612C8415B7
:103310009505A605B70520F421503F5F3296D1CF21
:10332000E80CF91CF28EE18EF8CF10921101409357
:10333000D2065093D3066093D4067093D50689E2E3
:10334000E8E0F5E0A6EDB6E001900D928A95E1F790
:1033500081E080931401D2CF812F0E94D7131123D3
:1033600069F28091370590913805209135053091AB
:103370003605822B932B292F3327E0E021153105C9
:1033800011F0C901E8E09C0154E0369527955A9563
:10339000E1F72115310511F0EC5FC9019C0136956B
:1033A0002795369527952115310511F0EE5FC90156
:1033B00096958795892B09F0EF5FE150E73050F43F
:1033C000F0E0E151FE4C0C94993040E460E480E47C
:1033D0000E94CD090E942C0881FF0EC02FEF4FEFF5
:1033E0006FEF8EE190E00E94D0092FEF4FEF6FEF6B
:1033F0008EE090E00E94D0090E942C0881FF7ECFD1
:103400002FEF4FEF6FEF8EE190E00E94D00976CF63
:1034100040E060E080E00E94CD0982E2E5E1F1E079
:10342000DE01119601900D928A95E1F786E0E7E3BF
:10343000F1E0DE01999601900D928A95E1F78E01F7
:103440000F5F1F4F7E0183E2E80EF11C20EE40E289
:1034500060E7F801819191918F010E94D0090E15CA
:103460001F05A1F78E01075D1F4F7E01FFE2EF0EE2
:10347000F11C2FEF4FEF6FEFF801819191918F01C8
:103480000E94D009E016F106A1F7A4CF40E060E069
:1034900080E00E94CD0980E2EDE3F1E0DE011196CB
:1034A00001900D928A95E1F78E010F5F1F4F7E010B
:1034B000F1E2EF0EF11C20E840E160EDF8018191AE
:1034C00091918F010E94D009E016F106A1F72FEF2C
:1034D0004FEF6FEF80E290E00E94D0092FEF4FEFA7
:1034E0006FEF81E290E00E94D0092FEF4FEF6FEF76
:1034F00082E290E00E94D0096DCF40E060E080E081
:103500000E94CD098AE1EDE5F1E0DE01119601901E
:103510000D928A95E1F78E010F5F1F4F7E01FBE14F
:10352000EF0EF11C20E040E56FEDF80181919191E3
:103530008F010E94D009E016F106A1F72FEF4FEF9F
:103540006FEF8EE390E00E94D0092FEF4FEF6FEF07
:1035500088E190E00E94D0092FEF4FEF6FEF89E1F3
:1035600090E00E94D0092FEF4FEF6FEF85E290E0DF
:10357000C1CF88E2E7E7F1E0DE01119601900D92FC
:103580008A95E1F78E010F5F1F4F7E01F9E2EF0E82
:10359000F11C25E04FEF60E9F801819191918F01D5
:1035A0000E94D009E016F106A1F714CF40E060E0D8
:1035B00080E00E94CD098AE0EFE9F1E0DE0111969A
:1035C00001900D928A95E1F78E010F5F1F4F7E01EA
:1035D000FBE0EF0EF11C2FEF40EB60E2F801819170
:1035E00091918F010E94D0090E151F05A1F720E0CF
:1035F00040E56FED82E390E00E94D00920E040E5D5
:103600006FED83E390E076CF40E060E080E00E94E1
:10361000CD098CE1E9EAF1E0DE01119601900D920D
:103620008A95E1F78E010F5F1F4F7E01FDE1EF0EDE
:10363000F11C20E040E860E0F801819191918F0158
:103640000E94D009E016F106A1F7C4CE10930F0135
:1036500080910307837080930E010E94761283E0AD
:1036600078CE80910207882351F046E050E06CE16B
:1036700070E083E097E00E94383110920207409199
:10368000D2065091D3066091D4067091D5062FB71B
:10369000F89480919D0690919E06A0919F06B0910E
:1036A000A0062FBF841B950BA60BB70B4A97A1054D
:1036B000B10508F423CE1092140120CEE3E0F7E028
:1036C00081E280838091C5019091C601A091C701DC
:1036D00081839283A3838FE784838FEF858346E082
:1036E00050E06CE170E0CF010E9438311092020787
:1036F00008959091A20692FB222720F9281779F0CD
:1037000080FB92F99093A2066091A1067091A206A7
:1037100084E090E00E94663182E00E940A110895E0
:1037200067EE7EEF90E080E00E94663160E082E02C
:1037300090E00E94483160E083E090E00E944831D0
:10374000109236051092350560E074E184E090E057
:103750000E94663160E086E090E00E9448316FEFA1
:1037600087E090E00E94483140E050E0BA0188E0F4
:1037700090E00E945A3160E08DE090E00E94483174
:1037800040E050E0BA0188E190E00E945A3160E0E8
:1037900087E190E00E94483140E050E0BA018CE1BE
:1037A00090E00E945A3170E060E080E290E00E9478
:1037B000663140E050E0BA0188E190E00E945A3161
:1037C00040E050E0BA018FE090E00E945A3140E0C2
:1037D00050E0BA0183E190E00E945A3108951F92AF
:1037E0000F920FB60F9211242F933F934F935F9335
:1037F0006F937F938F939F93AF93BF93EF93FF93B9
:103800008091E10082FF09C08091E20082FF05C043
:103810008091E1008B7F8093E1008091DA0080FF4E
:1038200024C08091D80080FF20C08091DA008E7F74
:103830008093DA008091D90080FF9DC080E189BD2E
:1038400082E189BD09B400FEFDCF81E08093C80606
:103850008091A306811109C00E9426060E94C70616
:103860008091E20084608093E2008091E10080FF1B
:1038700017C08091E20080FF13C08091E2008E7F2C
:103880008093E2008091E20080618093E200809169
:10389000D80080628093D80019BC85E08093C80668
:1038A0008091E10084FF2BC08091E20084FF27C05B
:1038B00080E189BD82E189BD89B5982F917080FF33
:1038C000FBCF8091D8008F7D8093D8008091E1005C
:1038D0008F7E8093E1008091E2008F7E8093E200F2
:1038E0008091E20081608093E2008091C906882384
:1038F00009F447C084E08093C8068091C80680918F
:10390000E10083FF27C08091E20083FF23C0809104
:10391000E100877F8093E10082E08093C8061092E7
:10392000C9068091E1008E7F8093E1008091E200E2
:103930008E7F8093E2008091E20080618093E200BC
:1039400042E060E080E00E9495068091F00088608F
:103950008093F000FF91EF91BF91AF919F918F9174
:103960007F916F915F914F913F912F910F900FBE7B
:103970000F901F90189519BC1092C8061092A306BC
:1039800074CF8091E30087FD93E09093C806B5CF94
:1039900078941F921FB61F9211248F939F93AF9319
:1039A000BF9380919D0690919E06A0919F06B09135
:1039B000A0060196A11DB11D80939D0690939E06C1
:1039C000A0939F06B093A006BF91AF919F918F9156
:1039D0001F901FBE1F9018959C014FB7F8948091BF
:1039E0009D0690919E06A0919F06B091A0064FBFA4
:1039F000821B930B08952FB7F89480919D069091A8
:103A00009E06A0919F06B091A0062FBF08950E9428
:103A1000FB1C9C019091090480910A04982B21F0D1
:103A2000309306042093050490910B0480910C04BC
:103A3000982B21F03093040420930304E09198061E
:103A4000F0919906309749F082E080930704048052
:103A5000F581E02D87E094E009950895662309F447
:103A60005DC08D3C41F40E94050E819580930A044F
:103A70000E94071D08958E3C19F40E94050EF6CF92
:103A80008F3C31F40E94050E819580930904F0CF9C
:103A9000803D19F40E94050EF8CF893D29F40E945B
:103AA000E30D80930B04E4CF8A3D21F40E94E30DE3
:103AB0008195F7CF8B3D31F40E94E30D8195809382
:103AC0000C04D6CF8C3D19F40E94E30DF8CF9FE291
:103AD000980F983070F4815D990B21E030E001C0BF
:103AE000220F8A95EAF780910804822B80930804BC
:103AF000BFCF8D3D31F48091020481608093020438
:103B0000B7CF8E3D21F4809102048260F7CF8F3DC4
:103B100009F0AECF809102048460F0CF4091090497
:103B20008D3C59F480910A0487FF0DC010920A045D
:103B300041110BC01092000408C08E3C81F48091AA
:103B40000A0418169CF3442381F080910B04909191
:103B50000C04892B09F08CCF1092010489CF8F3C83
:103B600049F447FFF0CF1092090480910A048111B3
:103B7000ECCFE0CF803D19F41416ACF3E4CF909174
:103B80000B04893D29F41916F4F610920B04DBCFCF
:103B90008A3D19F497FFD7CFF8CF90910C048B3D55
:103BA00029F497FFD0CF10920C04CDCF8C3D19F49F
:103BB0001916CCF3C8CF9FE2980F983090F4815D2E
:103BC000990B21E030E0B90102C0660F771F8A959A
:103BD000E2F7CB0180959091080489238093080433
:103BE000B2CF8D3D31F4809102048E7F8093020428
:103BF000AACF8E3D21F4809102048D7FF7CF8F3DB7
:103C000009F0A1CF809102048B7FF0CFAAE0B0E051
:103C1000ECE0FEE10C9448308E010F5F1F4F8AE00C
:103C2000F80111928A95E9F79DEFE92E91E0F92EBE
:103C30006801AA24A394B12CF70181917F018F3FE1
:103C400009F446C0F894E82FE295EF70F0E021A166
:103C50008F70A50102C0440F551F8A95E2F7CA0173
:103C6000922F982B91A392A18095892382A3789477
:103C700000C0E2E0F2E021E030E0912C812C4191A3
:103C80004F3F09F467C0A42FA295AF70B0E09096A3
:103C90008C9190E04F7002C0959587954A95E2F718
:103CA00080FD58C0C901882A992A220F331F52E08B
:103CB000E131F50721F7F701319780818F3F11F04E
:103CC0000E94270E80EA8A95F1F7F60191828082A0
:103CD000F2E0CF0ED11C42E0E41642E0F40609F017
:103CE000ABCF4AE050E0B8018EED93E00E94043182
:103CF000892B99F18AE0F801AEEDB3E001900D92C5
:103D00008A95E1F781E08093DD030E94FB1C90938C
:103D1000DC038093DB038091DB039091DC030E9442
:103D2000EC1C0397F0F04AE050E06EED73E08AEE91
:103D300093E00E940431892BC9F08AE0EEEDF3E0B4
:103D4000AAEEB3E001900D928A95E1F781E010921E
:103D5000DD0308C090E080E0A6CF8091DD038111F3
:103D6000DACF80E02A96ECE00C94643080E0EFCF6C
:103D70008091D7039091D603892B80933203809151
:103D8000DA03882329F10E94FB1C2091D80330918B
:103D9000D903821B930B8C3D954010F00E942D108F
:103DA000809132039091DA03892B809332038091C2
:103DB00010018823E1F18091A10687FF38C08EE1D0
:103DC000E4E3F3E090E08150A0F591110E942D1002
:103DD00040E250E066EB73E082E393E00E9404313E
:103DE000892B21F180E2E2E3F3E0A6EBB3E001905E
:103DF0000D928A95E1F7E0919806F0919906309737
:103E0000A9F080911001882359F08091A10687FFC5
:103E100007C0809132038093330386E0809332039E
:103E20000280F381E02D82E393E00995089586E016
:103E3000C7CF2191222339F29F5FC5CF1092D703BC
:103E400080911001E4E3F3E0882329F18091A10639
:103E500087FF21C08EE1DF011D928A95E9F790E08E
:103E600080E00E94070890E080E00E94E207109244
:103E7000D6030E94B81E86E0E7E0F4E0DF011D9261
:103E80008A95E9F71092000410920104109202043E
:103E90000E94071D089586E0DECFAAE2B0E0E3E5C8
:103EA000FFE10C9451308AEC96E02091F100FC0186
:103EB0002193CF01F6E0823D9F07B9F78091CB06B1
:103EC000833009F470C0B8F4813009F447C08230FF
:103ED00009F4B1C08091E80083FF7EC28091CA06D8
:103EE0009091CB069A3008F077C2E92FF0E0EA50C3
:103EF000FE4C0C9499308A3009F48CC08B3009F454
:103F00006FC0893039F78091CA06813219F78091E4
:103F1000CE069091CF060297E8F68091E800877F61
:103F20008093E8008091E80082FF38C09091F30010
:103F30008091F200029731F48091F100813011F00C
:103F4000863021F48091F1008093A5068091E800ED
:103F50008B778093E8000E947606BCCF8091CA06DA
:103F6000813A09F0B7CF8091E800877F8093E8001D
:103F70008091CE069091CF06892B61F460E286EAAB
:103F800096E070E00E9422078091E8008B77809392
:103F9000E800A0CF60E090E080E0F3CF8091C80619
:103FA0008111C0CF97CF8091CA06813A09F092CF94
:103FB0008091CE069091CF06892B09F08BCF80910E
:103FC000E800877F8093E8008091E80080FFFCCFC5
:103FD000809110018093F1008091E8008E77B9CF35
:103FE0008091CA06813209F075CF8091CE069091FA
:103FF000CF06892B09F06ECF8091E800877F8093F0
:10400000E8000E9476068091CC06809310010E9401
:104010001E1F60CF8091CA06813209F05BCF80916C
:10402000E800877F8093E8000E9476068091CD06A5
:104030008093A4064FCF8091CA06813A09F04ACFF7
:104040008091E800877F8093E8008091E80080FFFE
:10405000FCCF8091A406BECF803899F0823809F059
:10406000BBC18091CE068F70873008F0B5C18093B8
:10407000E9008091EB0085FB882780F91092E90028
:1040800006C08091C6069091C706911182609091FA
:10409000E800977F9093E8008093F1001092F10080
:1040A0008091E8008E7794C1882309F482C1823020
:1040B00009F092C18091CC06811185C18091CE0614
:1040C0008F702FEF280F263008F086C18093E9000B
:1040D0002091EB0020FF77C1933031F48091EB0009
:1040E00080628093EB006FC19091EB0090619093A0
:1040F000EB0021E030E001C0220F8A95EAF720931F
:10410000EA001092EA008091EB008860EACF81110A
:1041100063C11091CC061F778091E3008078812BDA
:104120008093E3008091E800877F8093E8000E94FD
:1041300076068091E80080FFFCCF8091E3008068E4
:104140008093E30082E0111183E08093C80644C1AC
:104150008058823008F040C18091CC069091CD0605
:104160008C3D23E09207A1F583E08A838AE289836C
:104170004FB7F894DE01139620E03EE051E2E32FC2
:10418000F0E050935700E49120FF03C0E295EF70F8
:104190003F5FEF708E2F90E0EA30C0F0C7968D93AE
:1041A0009D932F5F243159F74FBF8091E800877F9F
:1041B0008093E8006AE270E0CE0101960E94220737
:1041C0008091E8008B778093E80006C1C096E7CF26
:1041D0004091CE065091CF06292F33272330310549
:1041E00009F444C078F52130310509F46FC08BE340
:1041F00090E0ECE5FAE02230310509F0EDC02091C5
:10420000E800277F2093E8002091D0063091D10666
:104210008217930708F49C0140E02115310509F04D
:1042200064C0411162C08091E80082FDC9CF8091D5
:10423000C806882329F2853019F28091E80083FFAF
:10424000F2CFBECF21323105A9F12232310509F07A
:10425000C3C04115510509F443C04130510509F06F
:10426000BBC086EB90E0E6E6F9E0C9CF9927813044
:104270009105C1F0009759F0029709F0ADC0E9EA45
:10428000FAE0E4918E2F90E0E9EAFAE007C0EBEC67
:10429000FAE0E4918E2F90E0EBECFAE0009709F45D
:1042A0009BC0ADCFEBEBFAE0E4918E2F90E0EBEB0F
:1042B000FAE0F4CF4115510571F04130510509F094
:1042C0008BC089E090E0E7E8FAE099CF82E190E0E6
:1042D000E7E9FAE094CF89E090E0EEE6FAE08FCFEC
:1042E00080E490E0ECE1FAE08ACF8091C806882370
:1042F00009F466CF853009F463CF8091E80083FD2F
:104300005FCF8091E80082FD8ECF8091E80080FF32
:1043100084CF9091F3008091F2002115310519F0BE
:104320008830910550F041E0089709F040E0809115
:10433000E8008E778093E80070CF44914093F100BD
:104340003196215031090196E8CF803809F044C0F8
:104350008091E800877F8093E8008091C906809370
:10436000F1009ECE811138C01091CC061230A0F51C
:104370008091E800877F8093E8001093C9060E942F
:104380007606112311F084E005C08091E30087FDDB
:10439000FACF81E08093C80642E061EC81E00E94A0
:1043A000950642E261EC82E00E9495068091C80683
:1043B00013C08091CC06813079F481E0933009F00C
:1043C00080E08093C7061092E9008091E800877F23
:1043D0008093E8000E9476068091E80083FF0AC07F
:1043E0008091E800877F8093E8008091EB008062F5
:1043F0008093EB00AA96E3E00C946D301F920F922D
:104400000FB60F9211242F933F934F935F936F93A7
:104410007F938F939F93AF93BF93CF93DF93EF934C
:10442000FF93D091E900DF708091EC00C82FC1703C
:1044300080FDC0E81092E9008091F000877F8093B2
:10444000F00078940E944D1F1092E9008091F000D6
:1044500088608093F000CD2BCF70C093E900FF916E
:10446000EF91DF91CF91BF91AF919F918F917F910C
:104470006F915F914F913F912F910F900FBE0F90D1
:104480001F9018950E941E1F2FEF84E39CE021507F
:1044900080409040E1F700C0000088E19CE00FB64A
:1044A000F894A895809360000FBE90936000FFCFB2
:1044B000882321F00E9438100E94B81E0895882396
:1044C00039F09091D703982B9093D7030E94B81E90
:1044D0000895882399F19CEF980F913A40F4682F42
:1044E00082E393E00E9483070E94B81E089590E241
:1044F000980F983050F4877091E001C0990F8A9519
:10450000EAF7892F0E943810EFCF9BE5980F933080
:1045100028F490E080E00E940708089598E5980F3D
:10452000993128F490E080E00E94E207089593E337
:10453000980F933118F460E00E942E1D0895CF93D8
:10454000C82F8823D9F18CEF8C0F813AC8F5809160
:104550001001882311F18091A10687FF1EC0EC2F66
:10456000E695E695E695F0E0EE5CFC4F828190E002
:104570004C2F477021E030E002C0220F331F4A95D4
:10458000E2F782239323892B91F06C2F82E393E04F
:104590000E9483070E94B81E0AC0E4E3F3E08AE3A6
:1045A00093E02191C21789F38E179F07D1F76C2FE3
:1045B00082E393E00E94AD070E94B81ECF91089558
:1045C00080E28C0F883068F4C77021E030E001C0D1
:1045D000220FCA95EAF78091D703822B8093D703E5
:1045E000EBCFEBE5EC0FE33040F4F0E0E853FE4FA7
:1045F000808190E00E940708E1CFE8E5EC0FE93107
:1046000050F4F0E0EE0FFF1FE553FE4F80819181E3
:104610000E94E207D3CF83E38C0F833178F661E009
:104620008C2F0E942E1DCACF1F93CF93DF93182F7C
:10463000D0E0C0E0893311F4C0E5D0E0812F0E94C2
:104640009F22209739F4812F0E946922DF91CF9118
:104650001F9108958FE99FE00197F1F700C00000D6
:104660002197EFCFB0E0A0E0E8E3F3E20C944A300A
:10467000EC018AE0A82EFE012491222309F497C0C0
:10468000213009F03EC031968491813031F4229678
:10469000FE0184910E94142307C0823039F42296CF
:1046A000FE0184910E949F222196E5CF833031F450
:1046B0002296FE0184910E946922F6CF843009F08F
:1046C00074C02296FE01249190E080E0FE013196B4
:1046D0002053330B2A30310548F0019728F3EFE9D6
:1046E000FFE03197F1F700C00000F7CFA89EA001CE
:1046F000A99E500D1124C901840F951F2491EF012B
:10470000E5CFE22FF0E0E150F54FB490822F86958F
:104710008695869590E0FC01E151F54FE490277075
:10472000F12C022E02C0F594E7940A94E2F731E0EE
:10473000E322FF24FC01E152F54FC490D12C022E5C
:1047400002C0D594C7940A94E2F7E1E0CE22DD24BA
:10475000FC01E153F54F049110E002C01595079557
:104760002A95E2F701701127E114F10419F081EEA6
:104770000E949F22C114D10419F086EE0E949F224C
:104780008B2D0E941423C114D10419F086EE0E94CF
:104790006922E114F10419F081EE0E9469220115E9
:1047A000110509F481CF8CE275CFEF017DCFCDB734
:1047B000DEB7EAE00C9466300F931F93CF93DF933C
:1047C000C62FD42F022FFC0182818823A9F0609389
:1047D00001070E94FB1C909300078093FF06C7709F
:1047E00081E001C0880FCA95EAF70E945F22DF913D
:1047F000CF911F910F91089580910107681332C0E6
:104800008091FF06909100070E94EC1C883C910566
:1048100048F510E21D0FCD17B9F080E28C0F8830FB
:1048200040F4C77081E001C0880FCA95EAF70E9482
:104830005822183048F481E09D2F977001C0880FEE
:104840009A95EAF70E945F22802F0E941423183065
:1048500070F6D77081E001C0880FDA95EAF70E9400
:104860005822C5CFC77081E001C0880FCA95EAF70A
:10487000F6CFA5E0B0E0EFE3F4E20C9448307C0121
:10488000DC0113968D919C911497892B39F08C91B2
:1048900011969C9189238F3F09F09BC42596ECE0EB
:1048A0000C9464300E944910182F682F89819A81D6
:1048B0000E94BD1069817A81812F0E94810E8C0136
:1048C000FC01FE57E631F10508F0A3C0E050FE4CB4
:1048D000D70112968C910C949930882321F08EE8A0
:1048E00092E00E943223F7018281882309F49AC45E
:1048F00010920107C8019057839708F07DC484E0A7
:1049000090E00E9432319093A2068093A106F801B4
:10491000E150F047E232F10508F0B6C0EA5EFD4C26
:104920000C9499308823F9F286E792E0DACF882355
:10493000D1F28EE592E0D5CF8823A9F285E492E00A
:10494000D0CF882381F28DE292E0CBCF882359F239
:1049500085E192E0C6CF882331F28DEF91E0C1CF9F
:10496000882309F285EE91E0BCCF882309F4BBCF00
:104970008DEC91E0B6CF882309F4B5CF84EB91E0BC
:10498000B0CF882309F4AFCF8BE991E0AACF882379
:1049900009F4A9CF87E891E0A4CF882309F4A3CF35
:1049A00083E791E09ECF882309F49DCF8EE591E0C7
:1049B00098CF882309F497CF87E491E092CF88239A
:1049C00009F491CF8DE291E08CCF882309F48BCF4D
:1049D00089E191E086CF882309F485CF82E091E0D8
:1049E00080CF882309F47FCF8EEE90E07ACF8823A2
:1049F00009F479CF86ED90E074CF882309F473CF62
:104A000081EC90E06ECF882309F46DCF8CEA90E0C2
:104A100068CFFC01E851FC47E730F10508F063CFAF
:104A2000E85CFD4C0C94993026E241EE61EEC70142
:104A30000E94DC238091B503877009F42FCFD70142
:104A400012968C91882309F429CF8091A20682FFC7
:104A500025CF82E00E940A1121CF27E245EE65EEC4
:104A6000E6CF26E241EE60EEE2CF27E245EE64EECD
:104A7000DECF26E241EE62EEDACF27E245EE66EEC9
:104A8000D6CF28E241E0EBCF8091A10681608093F0
:104A9000A10695C08091A20688608093A2068FC06F
:104AA0008091A1068260F3CF8091A1068460EFCF50
:104AB0008091A1068860EBCF8091A2068160EDCF46
:104AC0008091A2068260E9CF8091A1068061DFCF4C
:104AD0008091A1068062DBCF8091A1068064D7CF50
:104AE0000E941E1F8091A1068068D1CF8091A106EF
:104AF0008C60CDCF8091A2068360CFCF8091A1063C
:104B00008E7FC5CF8091A206877FC7CF8091A106F7
:104B10008D7FBDCF8091A1068B7FB9CF8091A106FB
:104B2000877FB5CF8091A2068E7FB7CF8091A206F6
:104B30008D7FB3CF8091A1068F7EA9CF8091A106F2
:104B40008F7DA5CF8091A1068F7BA1CF0E941E1FD4
:104B50008091A1068F779BCF8091A106837F97CF0D
:104B60008091A2068C7F99CF8091A10682FB992724
:104B700090F921E0922790FB82F990FB83F987CF8F
:104B80008091A206982F909591708E7F892B90FB33
:104B900081F983CF9091A106892F8F7B96FF806446
:104BA00076CF0E941E1F9091A106892F97FB87F94F
:104BB00080586DCF61E08EE090E00E9448316091B6
:104BC000A1067091A20684E090E00E9466310E94E6
:104BD0001E1F30CF60E0EFCF9091A106892F8F7E0E
:104BE00094FF806154CF9091A106892F8E7F90FF12
:104BF00081604DCF9091A206892F877F93FF8860B7
:104C00004CCF8091520369E2811165E382E393E026
:104C10000E94830704C38091030791E08927809352
:104C200003071092140180910207816080930207AC
:104C300001CF43EA58E06DEA78E00E943908FACEE5
:104C40004DEA58E063EA78E0F8CF4FE858E069E9C8
:104C500078E0F3CF49E958E06FE878E0EECF45E738
:104C600058E062E878E0E9CF42E858E065E778E0AC
:104C7000E4CF4BE558E068E678E0DFCF48E658E05F
:104C80006BE578E0DACF4FE358E06DE478E0D5CF1C
:104C90004DE458E06FE378E0D0CF81E00E94FA0560
:104CA000C9CE84E0FBCF89E0F9CF8EE0F7CF0E9438
:104CB0001E1FFFEF24E33CE0F15020403040E1F7BD
:104CC00000C000000E94D6116FEF7FEF90E080E0FF
:104CD0000E9466310E9442228091A20682FB8827B0
:104CE00080F991E089270E94791BF7018281008178
:104CF0001181882309F446C0C8010E944910D82EAA
:104D0000682FC8010E94BD10B8018D2D0E94810E30
:104D10000E949E0E8C01882ED7011296DC9012976D
:104D20001596BC90B2943FE0B3228091B503877092
:104D3000C1F0AD2CDD20B1F0812F807F803421F0D7
:104D400080E2800F883068F08091A20682FF09C05F
:104D500082E00E940A118091B5038770AA24A3946F
:104D60008111A12C912E92942FE09222BBE0B915D3
:104D700008F474C0E92DF0E0E15CFD4C0C9499302E
:104D800080E0B1CFC8010E948A10D82EBDCFE12F9C
:104D9000EF70CE2E107F19F0C29490EFC922DD2063
:104DA000B9F0CC2069F080E2800F883010F08110DB
:104DB00009C08091D703C82AC092D7030E94B81EA9
:104DC000802F4AC08091D603C82AC092D603F6CF5E
:104DD000802F0E946922CC2009F440C0005E083078
:104DE00010F0811004C08C2D0E94381006C0C094B1
:104DF0008091D603C822C092D6030E94B81E2EC04E
:104E0000F12FFF70CF2E107F103219F0C29480EF77
:104E1000C822882089F021E0821609F482C0DD20B2
:104E200009F48BC0BB2009F455C0F701858180FFD0
:104E3000C7CF8F7085834EC09091A20692FD43C06C
:104E4000DD20D9F1CC2039F08091D703C82AC09257
:104E5000D7030E94B81E80E00E949F22A92DA8506F
:104E6000BB0B149710F40E942C08AA20A9F0809183
:104E7000B50380FD11C0F701128285958595859552
:104E80000E942A11C7010E9439248091B50385959B
:104E9000859585950E94F81085E0F701DE01119651
:104EA00001900D928A95E1F709811A81C8010E944B
:104EB0008A10B8010E94810EF1CC80E00E94692224
:104EC000CC2061F290CFDD20D1F08091DA03C82AA6
:104ED000B11004C08C2D0E945F22C0CF31E0B3120C
:104EE000F9CF92FFBBCFC81609F4B8CF0E94FB1CC4
:104EF0009093D9038093D803C092DA03AFCFB11057
:104F000006C00E942D108C2D0E945822A7CF81E050
:104F1000B81609F4A3CF8C2D0E9458220E942D10A0
:104F20009DCFDD2029F095E09B1508F497CFD2CFD7
:104F3000A4E0AB1508F492CFE6CFBB2021F3F9E350
:104F40008F1209C02FEF37EE83E0215030408040B0
:104F5000E1F700C00000802F0E9469227FCF812FDF
:104F600086958695837061F0813009F077CFC8010E
:104F70009370D11002C080E090E00E94E2076ECFF3
:104F8000C8019370D11002C080E090E00E94070831
:104F900065CF6D2D802F0E942E1D60CF812F8370D5
:104FA00009F03FC0D1105ACF402F42954695477027
:104FB000440F440F802F8F7090E0042E02C0880FA2
:104FC000991F0A94E2F730E020E004FF09C02FE0C7
:104FD00030E002C0220F331F4A95E2F7209530954A
:104FE000169516951370123099F078F440913505A6
:104FF00050913605113039F0822B932B8423952361
:105000000E943A112BCF842B952B822B932BF8CF18
:10501000822B932B209135053091360582279327DB
:10502000EFCF8695DD2011F0812F8170882309F460
:1050300015CF402F429546954770440F440F802F5F
:105040008F7090E0042E02C0880F991F0A94E2F737
:1050500030E020E004FF09C02FE030E002C0220F62
:10506000331F4A95E2F720953095169516951370E3
:10507000123099F078F4409137055091380511308D
:1050800039F0822B932B842395230E94F310E6CED4
:10509000842B952B822B932BF8CF822B932B209153
:1050A00037053091380582279327EFCF1F70DD2019
:1050B00029F0812F0E942A11802F0DCF802F0E946E
:1050C0005822812F0E94F810C9CE802F92EF8916A6
:1050D00099F1981570F0A0EF8A16D1F0B1EF8B1608
:1050E00091F0DD2009F465C0B1106ACE812F8F7177
:1050F00027C0E3EF8E1639F1F4EF8F12F2CF8091D3
:10510000A20682FD2EC0812F8F71DD20D9F218C03A
:10511000DD2069F024E02B1508F4A0CE1F7181E09A
:1051200090E002C0880F991F1A95E2F7B8CF35E0DA
:105130003B1508F493CEF2CF812F8F71D110C2CFDF
:105140000E942A118BCE90E080E0DD2009F49DCFF3
:105150001F7181E090E002C0880F991F1A95E2F755
:1051600094CFDD20D9F01F71812F0E942A118091E8
:10517000A20682FF11C0A8E01A9FC001112483601B
:105180008093B503812F0E942A110E94FB1C9093EB
:10519000B4038093B30362CE812FD2CF81E00E940B
:1051A0000A11B1E0BB1508F059CE82E00E940A1145
:1051B00055CEBB2059F0893309F0CDCEEFEFF7EE95
:1051C00023E0E150F0402040E1F7C3CE812F8F7102
:1051D00079CF85E0F701DE01119601900D928A9555
:1051E000E1F7D70112962C9189819A8121115ACB2E
:1051F0000E948A10182F5ECB0631BCE71B0729F5E9
:105200008091D7038A7A91E009F490E09093520359
:1052100069E2811165E382E393E00E94AD070E9499
:10522000B81E08CC0631ECE71E0709F4EACC8091E1
:10523000D7038272F801E052F847E531F10508F032
:1052400054CDE55BFD4C0C9499300330FCE71F070F
:1052500009F43ACD50F401153CE7130709F427CDC2
:1052600001301C4709F436CD40CD0B359CE71907BA
:1052700009F486CD0C35ACE71A0709F42DCD0A35B3
:105280001C4709F032CD81E02ECD1F93CF93DF93E1
:1052900080918003807F09F049C080917D0388233D
:1052A00009F444C08091B203D091810360917B03E3
:1052B00070917C03A0917E03B0917F03C62FC7231A
:1052C00016E0D81799F190E0109711F0CF3F19F43C
:1052D00001968770F6CF189F9001199F300D112409
:1052E000F901EE57FC4F41814713F2CF408146133D
:1052F000EFCF42814111ECCF438154814A1B5B0BBC
:10530000483C510528F7809180038F70806180931D
:105310008003F901E957FC4F80818F7080618083A1
:105320008BE793E00E9439240E943F10DF91CF91D8
:105330001F910895A1E1B0E0E0EAF9E20C944A304F
:105340008C0185E0F801DE011D9601900D928A9591
:10535000E1F7F801E2808BE7A82E83E0B82E609198
:105360007E0370917F036115710509F426C1909148
:105370007B0340917C03892F84238F3F09F41DC157
:1053800020813181C380D480F0907D03F601E61B3B
:10539000F70BFF2009F4DCC080918003582F507F69
:1053A000E83CF10508F09FC051116BC0FE2C43137F
:1053B00014C0921312C0E11010C08F7080618093EE
:1053C0008003C5010E94392480918003F801858300
:1053D0008F2D6196EAE00C946630C114D10429F057
:1053E000822F83238F3F09F003C180E0F82FF170F3
:1053F000DF2E80FF3CC08091B2034091810356E0D4
:10540000841315C02D873E878D859E850E947D1053
:10541000292F22952F702230F0F0243018F59F703C
:10542000F1F0F8019581907FD1F4D12C1EC090E06D
:10543000589FF001599FF00D1124EE57FC4F6181E8
:10544000361306C06081261303C06281E6120FC0C6
:1054500001968770D5CF9F7011F0882331F3805E5D
:10546000883018F3C8010E943924FD2CB1CFEE20FA
:1054700009F4AECF80918003816080938003F12C8A
:10548000A7CF431306C0921304C0F801EE2009F41D
:1054900079C0C8010E943F11882309F1EE20F9F07C
:1054A00080918003803270F020917B0330917C03E7
:1054B00038872F831986DB86CA868C87CE010796AC
:1054C0000E94392486E0F801ABE7B3E001900D9229
:1054D0008A95E1F70E944529FF24F39479CFC8010A
:1054E0000E943924F9CF51110AC08BE793E00E9442
:1054F000392486E0F50111928A95E9F7C0CF43136C
:105500000FC092130DC0E1100BC0F8018583C801D4
:105510000E94392486E0F50111928A95E9F758CF67
:10552000C8010E943F118823D1F2EE20C1F2809180
:105530008003803238F220917B0330917C033A83E0
:1055400029831B82DD82CC828E83CE010196B8CF67
:10555000E83CF105F8F6FE2CEE2009F243131FC0DB
:1055600092131DC08091800380FD10C0982F907F02
:1055700069F0F8018583903F31F0982F907F905F1C
:105580008F70892B8583C8010E94392486E0F80139
:10559000ABE7B3E001900D928A95E1F719CFC8010E
:1055A0000E943F1181118ECF809180038160809392
:1055B0008003C8010E9439240BCFEE2009F48FCF5D
:1055C000C8010E943F11F82E882309F488CF86E095
:1055D000F801ABE7B3E001900D928A95E1F7809175
:1055E0007B0390917C030E947D100E944529F0CEA0
:1055F00081E08E25FBCEA7E1B0E0E1E0FBE20C9478
:1056000051304B8B5C8B6D8B7E8B8F8B611110922D
:10561000D6031A8A198A85E0FE017396DE011D966B
:1056200001900D928A95E1F78091A20682FF1CC03D
:105630000E94FB1C2091B3033091B403821B930B97
:105640008C3D954020F08091B50382FF79C00E9487
:10565000FB1C2091D8033091D903821B930B8C3D06
:10566000954010F00E942D1086E0FE013D96DE016F
:10567000179601900D928A95E1F7CE0107960E9448
:105680009A29882359F016E08091B2039091810302
:10569000891343C06796E3E00C946D3086E0FE0109
:1056A0003796DE01119601900D928A95E1F78A8571
:1056B0009B85892B41F38F81988589238F3F19F32F
:1056C0002091810330E0C9010196877099274091AC
:1056D000B2034817190671F40E941E1F109281032D
:1056E0001092B20386E0EBE7F3E0DF011D928A95AA
:1056F000E9F7C9CF96E0929FD001939FB00D112496
:10570000AE57BC4FFE01319601900D929A95E1F78C
:10571000809381030E943F10B6CF819FC001112466
:105720008E579C4F0E949A29882309F4B3CF809109
:10573000B20390E00196877099278093B203A4CFBB
:1057400082E00E940A1183CF1F921FB61F9211247C
:105750008F939F93AF93BF9380919C06811113C049
:1057600080919D0690919E06A0919F06B091A00603
:105770004196A11DB11D80939D0690939E06A09316
:105780009F06B093A006BF91AF919F918F911F90FC
:105790001FBE1F901895CDB7DEB767970FB6F89468
:1057A000DEBF0FBECDBF85B7806885BF85B7806877
:1057B00085BF84B7877F84BF0FB6F894A895809182
:1057C0006000886180936000109260000FBE80E8E6
:1057D00090E00FB6F89480936100909361000FBE43
:1057E00085E29EE090933103809330030E94260669
:1057F0000E94C7068091E20084608093E200789462
:105800008091C8068823A1F01091E9001F70909143
:10581000EC00892F817090FD80E8182B1092E90030
:105820008091E80083FD0E944D1F1F701093E900D6
:1058300082E084BD93E095BD9AEF97BD80936E00A2
:105840000DEF11E0D8018D918D018F3F11F00E9475
:10585000270EB2E002301B07A9F702E012E091E147
:10586000E92E92E0F92EF80181918F018F3F11F01E
:105870000E94270EE016F106B1F78AE0EAEEF3E0A7
:10588000DF01282F1D922A95E9F7EEEDF3E0DF0105
:105890001D928A95E9F790E080E00E943231873EC0
:1058A0009E4F11F00E94901B82E090E00E942A31EE
:1058B0008093F40384E090E00E9432319093A2063A
:1058C0008093A1060E94061EEFEBFDE53197F1F7EC
:1058D00000C000000E94061E8091EA0380FF08C0FD
:1058E0006FEF7FEF90E080E00E9466310E94D6115A
:1058F00083E090E00E942A3190E00E943A110E94D9
:1059000011131092D6068FEF9FEF9093F0068093BD
:10591000EF069093F2068093F1069093F40680933D
:10592000F3069093F6068093F5069093F80680931D
:10593000F7069093FA068093F9069093FC068093FD
:10594000FB069093FE068093FD0610920805909347
:10595000220580932105909324058093230590933D
:10596000260580932505909328058093270590931D
:105970002A058093290590932C0580932B059093FD
:105980002E0580932D059093300580932F0590E090
:1059900080E00E943231873E9E4F21F00E94901B92
:1059A0000E945E1B81E08093020746E050E06CE1BC
:1059B00070E083E097E00E941A3110920207809114
:1059C00003078C7F11F40E945E1B84E091E09093AA
:1059D000990680939806772473948091C806853041
:1059E00089F400E4F02E83E0E82E00E112E18091DA
:1059F000C806853009F4D0C00E941E1F0E942C08E2
:105A0000109239050E94061E85EF93E09A8B898BD0
:105A1000AAEEB3E0BD8BAC8BFC01219131918D914D
:105A20009D9143E0EF3FF40709F407C128173907B8
:105A3000A1F319E1812E12E0912E612CAC89BD8970
:105A4000ED90FD90BD8BAC8BE989FA8981919191A4
:105A5000FA8BE98B8E159F0509F48BC09C012E25CE
:105A60003F253F8B2E8B1401512CCC24C394D12C79
:105A70008E899F898C219D21892B09F46CC0870117
:105A80000C211D215C866D8681E00115110509F44C
:105A900080E08E870E94FB1C8160782F988B8F8717
:105AA0004C855D856E8588890E94FB2A012B29F033
:105AB000D1018C918F3F09F0CAC1412C042D10E017
:105AC00080910805800F912F911D09976CF1E8E0F6
:105AD000AE2EB12CA01AB10AB801675F7A4FA501AA
