:100000000C9492050C94CA050C94CA050C94CA056C
:100010000C94CA050C94CA050C94CA050C94CA0524
:100020000C94CA050C94CA050C94C11B0C94D021E5
:100030000C945E2B0C94CA050C94CA050C94CA054A
:100040000C94CA050C94CA050C94CA050C94CA05F4
:100050000C94CA050C949A1C0C94CA050C94CA05FD
:100060000C94CA050C94CA050C94CA050C94CA05D4
:100070000C94CA050C94CA050C94CA050C94CA05C4
:100080000C94CA050C94CA050C94CA050C94CA05B4
:100090000C94CA050C94CA050C94CA050C94CA05A4
:1000A0000C94CA050C94CA050C94CA050101E3011D
:1000B0000432307C6F75746C6F6F6B010432307C6E
:1000C000010128000101E3010432307C73706F01EB
:1000D0000432307C010128000101E3010432307C4C
:1000E0006974756E6573010432307C01012800016A
:1000F00001E3010432307C666967010432307C011F
:100100000128000101E3010432307C706F776572D1
:100110007368656C010432307C010128000101E341
:10012000010432307C6E6F74657061010432307C82
:10013000010128000101E3010432307C74656C6523
:10014000010432307C010128000101E30104323056
:100150007C6E6F74010432307C010128000101E3E0
:10016000010432307C636872010432307C01012862
:10017000000102E3200103E3010432307C6D616978
:10018000010432307C010128000102E3200103E375
:10019000010432307C73706F010432307C0101281D
:1001A000000102E3200103E3010432307C6D75732A
:1001B000010432307C010128000102E3200103E345
:1001C000010432307C666967010432307C01012809
:1001D000000102E3200103E3010432307C74657204
:1001E000010432307C010128000102E3200103E315
:1001F000010432307C74657874010432307C010172
:1002000028000102E3200103E3010432307C74651D
:100210006C010432307C010128000102E32001035B
:10022000E3010432307C6E6F74010432307C0101D2
:1002300028000102E3200103E3010432307C7361F2
:1002400066010432307C01012800167C1E001F006C
:100250002000210022002300240025002600270082
:100260002D002E002A0041522B421B000F001C00C3
:1002700013000E001D0009001200180034002F00AA
:1002800030002A044C003943060015001600170000
:100290000A001000110008000C00040033000000E8
:1002A00028442B08A2520D00190007001A00140060
:1002B00005000B00360037003800B2520000520033
:1002C0003508215024502850000000002C00000068
:1002D00000003147354566525000000051004F0084
:1002E000167C1E001F002000210022002300240095
:1002F0002500260027002D002E002A0040522B004A
:1003000014001A000800150017001C0018000C004B
:10031000120013002F00300031004C00390004009F
:100320001600070009000A000B000D000E000F0068
:1003300033003400000028002B08E1001D001B00E2
:1003400006001900050011001000360037003800C3
:10035000E500000052003508E000E200E300000084
:1003600000002C0000000000E7003545E6005000CA
:10037000000051004F0001000100010001000100D8
:100380000100010001000100010001000100010065
:100390000100010001000100010001000100010055
:1003A0002102240025002600380001000100010080
:1003B000010001000100E000E300E10001002E0265
:1003C0002100220023002E00010000000100010096
:1003D0000100010001000100010001002D001E00CC
:1003E0001F00200037000100000001000100010093
:1003F00001000100000000000100000000002700D3
:1004000001000100010000000100010001000100E5
:1004100001000100010001000100010001000100D4
:1004200001000100010001000100010001000100C4
:10043000010001000100350036022F0030003702B4
:10044000010001000100010001000100E000E300E3
:10045000E10001002E0233022602270233000100D0
:100460000000010001000100010001000100010085
:1004700001002D023402240231023100010000008B
:100480000100010001000100010000000000010066
:100490000000000001000100010001000000010057
:1004A0000100010001000100010001000100010044
:1004B0000100010001000100010001000100010034
:1004C00001000100010050084F0801000100010077
:1004D0000100E700E6000100010001000100010049
:1004E0005000510052004F0001000100E5000100E2
:1004F000DA00D900010000000100010001001D0820
:100500001B08060819080100010001000100010094
:1005100001000100000001000100010001000100D4
:1005200000000000010000000000E40001000100E4
:100530000100000001000100007C3A003B003C008B
:100540003D003E003F0040004100420043004400A7
:1005500045004C000000037C2878BE00BD002778D1
:10056000000000000000000000000000000000008B
:1005700000002078A800AC00AA00A900AB00000091
:10058000000000000000000000000000000000006B
:1005900021782C01000000002A7829780000000052
:1005A0000000000000000000000000002578227814
:1005B0001C701B70000000000000AE000000000076
:1005C0000000000000002478000026782378010055
:1005D0000100010001000100010001000100010013
:1005E00001000100010001000100010001001400F0
:1005F0001A000800150017000100DA00CD00D9002C
:100600000100010001000100DF00010004001600EC
:10061000070009000A00DB00CF00CE00D000DC009C
:10062000010000000100DE0001001D001B000600AB
:1006300019000100D100D2000100010001000100F9
:1006400000000100DD0001000100010000000000C9
:100650000100000000000100010001000100000095
:100660000100010000000000000000000000000088
:10067000000000000000000000002D082E082A08DD
:10068000000000000000000000000000000000006A
:100690000000057E000000002F0830080000000068
:1006A0000000000000000000000000000000007ECC
:1006B000027E017E037E00000000000000000000BA
:1006C000000000000000000000000000047E067E24
:1006D000077E087E0000000000000000000000000F
:1006E0000000000000002C080000000000000000D6
:1006F00000000000000000000000000101010101F5
:1007000001010101020202020202020202030303CA
:10071000030303030304040404040404050505059A
:10072000050606060606070707070708080808095A
:100730000909090A0A0A0B0B0B0C0C0C0D0D0D0E06
:100740000E0E0F0F0F10101111111212131314149B
:10075000151516161717181819191A1A1B1B1C1D10
:100760001D1E1E1F20202122222324242526262769
:100770002829292A2B2C2D2D2E2F3031323233349B
:1007800035363738393A3B3C3D3E3F4041424344A1
:1007900045464748494A4C4D4E4F50515354555683
:1007A00058595A5B5D5E5F616264656668696B6C2F
:1007B0006D6F7072737577787A7B7D7E80828385AA
:1007C00087888A8C8E8F91939596989A9C9EA0A2EA
:1007D000A3A5A7A9ABADAFB1B3B5B7BABCBEC0C2F4
:1007E000C4C6C9CBCDCFD1D4D6D8DBDDDFE2E4E7B8
:1007F000E9EBEEF0F3F5F8FAFDFF009B8B7B00AB25
:100800008A7A00AA9A7900A9998900A8988800A7ED
:10081000978700A6968600A5958500A49484003C41
:100820004C5C002C4D5D002D3D5E002E3E4E003098
:10083000405000314151002A3A4A002939490028E4
:10084000384800273747002636460025355600240D
:1008500045550034445400AC9C8C00AD9D8D00AED9
:100860009E8E00AF9F8F00B0A09000B1A19100328A
:100870004252002B3B4B01A9998901A8988801A7F6
:10088000978701A6968601A5958501A49484013CCD
:100890004C5C012C4D5D012D3D5E012E3E4E012F25
:1008A0003F4F013040500033435301AB8A7A012857
:1008B0003848012737470126364601253556012499
:1008C000455501AC9C8C01AD9D8D01AE9E8E01AF56
:1008D0009F8F01314151013242520133435300B2E3
:1008E000A281019B8B7B012B3B4B012A3A4A0134AD
:1008F000445401B1A19101B2A28101B3928201A33A
:10090000938300A3938300B3928205010902A1019E
:1009100085020901A1000509190129081500250111
:100920009508750181020501093009311581257F7E
:1009300095027508810609381581257F950175088E
:100940008106050C0A38021581257F9501750881FD
:1009500006C0C005010980A101850319012AB7005D
:10096000150126B700950175108100C0050C09011D
:10097000A101850419012AA002150126A0029501F2
:1009800075108100C005010906A10185060507193A
:10099000E029E71500250195087501810205071971
:1009A0000029EF1500250195F07501810205081950
:1009B000012905950575019102950175039101C005
:1009C00005010906A101050719E029E71500250120
:1009D00095087501810295017508810105071900C7
:1009E00029FF150026FF00950675088100050819E6
:1009F000012905950575019102950175039101C0C5
:100A000009023B00020100A0FA09040000010301F1
:100A1000010009211101000122400007058103089E
:100A20000001090401000103000000092111010077
:100A30000122B60007058203200001120100020016
:100A40000000085A4421140002010200011003446E
:100A5000005A003600350052004700420000000EE8
:100A60000344005A005400450043004800000004BD
:100A70000309040000000000000000000000000066
:100A80000000000000000000000000000000000066
:100A9000000000000000007E0F00D4FFFFFFC70031
:100AA00000007800000000000000002A2B28000051
:100AB000000000000000000000000000000029000D
:100AC0000000002C1E3420212224342627252E3617
:100AD0002D3738271E1F2021222324252633333685
:100AE0002E37381F0405060708090A0B0C0D0E0FD8
:100AF000101112131415161718191A1B1C1D2F315B
:100B000030232D350405060708090A0B0C0D0E0FBE
:100B1000101112131415161718191A1B1C1D2F313A
:100B200030354C0011241FBECFEFDAE0DEBFCDBF61
:100B300004B603FE18C08091050790910607A091A6
:100B40000707B09108078730904BA740B04B59F486
:100B500010920507109206071092070710920807D7
:100B6000E0E0F8E3099527E0ACE2B3E001C01D92B4
:100B7000A530B207E1F713E0A0E0B1E0ECE2F4E663
:100B800002C005900D92AC32B107D9F70E94852BB7
:100B90000C9489310C9400009091FF06937061F0E1
:100BA00081110BC094609093FF0610921401809104
:100BB000FE0681608093FE0608958E3110F09467E2
:100BC000F2CF880F880F982BEECF9091FF0693708D
:100BD00071F08093000760930107493C08F048ECEE
:100BE000409302078091FE0681608093FE0608957F
:100BF000E8EDF0E080818E7F80831092E200109219
:100C0000DA001092E100A0EEB0E08C9181608C934C
:100C100080818F77808319BCA7EDB0E08C918E7FA7
:100C20008C9380818F7E808310929F0608952091FF
:100C3000E4003091E50095E6A9012091EC00822FB7
:100C4000817020FF06C08091E80080FF06C080E030
:100C500008952091E80022FD1AC08091C4068823DF
:100C600089F0853089F08091EB0085FD0FC02091DF
:100C7000E4003091E50042175307F9F29150E1F694
:100C800084E0089582E0089583E0089581E0089566
:100C90008091C60687FF13C08091E80082FF06C0DE
:100CA0008091E8008B778093E80004C08091C406AF
:100CB0008111F2CF08958091C4068823D9F38091E1
:100CC000E80080FFF8CF8091E8008E77ECCF982F76
:100CD0009093E900242F762F50E0891731F070911E
:100CE000EC002091ED005091F00021FD07C09F5FC6
:100CF000973071F78093E90081E008953091EB001F
:100D00003E7F3093EB003091ED003D7F3093ED005E
:100D10003091EB0031603093EB007093EC00209346
:100D2000ED005093F0002091EE0027FDE0CF80E031
:100D30000895B0E0A0E0EFE9F6E00C940630C8EDCD
:100D4000D0E088818F7E8883E7EDF0E0808181604C
:100D5000808384E082BF81E080939F0688818E7FBC
:100D6000888302EE10E0F80110821092DA0081EE22
:100D7000C82ED12CF601108288818F7788838881D4
:100D80008068888388818F7D888319BC1092C4060F
:100D90001092C5061092C3061092C20690EEE92E7C
:100DA000F12CF70180818B7F80838881816088832B
:100DB00042E060E080E00E946706F60180818E7F5D
:100DC0008083F80180818160808380818860808356
:100DD000F70180818E7F8083888180618883CDB791
:100DE000DEB7E8E00C942230FC018091CC069091B3
:100DF000CD0686179707A0F06115710529F490912B
:100E0000E8009E779093E80090E06115710551F439
:100E1000911108C08091E80082FF34C080E00895FD
:100E2000BC01F2CF8091C4068823C1F18530C1F1A5
:100E30008091E80083FD30C08091E80082FDEACF18
:100E40008091E80080FFE1CF8091F3002091F200D3
:100E5000382F6115710519F02830310558F091E0EF
:100E60002830310509F090E02091E8002E7720939A
:100E7000E800CBCF81918093F100615071092F5F21
:100E80003F4FE7CF8091C406882341F0853041F081
:100E90008091E80083FFBECF81E0089582E008954D
:100EA00083E008958091A1060895209110012223E6
:100EB000C9F020919D0627FF15C0E62FE695E6951F
:100EC000E695EE31D8F4E80FF92FF11D677021E0B7
:100ED00030E001C0220F6A95EAF72095828128232D
:100EE00022830895FC01329608962191621303C073
:100EF000DF0111971C92E817F907B9F708952091BF
:100F000010012223C1F020919D0627FF14C0E62F77
:100F1000E695E695E695EE31F8F4E80FF92FF11D28
:100F2000677021E030E001C0220F6A95EAF7828104
:100F3000822B82830895FC0132962FEF30E041919D
:100F4000641751F02F3F19F4411101C0232F3F5F67
:100F50003630A9F72F3F09F40895820F911D27FD20
:100F60009A95FC0162830895A3E0B0E0EAEBF7E014
:100F70000C940C302091960630919706281739076B
:100F8000A1F09093970680939606E0919406F091D5
:100F90009506309751F024E029839B838A8306804D
:100FA000F781E02DCE01019609952396E2E00C949D
:100FB0002830A3E0B0E0EFEDF7E00C940C30209186
:100FC00092063091930628173907A1F09093930663
:100FD00080939206E0919406F0919506309751F037
:100FE00023E029839B838A830680F781E02DCE014D
:100FF000019609952396E2E00C942830E09194063E
:10100000F0919506309729F00190F081E02D099537
:10101000089580E00895FA01811101C0FB0109954E
:101020000895EFEFF6E0248130E1231B08F420E07F
:1010300024838091FE0681608093FE060895EFEF81
:10104000F6E0248130E1230F08F42FEF2483809110
:10105000FE0681608093FE060895EFEFF6E043817F
:1010600020E1421B08F440E08181628190E00E940F
:10107000E5050895EFEFF6E0438120E1420F08F423
:101080004FEF8181628190E00E94E5050895EFEFC6
:10109000F6E0628120E1621B08F460E08181438117
:1010A00090E00E94E5050895EFEFF6E0628120E10F
:1010B000620F08F46FEF8181438190E00E94E505A3
:1010C0000895EFEFF6E08181438162818850990BAA
:1010D0000E94E5050895EFEFF6E0818190E04381FD
:1010E000628108960E94E50508958091FF06869525
:1010F0008695815009F48DE10E94CC050895809178
:10110000FF06869586958F5F8E3108F081E00E94FC
:10111000CC05089522E8241B08F420E0620F08950E
:101120004095282F429F412D1124842F0895E42FAC
:10113000F0E0EE0FFF1FE05AFD4F9081921B97FDEC
:101140009195292F38E1239F212D1124620F0895B5
:101150000F931F9310E0F801EE0FFF1FE05AFD4FB1
:101160009081905797FD9195000F111FF801EF594D
:10117000FD4F00810052110B2003F001219FF00D63
:10118000112408E310E0091B110997FD1395400392
:101190009001419F300D1124E20FF31F9F01220F98
:1011A000331F2E0F3F1F37FF02C021583F4F220F22
:1011B000232F221F330B620F1F910F9108950F935E
:1011C0001F93522F10E0F801EE0FFF1FEF59FD4F54
:1011D000A081A052BB0B9D015203F001539FF00D63
:1011E0001124000F111FD801A05ABD4F0C910057B8
:1011F000110B40039001419F300D11242E0F3F1F12
:1012000037FF02C0215C3F4F96E0359527959A95B0
:10121000E1F7620F1F910F9108950F931F93522FC3
:1012200010E0F801EE0FFF1FEF59FD4FA081A05213
:10123000BB0B9D015203F001539FF00D1124000FD1
:10124000111FD801A05ABD4F0C910057110B40033C
:101250009001419F300D11242E0F3F1F37FF02C018
:1012600021583F4F220F232F221F330B620F1F9154
:101270000F910895EF920F93972F23E0029FB001F3
:101280001124759567956E0D792F0F91EF90089544
:10129000322F50E0FA01EE0FFF1FEF59FD4F908102
:1012A000905297FD9195440F551FFA01E05AFD4F5A
:1012B0002081231B330B290F311D97FD3A95620FB7
:1012C0000895E42FF0E0EE0FFF1FEF59FD4F60810E
:1012D000621B0895E42FF0E0EE0FFF1FE05AFD4F70
:1012E0006081621B0895622F0895E42FF0E0EE0FF5
:1012F000FF1FE05AFD4F408134EE439F412D1124E2
:10130000E82FF0E050E0445E5F4FDA01A21BB10924
:101310009D01B7FF03C031952195310993E0220F5C
:10132000331F9A95E1F7AF01421B530B9A0157FD0A
:1013300020E0582F259F212D1124822F08950E94EF
:101340000A1208950E94CC110895EF92FF920F9314
:101350009701201B31092F3F310519F010F02FEFB5
:1013600030E02095382F320F08F43FEF832F0F9194
:10137000FF90EF900895FC019B01009729F480E015
:1013800077FF2BC080E80895AC0197FF04C0442785
:101390005527481B590BB901640F751F37FD10C045
:1013A000241B350BC901A5E0880F991FAA95E1F709
:1013B0000E943F3080E2861BF7FF0FC081950895A1
:1013C000CB0165E0880F991F6A95E1F7BA01621BAE
:1013D000730B0E943F3080E6EECF0895EF920F939B
:1013E000CF93DF93D72FC82FC9010E19BA010E94DE
:1013F000BB09602F681B7D2F8C2FDF91CF910F9140
:10140000EF9008950F93CF93DF93D72FC82FC90183
:10141000BA010E94BB09682F600F7D2F8C2FDF91CE
:10142000CF910F910895EF920F931F93CF93DF9376
:10143000D62FC72F182FC9010E19010FBA010E940C
:10144000BB09081B202F219F212D1124822F6D2FD6
:101450007C2FDF91CF911F910F91EF9008950F9303
:101460001F93CF93DF93D62FC72F182FC901212F9A
:10147000201B022FBA010E94BB09982F990F990FC8
:10148000891B800F282F219F212D1124822F6D2F42
:101490007C2FDF91CF911F910F910895E82F86FD4A
:1014A000E0952E2F2F7086FD2F5FE695E695E69549
:1014B000E670F0E0E35FFD4F9181929F902D212D2A
:1014C000112492959F702295207F922B2081920F5C
:1014D00087FD919580E8890F08950F931F93CF930F
:1014E000DF938B01D82FC42F822F0E944E0AEC2F3E
:1014F000F0E0EE0FFF1FE05AFD4F90819058890FEA
:1015000087FD8195880F682F2CE0629F612D112443
:10151000600F712F8D2FDF91CF911F910F91089543
:1015200040910C0150910D0125E038E0429FC0012F
:10153000439F900D529F900D1124875E994C90937C
:101540000D0180930C01890F0895AC018230910543
:1015500008F408959FEF413E8EE1580740F49A0148
:1015600095E0369527959A95E1F798E0920F61E01E
:10157000E62FE90FFF27FF1F9F0135952795822F43
:10158000229FF001239FF00DF00D11244E175F07ED
:1015900038F49FEF920F961758F78FEF860F089544
:1015A0002F3FE9F361E0620FF6CF0F93CF93DF9304
:1015B000D72FC82F47FD419588E390E0841B910900
:1015C00047FD9395889FB001899F700D700D112480
:1015D000229FC001239F900D900D1124860F971F0D
:1015E0000E94A50A982F990F890F682F600F7D2FF1
:1015F0008C2FDF91CF910F91089530E020E0869FEE
:10160000212D969F200D311D1124C901089520918F
:10161000030730E1230F08F42FEF60E1822F90E001
:101620000E94FD0ABC0188EB9BE00E94E82F90E03D
:1016300080E00895AF92BF92CF92DF92FF920F9316
:101640001F93CF93DF93362F472FE82FF0E0E6501C
:10165000F94F71110FC0E4918E2F2E2F6E2F722F24
:10166000DF91CF911F910F91FF90DF90CF90BF90AE
:10167000AF900895C72FD0E02491F22E022F10E0F2
:1016800056E0659FC0011124EFEFF0E0BF010E941A
:10169000E82F832F90E0880F991F35E5369FD00102
:1016A000379FB00D11248A1B9B0B982F990F980F11
:1016B0006F01CC1ADD0AC09ED001C19EB00DD09E34
:1016C000B00D11248B2F499FA0011124452F5527C0
:1016D0006F01C41AD50AC09EA001C19E500DD09EB4
:1016E000500D11245F01A91AB108AC9E6001AD9E96
:1016F000D00CBC9ED00C1124CD2CDD24EC19FD099E
:10170000E09FE001E19FD00DF09FD00D1124ED2F5F
:1017100062307105A1F050F46115710509F49ECF96
:101720006130710581F0EB2F852F98CF6430710502
:1017300069F080F06630710509F490CFF4CFE22FA4
:101740002B2F8D2F8BCFE22F252F88CFEB2F822FA2
:101750002D2F84CF2B2F8F2DE52F80CFB0E0A0E051
:10176000E4EBFBE00C9407308C01FC01E851FD4FE9
:101770008081682349F1D0900107D0910207C09180
:101780000007EC2EF12C0E94900A282FC7018C54E0
:101790009F4F68E671E00E943F308E199F0997FDC8
:1017A0000396959587959595879523706C2F289F1F
:1017B000600D11247D2D8D2F0E941A0B462F282F8E
:1017C000672FC8010E94A209CDB7DEB7E7E00C94ED
:1017D0002330B0E0A0E0EFEEFBE00C9406308C018B
:1017E000C0911101CC0FCC0F24E0D22EDC0ECD2CF9
:1017F00024E42D1510F494E4C92E2091030731E060
:10180000230F08F42FEF30E050E040E06FEF7FEF60
:1018100080E090E00E9426317901D0E02C2FCC1599
:1018200050F081E0F3E4FD1508F480E0CDB7DEB7B9
:10183000E8E00C942230FE01E851FD4F8081909148
:101840001201892311F14091D2064150042E000C5F
:10185000550B47FF1CC0C7016091030721E0620FD1
:1018600008F46FEF0E94FD0AAC01609100077091CF
:10187000010780910207F80109950E941A0B462F73
:10188000282F672FCE010E94A2092196C7CFFA0107
:10189000EE52F94F818982130AC0FA01EE0FFF1F41
:1018A000EE52F94F818D928D8E159F05A8F2415011
:1018B0005109CFCFB0E0A0E0E0E6FCE00C940730A7
:1018C0007C01C0911101CC0FCC0F14E01C0F012F33
:1018D000153408F004E4609103076695669521E0ED
:1018E000620F08F46FEF8091CE069091CF060E94B0
:1018F000FD0AD82ED0E0C01748F081E0143408F07B
:1019000080E0CDB7DEB7E7E00C942330FE01E8516C
:10191000FD4F808190911201892391F06091000721
:1019200070910107809102072D2D4C2FF701099529
:101930000E941A0B462F282F672FCE010E94A20962
:101940002196D9CFB0E0A0E0E8EAFCE00C940330A7
:101950006C01C0911101CC0FCC0F14E01C0FB12E03
:10196000153410F034E4B32E609103076695669544
:101970008091CE069091CF060E94FD0AF82E80E459
:101980008F0D0E944E0A90E8A92EA80E8F2D0E945E
:101990004E0A20E8922E980ED0E0CB1548F081E058
:1019A000143408F080E0CDB7DEB7EBE00C941F30C4
:1019B000FE01E851FD4F8081909112018923A1F031
:1019C000609100077091010780910207EF2C0C2FA6
:1019D000292D4A2DF60109950E941A0B462F282F12
:1019E000672FCE010E94A2092196D7CFB0E0A0E0D8
:1019F000ECEFFCE00C9401305C01C0911101CC0FC4
:101A0000CC0F14E01C0FF12E153410F034E4F32E3B
:101A10006091030766958091CE069091CF060E9453
:101A2000FD0A782ED0E0CF1548F081E0143408F09C
:101A300080E0CDB7DEB7EDE00C941D30FE01E8513B
:101A4000FD4F8081909112018923C9F1CE01880F49
:101A5000991F8B5E9D4FFC01E55BFF4F2081422F5C
:101A60004057550B6A01845B9F4FFC018081282FF2
:101A70002052330B4901449F9001459F300D300D9A
:101A80001124889CC001899C900D900D1124820F17
:101A9000931F0E94A50A082F60910007709101070B
:101AA00080910207E72C9401A601F50109950E9497
:101AB0001A0B462F282F672FCE010E94A2092196CC
:101AC000B2CFB0E0A0E0E7E6FDE00C9406307C0188
:101AD000C0911101CC0FCC0F14E01C0FD12E153486
:101AE00010F034E4D32E6091030766958091CE0602
:101AF0009091CF060E94FD0AC82ED0E0CD1548F087
:101B000081E0143408F080E0CDB7DEB7E8E00C9453
:101B10002230FE01E851FD4F80819091120189230E
:101B200011F1CE01880F991F8B5E9D4FFC01E45B84
:101B3000FF4F20812052330B855B9F4FFC0140817A
:101B40004057550B60910007709101078091020783
:101B50000C2DF70109950E941A0B462F282F672F8D
:101B6000CE010E94A2092196C9CF8091FE0380FD7B
:101B700016C081FD16C082FD16C08091FD0388232A
:101B8000A1F0883280F428E0829FC001112468E22D
:101B900070E00E943F30862F672B39F0089582E075
:101BA000089584E0089588E0089581E00895809183
:101BB000FE0380FD14C081FD14C082FD16C080911B
:101BC000FC03882381F08E3180F420E3829FC001E2
:101BD00011246EE170E00E943F30862F08958CE062
:101BE000089588E1089588E0089580E3089580E0ED
:101BF0000895F894E82FE295EF70F0E031A1282FD6
:101C00002F7081E090E001C0880F2A95EAF7982FA5
:101C10009095932391A392A1892B82A37894089500
:101C200090919D0692FF06C0282F28712830F9F464
:101C3000877F846093FF06C0282F28712831F1F434
:101C4000877E846120919E0620FF06C0382F387160
:101C50003830D9F4877F816021FF06C0282F287192
:101C60002831D1F4877E816194FD877E0895282FE5
:101C700024712430F9F68B7F8860DCCF282F247103
:101C8000243101F78B7E8861DDCF382F31713130FF
:101C900019F78E7F8860E0CF282F2171213121F73D
:101CA0008E7E8861E1CF972F7530B8F46F30A8F43D
:101CB000883098F470E02FE0929F600D711D112420
:101CC000FB019BE4899FE00DF11D1124EE0FFF1F26
:101CD000E65BFD4F85919491089580E090E0089532
:101CE000CF93DF93EC0182389105B9F108F041C040
:101CF0008133910509F49FC050F58932910509F4AB
:101D00008FC08A9709F49EC0C11520E5D20708F05C
:101D1000BDC0C11530E4D30708F00AC1C03ED105EB
:101D200008F0A5C0CD3CD10508F000C1C83AD105E6
:101D300008F08FC0C53AD10508F0F0C0C130D10518
:101D400039F1209729F1C430D10510F546C085330B
:101D5000910509F460C0C997B9F680919D0683701A
:101D600009F044C180919E0683FF12C0C9E2D0E011
:101D70000FC0833E9105A1F178F4803E910509F1F1
:101D8000823E910509F0C0CF80919D0682FD21C061
:101D9000CE01DF91CF910895863E910561F1873E96
:101DA000910571F1843E910509F0AECF80919E06B8
:101DB00081FFEECF80919D06C7EED0E084FD0DC07F
:101DC000E7CF80919D0680FD33C090919E0690FFE5
:101DD000DFCFC3EED0E084FFDBCFD0E0C0E0D8CFD0
:101DE00080919D0682FDFFC090919E0690FDFEC0F1
:101DF00084FFCECFF2CF80919D0683FDDDCFC8CF8B
:101E000080919D0683FDF5C090919E0691FFF0CFD5
:101E1000C4EED0E0BDCF80919D0685FFB9CFA6CF9F
:101E200080919D0685FDE8C080919E0683FFB0CF1E
:101E3000C9E3D0E0ADCF80919D0686FFA9CFCAE26D
:101E4000D0E0A6CF80919D0686FFA2CFC1E3D0E06F
:101E50009FCFC13CD10508F6C85AD0E0CC0FDD1F9A
:101E6000C953DE4F0990D881C02DD46491CFC115DC
:101E700040E2D40708F0AAC0C11581E0D80708F0F5
:101E800087CFC83ED10508F483CFA7CFC03622E55F
:101E9000D20718F5C03432E5D30708F053C0C0327A
:101EA00042E5D40708F047C0C11582E5D80708F419
:101EB0007FC02C2F2695269540E2249F9001112467
:101EC0008C2F8370C1E0D0E002C0CC0FDD1F8A955B
:101ED000E2F7C22BD32BDD685BCFC03A22E5D207F5
:101EE00060F4C03832E5D30708F441C0CF71D0E0C8
:101EF000DC2FCC27C46FD06A4BCFC03C42E5D4075F
:101F000008F44AC0C03E82E5D80708F066CFDC2F4F
:101F1000CC27CC27DF71C06FD06A3ACFC55AD0E04A
:101F2000CC53DE4FC881D0E0D06432CFD06530CF03
:101F3000DF70D06A2DCFCF71D0E0DC2FCC27C16FFE
:101F4000D06A26CF2C2F26952695277080E2289FD1
:101F5000900111248C2F8370C1E0D0E002C0CC0F1F
:101F6000DD1F8A95E2F7C22BD32BDC6811CF2C2F13
:101F700026952695277040E2249F900111248C2FEE
:101F80008370C1E0D0E002C0CC0FDD1F8A95E2F77C
:101F9000C22BD32BDA68FCCE8C2F8F710E94100ECF
:101FA000C82FD0E0DC2FCC27CC27DF71D062F0CE59
:101FB0008C2F8F710E94100E35E0D695C7953A95FB
:101FC000E1F7CF709C2FEC01D069E2CE8D2F8F719D
:101FD0000E94100E90E0982F882788279F719C01FF
:101FE0002C2BE901E3CFC2EED0E0D2CEC0EED0E0A0
:101FF000CFCEC6EED0E0CCCEC5E3D0E0C9CE809146
:10200000D603882331F01092D6031092D503109294
:10201000D403089580959091D30398239093D3038C
:1020200008958091AE0390917D03981301C00895A7
:102030008F5F8770FACFB0E0A0E0E1E2F0E10C94AE
:1020400005307C01009133051091340580913105F4
:1020500090913205082B192BCFE0D0E0CC24C3940B
:10206000D12CBC2EC6010C2E02C0880F991F0A94D9
:10207000E2F780239123892B49F4219790F7B12C23
:102080008B2DCDB7DEB7E9E00C942130B7018C2F52
:102090000E94530E0E94700E019779F3F1CFCF93F7
:1020A000DF93EC010E941B10BE010E94530E0E94A0
:1020B000700EDF91CF910895953078F58F3068F5E7
:1020C000E82FF0E08FE0989FE00DF11D11249E2F86
:1020D000977083E0F695E7958A95E1F7EE0FFF1F7D
:1020E000EE0FFF1FE15BFC4F50E040E080E02191EC
:1020F00030E0092E02C0369527950A94E2F7217048
:102100003327042E01C0220F0A94EAF7822B4F5F77
:102110005F4F4430510559F7089580E00895953098
:1021200098F58F3088F5E82FF0E08FE0989FE00D6C
:10213000F11D11248E2F877041E001C0440F8A9554
:10214000EAF783E0F695E7958A95E1F7EE0FFF1F32
:10215000EE0FFF1FE15BFC4F30E020E070E051919B
:10216000DF011197CB01022E02C0969587950A9444
:10217000E2F7817081958527842385278C932F5FD3
:102180003F4F2430310559F70895909334058093DB
:102190003305089521E030E002C0220F331F8A95F5
:1021A000E2F7209530958091330590913405822394
:1021B00093230E94C51008959091B10380958923BF
:1021C0008093B103282F2770B1F4282F082E000C1C
:1021D000330B9217130679F090919E0692FF0BC075
:1021E0008595859585950E94CA101092B10310922D
:1021F000B0031092AF03089521E030E002C0220F37
:10220000331F8A95E2F78091330590913405822B34
:10221000932B0E94C5100895909332058093310549
:102220000895FC0183819481892B29F0808191811B
:1022300089238F3F51F480E00895843FE1F717C070
:10224000883EA8F0813FB9F712C0808191810E9439
:102250004F1092959F70963099F358F4925F9F704B
:10226000923048F7803F19F040F7883E20F781E030
:1022700008959A5FF4CF0F931F93CF93DF938B0151
:10228000EA019091C406943061F58093E9008FEFE4
:102290009091E800815095FD06C095ED9A95F1F773
:1022A00000008111F5CF8091E80085FF1AC00E94DF
:1022B0001706811111C08091E80085FD06C080914C
:1022C000E8008E778093E800F2CFF80181918F01CA
:1022D0008093F100219779F78091E8008E778093C1
:1022E000E800DF91CF911F910F91089543E050E0F6
:1022F000BC0182E00E943B11089546E050E0BC0121
:1023000082E00E943B110895CF93DF93EC0180910E
:102310001001811111C048E050E0BE0181E00E942F
:102320003B1180E2FE01A2EAB6E001900D928A958F
:10233000E1F7DF91CF91089580919D0687FF05C059
:1023400040E282E050E0BE01EACF48E081E0FACF0F
:1023500081E08093E00080E28093D8001092C90071
:102360008FE19EE40197F1F700C0000087E090EB59
:10237000DC018093050790930607A0930707B093AD
:10238000080788E19CE00FB6F894A8958093600058
:102390000FBE90936000FFCFA4E0B0E0E2EDF1E16A
:1023A0000C940930F62E042F122F8434910570F509
:1023B000880F991F880F991FBC016650784F44E021
:1023C00050E0CE0101960E94B53089818370EA8188
:1023D000282F30E040E9849FC0011124845B9A4F8C
:1023E000E80FF92FF11DB497F082EB81E80FF92F78
:1023F000F11DB4970083EC81E80FF92FF11DB4971C
:102400001083265B3A4F81E0F90180832496E5E052
:102410000C942530FF920F931F93CF93DF93182FC7
:10242000062FF42ED0E0C0E02F2D402F612FCE01DB
:102430000E94CC112196C434D105B1F7CDB7DEB7D7
:10244000E5E00C9425300F931F93CF93DF93082F73
:10245000000FEB0114E210933605E7E3F5E0DE012F
:102460008D91819385E0E734F807D1F724E630E0D9
:1024700041E150E066E375E0802F0E94C72F105FB6
:102480006096143B41F7DF91CF911F910F91089512
:1024900080914A05882329F06CE475E084E70E9466
:1024A000231210924A0580914B05882329F06CED88
:1024B00075E087E70E94231210924B050895E6E32A
:1024C000F5E06083418324E630E042E050E0BF0164
:1024D000880F0E94C72F0895EF92FF920F931F93CA
:1024E000CF93DF93E82E062F10E00057194FF80125
:1024F0008081882381F0F2E16F9FE0011124C459AB
:10250000D94FF12C49916F2D8E2D0E945F12F394BB
:1025100082E1F812F7CFF8011082CDB7DEB7E6E01E
:102520000C942430CF93DF93C82F4BE06DEF0E94C3
:102530005F1240E06AE08C2F0E945F128FE39CE9FB
:102540000197F1F700C0000040E060E08C2F0E948E
:102550005F1240E061E08C2F0E945F1240E066E075
:102560008C2F0E945F1240E06DEF8C2F0E945F1253
:10257000D0E040E06D2F8C2F0E945F12DF5FD231E0
:10258000C1F740E06D2F8C2F0E945F12DF5FD432C5
:10259000C1F740E06D2F8C2F0E945F12DF5FD43BAC
:1025A000C1F74BE06DEF8C2F0E945F1241E06AE0B3
:1025B0008C2F0E945F1240E06DEF8C2F0E945F1203
:1025C000DF91CF910895A4E0B0E0E9EEF2E10C9440
:1025D00000300E94272F84E70E94921287E70E9412
:1025E00092120AEF17E052E1752E68E0C62ED12C48
:1025F000EE24E394F12C6624639444E050E0B801A7
:10260000CE0101960E94B5304A8150E0CA018497FC
:102610002B81622F6452770B4B012C81E22FE45205
:10262000FF0B5F012981237030E0FC0197FD379695
:1026300043E0F595E7954A95E1F7729EA001739EF8
:10264000500D11244459594FE40FF52FF11DB601D7
:102650000E943F30A70101C0440F8A95EAF78081AC
:10266000842B8083F40197FC379693E0F595E795EA
:102670009A95E1F7729EC001739E900D11248459C2
:10268000994FE80FF92FF11DC401B6010E943F30A8
:10269000A70101C0440F8A95EAF78081842B8083CB
:1026A000F501B7FC379683E0F595E7958A95E1F754
:1026B000729EC001739E900D11248459994FE80FAA
:1026C000F92FF11DC501B6010E943F30A70101C0DD
:1026D000440F8A95EAF78081842B80832057394FF5
:1026E000F90160820C5F1F4FF9E00A301F0709F003
:1026F00084CF60E084E70E946C1261E087E70E946B
:102700006C122496EEE00C941C301F93CF93DF9351
:10271000EC01FC01E851FD4F80816823B1F00E947B
:10272000A530182F0E94A5308F77782F20E8720FE0
:1027300008F47FEF612F809102070E941A0B462F49
:10274000282F672FCE010E94A209DF91CF911F9100
:102750000895A8E0B0E0EFEAF3E10C94FC2F582EC6
:1027600080910F01851124C09091FF0693702091F4
:102770000E0130E081E09217130609F480E08170C9
:10278000809313018091040790911201981739F0FA
:102790008093120140E060E080E00E949F092DE1FB
:1027A000251560F0E52DF0E0E557FE4C0C94533014
:1027B00081E0E5CF80911301811102C019826FC0C1
:1027C00040E060E080E00E949F09F8CF3091110165
:1027D000330F330F3983132F1C5F012F153408F08B
:1027E00004E46091000770910107809102070E9444
:1027F0001A0BF62EE72ED82E9981892F90E09E8312
:102800008D83FD81F01718F021E0298345C0ED810B
:10281000FE81E851FD4F808190911201892339F0AA
:102820002D2D4F2D6E2D8D819E810E94A209ED814F
:10283000FE813196FE83ED83E4CF30911101330F99
:10284000330F3983132F1C5F012F153408F004E474
:10285000E0900107F0900207809100078A83682FBB
:102860007E2D8F2D0E941A0BD62EC72EB82E60916A
:1028700003079A81690F7E2D8F2D0E941A0BF62E69
:10288000E72EA82EF981EF2FF0E0FE83ED833D8146
:102890003017E8F081E08983143408F08FCF8091FD
:1028A00011018F5F80931101998191110CC082E019
:1028B0008093140180911301811105C0511003C050
:1028C00083E0809314012896E2E10C941830ED81A6
:1028D000FE81E851FD4F908180911201892361F0C2
:1028E0002A2D4F2D6E2D90FD03C02B2D4D2D6C2DBF
:1028F0008D819E810E94A2092D813E812F5F3F4FD5
:102900003E832D83C4CF90911101990F990F998324
:10291000192F1C5FF12E153410F004E4F02EE09016
:102920000107D09002072091030700E4029F012DC8
:102930001124F981EF2FF0E0FE83ED833D813F15F7
:1029400008F0A8CFED81FE81E851FD4F8081909184
:1029500012018923E9F0ED81FE81EE0FFF1FE05A9D
:10296000FD4F6081069FB0011124B5E07595679514
:10297000BA95E1F780910007680F7E2D8D2D0E949A
:102980001A0B462F282F672F8D819E810E94A20946
:102990002D813E812F5F3F4F3E832D83CFCF90917E
:1029A0001101990F990F9983192F1C5F012F15346D
:1029B00008F004E4F0900007E0910107EA83E0905A
:1029C0000207609103076695669566958091CE062D
:1029D0009091CF060E94FD0A0E944E0A805887FD02
:1029E0008195880F282F3E2D239F212D1124822F82
:1029F0006F2D7A810E941A0BF62EE72ED82E998120
:102A0000892F90E09E838D83FD81F01708F0FCCE26
:102A1000ED81FE81E851FD4F808190911201892363
:102A200039F02D2D4F2D6E2D8D819E810E94A20992
:102A3000ED81FE813196FE83ED83E6CF85E799E057
:102A40000E945A0C04C08FE29AE00E94610D8983B3
:102A500026CF83E19AE00E94F60CF9CF83E799E054
:102A6000EFCF8AE699E0ECCF81E699E0E9CF88E400
:102A700099E0E6CF8AE399E0EECF85ED9AE0E5CFE5
:102A800082E09AE0E2CF8EEE99E0E5CF8DE099E02A
:102A90000E94A20CDCCF8FED98E0FACF88EA98E094
:102AA000F7CF30911101330F330F3983E4E0FE2E5D
:102AB000F30E80911301811124C06091030720E17E
:102AC000620F08F46FEF8091CE069091CF060E94BE
:102AD000FD0A6AE070E00E94E82F892B59F40E94F9
:102AE000900A64E40E94333060911201892F90E0D3
:102AF0000E94AE0B91E09983E3E4EF1508F0CFCE8E
:102B00005DCE0F2D84E48F1508F404E4F981EF2FD6
:102B1000F0E0FE83ED8310E08D819E8180179107A8
:102B20004CF7609112018D819E810E94AE0B2D8128
:102B30003E812F5F3F4F3E832D83EECFF0911301F7
:102B4000F983F1111EC06091030720E1620F08F4C0
:102B50006FEF8091CE069091CF060E94FD0A65E04E
:102B600070E00E94E82F892B09F028CE0E94A53042
:102B700064E470E00E943F30609112010E9485136E
:102B80008ECE20911101220F220F298374E0F72E9F
:102B9000F20E0F2D34E43F1508F404E49981892FD7
:102BA00090E09E838D8310E02D813E8120173107B8
:102BB0003CF031E0398383E48F1508F070CEFECD10
:102BC000609112018D819E810E948513ED81FE81AD
:102BD0003196FE83ED83E8CF90911101990F990F03
:102BE0009983192F1C5F012F153408F004E4E0903D
:102BF0000107F0900207E0910007EA836091030764
:102C00006695669566958091CE069091CF060E9456
:102C1000FD0A0E944E0A805887FD8195880F682F13
:102C20002CE0629F612D1124FA816F0F7E2D8F2D74
:102C30000E941A0BF62EE72ED82E3981232F30E072
:102C40003E832D839D81901718F0E1E0E98324CE27
:102C5000ED81FE81E851FD4F808190911201892321
:102C600039F02D2D4F2D6E2D8D819E810E94A20950
:102C70008D819E8101969E838D83E4CF8DE69AE0BF
:102C8000DFCE87E998E0DCCE109111011F5F110FB4
:102C9000110F4091CE065091CF066091D0067091F1
:102CA000D1068091090490910A04A0910B04B0917F
:102CB0000C0484179507A607B70708F056C00E94B2
:102CC000900A082F0E94900A94E4891BF0F7890F5C
:102CD000282F30E03E832D83F901E851FD4F80918C
:102CE00012019081892309F440C020E040E060E0B7
:102CF00001FD13C00E94900A082F0E94900A782FAD
:102D000076952FE7720F08F47FEF602F809102070E
:102D10000E941A0B462F282F672F8D819E810E94BB
:102D2000A2092091030730E1230F08F42FEF60E19F
:102D3000822F90E00E94FD0ABC0184EF91E00E9486
:102D4000E82F8091CE069091CF06A091D006B09149
:102D5000D106860F971FA11DB11D80930904909382
:102D60000A04A0930B04B0930C0431E0398394CD92
:102D70004091D9045091DA046091DB047091DC0435
:102D80008091CE069091CF06A091D006B091D10649
:102D900084179507A607B70708F410CD8091130193
:102DA000811122C080911101880F880F8983182F0B
:102DB0001C5F012F153408F004E49981E92EF12CF1
:102DC00023E0929FF0011124E35FFB4FFE83ED832C
:102DD000E01608F449C0EDE0F4E086ED94E0143428
:102DE00008F062C081E033CE40E060E080E00E9405
:102DF0009F090DE014E01E821D826FE7D62E0E940F
:102E0000900A81FF10C0F8011082118212822D8178
:102E10003E812F5F3F4F3E832D830D5F1F4F243434
:102E2000310569F7BFCF0E94900AC82E0E94900A10
:102E30008695782F2D2D720F08F47FEF8D819E815E
:102E4000880F991FED81FE818E0F9F1F9C01235FCC
:102E50003B4F79016C2D809102070E941A0BF701FC
:102E6000608371838283D3CFF701E851FD4F808166
:102E700090911201892341F0ED81FE8122814081F0
:102E80006181C7010E94A2092D813E812D5F3F4FC4
:102E90003E832D833FEFE31AF30A9ACF23813481D7
:102EA00045812193319341938E179F07B9F70E9473
:102EB000900A81FF1FC01092D6041092D70410927E
:102EC000D8040E94070B0091CE061091CF062091E6
:102ED000D0063091D106DC01CB01800F911FA21FDB
:102EE000B31F8093D9049093DA04A093DB04B093CA
:102EF000DC0464CC0E94900A89830E94900A869523
:102F0000782F2FE7720F08F47FEF69818091020715
:102F10000E941A0B6093D6047093D7048093D80450
:102F2000D0CF80911301882329F040E060E080E059
:102F30000E949F09409011014394440C440C40911D
:102F4000CE065091CF066091D0067091D106809147
:102F5000000590910105A0910205B0910305841729
:102F60009507A607B70708F07FC06091000770912A
:102F70000107809102070E941A0B362E272EF82E89
:102F80000DED14E085E192E09E838D8340E6642E92
:102F900042E0742EAD80BE804501680136E0E32E2C
:102FA000F60121916F01F40181914F0190E02223FC
:102FB00009F461C02F2D432D622D0E94A209F50155
:102FC00086852F2D432D622D90E00E94A209F601E7
:102FD000808131978083EA94F1E0AF1AB108E11063
:102FE000DFCFED81FE81868190E0F80126812223EA
:102FF00009F44CC02F2D432D622D0E94A209ED81B2
:10300000FE8180852F2D432D622D90E00E94A20924
:103010000E94900A837091E009F090E0F801968395
:10302000095F1F4F2D813E81215F3F4F3E832D83DE
:103030006216730609F0AECF0E94070B0091CE0610
:103040001091CF062091D0063091D106DC01CB0142
:10305000800F911FA21FB31F80930005909301055D
:10306000A0930205B093030531E0398383E484150E
:1030700008F015CCA3CB20E040E060E00E94A2095C
:10308000F501868520E040E060E09ECF20E040E052
:1030900060E00E94A209ED81FE81808520E040E091
:1030A00060E0B3CF80E998E00E94E90BD0CC8AE8D9
:1030B00098E0FACF9091D2069B8321E0392F321B02
:1030C00008F430E0398380911101880F880F8D83D7
:1030D0008C5F8A838C83853410F094E49C83FD811B
:1030E000EF2FF0E0F887EF83CF01880F991F9C0145
:1030F000205A3D4F69013981832F90E0FC013196C0
:10310000FE83ED83EC81FF81FE1738F021E02983F7
:103110003A81343408F4C3CB51CBEF81F885E851C0
:10312000FD4F8081909112018923F1F020900007DA
:10313000309001072D813E812E52394F390149804F
:1031400010E03B814316C8F020910207129F112D19
:103150001124B101812F0E941A0B462F282F672FAF
:103160008F8198850E94A2098F8198850196988702
:103170008F8392E0C90ED11CC5CFF30181913F012D
:10318000F601A080A81ABB088180F3018781881A04
:103190009908AA9C9001AB9C300D300D1124889C9D
:1031A000C001899C900D900D1124820F931F0E94E5
:1031B000A50A082F6091030721E0620F08F46FEF62
:1031C000F301EE0FFF1FE25DF640858996890E94AC
:1031D000FD0A7C019401A501B101812F0E94A5097E
:1031E0001B014394182FADCFAEE2B0E0EAEFF8E157
:1031F0000C94FE2F80912D0590912E05A0912F0506
:10320000B09130052FB7F894C0909906D0909A06E7
:10321000E0909B06F0909C062FBF46015701881A4C
:10322000990AAA0ABB0A2FB7F894409199065091BF
:103230009A0660919B0670919C062FBF40932D05C6
:1032400050932E0560932F0570933005109104055F
:10325000E4E0F5E0212F30E00197AF4FBF4F8C192C
:103260009D09AE09BF0913131FC020930405809167
:10327000350510E0811108C08091FF06182F1370EA
:1032800019F0182F16951695809114018130B1F11F
:103290008823E9F0823009F4ABC1833009F4B3C16B
:1032A000AE96E0E10C941A30E18CF28C2701712C7F
:1032B000612C84159505A605B70520F421503F5FC4
:1032C0003296D1CFE80CF91CF28EE18EF8CF109235
:1032D00011014093CE065093CF066093D0067093B1
:1032E000D10689E2E4E0F5E0A2EDB6E001900D92AE
:1032F0008A95E1F781E080931401D2CF812F0E945B
:10330000A913112369F2809133059091340520911E
:10331000310530913205822B932B292F3327E0E0A2
:103320002115310511F0C901E8E09C0154E0369502
:1033300027955A95E1F72115310511F0EC5FC90188
:103340009C0136952795369527952115310511F065
:10335000EE5FC90196958795892B09F0EF5FE150E3
:10336000E73050F4F0E0E755FE4C0C94533040E465
:1033700060E480E40E949F090E94FE0781FF0EC066
:103380002FEF4FEF6FEF8EE190E00E94A2092FEF39
:103390004FEF6FEF8EE090E00E94A2090E94FE07BF
:1033A00081FF7ECF2FEF4FEF6FEF8EE190E00E9415
:1033B000A20976CF40E060E080E00E949F0982E2AF
:1033C000E5E1F1E0DE01119601900D928A95E1F7B9
:1033D00086E0E7E3F1E0DE01999601900D928A958F
:1033E000E1F78E010F5F1F4F7E0183E2E80EF11CB3
:1033F00020EE40E260E7F801819191918F010E94F7
:10340000A2090E151F05A1F78E01075D1F4F7E0152
:10341000FFE2EF0EF11C2FEF4FEF6FEFF8018191FC
:1034200091918F010E94A209E016F106A1F7A4CFA5
:1034300040E060E080E00E949F0980E2EDE3F1E07F
:10344000DE01119601900D928A95E1F78E010F5FD2
:103450001F4F7E01F1E2EF0EF11C20E840E160ED2C
:10346000F801819191918F010E94A209E016F10665
:10347000A1F72FEF4FEF6FEF80E290E00E94A209DB
:103480002FEF4FEF6FEF81E290E00E94A2092FEF44
:103490004FEF6FEF82E290E00E94A2096DCF40E013
:1034A00060E080E00E949F098AE1EDE5F1E0DE0145
:1034B000119601900D928A95E1F78E010F5F1F4FD3
:1034C0007E01FBE1EF0EF11C20E040E56FEDF8011D
:1034D000819191918F010E94A209E016F106A1F756
:1034E0002FEF4FEF6FEF8EE390E00E94A2092FEFD6
:1034F0004FEF6FEF88E190E00E94A2092FEF4FEFAE
:103500006FEF89E190E00E94A2092FEF4FEF6FEF7C
:1035100085E290E0C1CF88E2E7E7F1E0DE011196B5
:1035200001900D928A95E1F78E010F5F1F4F7E018A
:10353000F9E2EF0EF11C25E04FEF60E9F80181910F
:1035400091918F010E94A209E016F106A1F714CF14
:1035500040E060E080E00E949F098AE0EFE9F1E04E
:10356000DE01119601900D928A95E1F78E010F5FB1
:103570001F4F7E01FBE0EF0EF11C2FEF40EB60E2EE
:10358000F801819191918F010E94A2090E151F05EA
:10359000A1F720E040E56FED82E390E00E94A209F0
:1035A00020E040E56FED83E390E076CF40E060E01F
:1035B00080E00E949F0988E1E9EAF1E0DE011196CE
:1035C00001900D928A95E1F78E010F5F1F4F7E01EA
:1035D000F9E1EF0EF11C20E040E860E0F801819194
:1035E00091918F010E94A209E016F106A1F7C4CEC5
:1035F00010930F018091FF06837080930E010E944B
:10360000481283E078CE8091FE06882351F046E090
:1036100050E06CE170E08FEF96E00E94F230109283
:10362000FE064091CE065091CF066091D006709173
:10363000D1062FB7F8948091990690919A06A0919F
:103640009B06B0919C062FBF841B950BA60BB70B56
:103650004A97A105B10508F423CE1092140120CE9B
:10366000EFEFF6E081E280838091C1019091C20189
:10367000A091C30181839283A3838FE784838FEF1B
:10368000858346E050E06CE170E0CF010E94F230AB
:103690001092FE06089590919E0692FB222720F933
:1036A000281779F080FB92F990939E0660919D0611
:1036B00070919E0684E090E00E94203182E00E949A
:1036C000DC10089567EE7EEF90E080E00E942031EC
:1036D00060E082E090E00E94023160E083E090E0F0
:1036E0000E940231109232051092310560E074E1BF
:1036F00084E090E00E94203160E086E090E00E944B
:1037000002316FEF87E090E00E94023140E050E02C
:10371000BA0188E090E00E94143160E08DE090E012
:103720000E94023140E050E0BA0188E190E00E943E
:10373000143160E087E190E00E94023140E050E007
:10374000BA018CE190E00E94143170E060E080E208
:1037500090E00E94203140E050E0BA0188E190E022
:103760000E94143140E050E0BA018FE090E00E94E6
:10377000143140E050E0BA0183E190E00E9414313E
:1037800008951F920F920FB60F9211242F933F931B
:103790004F935F936F937F938F939F93AF93BF9359
:1037A000EF93FF938091E10082FF09C08091E200D6
:1037B00082FF05C08091E1008B7F8093E1008091C2
:1037C000DA0080FF24C08091D80080FF20C0809163
:1037D000DA008E7F8093DA008091D90080FF9DC04F
:1037E00080E189BD82E189BD09B400FEFDCF81E0A1
:1037F0008093C40680919F06811109C00E94F8053C
:103800000E9499068091E20084608093E20080919A
:10381000E10080FF17C08091E20080FF13C080911B
:10382000E2008E7F8093E2008091E20080618093CD
:10383000E2008091D80080628093D80019BC85E0B6
:103840008093C4068091E10084FF2BC08091E20048
:1038500084FF27C080E189BD82E189BD89B5982FA9
:10386000917080FFFBCF8091D8008F7D8093D8002E
:103870008091E1008F7E8093E1008091E2008F7E55
:103880008093E2008091E20081608093E200809169
:10389000C506882309F447C084E08093C40680915C
:1038A000C4068091E10083FF27C08091E20083FF7E
:1038B00023C08091E100877F8093E10082E08093C4
:1038C000C4061092C5068091E1008E7F8093E100CE
:1038D0008091E2008E7F8093E2008091E20080611F
:1038E0008093E20042E060E080E00E946706809101
:1038F000F00088608093F000FF91EF91BF91AF914D
:103900009F918F917F916F915F914F913F912F91F7
:103910000F900FBE0F901F90189519BC1092C406FF
:1039200010929F0674CF8091E30087FD93E09093FF
:10393000C406B5CF78941F921FB61F9211248F939F
:103940009F93AF93BF938091990690919A06A0910F
:103950009B06B0919C060196A11DB11D809399060E
:1039600090939A06A0939B06B0939C06BF91AF914B
:103970009F918F911F901FBE1F9018959C014FB76C
:10398000F8948091990690919A06A0919B06B09127
:103990009C064FBF821B930B08952FB7F89480911C
:1039A000990690919A06A0919B06B0919C062FBF14
:1039B00008950E94CD1C9C019091050480910604FD
:1039C000982B21F030930204209301049091070476
:1039D00080910804982B21F0309300042093FF037A
:1039E000E0919406F0919506309749F082E080933B
:1039F00003040480F581E02D83E094E009950895A7
:103A0000662309F45DC08D3C41F40E94D70D819579
:103A1000809306040E94D91C08958E3C19F40E94DC
:103A2000D70DF6CF8F3C31F40E94D70D819580934E
:103A30000504F0CF803D19F40E94D70DF8CF893DE1
:103A400029F40E94B50D80930704E4CF8A3D21F448
:103A50000E94B50D8195F7CF8B3D31F40E94B50DD5
:103A6000819580930804D6CF8C3D19F40E94B50D42
:103A7000F8CF9FE2980F983070F4815D990B21E0A8
:103A800030E001C0220F8A95EAF780910404822B6E
:103A900080930404BFCF8D3D31F48091FE0381609B
:103AA0008093FE03B7CF8E3D21F48091FE038260A8
:103AB000F7CF8F3D09F0AECF8091FE038460F0CF49
:103AC000409105048D3C59F48091060487FF0DC098
:103AD0001092060441110BC01092FC0308C08E3CEA
:103AE00081F48091060418169CF3442381F08091A0
:103AF000070490910804892B09F08CCF1092FD03E4
:103B000089CF8F3C49F447FFF0CF10920504809194
:103B100006048111ECCFE0CF803D19F41416ACF30C
:103B2000E4CF90910704893D29F41916F4F6109218
:103B30000704DBCF8A3D19F497FFD7CFF8CF9091D8
:103B400008048B3D29F497FFD0CF10920804CDCF05
:103B50008C3D19F41916CCF3C8CF9FE2980F98301A
:103B600090F4815D990B21E030E0B90102C0660F4D
:103B7000771F8A95E2F7CB01809590910404892301
:103B800080930404B2CF8D3D31F48091FE038E7F8B
:103B90008093FE03AACF8E3D21F48091FE038D7F9A
:103BA000F7CF8F3D09F0A1CF8091FE038B7FF0CF3F
:103BB000AAE0B0E0EEEDFDE10C9402308E010F5F63
:103BC0001F4F8AE0F80111928A95E9F799EFE92EE3
:103BD00091E0F92E6801AA24A394B12CF7018191F8
:103BE0007F018F3F09F446C0F894E82FE295EF700B
:103BF000F0E021A18F70A50102C0440F551F8A95E6
:103C0000E2F7CA01922F982B91A392A18095892364
:103C100082A3789400C0EEEFF1E021E030E0912C37
:103C2000812C41914F3F09F467C0A42FA295AF703A
:103C3000B0E090968C9190E04F7002C0959587957A
:103C40004A95E2F780FD58C0C901882A992A220FB7
:103C5000331F52E0ED30F50721F7F70131978081EE
:103C60008F3F11F00E94F90D80EA8A95F1F7F60175
:103C700091828082F2E0CF0ED11C4EEFE41641E03B
:103C8000F40609F0ABCF4AE050E0B8018AED93E0CA
:103C90000E94BE30892B99F18AE0F801AAEDB3E0C9
:103CA00001900D928A95E1F781E08093D9030E94FB
:103CB000CD1C9093D8038093D7038091D703909124
:103CC000D8030E94BE1C0397F0F04AE050E06AED72
:103CD00073E086EE93E00E94BE30892BC9F08AE043
:103CE000EAEDF3E0A6EEB3E001900D928A95E1F7DC
:103CF00081E01092D90308C090E080E0A6CF8091C7
:103D0000D9038111DACF80E02A96ECE00C941E30C2
:103D100080E0EFCF8091D3039091D203892B8093E1
:103D20002E038091D603882329F10E94CD1C209177
:103D3000D4033091D503821B930B8C3D954010F03A
:103D40000E94FF0F80912E039091D603892B8093C0
:103D50002E03809110018823E1F180919D0687FF59
:103D600038C08EE1E0E3F3E090E08150A0F59111DE
:103D70000E94FF0F40E250E062EB73E08EE293E0BE
:103D80000E94BE30892B21F180E2EEE2F3E0A2EB4B
:103D9000B3E001900D928A95E1F7E0919406F091DD
:103DA00095063097A9F080911001882359F08091F1
:103DB0009D0687FF07C080912E0380932F0386E026
:103DC00080932E030280F381E02D8EE293E009952B
:103DD000089586E0C7CF2191222339F29F5FC5CF96
:103DE0001092D30380911001E0E3F3E0882329F1DE
:103DF00080919D0687FF21C08EE1DF011D928A958B
:103E0000E9F790E080E00E94D90790E080E00E940E
:103E1000B4071092D2030E948A1E86E0E3E0F4E029
:103E2000DF011D928A95E9F71092FC031092FD03C1
:103E30001092FE030E94D91C089586E0DECFAAE20C
:103E4000B0E0E5E2FFE10C940B3086EC96E02091C7
:103E5000F100FC012193CF01F6E08E3C9F07B9F7FA
:103E60008091C706833009F470C0B8F4813009F43A
:103E700047C0823009F4B1C08091E80083FF7EC260
:103E80008091C6069091C7069A3008F077C2E92F54
:103E9000F0E0E055FE4C0C9453308A3009F48CC0AD
:103EA0008B3009F46FC0893039F78091C6068132B2
:103EB00019F78091CA069091CB060297E8F6809197
:103EC000E800877F8093E8008091E80082FF38C097
:103ED0009091F3008091F200029731F48091F1000B
:103EE000813011F0863021F48091F1008093A10699
:103EF0008091E8008B778093E8000E944806BCCF51
:103F00008091C606813A09F0B7CF8091E800877F9B
:103F10008093E8008091CA069091CB06892B61F4CA
:103F200060E282EA96E070E00E94F4068091E80088
:103F30008B778093E800A0CF60E090E080E0F3CF43
:103F40008091C4068111C0CF97CF8091C606813A77
:103F500009F092CF8091CA069091CB06892B09F087
:103F60008BCF8091E800877F8093E8008091E80004
:103F700080FFFCCF809110018093F1008091E800D8
:103F80008E77B9CF8091C606813209F075CF8091C6
:103F9000CA069091CB06892B09F06ECF8091E8007C
:103FA000877F8093E8000E9448068091C80680932E
:103FB00010010E94F01E60CF8091C606813209F088
:103FC0005BCF8091E800877F8093E8000E944806DD
:103FD0008091C9068093A0064FCF8091C606813A92
:103FE00009F04ACF8091E800877F8093E8008091B4
:103FF000E80080FFFCCF8091A006BECF803899F00A
:10400000823809F0BBC18091CA068F70873008F0F2
:10401000B5C18093E9008091EB0085FB882780F98A
:104020001092E90006C08091C2069091C3069111DA
:1040300082609091E800977F9093E8008093F10070
:104040001092F1008091E8008E7794C1882309F4E2
:1040500082C1823009F092C18091C806811185C168
:104060008091CA068F702FEF280F263008F086C186
:104070008093E9002091EB0020FF77C1933031F469
:104080008091EB0080628093EB006FC19091EB0018
:1040900090619093EB0021E030E001C0220F8A95FF
:1040A000EAF72093EA001092EA008091EB00886022
:1040B000EACF811163C11091C8061F778091E30098
:1040C0008078812B8093E3008091E800877F809344
:1040D000E8000E9448068091E80080FFFCCF8091B4
:1040E000E30080688093E30082E0111183E0809315
:1040F000C40644C18058823008F040C18091C8068F
:104100009091C9068C3D23E09207A1F583E08A8354
:104110008AE289834FB7F894DE01139620E03EE0EF
:1041200051E2E32FF0E050935700E49120FF03C0E9
:10413000E295EF703F5FEF708E2F90E0EA30C0F0B5
:10414000C7968D939D932F5F243159F74FBF809170
:10415000E800877F8093E8006AE270E0CE01019674
:104160000E94F4068091E8008B778093E80006C1F6
:10417000C096E7CF4091CA065091CB06292F33272E
:104180002330310509F444C078F52130310509F4B4
:104190006FC08BE390E0E0E0FAE02230310509F0F7
:1041A000EDC02091E800277F2093E8002091CC0605
:1041B0003091CD068217930708F49C0140E0211549
:1041C000310509F064C0411162C08091E80082FDB0
:1041D000C9CF8091C406882329F2853019F28091D5
:1041E000E80083FFF2CFBECF21323105A9F12232A0
:1041F000310509F0C3C04115510509F443C04130F0
:10420000510509F0BBC086EB90E0EAE0F9E0C9CFC8
:10421000992781309105C1F0009759F0029709F074
:10422000ADC0EDE4FAE0E4918E2F90E0EDE4FAE029
:1042300007C0EFE6FAE0E4918E2F90E0EFE6FAE0B7
:10424000009709F49BC0ADCFEFE5FAE0E4918E2F23
:1042500090E0EFE5FAE0F4CF4115510571F04130FF
:10426000510509F08BC089E090E0EBE2FAE099CFCC
:1042700082E190E0EBE3FAE094CF89E090E0E2E1C4
:10428000FAE08FCF80E490E0E0ECF9E08ACF809113
:10429000C406882309F466CF853009F463CF809182
:1042A000E80083FD5FCF8091E80082FD8ECF809192
:1042B000E80080FF84CF9091F3008091F2002115F7
:1042C000310519F08830910550F041E0089709F068
:1042D00040E08091E8008E778093E80070CF4491B1
:1042E0004093F1003196215031090196E8CF803892
:1042F00009F044C08091E800877F8093E8008091B6
:10430000C5068093F1009ECE811138C01091C80679
:104310001230A0F58091E800877F8093E800109329
:10432000C5060E944806112311F084E005C0809163
:10433000E30087FDFACF81E08093C40642E061ECA0
:1043400081E00E94670642E261EC82E00E9467061B
:104350008091C40613C08091C806813079F481E051
:10436000933009F080E08093C3061092E9008091B9
:10437000E800877F8093E8000E9448068091E8006B
:1043800083FF0AC08091E800877F8093E8008091D6
:10439000EB0080628093EB00AA96E3E00C94273058
:1043A0001F920F920FB60F9211242F933F934F93AA
:1043B0005F936F937F938F939F93AF93BF93CF93AD
:1043C000DF93EF93FF93D091E900DF708091EC00D1
:1043D000C82FC17080FDC0E81092E9008091F00004
:1043E000877F8093F00078940E941F1F1092E9004D
:1043F0008091F00088608093F000CD2BCF70C09347
:10440000E900FF91EF91DF91CF91BF91AF919F9123
:104410008F917F916F915F914F913F912F910F906D
:104420000FBE0F901F9018950E94F01E2FEF84E38F
:104430009CE0215080409040E1F700C0000088E1FE
:104440009CE00FB6F894A895809360000FBE9093FF
:104450006000FFCF882321F00E940A100E948A1E6C
:104460000895882339F09091D303982B9093D30328
:104470000E948A1E0895882399F19CEF980F913A23
:1044800040F4682F8EE293E00E9455070E948A1E36
:10449000089590E2980F983050F4877091E001C031
:1044A000990F8A95EAF7892F0E940A10EFCF9BE5B2
:1044B000980F933028F490E080E00E94D907089587
:1044C00098E5980F993128F490E080E00E94B407B5
:1044D000089593E3980F933118F460E00E94001D53
:1044E0000895CF93C82F8823D9F18CEF8C0F813A90
:1044F000C8F580911001882311F180919D0687FFF6
:104500001EC0EC2FE695E695E695F0E0E25DFC4FE7
:10451000828190E04C2F477021E030E002C0220FF2
:10452000331F4A95E2F782239323892B91F06C2F56
:104530008EE293E00E9455070E948A1E0AC0E0E3C3
:10454000F3E086E393E02191C21789F38E179F076A
:10455000D1F76C2F8EE293E00E947F070E948A1EA3
:10456000CF91089580E28C0F883068F4C77021E005
:1045700030E001C0220FCA95EAF78091D303822B65
:104580008093D303EBCFEBE5EC0FE33040F4F0E0A6
:10459000EC53FE4F808190E00E94D907E1CFE8E51F
:1045A000EC0FE93150F4F0E0EE0FFF1FE953FE4F3E
:1045B000808191810E94B407D3CF83E38C0F833134
:1045C00078F661E08C2F0E94001DCACF1F93CF9315
:1045D000DF93182FD0E0C0E0893311F4C0E5D0E0BC
:1045E000812F0E947122209739F4812F0E943B2253
:1045F000DF91CF911F9108958FE99FE00197F1F727
:1046000000C000002197EFCFB0E0A0E0EAE0F3E2C5
:104610000C940430EC018AE0A82EFE0124912223A0
:1046200009F497C0213009F03EC031968491813061
:1046300031F42296FE0184910E94E62207C0823066
:1046400039F42296FE0184910E9471222196E5CFD1
:10465000833031F42296FE0184910E943B22F6CFF2
:10466000843009F074C02296FE01249190E080E02D
:10467000FE0131962053330B2A30310548F0019763
:1046800028F3EFE9FFE03197F1F700C00000F7CF22
:10469000A89EA001A99E500D1124C901840F951F49
:1046A0002491EF01E5CFE22FF0E0ED55F54FB49006
:1046B000822F86958695869590E0FC01ED56F54F04
:1046C000E4902770F12C022E02C0F594E7940A942E
:1046D000E2F731E0E322FF24FC01ED57F54FC490EF
:1046E000D12C022E02C0D594C7940A94E2F7E1E0DF
:1046F000CE22DD24FC01ED58F54F049110E002C0FC
:10470000159507952A95E2F701701127E114F10438
:1047100019F081EE0E947122C114D10419F086EEC5
:104720000E9471228B2D0E94E622C114D10419F03F
:1047300086EE0E943B22E114F10419F081EE0E9402
:104740003B220115110509F481CF8CE275CFEF01F1
:104750007DCFCDB7DEB7EAE00C9420300F931F93E6
:10476000CF93DF93C62FD42F022FFC0182818823A1
:10477000A9F06093FD060E94CD1C9093FC068093E7
:10478000FB06C77081E001C0880FCA95EAF70E9456
:104790003122DF91CF911F910F9108958091FD06F5
:1047A000681332C08091FB069091FC060E94BE1CEB
:1047B000883C910548F510E21D0FCD17B9F080E255
:1047C0008C0F883040F4C77081E001C0880FCA9513
:1047D000EAF70E942A22183048F481E09D2F977052
:1047E00001C0880F9A95EAF70E943122802F0E941B
:1047F000E622183070F6D77081E001C0880FDA9594
:10480000EAF70E942A22C5CFC77081E001C0880F55
:10481000CA95EAF7F6CFA5E0B0E0E1E1F4E20C9446
:1048200002307C01DC0113968D919C911497892BA9
:1048300039F08C9111969C9189238F3F09F083C4A4
:104840002596ECE00C941E300E941B10182F682F48
:1048500089819A810E948F1069817A81812F0E94BB
:10486000530E8C01FC01FE57E231F10508F08BC0BC
:10487000E654FE4CD70112968C910C945330882349
:1048800021F082E392E00E940423F70182818823D1
:1048900009F482C41092FD06C8019057839708F06E
:1048A00065C484E090E00E94EC3090939E06809373
:1048B0009D06F801E150F047E232F10508F09EC094
:1048C000E453FE4C0C9453308823F9F28AE192E0D1
:1048D000DACF8823D1F282E092E0D5CF8823A9F203
:1048E00089EE91E0D0CF882381F281ED91E0CBCFAA
:1048F000882359F289EB91E0C6CF882331F281EA0F
:1049000091E0C1CF882309F289E891E0BCCF8823E8
:1049100009F4BBCF81E791E0B6CF882309F4B5CF86
:104920008DE591E0B0CF882309F4AFCF89E491E021
:10493000AACF882309F4A9CF84E391E0A4CF8823E8
:1049400009F4A3CF8DE191E09ECF882309F49DCF98
:1049500083E091E098CF882309F497CF8FEE90E021
:1049600092CF882309F491CF88ED90E08CCF8823F3
:1049700009F48BCF84EC90E086CF882309F485CFAF
:104980008CEA90E080CFFC01E851FC47E730F1056C
:1049900008F07BCFE251FE4C0C94533026E241EEFE
:1049A00061EEC7010E94AE238091B103877009F4C4
:1049B00047CFD70112968C91882309F441CF80917B
:1049C0009E0682FF3DCF82E00E94DC1039CF27E2B5
:1049D00045EE65EEE6CF26E241EE60EEE2CF27E25D
:1049E00045EE64EEDECF26E241EE62EEDACF27E25C
:1049F00045EE66EED6CF28E241E0EBCF80919D06F2
:104A0000816080939D0695C080919E06886080930A
:104A10009E068FC080919D068260F3CF80919D0697
:104A20008460EFCF80919D068860EBCF80919E06D9
:104A30008160EDCF80919E068260E9CF80919D06D6
:104A40008061DFCF80919D068062DBCF80919D06E3
:104A50008064D7CF0E94F01E80919D068068D1CFE0
:104A600080919D068C60CDCF80919E068360CFCFD4
:104A700080919D068E7FC5CF80919E06877FC7CF90
:104A800080919D068D7FBDCF80919D068B7FB9CF94
:104A900080919D06877FB5CF80919E068E7FB7CF90
:104AA00080919E068D7FB3CF80919D068F7EA9CF8A
:104AB00080919D068F7DA5CF80919D068F7BA1CF94
:104AC0000E94F01E80919D068F779BCF80919D065E
:104AD000837F97CF80919E068C7F99CF80919D0692
:104AE00082FB992790F921E0922790FB82F990FBB5
:104AF00083F987CF80919E06982F909591708E7F35
:104B0000892B90FB81F983CF90919D06892F8F7B14
:104B100096FF806476CF0E94F01E90919D06892FAB
:104B200097FB87F980586DCF61E08EE090E00E949E
:104B3000023160919D0670919E0684E090E00E9493
:104B400020310E94F01E30CF60E0EFCF90919D06A3
:104B5000892F8F7E94FF806154CF90919D06892F7D
:104B60008E7F90FF81604DCF90919E06892F877F29
:104B700093FF88604CCF80914E0369E2811165E319
:104B80008EE293E00E94550704C38091FF0691E0F6
:104B900089278093FF06109214018091FE068160A0
:104BA0008093FE0601CF45E758E06FE778E00E946A
:104BB0000B08FACE4FE758E065E778E0F8CF41E61A
:104BC00058E06BE678E0F3CF4BE658E061E678E03A
:104BD000EECF47E458E064E578E0E9CF44E558E0FB
:104BE00067E478E0E4CF4DE258E06AE378E0DFCFB5
:104BF0004AE358E06DE278E0DACF41E158E06FE156
:104C000078E0D5CF4FE158E061E178E0D0CF81E0A6
:104C10000E94CC05C9CE84E0FBCF89E0F9CF8EE0BD
:104C2000F7CF0E94F01EFFEF24E33CE0F15020405C
:104C30003040E1F700C000000E94A8116FEF7FEF45
:104C400090E080E00E9420310E94142280919E0614
:104C500082FB882780F991E089270E944B1BF7018E
:104C6000828100811181882309F446C0C8010E9415
:104C70001B10D82E682FC8010E948F10B8018D2DEF
:104C80000E94530E0E94700E8C01882ED70112963E
:104C9000DC9012971596BC90B2943FE0B3228091BD
:104CA000B1038770C1F0AD2CDD20B1F0812F807F82
:104CB000803421F080E2800F883068F080919E0679
:104CC00082FF09C082E00E94DC108091B1038770EE
:104CD000AA24A3948111A12C912E92942FE09222C8
:104CE000BBE0B91508F474C0E92DF0E0EB50FE4CC0
:104CF0000C94533080E0B1CFC8010E945C10D82ED4
:104D0000BDCFE12FEF70CE2E107F19F0C29490EF3F
:104D1000C922DD20B9F0CC2069F080E2800F883014
:104D200010F0811009C08091D303C82AC092D30328
:104D30000E948A1E802F4AC08091D203C82AC09246
:104D4000D203F6CF802F0E943B22CC2009F440C032
:104D5000005E083010F0811004C08C2D0E940A10F3
:104D600006C0C0948091D203C822C092D2030E9490
:104D70008A1E2EC0F12FFF70CF2E107F103219F037
:104D8000C29480EFC822882089F021E0821609F4BD
:104D900082C0DD2009F48BC0BB2009F455C0F701A7
:104DA000858180FFC7CF8F7085834EC090919E060E
:104DB00092FD43C0DD20D9F1CC2039F08091D3039E
:104DC000C82AC092D3030E948A1E80E00E947122EA
:104DD000A92DA850BB0B149710F40E94FE07AA201F
:104DE000A9F08091B10380FD11C0F7011282859571
:104DF000859585950E94FC10C7010E940B24809127
:104E0000B1038595859585950E94CA1085E0F701C7
:104E1000DE01119601900D928A95E1F709811A81C0
:104E2000C8010E945C10B8010E94530E09CD80E0B9
:104E30000E943B22CC2061F290CFDD20D1F0809106
:104E4000D603C82AB11004C08C2D0E943122C0CFD5
:104E500031E0B312F9CF92FFBBCFC81609F4B8CF37
:104E60000E94CD1C9093D5038093D403C092D603A7
:104E7000AFCFB11006C00E94FF0F8C2D0E942A22D6
:104E8000A7CF81E0B81609F4A3CF8C2D0E942A2267
:104E90000E94FF0F9DCFDD2029F095E09B1508F4BF
:104EA00097CFD2CFA4E0AB1508F492CFE6CFBB20CA
:104EB00021F3F9E38F1209C02FEF37EE83E0215081
:104EC00030408040E1F700C00000802F0E943B226C
:104ED0007FCF812F86958695837061F0813009F0B0
:104EE00077CFC8019370D11002C080E090E00E949B
:104EF000B4076ECFC8019370D11002C080E090E07B
:104F00000E94D90765CF6D2D802F0E94001D60CFB4
:104F1000812F837009F03FC0D1105ACF402F4295A6
:104F200046954770440F440F802F8F7090E0042EF9
:104F300002C0880F991F0A94E2F730E020E004FFD6
:104F400009C02FE030E002C0220F331F4A95E2F77C
:104F500020953095169516951370123099F078F4C7
:104F60004091310550913205113039F0822B932B4D
:104F7000842395230E940C112BCF842B952B822BFD
:104F8000932BF8CF822B932B209131053091320552
:104F900082279327EFCF8695DD2011F0812F817036
:104FA000882309F415CF402F429546954770440F4A
:104FB000440F802F8F7090E0042E02C0880F991F3D
:104FC0000A94E2F730E020E004FF09C02FE030E06F
:104FD00002C0220F331F4A95E2F7209530951695AF
:104FE00016951370123099F078F440913305509172
:104FF0003405113039F0822B932B842395230E94A2
:10500000C510E6CE842B952B822B932BF8CF822BC9
:10501000932B209133053091340582279327EFCFCE
:105020001F70DD2029F0812F0E94FC10802F0DCFF2
:10503000802F0E942A22812F0E94CA10C9CE802F61
:1050400092EF891699F1981570F0A0EF8A16D1F0B9
:10505000B1EF8B1691F0DD2009F465C0B1106ACE76
:10506000812F8F7127C0E3EF8E1639F1F4EF8F1285
:10507000F2CF80919E0682FD2EC0812F8F71DD20A0
:10508000D9F218C0DD2069F024E02B1508F4A0CE79
:105090001F7181E090E002C0880F991F1A95E2F716
:1050A000B8CF35E03B1508F493CEF2CF812F8F7146
:1050B000D110C2CF0E94FC108BCE90E080E0DD20AA
:1050C00009F49DCF1F7181E090E002C0880F991F05
:1050D0001A95E2F794CFDD20D9F01F71812F0E943D
:1050E000FC1080919E0682FF11C0A8E01A9FC001AB
:1050F000112483608093B103812F0E94FC100E94D1
:10510000CD1C9093B0038093AF0362CE812FD2CF9A
:1051100081E00E94DC10B1E0BB1508F059CE82E0BE
:105120000E94DC1055CEBB2059F0893309F0CDCE5A
:10513000EFEFF7EE23E0E150F0402040E1F7C3CE7F
:10514000812F8F7179CF85E0F701DE0111960190F3
:105150000D928A95E1F7D70112962C9189819A8157
:10516000211172CB0E945C10182F76CB0631BCE760
:105170001B0729F58091D3038A7A91E009F490E026
:1051800090934E0369E2811165E38EE293E00E9401
:105190007F070E948A1E08CC0631ECE71E0709F43F
:1051A000EACC8091D3038272F801E052F847E531EE
:1051B000F10508F054CDEF5FFD4C0C9453300330F3
:1051C000FCE71F0709F43ACD50F401153CE713073B
:1051D00009F427CD01301C4709F436CD40CD0B35FD
:1051E0009CE7190709F486CD0C35ACE71A0709F4DA
:1051F0002DCD0A351C4709F032CD81E02ECD1F930D
:10520000CF93DF9380917C03807F09F049C0809128
:105210007903882309F444C08091AE03D0917D03C3
:105220006091770370917803A0917A03B0917B032A
:10523000C62FC72316E0D81799F190E0109711F008
:10524000CF3F19F401968770F6CF189F9001199FF0
:10525000300D1124F901E258FC4F41814713F2CF80
:1052600040814613EFCF42814111ECCF43815481FD
:105270004A1B5B0B483C510528F780917C038F70DB
:10528000806180937C03F901ED57FC4F80818F7022
:105290008061808387E793E00E940B240E941110B5
:1052A000DF91CF911F910895A1E1B0E0EAE5F9E225
:1052B0000C9404308C0185E0F801DE011D9601900C
:1052C0000D928A95E1F7F801E28087E7A82E83E046
:1052D000B82E60917A0370917B036115710509F412
:1052E00026C19091770340917803892F84238F3FC3
:1052F00009F41DC120813181C380D480F0907903ED
:10530000F601E61BF70BFF2009F4DCC080917C035B
:10531000582F507FE83CF10508F09FC051116BC039
:10532000FE2C431314C0921312C0E11010C08F70F2
:10533000806180937C03C5010E940B2480917C03D3
:10534000F80185838F2D6196EAE00C942030C1141A
:10535000D10429F0822F83238F3F09F003C180E01D
:10536000F82FF170DF2E80FF3CC08091AE0340919A
:105370007D0356E0841315C02D873E878D859E855D
:105380000E944F10292F22952F702230F0F02430E8
:1053900018F59F70F1F0F8019581907FD1F4D12C30
:1053A0001EC090E0589FF001599FF00D1124E25863
:1053B000FC4F6181361306C06081261303C06281F1
:1053C000E6120FC001968770D5CF9F7011F0882329
:1053D00031F3805E883018F3C8010E940B24FD2C45
:1053E000B1CFEE2009F4AECF80917C038160809331
:1053F0007C03F12CA7CF431306C0921304C0F8011D
:10540000EE2009F479C0C8010E941111882309F126
:10541000EE20F9F080917C03803270F020917703C8
:105420003091780338872F831986DB86CA868C876C
:10543000CE0107960E940B2486E0F801A7E7B3E0AF
:1054400001900D928A95E1F70E94FF28FF24F394C2
:1054500079CFC8010E940B24F9CF51110AC087E708
:1054600093E00E940B2486E0F50111928A95E9F7FA
:10547000C0CF43130FC092130DC0E1100BC0F80151
:105480008583C8010E940B2486E0F50111928A955C
:10549000E9F758CFC8010E9411118823D1F2EE20FC
:1054A000C1F280917C03803238F2209177033091F1
:1054B00078033A8329831B82DD82CC828E83CE01DE
:1054C0000196B8CFE83CF105F8F6FE2CEE2009F283
:1054D00043131FC092131DC080917C0380FD10C038
:1054E000982F907F69F0F8018583903F31F0982FD5
:1054F000907F905F8F70892B8583C8010E940B2459
:1055000086E0F801A7E7B3E001900D928A95E1F7F4
:1055100019CFC8010E94111181118ECF80917C0397
:10552000816080937C03C8010E940B240BCFEE2086
:1055300009F48FCFC8010E941111F82E882309F4B5
:1055400088CF86E0F801A7E7B3E001900D928A9535
:10555000E1F780917703909178030E944F100E94A9
:10556000FF28F0CE81E08E25FBCEA7E1B0E0EBEB8B
:10557000FAE20C940B304B8B5C8B6D8B7E8B8F8B9C
:1055800061111092D2031A8A198A85E0FE0173967E
:10559000DE011D9601900D928A95E1F780919E069D
:1055A00082FF1CC00E94CD1C2091AF033091B0033C
:1055B000821B930B8C3D954020F08091B10382FFBC
:1055C00079C00E94CD1C2091D4033091D503821B59
:1055D000930B8C3D954010F00E94FF0F86E0FE017A
:1055E0003D96DE01179601900D928A95E1F7CE0166
:1055F00007960E945429882359F016E08091AE0343
:1056000090917D03891343C06796E3E00C942730A3
:1056100086E0FE013796DE01119601900D928A9583
:10562000E1F78A859B85892B41F38F8198858923B2
:105630008F3F19F320917D0330E0C90101968770F7
:1056400099274091AE034817190671F40E94F01E85
:1056500010927D031092AE0386E0E7E7F3E0DF01EE
:105660001D928A95E9F7C9CF96E0929FD001939F4A
:10567000B00D1124A258BC4FFE01319601900D923D
:105680009A95E1F780937D030E941110B6CF819F18
:10569000C001112482589C4F0E945429882309F488
:1056A000B3CF8091AE0390E00196877099278093E5
:1056B000AE03A4CF82E00E94DC1083CF1F921FB6FE
:1056C0001F9211248F939F93AF93BF93809198065D
:1056D000811113C08091990690919A06A0919B0622
:1056E000B0919C064196A11DB11D8093990690939F
:1056F0009A06A0939B06B0939C06BF91AF919F9191
:105700008F911F901FBE1F901895CDB7DEB767977A
:105710000FB6F894DEBF0FBECDBF85B7806885BFDA
:1057200085B7806885BF84B7877F84BF0FB6F8943C
:10573000A89580916000886180936000109260005D
:105740000FBE80E890E00FB6F894809361009093CC
:1057500061000FBE87EF9DE090932D0380932C0393
:105760000E94F8050E9499068091E200846080936F
:10577000E20078948091C4068823A1F01091E9009A
:105780001F709091EC00892F817090FD80E8182B9C
:105790001092E9008091E80083FD0E941F1F1F7096
:1057A0001093E90082E084BD93E095BD9AEF97BD28
:1057B00080936E0009EF11E0D8018D918D018F3F2C
:1057C00011F00E94F90DB1E00E3F1B07A9F70EEF93
:1057D00011E09DE0E92E92E0F92EF80181918F0110
:1057E0008F3F11F00E94F90DE016F106B1F78AE043
:1057F000E6EEF3E0DF01282F1D922A95E9F7EAEDA6
:10580000F3E0DF011D928A95E9F790E080E00E94C5
:10581000EC30873E9E4F11F00E94621B82E090E0C8
:105820000E94E4308093F00384E090E00E94EC302A
:1058300090939E0680939D060E94D81DEFEBFDE598
:105840003197F1F700C000000E94D81D8091E60357
:1058500080FF08C06FEF7FEF90E080E00E94203172
:105860000E94A81183E090E00E94E43090E00E9442
:105870000C110E94E3121092D2068FEF9FEF9093CB
:10588000EC068093EB069093EE068093ED069093E2
:10589000F0068093EF069093F2068093F1069093C2
:1058A000F4068093F3069093F6068093F5069093A2
:1058B000F8068093F7069093FA068093F906109203
:1058C000040590931E0580931D05909320058093F9
:1058D0001F059093220580932105909324058093C2
:1058E00023059093260580932505909328058093A2
:1058F000270590932A058093290590932C05809382
:105900002B0590E080E00E94EC30873E9E4F21F016
:105910000E94621B0E94301B81E08093FE0646E0DD
:1059200050E06CE170E08FEF96E00E94D43010926E
:10593000FE068091FF068C7F11F40E94301B84E0EC
:1059400091E09093950680939406772473948091C8
:10595000C406853089F400E4F02E83E0E82E00E1EF
:1059600012E18091C406853009F4D0C00E94F01E77
:105970000E94FE07109235050E94D81D81EF93E02A
:105980009A8B898BA6EEB3E0BD8BAC8BFC01219189
:1059900031918D919D9143E0EB3FF40709F407C1EC
:1059A00028173907A1F315E1812E12E0912E612C01
:1059B000AC89BD89ED90FD90BD8BAC8BE989FA89EE
:1059C00081919191FA8BE98B8E159F0509F48BC01B
:1059D0009C012E253F253F8B2E8B1401512CCC246E
:1059E000C394D12C8E899F898C219D21892B09F408
:1059F0006CC087010C211D215C866D8681E001153C
:105A0000110509F480E08E870E94CD1C8160782FFB
:105A1000988B8F874C855D856E8588890E94B52A15
:105A2000012B29F0D1018C918F3F09F0CAC1412C83
:105A3000042D10E080910405800F912F911D09978E
:105A40006CF1E8E0AE2EB12CA01AB10AB8016B5F80
:105A50007A4FA50185E095E00E94CB30B801635FE5
:105A60007A4FA5018DE095E00E94CB30A501440F4F
:105A7000551FB801660F771F635E7A4F8DE195E081
:105A80000E94CB30B8016B5E7A4FA50185E195E0AD
:105A90000E94CB3088E0841980930405809104052E
:105AA00090E0EB89AE2FB0E09D01220F331F205A0A
:105AB0003D4FAA0FBB1FBD016F597D4F41E0480FFD
:105AC000941508F482C1809304055394CC0CDD1C1A
:105AD000EFEF2E1A3E0AFFE05F1284CFE989FA89C0
